:020000040800F2
:1000000080150020D1160008F5020008F70200084C
:10001000FB020008FF0200080303000800000000C4
:1000200000000000000000000000000007030008BE
:1000300009030008000000000B0300080D0300087E
:10004000EB160008EB160008EB160008EB1600088C
:10005000EB160008EB160008EB160008EB1600087C
:10006000EB160008EB1600086B050008EB160008FD
:10007000EB160008EB160008EB160008EB1600085C
:10008000EB160008EB160008EB160008EB1600084C
:10009000EB160008EB160008EB1600081D0400081C
:1000A000EB160008EB160008EB160008EB1600082C
:1000B000EB160008EB160008EB160008EB1600081C
:1000C000EB160008EB160008EB160008EB1600080C
:1000D000EB160008EB1600080F030008EB160008EB
:1000E00061040008EB160008EB160008EB16000888
:1000F000EB160008EB160008EB160008EB160008DC
:10010000EB160008EB160008EB160008EB160008CB
:10011000EB160008EB160008EB160008EB160008BB
:10012000EB160008EB160008EB160008EB160008AB
:10013000DFF80CD002F0FEFF004800474501000840
:100140008015002000F0BBFA01F018F94FF4A06010
:1001500001F0D0FA00F0C2FC01F0ABF901F072FA44
:1001600001F00AF801F0FBF8A2E0524800780128FB
:1001700009D151480078012805D100024F49086192
:100180004000486105E04FF480704C4948614000F0
:10019000086100F08CFF4A48008802F076FD814635
:1001A0004FF08B4102F0C1FC044602F073FD07469C
:1001B0004FF06632434B02F0F6FC054602F07DFD3F
:1001C0004149086080213D4801F029FA012807D102
:1001D0003EA1404801F02FF84FF4FA7001F00BF9FE
:1001E0003D48006801281DDB4FF4FA7001F003F967
:1001F0003A48006860B903203949086000F0F0FB14
:10020000642001F0F8F800F0D6FE002034490860C0
:1002100032480068012802D10020304908600020DF
:100220002D4908602E480068022809D100F0D8FB4B
:10023000642001F0E0F800F0BEFE002028490860CC
:1002400027480068012809D100F0CAFB642001F0AA
:10025000D2F800F0B0FE0020214908602148006873
:10026000012805D120480068401C1F49086002E0B1
:1002700000201D4908601C4800680A2190FBF1F02D
:100280001A4908601A480068962809D100F0A8FBAE
:10029000642001F0B0F800F08EFE002014490860E0
:1002A000642001F0A8F812480068401C104908605A
:1002B0005BE7000093000020940000200010014044
:1002C0009600002066660A402400002041320D0A94
:1002D00000000000004C0040380000201400002006
:1002E0000C00002000000020300000205C000020F6
:1002F0002C000020704700BFFEE700BFFEE700BFF4
:10030000FEE700BFFEE7704770477047704710B5C3
:100310000121A54801F086FF30B1A34801F018FF84
:100320000121A14801F08BFF08219F4801F07AFFCD
:1003300030B19D4801F00CFF08219B4801F07FFF80
:100340000221994801F06EFF30B1974801F000FF9B
:100350000221954801F073FF40F22551924801F0C7
:1003600077FF38B32021904801F069FF40F2255112
:100370008D4801F097FF07218B4801F053FF08B12A
:10038000012400E00024B4B98848006840F2FF71FD
:10039000884210D2844801F0DBFEC1B28348026873
:1003A0000068401C814B186003F109008154012052
:1003B0001946087202E07C4801F0CAFE7CA17B4825
:1003C000093002F099FB80B140217B4801F027F908
:1003D00058B98021784801F022F9012805D1402040
:1003E000764908608020091D086075A16F480930B2
:1003F00002F082FB88B140216F4801F010F901281A
:100400000BD180216C4801F00AF930B940206B49CA
:10041000091D08608020091F086010BD10B540202C
:1004200002F020FB58B140206449091D086080207B
:100430000860012064490860402002F024FB80200D
:1004400002F010FB58B140205C49091D0860802073
:10045000086000205C490860802002F014FB10BD99
:1004600010B54FF4804002F0FDFA30B3322000F0B6
:10047000C2FF4FF480415148103801F0D0F80128F4
:1004800004D152480068401C504908604F48006839
:1004900002280ED140204949091D08608020091F0B
:1004A000086001204A4908604A490860002047491D
:1004B00008604FF4804002F0E6FA4FF4004002F08A
:1004C000D1FA90B3002044490860962000F093FFD1
:1004D0000DE04FF4C87000F08EFF3F480068401CEC
:1004E0003D49086008460068052800DD07E04FF434
:1004F00000413248103801F092F80128E9D000BFDD
:1005000035480068062809DB40202C49091D086091
:100510008020091F086002202D49086000202E4914
:1005200008604FF4004002F0AEFA4FF4805002F041
:1005300099FAC8B14FF48051284801F070F80128A9
:100540000ED11021254801F06AF8012808D11420A5
:1005500000F051FF4020194908608020091D086003
:100560004FF4805002F08FFA10BD10B5102002F049
:1005700079FAC0B14FF48051184801F050F80128C1
:100580000ED11021154801F04AF8012808D1142095
:1005900000F031FF4020094908608020091D0860F3
:1005A000102002F070FA10BD0044004074090020D1
:1005B000344633333333000000100140100C014047
:1005C000353333343334000000000020380000207D
:1005D0000C0000201400002034000020000801401E
:1005E0000CB50020019000906C48006840F4803009
:1005F0006A49086000BF6948006800F40030009054
:100600000198401C0190009818B90198B0F5A06FAE
:10061000F1D16248006800F4003010B10120009070
:1006200001E0002000900098012843D15C48006858
:1006300040F010005A4908600846006820F00300A6
:1006400008600846006840F00200086053484068AF
:10065000524948600846406848600846406840F48F
:10066000806048600846406820F47C104860084676
:10067000406840F4E81048600846006840F0807028
:10068000086000BF4548006800F000700028F9D0FD
:100690004248406820F003004049486008464068EE
:1006A00040F00200486000BF3C48406800F00C0089
:1006B0000828F9D10CBD10B5FFF792FF10BD10B599
:1006C0003648006840F00100344908600846406838
:1006D00034490840314948600846006832490840BA
:1006E0002E4908600846006820F48020086008460B
:1006F000406820F4FE0048604FF41F008860FFF758
:10070000DAFF4FF000602949086010BD10B50021E4
:1007100000200022214B5B6803F00C0121B1042969
:1007200006D0082928D107E0214B224C236027E07E
:100730001F4B204C236023E0184B5B6803F47010C0
:10074000164B5B6803F48032022303EB904022B91E
:10075000194B4343174C23600DE0104B5B6803F4C7
:10076000003323B1144B4343124C236003E0104B7E
:100770004343104C236003E00D4B0E4C236000BF3D
:1007800000BF064B5B68C3F303130C4CE15C094BE1
:100790001B68CB40074C236010BD000000100240D6
:1007A000002002400000FFF8FFFFF6FE08ED00E029
:1007B00000127A004400002000093D00480000209B
:1007C00070B51421AA4802F080F93C21A94802F032
:1007D0007CF9A949A64802F083F9A8A1A44802F02F
:1007E0007FF9002500241CE0A148005D30280BDBC8
:1007F0009F48005D392807DC33209E4948559C48B6
:10080000015D9C4A681C11549948005D202806D15E
:100810003220984948553021964A681C1154AD1C25
:10082000641C9348005D0028DED170BD2DE9F041C5
:10083000934800210160416001811E21914802F02E
:1008400044F99148006802F025FA064632460B4604
:100850008EA18B4802F0B2FC88A1894802F040F9D1
:100860000024002532E08648405D30280BDB8448B8
:10087000405D392807DC3320824908558048415DB6
:10088000804A601C11547E48405D202806D13220E9
:100890007C49085530217B4A601C11547848405DE2
:1008A0002D2806D13220774908554421754A601C0D
:1008B00011547348405D2E2806D1322071490855E5
:1008C0004521704A601C1154A41C6D1C6C48405D8D
:1008D0000028C8D1BDE8F08170B56E4800210160E4
:1008E000416001811E216C4802F0EFF86B486CA159
:1008F0000268684802F062FC60A1664802F0F0F805
:10090000002500241CE06348005D30280BDB6148B3
:10091000005D392807DC33205F4948555D48015D9B
:100920005D4A681C11545B48005D202806D13220C6
:10093000594948553021584A681C1154AD1C641C53
:100940005448005D0028DED170BD2DE9F0415548C6
:1009500000210160416001811E21534802F0B5F879
:100960005248006802F096F9064632460B4650A1FE
:100970004C4802F023FC41A14A4802F0B1F800249F
:10098000002527E04748405D30280BDB4548405DA7
:10099000392807DC3320444908554248415D424A22
:1009A000601C11543F48405D202806D132203E494A
:1009B000085530213C4A601C11543A48405D2E28AD
:1009C00006D13220384908554521374A601C115458
:1009D000A41C6D1C3348405D0028D3D1BDE8F081D4
:1009E00010B54FF48061344802F06FF8FFF7E8FE6D
:1009F000FFF71CFFFFF770FF1E492F4802F070F849
:100A000020492D4802F06CF82C48006818B92C4990
:100A1000294802F065F829480068012803D12949CE
:100A2000254802F05DF81C49234802F059F8264891
:100A3000006818B92549204802F052F82248006899
:100A4000012803D122491C4802F04AF81E480068D8
:100A5000022803D11F49184802F042F81A480068DA
:100A6000032803D11C49144802F03AF810BD0000D5
:100A7000B0000020C4000020600900202000000019
:100A8000000100200A01002058000020252E3166B8
:100A90000000000028010020320100205C0000203E
:100AA00025640000500100205A0100206000002051
:100AB000252E326600000000780100200000002092
:100AC0008A000020850000200C0000207E0000200D
:100AD00070000020770000206900002000B587B07A
:100AE0000121042001F090F90121480401F099F955
:100AF0000420ADF8180018208DF81B0003208DF895
:100B00001A0006A9FE4800F0C3FE0820ADF8180040
:100B100004208DF81B0006A9F94800F0B9FE4FF437
:100B2000165002900020ADF80C00ADF80E00ADF8A4
:100B30001000ADF814000C20ADF8120002A9F14825
:100B400001F009FA4FF4A06000F0D4FD26208DF8E2
:100B5000040002208DF8050001208DF806008DF8B4
:100B6000070001A800F0CBFD012240F22551E54825
:100B700001F089FA0121E34801F079FA07B000BDDC
:100B800070B504460D462946204601F0DDFA00BF47
:100B90008021204601F046FB0028F9D070BD2DE9E8
:100BA000F04107460D461646002405E0295D38460B
:100BB000FFF7E6FF601CC4B2B442F7DB00BF402180
:100BC000384601F02FFB0028F9D0BDE8F08170B560
:100BD00006460C46002500BF615D3046FFF7D0FF9A
:100BE0006D1C605D0028F7D100BF4021304601F048
:100BF00019FB0028F9D070BD2DE9F04105460C46DF
:100C0000260AE7B23146284601F09EFA00BF80214D
:100C1000284601F007FB0028F9D03946284601F0A4
:100C200093FA00BF8021284601F0FCFA0028F9D091
:100C3000BDE8F08170B504460D46E1B2B14801F05F
:100C400083FA00BF8021AF4801F0ECFA0028F9D008
:100C5000204670BD10B5044600BF2021A94801F010
:100C6000E1FA0028F9D0A74801F072FA10BD70B57A
:100C700004460D460DE000BF4021A24801F0D2FA23
:100C80000028F9D014F8011B9E4801F05DFA681E97
:100C900085B2002DEFDC70BD10B500209A490860C8
:100CA00008724FF400619848093001F00EFF10BD42
:100CB0002DE9F04188B005460C460026002706E0E5
:100CC00014F8012B3046711CCEB20DF800202078AC
:100CD0000028F5D1FFF7E0FF284601F01FFF1FFABB
:100CE00080F841462846FFF7C2FF4FF47A7000F0C3
:100CF00082FB8548007A01280CD10CB901270AE053
:100D000069468148093001F0F7FE08B1012702E089
:100D1000002700E00027012F03D1002008B0BDE824
:100D2000F0810120FAE73EB5784A07CA8DE807004E
:100D3000FFF7B2FF1421764801F0C7FE4FF4FA70B6
:100D400000F059FB73A16846FFF7B2FF08BB00240F
:100D5000002512E06C480930005D30280BDB6A4842
:100D60000930005D392806DC67480930005D6849B4
:100D70004855681CC5B2601CC4B26348093001F014
:100D8000CDFEA042E6D80E2D2EDB00206249087071
:100D90002AE040F2DC5000F02EFB5EA15A480930F8
:100DA00001F0AAFE00B30024002512E056480930E5
:100DB000005D30280BDB54480930005D392806DC23
:100DC00051480930005D52494855681CC5B2601C45
:100DD000C4B24D48093001F0A1FEA042E6D80E2D64
:100DE00002DB00204C4908703EBD0EB5474A0C326C
:100DF00007CA8DE80700FFF74FFF4FF4FA7000F0C5
:100E0000FAFA44A16846FFF753FF0EBD10B586B04D
:100E10003E4B18330FCB02AC0FC440A103C9CDE940
:100E2000000100240FE01DF804008DF81100FFF709
:100E300033FF4FF4FA7000F0DEFA36A102A8FFF794
:100E400037FF601CC4B2072CEDDB01203549087068
:100E500006B010BD30B58BB020222C49283103A834
:100E600001F01AFE30A103C9CDE90101002537E0E8
:100E700001A8405D8DF82000FFF70EFF4FF4FA70D7
:100E800000F0B9FA23A103A8FFF712FF30BB00243A
:100E900014E01D480930005D30280DDB1A48093088
:100EA000005D392808DC18480930005D20490870C9
:100EB00001202049087007E0601CC4B212480930C4
:100EC00001F02CFEA042E4D800BF19480078302879
:100ED00004DB17480078392800DC03E0681CC5B241
:100EE000062DC5DB00BF062D08DB11480078612800
:100EF00004D100200B4908700E4908700BB030BDBA
:100F0000000801400044004074090020C03A000875
:100F1000600900204F4B0000920000203031323336
:100F2000343536009000002031323334353600003D
:100F3000950000209100002000B59BB0122116A85A
:100F400001F0C3FD20227C490EA801F0A5FD12216D
:100F500009A801F0BAFD20227749203101A801F04B
:100F60009BFD764800788DF84100FFF795FEC8207C
:100F700000F041FAAFF264010EA8FFF799FE18B92C
:100F800001206F49087014E040F2DC5000F033FAA1
:100F9000AFF280016B4801F0AFFD18B10120684944
:100FA000087006E0002068490870684908706449C4
:100FB00008701BB000BD10B588B065A207CA05ABAC
:100FC00007C35F48007801286FD15C480078019022
:100FD0004FF47A71614801F078FD614801F09EFD9F
:100FE000440822465FA102A802F0E8F805A95B4880
:100FF00001F076FD01A9594801F072FD5AA1574848
:1010000001F06EFD02A9554801F06AFD56A1534852
:1010100001F066FD5249514801F062FD53A14F486D
:1010200001F05EFDFFF738FE4FF47A7000F0E3F94F
:10103000AFF220114948FFF73BFE18B901204D4996
:10104000087032E040F2DC5000F0D5F9AFF23C110C
:101050003C4801F051FD18B101204649087024E0D8
:1010600040F2DC5000F0C7F9AFF25811354801F0FA
:1010700043FD18B101203F49087016E040F2DC50F2
:1010800000F0B9F9AFF274112E4801F035FD18B136
:1010900001203849087008E000202B4908702B49CE
:1010A0000870274908703349087008B010BD10B5A2
:1010B00025480078E8B9FFF7EFFD642000F09BF9C0
:1010C000FFF793FE642000F096F9FFF7E5FD64203A
:1010D00000F091F9FFF79AFE642000F08CF9FFF719
:1010E000DBFD642000F087F9FFF71DFE642000F0AF
:1010F00082F91648007868B913480078012809D1A8
:10110000FFF7CAFD642000F076F9FFF7A3FE642024
:1011100000F071F90A48007868B90C480078012895
:1011200009D1FFF7B9FD642000F065F9FFF704FF6E
:10113000642000F060F910BD083B00089500002015
:10114000930000207D0900209000002091000020E5
:1011500041542B4E534F53443D000000780500206E
:1011600078010020256400002C0000002C2C340D98
:101170000A0000009400002000B585B00121C804D9
:1011800000F04FFE0121102000F03EFE4FF4806081
:10119000ADF8100018208DF8130003208DF8120010
:1011A00004A92C4800F074FB4FF40060ADF8100067
:1011B00004208DF8130004A9264800F069FB4FF4C1
:1011C000165000900020ADF80400ADF80600ADF810
:1011D0000800ADF80C000C20ADF80A0069461E4866
:1011E00000F0B9FE01211C4800F041FF40211A48DF
:1011F00001F025F805B000BD70B504460D4629463E
:10120000204600F0A1FF00BF8021204601F00AF82F
:101210000028F9D070BD2DE9F04107460D4616466D
:10122000002400BF295D3846FFF7E6FF641CB44286
:10123000F8D3BDE8F08170B506460C46002500BF26
:10124000615D3046FFF7D8FF6D1C605D0028F7D167
:1012500070BD000000100140004C004008B50121A5
:10126000102000F0D1FD0220ADF8000000208DF824
:10127000030069463D4800F00BFB08BD00B591B086
:101280000121084600F0B3FD0121480200F0BCFD39
:10129000374801F049FA3748069037480790002050
:1012A00008900120099000200A900B904FF4807064
:1012B0000C9080000D9020200E9000020F900020D6
:1012C000109006A92A4801F0D1FA0121284801F01E
:1012D000F8FA002001908DF8080001208DF809002F
:1012E0004FF4602003900020049001208DF814003A
:1012F00001A920484C3801F016F84FF4404000F0A6
:10130000E7FC052301220B211A484C3801F0A3F811
:10131000012118484C3801F03DF8012115484C389E
:1013200001F02DF813484C3801F04BF800BF11487C
:101330004C3801F04BF80028F9D10E484C3801F038
:101340004FF800BF0B484C3801F04FF80028F9D196
:10135000012108484C3801F052F811B000BD10B519
:10136000FFF77CFFFFF78AFF10BD0000001001406F
:10137000080002404C2401409600002010B56FF098
:10138000040000F006FA2E4800682E49B0FBF1F088
:101390002D4908700846007800EB4001C1EBC010F1
:1013A0004FF6FF7101EAC0002849088010BD0146D0
:1013B000254A12784A434FF0E0235A6100229A618D
:1013C0001A46126942F001021A6100BF4FF0E02292
:1013D000106900F001021AB100F48032002AF5D041
:1013E0004FF0E022126922F001024FF0E0231A616F
:1013F00000229A6170470146144A12884A434FF00E
:10140000E0235A6100229A611A46126942F00102F1
:101410001A6100BF4FF0E022106900F001021AB11A
:1014200000F48032002AF5D04FF0E022126922F059
:1014300001024FF0E0231A6100229A617047000018
:101440004400002000127A00980000209A0000203A
:1014500008B54FF4A06000F04DF917208DF800009A
:1014600001208DF801008DF802008DF80300684618
:1014700000F045F917208DF80000684600F03FF9AC
:1014800028208DF80000684600F039F928208DF8F2
:101490000000684600F033F928208DF80000684607
:1014A00000F02DF90A208DF80000684600F027F9B9
:1014B00008BD0EB501211D2000F0A6FCFFF7C8FFF6
:1014C0004020ADF8080004208DF80B0002A95A480E
:1014D00000F0DEF90621022000F0F0FA4020009032
:1014E00000208DF804000C208DF8050001208DF8F7
:1014F0000600684601F050FA8020ADF8080004208C
:101500008DF80B0002A94C4800F0C2F90721022017
:1015100000F0D4FA8020009000208DF804000C2008
:101520008DF8050001208DF80600684601F034FAB8
:101530004FF48040ADF8080004208DF80B0002A99C
:101540003E4800F0A5F90E21012000F0B7FA4FF453
:101550008040009000208DF804000C208DF80500DC
:1015600001208DF80600684601F016FA4FF400409D
:10157000ADF8080004208DF80B0002A92F4800F0F8
:1015800087F90F21012000F099FA4FF400400090F4
:1015900000208DF804000C208DF8050001208DF846
:1015A0000600684601F0F8F94FF48050ADF80800E5
:1015B00004208DF80B0002A9214800F069F90C21E4
:1015C000002000F07BFA4FF48050009000208DF84E
:1015D00004000C208DF8050001208DF806006846F7
:1015E00001F0DAF91020ADF8080004208DF80B00A6
:1015F00002A9134800F04CF90421002000F05EFA23
:101600001020009000208DF804000C208DF80500BB
:1016100001208DF80600684601F0BEF90EBD70B5D8
:1016200004460D462946204600F0C5F908B90120B8
:1016300070BD0020FCE7000000100140000C0140DC
:101640000008014008B50121182000F0DDFB402012
:10165000ADF8000010208DF8030003208DF8020083
:101660006946194800F014F98020ADF80000694679
:10167000154800F00DF94FF48070ADF80000694690
:10168000124800F005F94FF40070ADF8000069460B
:101690000E4800F0FDF840210B4800F0A6F980212B
:1016A000094800F0A2F94FF48071084800F09DF954
:1016B0004FF40071054800F098F908BD4022024B34
:1016C00014331A6070470000000C01400010014004
:1016D0000648804706480047FEE7FEE7FEE7FEE7CC
:1016E000FEE7FEE7FEE7FEE7FEE7FEE7BF060008CF
:1016F0003101000831490143314A1160704770B52A
:10170000002100230F22C47804B32D4C246804F474
:10171000E064C4F5E064210AC1F10403CA404478DE
:1017200004FA03F18478144021430901254C06781A
:10173000A155047804F01F050124AC4005786D1113
:10174000AD0005F1E025C5F8004109E0047804F09A
:101750001F050124AC401C4D0678761145F8264043
:1017600070BD1A4A0A400243154B1B1F1A6070478E
:1017700039B1134A121D12680243114B1B1D1A6026
:1017800006E00F4A121D126882430D4B1B1D1A60A2
:101790007047042808D14FF0E021096941F00401A5
:1017A0004FF0E022116107E04FF0E021096921F0DC
:1017B00004014FF0E0221161704700000000FA05BB
:1017C0000CED00E000E400E080E100E080FFFF1F9E
:1017D00010B50446CC48844208D10121042000F011
:1017E0002DFB0021042000F029FB46E0C74884427D
:1017F00008D10121082000F021FB0021082000F081
:101800001DFB3AE0C248844208D10121102000F0BB
:1018100015FB0021102000F011FB2EE0BD48844292
:1018200008D10121202000F009FB0021202000F038
:1018300005FB22E0B848844208D10121402000F095
:10184000FDFA0021402000F0F9FA16E0B348844286
:1018500008D10121802000F0F1FA0021802000F061
:10186000EDFA0AE0AE48844207D10121801500F06C
:10187000E5FA0021A01500F0E1FA10BD10B5012134
:10188000084600F0DBFA0021012000F0D7FA10BD75
:101890002DE9F04102460025002600200023002407
:1018A000002791F803C00CF00F0591F803C00CF06D
:1018B000100CBCF1000F03D091F802C04CEA0505F2
:1018C00091F800C0BCF1000F31D0146800202BE06B
:1018D0004FF0010C0CFA00F3B1F800C00CEA03065B
:1018E0009E4220D183004FF00F0C0CFA03F7BC434B
:1018F00005FA03FC4CEA040491F803C0BCF1280F7C
:1019000006D14FF0010C0CFA00FCC2F814C00AE03A
:1019100091F803C0BCF1480F05D14FF0010C0CFA4F
:1019200000FCC2F810C0401C0828D1D31460B1F8E4
:1019300000C0BCF1FF0F34DD546800202EE000F140
:10194000080C4FF0010808FA0CF3B1F800C00CEADB
:1019500003069E4221D183004FF00F0C0CFA03F7CF
:10196000BC4305FA03FC4CEA040491F803C0BCF143
:10197000280F05D100F1080C08FA0CF8C2F8148001
:1019800091F803C0BCF1480F07D100F1080C4FF0EB
:10199000010808FA0CF8C2F81080401C0828CED3C1
:1019A0005460BDE8F0814FF6FF7101800221817023
:1019B0000421C17070470246002093680B400BB1B0
:1019C000012000E0002070470146886880B270471F
:1019D00002460020D3680B400BB1012000E000203C
:1019E00070470146C86880B2704701617047416125
:1019F00070470AB1016100E041617047C160704702
:101A00004FF480320A438261816182618269826916
:101A1000704702460020434B18684FF68073184009
:101A200040EA021008433F4B186070473E49C861C6
:101A30007047F0B50A46002300240021002500F07D
:101A40000046B6F1004F02D1364EF16901E0354E45
:101A50007168C0F3034583B200F44016B6F5401F29
:101A600008D121F070612F4E766826F070662D4FF8
:101A70007E6012E000F48016B6F5801F06D10326C2
:101A800006FA05F4A14341F0706106E0460D360107
:101A900003FA06F6B14341F0706122B1460D3601FA
:101AA00003FA06F6314300F00046B6F1004F02D1CA
:101AB0001C4EF16101E01B4E7160F0BD30B500229B
:101AC0008B071C0F0F2303FA04F2164B08338C10FC
:101AD00053F824309343134C08348D1044F82530C8
:101AE00023468C1053F824308C07240F00FA04F49A
:101AF00023430C4C08348D1044F8253030BD0A497E
:101B0000DC3108607047000000080140000C014013
:101B1000001001400014014000180140001C014069
:101B2000002001400000014000002042DF48006822
:101B300040F00100DD49086008464068DC49084083
:101B4000DA49486008460068DA490840D749086021
:101B50000846006820F4802008600846406820F4A9
:101B6000FE0048604FF41F0088607047CF49096845
:101B700021F48031CD4A11601146096821F4802199
:101B80001160B0F5803F03D0B0F5802F0ED106E094
:101B9000C649096841F48031C44A116007E0C3496D
:101BA000096841F4A021C14A116000E000BF00BFF4
:101BB000704710B501460022002300204A11012A77
:101BC00002D1BA4C236806E0022A02D1B74C236A3C
:101BD00001E0B64C636A01F01F02012494401C40EE
:101BE0000CB1012000E0002010BD38B500200090AD
:101BF0000024002500BF3120FFF7DBFF05460098D9
:101C0000401C00900098B0F5A06F01D0002DF2D0DC
:101C10003120FFF7CEFF08B1012400E00024204668
:101C200038BD01460020A14A106820F0F80040EAC3
:101C3000C10010607047A04908607047024600204C
:101C40009A4B586820F47C1042EA01031843974BE2
:101C50005860704798490866704701460020934ACB
:101C6000506820F003000843506070478F48406878
:101C700000F00C007047014600208C4A506820F0AC
:101C8000F00008435060704701460020874A5068C2
:101C900020F4E06008435060704701460020834A0A
:101CA000506820F4605040EAC1005060704729B18C
:101CB0007E4A527A02437D4B5A7204E07B4A527A42
:101CC00082437A4B5A7270477B49D831086070471B
:101CD00001460020754A506820F440400843506097
:101CE00070470021714A20321170704A82F820102A
:101CF000012802D004280AD104E001216B4A2032D5
:101D0000117005E00521694A2032117000E000BF22
:101D100000BF70476949086070476449096A014318
:101D2000624A11627047654944390860704730B5AE
:101D300000210022002400235C4D6D6805F00C0199
:101D400021B1042905D0082923D105E05C4D0560A7
:101D500022E05B4D05601FE0544D6D6805F4701284
:101D6000524D6D6805F48034022505EB92421CB992
:101D7000544D554305600BE04C4D6D6805F400353E
:101D80001DB1504D5543056002E04D4D5543056072
:101D900002E04B4D056000BF00BF444D6D6805F08B
:101DA000F0010909484D6B5C0568DD4045603F4D19
:101DB0006D6805F4E061090A434D6B5C4568DD40E0
:101DC00085603A4D6D6805F46051C90A3E4D6B5C03
:101DD0004568DD40C560354D6D6805F44041890BAF
:101DE0003A4D6B5CC568B5FBF3F5056130BD29B1B3
:101DF0002E4A526902432D4B5A6104E02B4A526924
:101E000082432A4B5A61704729B1284A926902439A
:101E1000264B9A6104E0254A92698243234B9A61DA
:101E2000704729B1214AD2690243204BDA6104E0AC
:101E30001E4AD26982431D4BDA61704729B11B4AA1
:101E4000D2680243194BDA6004E0184AD268824330
:101E5000164BDA60704729B1144A12690243134BDA
:101E60001A6104E0114A12698243104B1A617047EB
:101E700012494039086070470F49C86470470B49E0
:101E8000C87170470948406A40F08070074948624D
:101E9000704701460020054A92680A400AB10120B5
:101EA00000E000207047014988727047001002402E
:101EB0000000FFF8FFFFF6FE0000424280044242AD
:101EC00000127A0000093D009C000020AC000020B8
:101ED00010B50446FB48844209D101218803FFF76D
:101EE000ADFF00214FF48040FFF7A8FF32E0F64835
:101EF000844209D101214804FFF7ADFF00214FF4CE
:101F00000030FFF7A8FF25E0F048844209D1012105
:101F10008804FFF7A0FF00214FF48020FFF79BFF0C
:101F200018E0EB48844209D10121C804FFF793FF70
:101F300000214FF40020FFF78EFF0BE0E5488442BC
:101F400008D101210805FFF786FF00214FF480101A
:101F5000FFF781FF10BD2DE9F04786B005460E461C
:101F60000024A24600BFA1460027B08900B100BFEF
:101F70002F462C8A4CF6FF700440F08804432C82D4
:101F8000AC894EF6F3100440B0883189084371895A
:101F900008430443AC81AC8A4FF6FF400440B0894B
:101FA0000443AC8201A8FFF7C2FEC648874202D1B3
:101FB000DDF810A001E0DDF80CA0A88900F40040D5
:101FC00040B10AEBCA0000EB0A1031684900B0FBCF
:101FD000F1F807E00AEBCA0000EB0A10316889004B
:101FE000B0FBF1F86420B8FBF0F004012009642193
:101FF00001FB1089A88900F4004040B1322000EBB9
:10200000C900B0FBF1F000F00700044308E0322003
:1020100000EB09106421B0FBF1F000F00F00044365
:102020002C8106B0BDE8F0874FF416510160002105
:102030008180C18001810C21418100218181704713
:1020400010B502460020108A4FF2FF0318400B889B
:102050004C8823438C882343CC8823431843108225
:1020600010BD0021018041808180C180704721B175
:10207000828942F40052828104E082894DF6FF7326
:102080001A4082817047F0B50346002400260025DF
:10209000002040F66A17B94200D100BF1846C1F3CC
:1020A000421401F01F06012707FA06F5012C01D1A1
:1020B0000C3004E0022C01D1103000E014301AB1D1
:1020C00007682F43076002E00768AF430760F0BD71
:1020D0001AB1838A0B43838202E0838A8B43838213
:1020E0007047028A4FF6F0731A400282028A0A434E
:1020F0000282704782894FF2FF731A40828182897F
:102100000A438281704721B1828942F002028281B2
:1021100004E082894FF6FD731A4082817047028A7B
:102120004FF6DF731A400282028A0A430282704726
:1021300021B1028A42F48042028204E0028A4BF614
:10214000FF731A4002827047C1F308028280704711
:1021500001468888C0F308007047818941F0010179
:1021600081817047028BD2B20283028B42EA012244
:1021700002837047028B02F47F420283028B0A4380
:102180000283704721B1828A42F02002828204E0F9
:10219000828A4FF6DF731A408282704721B1828AA9
:1021A00042F01002828204E0828A4FF6EF731A40F6
:1021B0008282704721B1828A42F00802828204E062
:1021C000828A4FF6F7731A408282704721B1828962
:1021D00042F40042828103E08289C2F30E028281CE
:1021E000704721B1828A42F40062828204E0828ACE
:1021F0004FF2FF731A4082827047828A4FF6FB7358
:102200001A408282828A0A438282704721B1828A7E
:1022100042F00202828204E0828A4FF6FD731A4085
:102220008282704702460020B1F5007F00D100BFD6
:1022300013880B400BB1012000E00020704701F42F
:102240000072B2F5007F00D100BFCA430280704720
:1022500070B50246002400230025002040F66A16CF
:10226000B14200D100BFC1F3421501F01F030126A6
:1022700006FA03F3012D02D19689334006E0022DC0
:1022800002D1168A334001E0968A33400C120126AF
:1022900006FA04F41688344013B10CB1012000E0B2
:1022A000002070BD10B50022002340F66A14A14240
:1022B00000D100BF0A1201249440A3B2DC43048081
:1022C00010BD0000003801400044004000480040BC
:1022D000004C00400050004010B50446FA488442CB
:1022E00008D101214015FFF7A9FD00216015FFF776
:1022F000A5FD17E0F548844208D101210015FFF73C
:102300009DFD00212015FFF799FD0BE0F048844268
:1023100008D10121C803FFF791FD00214FF40040CF
:10232000FFF78CFD10BD30B5024600200023506839
:10233000E84C20400D790C6844EA052420435060A5
:102340009068E54C2040D1E902542C434D7944EA91
:10235000450420439060D06A20F470000C7C641E19
:10236000E4B2234340EA0350D06230BD0021016053
:10237000017141718160C16001210174704721B117
:10238000826842F00102826003E0826822F001026A
:102390008260704721B1826842F48072826003E0FB
:1023A000826822F480728260704710B50023CBB23D
:1023B0001AB144681C43446002E044689C43446092
:1023C00010BD816841F0080181607047014600201E
:1023D0008A6802F008020AB1012000E0002070477C
:1023E000816841F0040181607047014600208A68DD
:1023F00002F004020AB1012000E00020704721B180
:10240000826842F4A002826003E0826822F4A002A3
:1024100082607047014600208A6802F480020AB197
:10242000012000E00020704710B50A46002100237B
:10243000416821F46041531E41EA4331416010BDBF
:1024400021B1426842F40062426003E0426822F433
:10245000006242607047F0B504460D46002000213E
:10246000092D11DDE068A5F10A0606EB46070726EF
:1024700006FA07F18843A5F10A0606EB460603FAB9
:1024800006F10843E0600CE0206905EB45070726EC
:1024900006FA07F1884305EB450603FA06F10843FF
:1024A0002061072A0FDA606B561E06EB86071F268F
:1024B00006FA07F18843561E06EB860605FA06F172
:1024C0000843606322E00D2A0FDA206BD61F06EB6B
:1024D00086071F2606FA07F18843D61F06EB8606F5
:1024E00005FA06F10843206310E0E06AA2F10D0648
:1024F00006EB86071F2606FA07F18843A2F10D06B0
:1025000006EB860605FA06F10843E062F0BD21B14C
:10251000826842F48012826003E0826822F48012B2
:10252000826070470146C86C80B2704766484C3084
:102530000068704721B1426842F48062426003E063
:10254000426822F480624260704721B1426842F4DE
:102550008052426003E0426822F480524260704739
:102560000A460021816821F4E041114381607047EF
:1025700021B1826842F40042826003E0826822F462
:1025800000428260704721B1826842F40212826088
:1025900003E0826822F40212826070470146002044
:1025A0008A6802F400120AB1012000E0002070479E
:1025B000F0B504461546002000220026092911DD49
:1025C000E068A1F10A0707EB470C072707FA0CF2AE
:1025D0009043A1F10A0707EB470703FA07F21043FC
:1025E000E0600CE0206901EB410C072707FA0CF2D0
:1025F000904301EB410703FA07F210432061A06BFF
:10260000C0F30156EF1C06F1010CA7EB0C0707EB1A
:10261000870C1F2707FA0CF29043EF1C06F1010C00
:10262000A7EB0C0707EB870701FA07F21043A0633B
:10263000F0BD10B50A4600210023816B21F4401142
:10264000531E41EA0351816310BD08B50023009376
:102650000090009B0B440093009B1A6008BD08B5D6
:10266000024600200090009201F12800009B1844CF
:1026700000900098006880B208BD0A4600214168B9
:10268000164B1940114341607047416282627047A6
:102690000A460021416821F01F0111434160704743
:1026A00040B109490831096841F40001064A08327D
:1026B000116007E004490831096821F40001024A69
:1026C00008321160704700000024014000280140DA
:1026D000003C0140FFFEF0FFFDF7F1FFFFFD3FFF73
:1026E0000246002013680B400BB1012000E00020DF
:1026F0007047CA430260704770B50246002000234D
:1027000000240B125568CEB205EA060415681D4078
:1027100015B10CB1012000E0002070BD00220A12AA
:10272000D34303607047000001684FF6FE7211400A
:1027300001600021016041608160C1608D49884273
:1027400008D18C490839496841F00F01894A083A93
:1027500051608AE087491431884208D18549083997
:10276000496841F0F001834A083A51607DE08149AF
:102770002831884208D17F490839496841F470619D
:102780007C4A083A516070E07A493C31884208D16D
:1027900078490839496841F47041764A083A5160ED
:1027A00063E074495031884208D172490839496858
:1027B00041F470216F4A083A516056E06D49643126
:1027C000884208D16B490839496841F47001694A67
:1027D000083A516049E067497831884208D1654933
:1027E0000839496841F07061624A083A51603CE03A
:1027F0006149884206D1011F096841F00F01021F9B
:10280000116032E05C491431884208D15A49091FED
:10281000096841F0F001584A121F116025E056493D
:102820002831884208D15449091F096841F4706170
:10283000514A121F116018E04F493C31884208D1BB
:102840004D49091F096841F470414B4A121F11603C
:102850000BE049495031884207D14749091F0968AF
:1028600041F47021444A121F1160704710B50022D4
:10287000026847F6F0739A430C6A8B6823430C692D
:1028800023434C6923438C692343CC6923434C6A1B
:1028900023438C6A23431A430260CB6843600B686E
:1028A00083604B68C36010BD00210160416081609E
:1028B000C160016141618161C16101624162816206
:1028C000704721B1026842F00102026004E0026830
:1028D0004FF6FE731A40026070471AB103680B434B
:1028E000036002E003688B430360704741607047F8
:1028F0000146486880B2704701460020002201F07E
:1029000080531BB11C4B083B1A6802E0194B083B73
:102910001A6802EA01030BB1012000E000207047B1
:1029200000F0805119B11449091F086002E01149F3
:1029300008394860704701460020002201F08053AA
:102940001BB10D4B083B1A6802E00A4B083B1A68A2
:1029500002EA01030BB1012000E00020704700F003
:10296000805119B10449091F086002E00149083982
:1029700048607047080002400804024000204449B3
:102980000860091D0860091D0860091D08604148AC
:102990003F4914310860704700213D498279002A7F
:1029A0003AD00A46126803689A430B461A600A1D19
:1029B000126803689A430B1D1A60027911440A6871
:1029C00003681A430A60324A0832126803689A435D
:1029D0002F4B08331A601A1D126803689A432C4B58
:1029E0000C331A604279102A0ED11A1F126803683C
:1029F0001A43274B08331A601A1D126803681A43DA
:102A0000234B0C331A600DE02149427911440A68C6
:102A100003681A430A6005E0027911440A680368F2
:102A20009A430A6070470021016001710C214171D5
:102A30000021817170471649103109680143144A19
:102A400010321160704701460020114A143212689A
:102A50000A400AB1012000E0002070470C491431FF
:102A600008607047014600200022094B1B6803EAFA
:102A70000102074B14331B680B4013B10AB101204C
:102A800000E00020704702491431086070470000E0
:102A900000040140FFFF0F0040EA01039B0703D041
:102AA00009E008C9121F08C0042AFAD203E011F88D
:102AB000013B00F8013B521EF9D27047D2B201E04F
:102AC00000F8012B491EFBD270470022F6E710B533
:102AD00013460A4604461946FFF7F0FF204610BD8C
:102AE000421E12F8013F002BFBD111F8013B02F806
:102AF000013B002BF9D1704730B505462A460B46FD
:102B000012F8010B13F8014B08B1A042F8D01CB128
:102B1000002802D06D1CF1E7284630BD421C10F899
:102B2000011B0029FBD1801A704730B480EA0102F2
:102B300002F0004530F0004221F0004013D090B187
:102B4000C30DD40DC2F31601C0F31600E41A41F40C
:102B5000000140F400027D34914201D3641C00E086
:102B60004900002C02DA30BC002070474FF400000E
:102B70000023914201D3891A034340084FEA4101DF
:102B8000F7D151B1914202D14FF0004105E002D29C
:102B90004FF0010101E06FF0010103EBC450284444
:102BA00030BC00F0EDB82DE9FE4F81EA030404F0DB
:102BB000004421F0004100944FF0000B23F000434B
:102BC00050EA01045ED052EA03045BD0C3F30A5416
:102BD000C1F30A552C44A4F2F3340194A0FB02542F
:102BE000C1F3130141F48011C3F3130343F48013C1
:102BF00001FB024400FB034E840A970A44EA815415
:102C000047EA8357A4FB076802958D0A05FB0785F1
:102C10004FEA932C04FB0C542705029D4FEA0658FB
:102C200047EA1637B5EB08056EEB070C870E920ED8
:102C300047EA811742EA8312A7FB0201B6EB0B01B8
:102C400064EB00042B0D43EA0C335E1844EB1C507C
:102C5000DA465146E7FB0201C5F313044FEA0B3392
:102C600043EA14534FEA0432019C43EA0603A4F1F9
:102C70000C040294009CCDE900B400F0C7F803B046
:102C8000BDE8F08F00200146F9E7962300221146A7
:102C900000F07FB800F0004230F000400AD0C10DD3
:102CA00001F56071C0F3160042EA0151C208400705
:102CB0001143704700200146704701F0004330B4D3
:102CC00021F0004150EA010206D00A0DA2F560721F
:102CD000C1F31301002A02DC30BC00207047440F0E
:102CE00044EAC104C100E01830BC00EBC25000F05F
:102CF00047B830B50B46014600202022012409E0E8
:102D000021FA02F59D4205D303FA02F5491B04FAA4
:102D100002F52844151EA2F10102F1DC30BD2DE9B7
:102D2000F05F0546002092469B468846064681464F
:102D300040241BE0284641464746224600F01BFA45
:102D400053465A46C01A914110D31146184622469E
:102D500000F002FA2D1A67EB01084F4622460120C7
:102D6000002100F0F9F917EB00094E41201EA4F1F3
:102D70000104DFDC484631462A464346BDE8F09F61
:102D80000029A8BF7047401C490008BF20F001007F
:102D9000704710B4B0FA80FC00FA0CF050EA01045D
:102DA00004BF10BC704749B1CCF1200421FA04F4EF
:102DB00011FA0CF118BF012121430843A3EB0C01C8
:102DC000CB1D4FEA00614FEA102042BF002010BC2B
:102DD000704700EBC35010440029A4BF10BC7047DB
:102DE000401C490008BF20F0010010BC704710B51E
:102DF000141E73F1000408DA401C41F1000192181E
:102E00005B411A4301D120F0010010BD2DE9F04DC6
:102E100092469B4611B1B1FA81F202E0B0FA80F21B
:102E20002032904600F098F904460F4640EA0A0026
:102E300041EA0B0153465A46084313D0114653EA60
:102E4000010019D0C8F14002504600F094F905463F
:102E50000E4650465946424600F07EF9084305D0DA
:102E6000012004E020463946BDE8F08D00200543EE
:102E700046EAE0762C4337430A986305E40AA0EB60
:102E800008000022FD0A44EA47540A3002D5002017
:102E90000146E9E7010510196941DDE90845001916
:102EA0006941BDE8F04DA2E72DE9FE4F804681EA79
:102EB0000300C00F0C46009021F0004123F00045B4
:102EC000B8EB0200A94105D24046214690461C4677
:102ED0000B46024623F00040104347D0270DC7F3AE
:102EE0000A00C3F30A510290401A019040286BDA9D
:102EF000C3F3130040F4801B0098924620B10023D6
:102F0000D2EB030A63EB0B0B01985946C0F1400268
:102F1000504600F021F906460D4650465946019AA2
:102F200000F039F910EB08006141002487EA1152E2
:102F300084EAE7731A4340D0009A62B3019A012AE7
:102F40004FEA075215DC001B61EB02014FF0004213
:102F500002EA0752CDE90042001C41F580113246D9
:102F60002B46FFF753FF03B0BDE8F08F40462146E4
:102F7000F9E7001B61EB0201001C41F5801300180A
:102F80005B412018A2F5001747EB030140EAD5701A
:102F9000B6196D4111E06D084FEA360645EAC07575
:102FA0004FEA0752001B61EB0201001C41F5801142
:102FB00049084FEA30000019514132462B4603B010
:102FC000BDE8F04FFFF713BF009801224000002337
:102FD000D0EB020263EBE073009821464FEAE07405
:102FE000B8EB000061EB0401E9E783F000435BE725
:102FF00081F0004158E72DE9F04D81EA030404F027
:10300000004B21F0004514464FF0000A23F0004128
:1030100050EA050220D054EA01021DD0C5F30A5738
:103020000246C5F31303C1F31300C1F30A5640F47B
:10303000801543F48013A7EB0608101BD64608F250
:10304000FD3873EB050002D308F1010801E0921886
:103050005B41B8F1000F03DA00200146BDE8F08DB6
:1030600000204FF48011064684460EE0171B73EBD8
:10307000050705D3121B63EB050306434CEA010C5D
:1030800049084FEA300092185B4150EA0107EDD140
:1030900052EA030012D082EA040083EA05010843E1
:1030A00005D0101BAB4106D20122002306E000220E
:1030B0004FF0004302E06FF0010253101AEB0600DC
:1030C0004CEB085110EB0A0041EB0B01BDE8F04D51
:1030D000FFF78DBEC1F30A52C1F3130140F2FF3373
:1030E00041F480119A4202DA00200146704740F212
:1030F00033439A42A2F2334202DC524200F03BB820
:1031000000F02AB830B5041E71F1000404DB4FF062
:103110000044404264EB0101141E73F1000405DB1E
:103120001C464FF00043524263EB0403994208BF30
:10313000904230BD064C074D06E0E06840F00103C8
:1031400094E8070098471034AC42F6D3FCF7F4FF3C
:10315000483B0008683B0008202A04DB203A00FABC
:1031600002F1002070479140C2F1200320FA03F3DE
:10317000194390407047202A04DB203A21FA02F0DC
:103180000021704721FA02F3D040C2F120029140A1
:10319000084319467047202A06DBCB17203A41FA2C
:1031A00002F043EAE07306E041FA02F3D040C2F1D4
:1031B0002002914008431946704700000FB4084BA5
:1031C00010B504A902AA039800F0DEF8044602A98B
:1031D000002000F070FC204610BC5DF814FB0000DD
:1031E000B73A000802E008C8121F08C1002AFAD145
:1031F00070477047002001E001C1121F002AFBD177
:10320000704700002DE9FF5F82B00021DDE9043046
:10321000020DDDF840B0034318D044F61050A2F27E
:10322000FF3242431514119801281FD0A5EB0B0063
:10323000401C5FEA000A4FF000064E4FDFF838915D
:10324000B046504615D5CAF1000413E01198012488
:103250004AA3012801D16FEA0B010298119AC0E933
:103260000031C0E9024206B0BDE8F09FCBF100009A
:10327000DFE704460021404A491842EB0450CDE9FB
:10328000001012E0E00707D032463B464046494670
:10329000FFF789FC8046894632463B461046194670
:1032A000FFF781FC06460F466410002CEAD1DDE9E9
:1032B0000401DDE90023BAF1000F06DAFFF773FC21
:1032C00042464B46FFF76FFC05E0FFF794FE42468F
:1032D0004B46FFF790FE04460E460022284BFFF7B0
:1032E00011FF03D84FF0FF30014607E00022254BC5
:1032F00020463146FFF7D8FDFFF7ECFE102409E029
:10330000002C0ADB0A220023FFF709FD039B303261
:103310001A55641E50EA0102F2D1641C039AC4F1EA
:1033200011031444119A012A03D0012208430DD13C
:103330000AE0084304D000204FF0110B119072E70F
:10334000A3EB0B056D1E0DE05B4504DD4FF00002A5
:1033500005F1010504E003DA4FF00002A5F10105D3
:10336000002AECD002981199C0E90231C0E9004569
:1033700079E70000000014400000F03F300000003A
:103380000000F0430000E03F2DE9FF4F95B09B4661
:103390008946064600250FE2252877D100242746D6
:1033A000F84A0121059400E0044316F8013F203B50
:1033B00001FA03F01042F7D130782A2811D06FF0CB
:1033C0002F033078A0F13002092A16D8059A44F06C
:1033D000020402EB820203EB42021044761C0590C9
:1033E000EFE759F8042B0592002A03DA504244F41F
:1033F0000054059044F00204761C30782E2816D133
:1034000016F8010F44F004042A280DD06FF02F02A3
:103410003078A0F13003092B09D807EB870302EBC2
:103420004303C718761CF3E759F8047B761C307801
:103430006C280FD006DC4C2817D068280DD06A28DD
:1034400014D104E0742810D07A280FD10DE044F490
:1034500000140AE044F4801401E044F4401472784B
:10346000824202D104F58014761C761C30786628DE
:103470000BD013DC582877D009DC002875D04528FC
:10348000F6D04628F4D047281AD19DE118E06328E9
:1034900035D0642879D0652812D195E1702873D091
:1034A00008DC6728F1D069286FD06E280DD06F280E
:1034B00006D1B5E073282CD0752875D0782874D043
:1034C0005A46179990476D1C75E1C4F302500228C3
:1034D00009D003280DD0D9F8001004280DD00D60B4
:1034E00009F1040967E1D9F80010EA17C1E90052AF
:1034F000F6E7D9F800100D80F2E70D70F0E719F843
:10350000041B8DF8001000208DF80100EA46012010
:1035100003E059F804AB4FF0FF3061074FF00001B2
:1035200002D40DE008F101018846B9420FDA804566
:10353000F8DB1AF808100029F4D108E008F10101BD
:1035400088468142FADB1AF808100029F6D105985E
:103550005B46A0EB080721463846179A00F094FA1C
:10356000284400EB080507E04DE029E10DE01AF8DA
:10357000010B5A4617999047B8F10108F7D25B46FC
:1035800021463846179A13E142E00A220092C4F31A
:1035900002524FF0000A022A08D059F804CB032A3D
:1035A0004FEAEC710AD00DE029E02AE009F10701A9
:1035B00021F00702F2E802C1914609E00FFA8CFC03
:1035C0004FEAEC71042A03D14FFA8CFC4FEAEC71FC
:1035D000002907DA0A460021DCF1000C61EB020148
:1035E0002D2202E0220504D52B228DF80420012291
:1035F00003E0E20701D02022F7E7904659E00A21D4
:1036000002E010220DE010214FF0000A00910BE0C3
:1036100010224FF0000A44F004040827009203E04F
:1036200008224FF0000A0092C4F30252022A05D089
:1036300059F804CB0021032A08D009E009F1070159
:1036400021F00702F2E802C1914605E01FFA8CFC66
:10365000042A01D10CF0FF0C4FF00008220728D5F6
:10366000702806D0009B83F0100353EA0A0305D0AC
:103670000EE040228DF80420012208E05CEA0102FD
:1036800006D030228DF804208DF8050002229046E5
:10369000009B83F0080353EA0A030AD15CEA0102A3
:1036A00001D1620705D530228DF804204FF00108C2
:1036B0007F1E582804D034A003900EA802900DE07D
:1036C00036A0F9E753466046009AFFF728FB844688
:1036D0000398825C0298401E029002705CEA01002E
:1036E000F0D1029806A9081A00F1200A600702D555
:1036F00024F4803400E00127574502DDA7EB0A00DF
:1037000000E0002000EB0A01009005984144401AB7
:103710000590E00306D45B462146179A059800F011
:10372000B3F90544002706E001A85A46C05D179981
:1037300090476D1C7F1C4745F6DBE0030CD55B46CC
:103740002146179A059800F09FF9054404E03020BF
:103750005A46179990476D1C0099481E0090002901
:10376000F5DC08E0029802995A460078491C02915B
:10377000179990476D1CBAF10001AAF1010AF1DC1A
:1037800065E1000009280100303132333435363725
:10379000383961626364656600000000303132339D
:1037A000343536373839414243444546000000003D
:1037B00000F058F90544761C307800287FF4ECAD11
:1037C00019B02846BDE8F08F620700D4062709F13A
:1037D000070222F0070CFCE80223E14603F0004850
:1037E0005FEA080C02D00FF2702C0DE05FEA045C77
:1037F00002D50FF2682C07E05FEAC47C02D00FF21A
:10380000602C01E0AFF2700C4FF0FF3823F0004362
:10381000CDF850C065280CD006DC452809D04628D4
:103820001DD047283DD13DE0662818D067287ED1BD
:1038300038E00021112F01DB112000E0781CCDE9D8
:10384000000106A90EA8FFF7DDFCDDE90F010E9AC5
:1038500003910021009207F1010A04914DE04FF01D
:1038600000400097CDE9011006A90EA8FFF7CAFC99
:10387000DDE90F0203920E9B11990022DDF80CA0E6
:103880000093049211B9791C00EB010AB7EB0A000E
:1038900004D4C0F1FF3007F1010A0490AAEB07003D
:1038A000019044E0012F00DA01270021112F01DDF2
:1038B000112000E03846CDE9000106A90EA8FFF767
:1038C000A1FCDDE90F010E9A039100210491009201
:1038D000BA4621070CD40399514500DA8A46BAF159
:1038E000010F05DD009AAAF10101515C302908D0D1
:1038F000B84202DA10F1040F06DA0121CDE9011015
:1039000015E0AAF10101E9E7002805DC049901446A
:103910000491AAEB000102E0411C514500DD8A46FA
:103920000499401A401C01904FF00040029020077B
:1039300004D40198504501DBCDF8048000208DF8B7
:103940004F0002980DF14F07B0F1004F25D02B200A
:103950000E9002984FF0020800280CDA40420290C4
:103960002D200E9007E00A210298FFF7C2F93031AE
:10397000029007F8011DB8F10001A8F10108F2DC7E
:1039800002980028EFD1791E0E980870307800F068
:10399000200040F0450007F8020D12A8C01B00F1FE
:1039A00007081498007800B1012000EB0A01019883
:1039B00001EBE07105984144401A401E0590E00378
:1039C00006D45B462146179A059800F05DF8054439
:1039D0001498007818B15A46179990476D1CE00367
:1039E00024D55B462146179A059800F04DF805440A
:1039F0001CE00498002807DBDDE90301884203DDB1
:103A00000098405C179901E0179930205A4690477A
:103A1000049805F10105401C04900198401E019096
:103A200004D12E205A46179990476D1CBAF1000117
:103A3000AAF1010ADDDC05E017F8010B5A461799D7
:103A400090476D1CB8F10001A8F10108F4DC5B4659
:103A50002146179A0598ABE62D0000002B000000C8
:103A6000200000002DE9F041044600251E461746BF
:103A7000880404D405E039462020B0476D1C641E3C
:103A8000F9D52846BDE8F0812DE9F041044600252E
:103A90001E469046C80301D5302700E02027880441
:103AA00004D505E041463846B0476D1C641EF9D583
:103AB0002846BDE8F0810A68531C0B6010707047FF
:103AC00041542B4347534E3D310D0A0041542B4E78
:103AD00052420D0A0000000041542B4E534F434CFC
:103AE0003D200D0A0000000041542B4E534F43521D
:103AF0003D2253545245414D222C362C202C320D60
:103B00000A0000000000000041542B4E534F434F69
:103B10003D202C34372E39382E3136312E31393084
:103B20002C35363934390D0A41542B4E534F434FFF
:103B30003D202C34372E3131312E3131322E33307D
:103B40002C31303038370D0A683B00080000002067
:103B5000B0000000E4310008183C0008B00000206C
:103B6000D0140000F4310008000000000000000044
:103B70000000000000000000000000000000000045
:103B80000000000000000000000000000000000035
:103B90000000000000000000000000000000000025
:103BA00000000000000000000000000000A24A0425
:103BB00000000000000000000102030406070809DD
:103BC0003333CA420000000000000000304430419E
:103BD000003433333133310034383331333100344E
:103BE0003333323332003330333033300033313219
:103BF000300033303230000000000000006100006F
:103C000000000000000000000102030401020304A0
:083C100006070809020406087A
:0400000508000131BD
:00000001FF
