:020000040800F2
:100000002821002035250008E5010008E701000847
:10001000EB010008EF010008F301000800000000F8
:10002000000000000000000000000000F7010008D0
:10003000F901000800000000FB010008FD010008B4
:100040004F2500084F2500084F2500084F250008C0
:100050004F2500084F2500084F2500084F250008B0
:100060004F2500084F2500084F2500084F250008A0
:100070004F2500084F2500084F2500084F25000890
:100080004F2500084F2500084F2500084F25000880
:100090004F2500084F2500084F2500084F25000870
:1000A0004F2500084F2500084F2500084F25000860
:1000B0004F2500084F2500084F2500084F25000850
:1000C0004F2500084F2500084F2500084F25000840
:1000D0004F250008FF010008AF0200084F25000867
:1000E0004F2500084F2500084F2500084F25000820
:1000F0004F2500084F2500084F2500084F25000810
:100100004F2500084F2500084F2500084F250008FF
:100110004F2500084F2500084F25000861030008FF
:100120004F2500084F2500084F2500084F250008DF
:10013000DFF80CD004F0CEFD004800474501000870
:100140002821002000F09FF902F08AF94FF4A06006
:1001500002F002FA00F018FA00F05EFB00F00FFC6B
:1001600000F01FFC00F089FC01F010FD02F028F9FE
:1001700031E002F04CF802F029F900F000FC00F048
:1001800010FC01201449087021E0C821134804F034
:100190004EFAC821124804F04AFA4C2300220321E7
:1001A0000D48007800F01DFF4FF4FA7002F095F949
:1001B00001F07CF801F013FC01F047FF4FF4FA70F6
:1001C00002F08BF904480078401C0349087002488B
:1001D00000780A28D9DDCCE747000020A4000020E1
:1001E00076010020704700BFFEE700BFFEE700BFBA
:1001F000FEE700BFFEE7704770477047704710B5D5
:100200000121614802F040FF30B15F4802F0D2FEA8
:1002100001215D4802F045FF08215B4802F034FFF0
:1002200030B1594802F0C6FE0821574802F039FFA4
:100230000221554802F028FF30B1534802F0BAFEBF
:100240000221514802F02DFF40F225514E4802F0A4
:1002500031FF38B320214C4802F023FF40F22551F2
:10026000494802F051FF0721474802F00DFF08B14D
:10027000012400E00024B4B94448006840F2FF7152
:10028000884210D2404802F095FEC1B23F48026851
:100290000068401C3D4B186003F1090081540120A7
:1002A0001946087202E0384802F084FE10BD70B5AD
:1002B0000121374802F0E8FE30B1354802F07AFEFD
:1002C0000121334802F0EDFE0821314802F0DCFE46
:1002D00030B12F4802F06EFE08212D4802F0E1FEF9
:1002E00002212B4802F0D0FE30B1294802F062FE14
:1002F0000221274802F0D5FE40F22551244802F0A1
:10030000D9FE60B340F22551214802F0FDFE0721DD
:100310001F4802F0B9FE08B1012400E000241C4887
:1003200002F048FEC5B21B48008840F2FF718842C7
:1003300015DAA4B9184817490988455415480088A2
:10034000401C144908800121144803F001FE0021DB
:10035000124803F0B7FD0121104803F01FFB70BDE8
:1003600010B501210D4803F0E2FD60B101210B48F9
:1003700003F0EEFD0021094803F010FB01200849BD
:1003800008600849087010BD003801401C150020A5
:100390000044004040000020A40000200014004061
:1003A00088812242420000200CB50020019000907C
:1003B0006C48006840F480306A49086000BF6948B2
:1003C000006800F4003000900198401C01900098F3
:1003D00018B90198B0F5A06FF1D16248006800F437
:1003E000003010B10120009001E000200090009842
:1003F000012843D15C48006840F010005A49086069
:100400000846006820F0030008600846006840F0D5
:1004100002000860534840685249486008464068F6
:1004200048600846406840F480604860084640687C
:1004300020F47C1048600846406840F4E8104860AA
:100440000846006840F08070086000BF45480068BA
:1004500000F000700028F9D04248406820F0030006
:10046000404948600846406840F00200486000BFCC
:100470003C48406800F00C000828F9D10CBD10B5CC
:10048000FFF792FF10BD10B53648006840F001003C
:10049000344908600846406834490840314948609A
:1004A00008460068324908402E490860084600683E
:1004B00020F4802008600846406820F4FE00486070
:1004C0004FF41F008860FFF7DAFF4FF00060294902
:1004D000086010BD10B5002100200022214B5B6890
:1004E00003F00C0121B1042906D0082928D107E026
:1004F000214B224C236027E01F4B204C236023E03C
:10050000184B5B6803F47010164B5B6803F4803281
:10051000022303EB904022B9194B4343174C23604D
:100520000DE0104B5B6803F4003323B1144B4343DD
:10053000124C236003E0104B4343104C236003E054
:100540000D4B0E4C236000BF00BF064B5B68C3F32E
:1005500003130C4CE15C094B1B68CB40074C236038
:1005600010BD000000100240002002400000FFF813
:10057000FFFFF6FE08ED00E000127A000000002008
:1005800000093D000400002008B501211C2002F0F4
:100590006DFB0220ADF8000010208DF80300032051
:1005A0008DF802006946954802F0A4F84FF4006007
:1005B000ADF800006946924802F09CF84FF4805074
:1005C000ADF8000069468E4802F094F81020ADF8AE
:1005D000000069468B4802F08DF80120ADF800005C
:1005E0006946864802F086F80221844802F02FF915
:1005F0004FF40061824802F02AF94FF4805180489C
:1006000002F025F910217F4802F021F901217B48F1
:1006100002F01FF908BD7C488089000A7B490880E8
:1006200008460088B8B90220744910310860800279
:10063000734910310860400008601020714908615A
:1006400001206E49143108603020714948707149A9
:100650004870C87048716D480088012818D1022080
:100660006649143108608002654910310860400015
:100670000860102063490861012060491431086056
:1006800030206349487063494870C8703120487110
:100690005E480088022819D158491031086080024C
:1006A0005749143108604000091F0860102055495F
:1006B00008610120514914310860302054494870C4
:1006C000544948703120C870302048714F48008824
:1006D000032819D102204949143108608002484991
:1006E000143108604000091F086010204549086166
:1006F000012042491431086030204549487045497D
:1007000048703120C87048714048008804281AD1C8
:1007100002203A49103108608002394910310860DE
:100720004000091D08601020364908610120334946
:1007300014310860302036494870312035494870FE
:100740003020C87048713148008805281BD102202C
:100750002A4914310860800229491031086040009C
:10076000091D086010202749086101202349143120
:1007700008603020264948703120264948703020D2
:10078000C8703120487121480088062819D10220FC
:100790001A4910310860800219491431086040007C
:1007A00008601020174908610120144914310860BD
:1007B000302017494870312016494870C8703020E1
:1007C000487112480088072817D102200B491431BC
:1007D000086080020A491431086040000860102057
:1007E0000849486101200549103108603120084955
:1007F000487008494870C87048717047000C014043
:10080000000801400010014076010020280000206F
:10081000140000201E00002008B50121182002F05D
:1008200025FA4FF48070ADF8000004208DF8030025
:100830006946654801F05EFF4FF40070ADF80000B6
:1008400004208DF8030069465F4801F053FF4FF420
:100850008060ADF8000004208DF8030069465A4816
:1008600001F048FF4FF40060ADF8000004208DF85F
:1008700003006946544801F03DFF4FF48050ADF845
:10088000000004208DF8030069464F4801F032FF54
:100890004FF40050ADF8000004208DF803006946C5
:1008A000494801F027FF4FF48040ADF800000420D4
:1008B0008DF803006946444801F01CFF4FF40040E6
:1008C000ADF8000004208DF8030069463E4801F0B1
:1008D00011FF2020ADF8000004208DF803006946C8
:1008E0003A4801F007FF4020ADF8000004208DF8E1
:1008F00003006946354801F0FDFE8020ADF8000098
:1009000004208DF803006946304801F0F3FE4FF4EF
:100910008070ADF8000004208DF8030069462B4874
:1009200001F0E8FE4FF40070ADF8000004208DF8EF
:1009300003006946254801F0DDFE4FF48060ADF804
:10094000000004208DF803006946204801F0D2FE23
:100950004FF40060ADF8000004208DF803006946F4
:100960001A4801F0C7FE4FF48050ADF80000042093
:100970008DF803006946154801F0BCFE08BD10B5AE
:10098000124801F053FF124908800846008800F41D
:10099000FF50104908800846008840110E49088021
:1009A00010BD10B5084801F041FF0C490880084609
:1009B000008800F47F400A49088008460088001239
:1009C0000849088010BD0000000C014000100140E3
:1009D0002E000020320000202A00002030000020DD
:1009E000340000202C00002070B502460C46FF2584
:1009F000FF2309E012F8010B80EA0501F748405C8B
:100A000080EA0305F648435C2000A4F10106B4B275
:100A1000F0D143EA052070BD1FB50121202002F06E
:100A200032F9F048008800EB80004FF6FF7101EAD0
:100A30004000ADF8080041F61F40ADF8040000206A
:100A4000ADF80A00ADF8060001A9E74802F04AFC3B
:100A500001221146E44802F0BCFF37208DF8000067
:100A600002208DF8010003208DF8020001208DF88E
:100A70000300684601F075FD1FBD00B587B0012178
:100A8000242002F0F3F80121480402F0FCF80420CD
:100A9000ADF8180018208DF81B0003208DF81A00FF
:100AA00006A9D24801F026FE0421D04801F0CFFE6D
:100AB0000820ADF8180004208DF81B0006A9CB48CB
:100AC00001F018FE0420ADF8180010208DF81B006E
:100AD00006A9C74801F00EFE0421C54801F0B9FE81
:100AE000C44802F027F9C448006802900020ADF81D
:100AF0001400ADF80C00ADF80E000C20ADF812009B
:100B0000BE48007820B1012806D002280ED108E0A6
:100B10000020ADF8100009E04FF4C060ADF81000FF
:100B200004E04FF48060ADF8100000BF00BF02A9E0
:100B3000B04802F042F940F22551AE4802F0E4FA22
:100B4000012240F22551AB4802F0CFF926208DF862
:100B5000040002208DF805008DF8060001208DF8B4
:100B6000070001A801F0FDFC0121A24802F0B1F943
:100B70000120A3490860FFF74FFF07B000BD1FB574
:100B800004460121042002F07EF8ADF8084041F649
:100B90001F40ADF804000020ADF80A00ADF80600D3
:100BA00001A9984802F09EFB01224121954802F0DC
:100BB00010FF1E208DF8000003208DF801008DF835
:100BC000020001208DF80300684601F0CAFC0121F3
:100BD0008C4802F0E3FE1FBD10B50021042002F096
:100BE00052F800224121874802F0F3FE0021854897
:100BF00002F0D4FE10BD70B504460D4601208049B8
:100C000008600BE000BF80217A4802F03DFA00281E
:100C1000F9D014F8011B774802F0C8F92800A5F1B3
:100C20000101CDB2EED100BF4021724802F02CFA92
:100C30000028F9D00120744908700020704908602C
:100C400070BD2DE9F04106460C4615466F4806700A
:100C500001206E49487020128870CC7028120871EB
:100C60004D7106216948FFF7BFFE0746380A6749FC
:100C70008871CF7108216548FFF7BDFFBDE8F0819D
:100C80002DE9F04106460C461546604806700220E4
:100C90005E49487020128870CC70281208714D711E
:100CA00006215A48FFF7A0FE0746380A57498871BF
:100CB000CF7108215548FFF79EFFBDE8F0812DE96F
:100CC000F04106460C4615465048067003204F4931
:100CD000487020128870CC70281208714D7106215E
:100CE0004A48FFF781FE0746380A48498871CF71A4
:100CF00008214648FFF77FFFBDE8F0812DE9F0416C
:100D000006460C4615464148067004203F49487087
:100D100020128870CC70281208714D7106213B4852
:100D2000FFF762FE0746380A38498871CF710821FB
:100D30003648FFF760FFBDE8F0812DE9F041074636
:100D40000C469046B8F1010F1FD1314830F814001D
:100D500010B14FF47F4500E000252C4807700520B6
:100D60002A49487020128870CC70281208714D7181
:100D700006212648FFF738FE0646300A23498871C7
:100D8000CE7108212148FFF736FFBDE8F0812DE93B
:100D9000F04106460C461746012F1DD11B48067030
:100DA00006201A49487020128870CC70194830F813
:100DB000140000120871174810F814004871062139
:100DC0001248FFF711FE0546280A10498871CD71B7
:100DD00008210E48FFF70FFFBDE8F08140560008DC
:100DE000405700083E000020001400400008014069
:100DF0000014014000440040380000203C00002066
:100E000088812242000800404E0000206C01002032
:100E100054000020580000202DE9F04781460F467D
:100E200015467819642873DA2846E91705EB5171DD
:100E3000C1F3CF06E91705EB5171C910A5EBC1014C
:100E400009B1701C86B2002460E0E11704EB517117
:100E5000C910A4EBC10141B900222046E11704EBFF
:100E60005171C910C91DFE4B5A542046E21704EBBC
:100E70005272D210D21DFA4B9A5C53102146E217DF
:100E800004EB5272D210D21DDFF8D4C30CF802303A
:100E90003819F44931F8100088B12046E21704EB04
:100EA0005272D210D21D63469A5C42F080032146F2
:100EB000E21704EB5272D210D21D0CF80230681EF9
:100EC000A04221D1E91705EB5171C910A5EBC10171
:100ED000D1B1E21704EB5272D210D21DE04B9A5CF2
:100EE0002946EB1705EB5373DB10A5EBC303C3F1E6
:100EF00008031A412046E31704EB5373DB10DB1D94
:100F0000DFF85CC30CF80320601C84B2AC429CDBAD
:100F1000D34880F800900F20D1494870381288706B
:100F2000CF70281208714D718E71F01D81B2CC48BE
:100F3000FFF75AFD80464FEA1821F01DC84A1154A8
:100F4000401C02F80080401CC1B21046FFF753FE5F
:100F5000BDE8F0872DE9F04180460E461446301971
:100F6000B0F57A7F17DA002513E07019BE4931F821
:100F700010000012072101EB4501B94A50547019C5
:100F8000B94911F81000082101EB45015054681CC3
:100F9000C5B2A542E9DBB24880F800801020B04914
:100FA000487030128870CE70201208714C71600643
:100FB000000E88716000C01D81B2A948FFF714FDC2
:100FC0000746390A6000C01DA54A11546000083068
:100FD000175460000930C1B21046FFF70CFEBDE89F
:100FE000F0812DE9F04107460C4615461E46052CBA
:100FF00020D006DC012C0BD0022C0FD0032C31D1D9
:1010000012E0062C1CD00F2C20D0102C2AD123E06B
:10101000324629463846FFF714FE23E03246294679
:101020003846FFF72DFE1DE0324629463846FFF7C9
:1010300046FE17E0324629463846FFF77EFE11E0AD
:10104000324629463846FFF7A2FE0BE032462946D3
:101050003846FFF7E1FE05E0324629463846FFF7FD
:1010600079FF00BF00BFBDE8F081804949797F4A20
:10107000127941EA02207E490988884203D1002181
:101080007C4A117002E010217A4A117000217A4ADC
:101090001170704775494979744A127941EA022002
:1010A00073490988884203D10021724A117002E015
:1010B0000F21704A117000216F4A117070476B49FF
:1010C00049796A4A127941EA022067496B4A1288D3
:1010D00031F81210814203D10021664A117002E0FA
:1010E0000621644A11700021634A117070476049FB
:1010F0000888002806DD5D490979FF2902D15B498E
:10110000497931B148B95949097931B957494979CA
:1011100019B90021574A117002E00521554A117092
:101120000021554A1170704710B5504B9A7802EB68
:10113000D2735910514A12880A44B2F57A7F25DADF
:1011400000201DE0032202EB4002484B9A5C4B4B0F
:101150001B8803444A4C24F81320042202EB40026B
:10116000424B9A5C454B1B88034414F8133002EB46
:101170000322424B1B88034424F81320421CD0B2A4
:101180008842DFDB00223B4B1A7002E00322394B1E
:101190001A700022384B1A7010BD10B537490988F3
:1011A000334A1288114464292ADA002020E00146DB
:1011B000C21700EB5272D210D21C2C4B9A5C02F078
:1011C00001022E4B1B8803442E4C24F81320C21717
:1011D00000EB5272D210D21C244B9A5C5310C217EF
:1011E00000EB5272D210D21C204CA354411C88B286
:1011F0001F4909888842DADB00211E4A117002E08B
:1012000002211C4A117000211B4A117010BD10B53B
:101210001A490988164A1288114464293FDA0020C5
:1012200035E00146C21700EB5272D210D21C0F4BB0
:101230009A5C02F00102114B1B880344094C24F80C
:101240001320C21700EB5272D210D21C074B9A5CCB
:101250005310C21700EB5272D210D21C034C13E091
:101260006C0100205400002058000020A400002041
:101270004C0000204F0000204E0000204A000020BB
:101280007601002050000020A354411C88B261491F
:1012900009888842C5DB00215F4A117002E0012104
:1012A0005D4A117000215D4A117010BD30B55C4877
:1012B000007801287ED15B4800785B490978884234
:1012C00059D158484078012817D05648407802280C
:1012D00013D05448407803280FD05248407805284E
:1012E0000BD050484078062807D04E4840780F2849
:1012F00003D04C484078102842D14C480088801ECA
:1013000081B24848FFF770FB044648480088401EF9
:101310004449095C45480088801E424A105C41EA05
:101320000025AC4228D110464078052817D006DCAD
:1013300001280BD002280CD003281CD10CE0062871
:1013400010D00F2811D0102815D111E0FFF75FFF42
:1013500011E0FFF722FF0EE0FFF7E6FE0BE0FFF7DC
:10136000C6FE08E0FFF7ABFE05E0FFF793FE02E0E4
:10137000FFF77BFE00BF40E00E20274908703CE0ED
:1013800028484078812819D026484078822815D0EE
:1013900024484078832811D02248407885280DD0F1
:1013A00020484078862809D01E4840788F2805D0EC
:1013B0001C4800E02CE0407890281ED11948807825
:1013C000012806D0022808D003280AD0042810D10A
:1013D0000BE00B20104908700BE00C200E49087040
:1013E00007E00D200C49087003E00E200A49087040
:1013F00000BF00BF0020094908700020084908709C
:101400000A49088001200A49086000200349087041
:1014100030BD00004C0000204F0000204E00002096
:1014200042000020A40000204700002040000020CF
:1014300088812242002032210AE0FE4A32F811203F
:10144000642392FBF3F2FC4B43F82020491C401C20
:101450000328F2DB70472DE9F04700244FF03809EC
:1014600012E0F44931F8190003F046FA0746002269
:10147000F24B03F0BCF9054603F05EFAF04941F87F
:10148000240009F10109641C032CEADBBDE8F087A4
:101490002DE9F04700244FF03B0912E0E54931F80F
:1014A000190003F029FA07460022E44B03F09FF9E4
:1014B000054603F041FAE34941F8240009F1010926
:1014C000641C082CEADBBDE8F08770B5D949C98AED
:1014D000D84A928A4FF4803303FB021003F0FBF9E1
:1014E00004460022D54B03F082F9D74A03C270BDEF
:1014F00070B50A21D54803F09AF8D548002101605B
:1015000041600181D3480288D3A1D04803F026FC72
:10151000D2A1CE4803F096F8002500241CE0CB4869
:10152000005D30280BDBC948005D392807DC33201B
:10153000C7494855C548015DC54A681C1154C34890
:10154000005D202806D13220C14948553021C04ACB
:10155000681C1154AD1C641CBC48005D0028DED121
:1015600070BD70B50A21BE4803F061F8BD48002186
:10157000016041600181BC480288B7A1B84803F00E
:10158000EDFBB6A1B64803F05DF8002500241CE091
:10159000B348005D30280BDBB148005D392807DC1B
:1015A0003320B0494855AE48015DAE4A681C11541D
:1015B000AB48005D202806D13220AA494855302189
:1015C000A84A681C1154AD1C641CA548005D002885
:1015D000DED170BD70B50A21A44803F028F8A448F4
:1015E0000021016041600181A24802789AA19F48D0
:1015F00003F0B4FB99A19D4803F024F800250024D2
:101600001CE09A48005D30280BDB9848005D3928C3
:1016100007DC3320964948559448015D944A681C7C
:1016200011549248005D202806D132209049485537
:1016300030218F4A681C1154AD1C641C8B48005D1E
:101640000028DED170BD70B50A218B4802F0EFFF93
:101650001E218A4802F0EBFF1E21894802F0E7FFB5
:10166000002413E0744850F824207BA1824803F042
:1016700075FB7AA1804802F0E5FF7F497F4802F0C0
:10168000E1FF0A217C4802F0D2FF641C032CE9DB55
:10169000002400251CE07948405D30280BDB7748AA
:1016A000405D392807DC3320754908557348415D92
:1016B000734A601C11547148405D202806D13220C5
:1016C0006F49085530216E4A601C1154A41C6D1CD2
:1016D0006A48405D0028DED170BD2DE9F0410A2145
:1016E000684802F0A4FF1E21674802F0A0FF5A21BB
:1016F000664802F09CFF002418E0514951F824008C
:1017000003F007F9064632460B4661A15D4803F037
:1017100025FB52A15B4802F095FF5A495A4802F056
:1017200091FF0A21574802F082FF641C032CE4DB7E
:101730000024002527E05448405D30280BDB524848
:10174000405D392807DC3320504908554E48415D3B
:101750004E4A601C11544C48405D202806D132206E
:101760004A4908553021494A601C11544648405D99
:101770002E2806D13220454908554521434A601C90
:101780001154A41C6D1C4048405D0028D3D1BDE815
:10179000F0812DE9F0410A213F4802F048FF502135
:1017A0003E4802F044FFF0213D4802F040FF002493
:1017B00018E0244951F8240003F0ABF806463246FD
:1017C0000B4633A1344803F0C9FA24A1324802F091
:1017D00039FF3149314802F035FF0A212E4802F025
:1017E00026FF641C082CE4DB0024002560E02B4865
:1017F000405D30280BDB2948405D392807DC332069
:10180000274908552548415D254A601C1154234845
:10181000405D202806D13220214908553021204A38
:10182000601C11541D48405D2E283FD132201C49B8
:10183000085537E0760100207C0200200000594066
:10184000D002002060030020700000204002002031
:101850004A0200202A000020256400002000000029
:10186000540200205E0200202C00002068020020AC
:1018700072020020A40000208802002092020020B2
:10188000B0020020DC020020E60200200403002059
:10189000252E316600000000800300208A0300200E
:1018A000DA0300204521894A601C1154A41C6D1CD8
:1018B0008748405D00289AD1BDE8F08170B52821A5
:1018C000844802F0B4FE3C21834802F0B0FE834815
:1018D00083A10CC87F4803F041FAAFF280017D4834
:1018E00002F0B0FE0025002427E07A48005D302891
:1018F0000BDB7848005D392807DC332076494855F2
:101900007448015D744A681C11547248005D2028B7
:1019100006D132207049485530216F4A681C115455
:101920006C48005D2E2806D132206B494855452170
:10193000694A681C1154AD1C641C6648005D00288F
:10194000D3D170BD2DE9F0416748002101604160AD
:1019500001811421654802F06AFE6549086802F0B9
:10196000D8FF064632460B46AFF2DC015E4803F074
:10197000F5F9AFF218115C4802F064FE002400256E
:1019800027E05948405D30280BDB5748405D392837
:1019900007DC3320554908555348415D534A601CC4
:1019A00011545148405D202806D132204F49085536
:1019B00030214E4A601C11544B48405D2E2806D100
:1019C00032204A4908554521484A601C1154A41C3C
:1019D0006D1C4548405D0028D3D1BDE8F08110B5AD
:1019E0004FF48061434802F022FE4FF48061424888
:1019F00002F01DFEFEF70FFEFFF71CFDFFF72BFDAB
:101A0000FFF746FDFFF761FDFFF772FDFFF7A9FD48
:101A1000FFF7E0FDFFF717FEFFF75FFEFFF7B9FEE8
:101A2000FFF74CFFFFF78EFF3449324802F00AFE01
:101A30003349304802F006FE32492E4802F002FED9
:101A400031492C4802F0FEFD30492A4802F0FAFDE7
:101A50001E49284802F0F6FD1F49264802F0F2FD13
:101A60002B49244802F0EEFD2A49224802F0EAFD03
:101A70001E49204802F0E6FD20491F4802F0E2FD21
:101A80001F491D4802F0DEFD23A11B4802F0DAFDCC
:101A900023A1194802F0D6FD25A1174802F0D2FD76
:101AA0002AA1154802F0CEFD21A1134802F0CAFD7B
:101AB00033A1114802F0C6FD17A10F4802F0C2FD84
:101AC0000A490D4802F0BEFD10BD0000DA030020F7
:101AD0008A030020CA040020F204002070000020C5
:101AE000252E316C660000002E05002038050020F0
:101AF000840000204C0500204C0900204A020020F0
:101B00005E02002072020020B002002004030020C8
:101B10001E0000201400002033303230000000008E
:101B20003330323033303230333032300000000066
:101B30003330324533303230333032453330323067
:101B4000333032453330323000000000333032451C
:101B50003330323033303245333032303330324547
:101B60003330323033303245333032303330324537
:101B70003330323033303245333032300000000001
:101B800033303330333032300000000000B587B0DE
:101B90000121042001F06AF80121880301F066F8B0
:101BA0004FF40070ADF8180018208DF81B000320CA
:101BB0008DF81A0006A9F84800F09CFD4FF48060EB
:101BC000ADF8180004208DF81B0006A9F24800F0BB
:101BD00091FD4FF4165002900020ADF80C00ADF8C6
:101BE0000E00ADF81000ADF814000C20ADF8120096
:101BF00002A9EA4801F0E1F84FF4A06000F0ACFC63
:101C000025208DF8040002208DF8050001208DF8B4
:101C100006008DF8070001A800F0A3FC012240F2A5
:101C20002551DE4801F061F90121DC4801F051F94C
:101C300007B000BD70B504460D462946204601F0A8
:101C4000B5F900BF8021204601F01EFA0028F9D026
:101C500070BD2DE9F04107460D461646002405E00B
:101C6000295D3846FFF7E6FF601CC4B2B442F7DBDB
:101C700000BF4021384601F007FA0028F9D0BDE83E
:101C8000F08170B506460C46002500BF615D304608
:101C9000FFF7D0FF6D1C605D0028F7D100BF402129
:101CA000304601F0F1F90028F9D070BD2DE9F0417E
:101CB00005460C46260AE7B23146284601F076F979
:101CC00000BF8021284601F0DFF90028F9D039460D
:101CD000284601F06BF900BF8021284601F0D4F9B5
:101CE0000028F9D0BDE8F08170B504460D46E1B298
:101CF000AA4801F05BF900BF8021A84801F0C4F9AF
:101D00000028F9D0204670BD10B5044600BF202140
:101D1000A24801F0B9F90028F9D0A04801F04AF929
:101D200010BD70B504460D460DE000BF40219B4834
:101D300001F0AAF90028F9D014F8011B974801F026
:101D400035F9681E85B2002DEFDC70BD10B500209E
:101D50009349086008724FF400619148093002F01D
:101D600066FC10BD2DE9F04188B005460C46002602
:101D7000002706E014F8012B3046711CCEB20DF896
:101D8000002020780028F5D1FFF7E0FF284602F078
:101D900077FC1FFA80F841462846FFF7C2FF4FF450
:101DA0007A7000F09AFB7E48007A01280CD10CB9B9
:101DB00001270AE069467A48093002F04FFC08B171
:101DC000012702E0002700E00027012F03D10020B7
:101DD00008B0BDE8F0810120FAE70EB5714A07CAE4
:101DE0008DE80700FFF7B2FF4FF4FA7000F075FBC3
:101DF0006DA16846FFF7B6FF0EBD10B586B0694B02
:101E00000C330FCB02AC0FC468A103C9CDE90001AC
:101E100000240FE01DF804008DF81100FFF796FF75
:101E20004FF4FA7000F059FB5FA102A8FFF79AFF88
:101E3000601CC4B2072CEDDB01205E49087006B0BF
:101E400010BD30B58BB0202256491C3103A802F0DA
:101E5000D5FB59A103C9CDE90101002537E001A84F
:101E6000405D8DF82000FFF771FF4FF4FA7000F02D
:101E700034FB4DA103A8FFF775FF30BB002414E02D
:101E800047480930005D30280DDB45480930005DCA
:101E9000392808DC42480930005D494908700120B2
:101EA0004849087007E0601CC4B23D48093002F0A0
:101EB000E7FBA042E4D800BF41480078302804DBAB
:101EC0003F480078392800DC03E0681CC5B2062DC5
:101ED000C5DB00BF062D08DB39480078612804D136
:101EE000002034490870374908700BB030BD00B588
:101EF0009BB0122116A802F09AFB202229493C31FE
:101F00000EA802F07BFB122109A802F090FB202210
:101F100024495C3101A802F071FB2B48008800289D
:101F200056D10A2000F0D9FA27480088C8B92448B9
:101F300000788DF84100FFF709FFC82000F0CDFAC6
:101F400019A10EA8FFF70EFF18B901201F4908704C
:101F500079E00020174908701A4908701B49087079
:101F600071E0174800788DF80D00FFF7EFFEC820EC
:101F700000F0B3FA0CA101A8FFF7F4FE18B9012094
:101F8000124908705FE000200A4908700D49087086
:101F90000E49087057E00000000801400038014079
:101FA0001C150020405800084F4B000030313233E0
:101FB00034353600790000203132333435360000B4
:101FC0007E0000207A0000202A0000207B000020F4
:101FD0000A2000F082FAA1480088D0B1A048007819
:101FE0008DF80D00FFF7B2FEC82000F076FAAFF2D0
:101FF000480101A8FFF7B6FE18B9012099490870F9
:1020000021E00020984908709849087095490870A7
:1020100019E0934800788DF84100FFF797FEC8203B
:1020200000F05BFAAFF280010EA8FFF79BFE18B933
:1020300001208C49087006E000208B4908708B490C
:102040000870884908701BB000BD30B58BB088A2FD
:1020500007CA08AB07C38348007801287ED1102047
:1020600086494861864800788649097888425AD16D
:102070000020854908707A48007804904FF47A71FE
:10208000824802F0D4FA824802F0FAFA4408224662
:1020900080A105A802F062FE08A97C4802F0D2FAED
:1020A00004A97A4802F0CEFA7BA1784802F0CAFA75
:1020B00005A9764802F0C6FA77A1744802F0C2FA80
:1020C0007349724802F0BEFA74A1704802F0BAFA7D
:1020D000FFF73CFE4FF47A7000F0FFF9AFF23811D1
:1020E0006A48FFF73FFE18B901206E4908701FE0EB
:1020F0004FF47A7000F0F1F9AFF254116348FFF732
:1021000031FE18B901206749087011E000205649D6
:1021100008705649087053490870624908701020C9
:102120005649086104E058480078401C5649087038
:10213000554800780A2868D100205349087048485B
:10214000007804904FF47A71574802F070FA5748BB
:1021500002F096FA45082A464EA100E049E001A89F
:1021600002F0FCFD08A9504802F06CFA04A94E48A0
:1021700002F068FA48A14C4802F064FA01A94A4802
:1021800002F060FA44A1484802F05CFA4749464828
:1021900002F058FA41A1444802F054FAFFF7D6FD84
:1021A0004FF47A7000F099F9AFF204213E48FFF73E
:1021B000D9FD18B901203B49087026E04FF47A7028
:1021C00000F08BF9AFF220213748FFF7CBFD18B9AB
:1021D00001203449087018E0002023490870234981
:1021E0000870204908702F490870102023490861A1
:1021F0000BE000201C4908701C4908701949087040
:102200002849087010201D4908610BB030BD10B579
:102210001548007858B9FFF799FDFFF7DEFD4FF438
:102220007A7000F05AF9FFF791FDFFF7E6FD0F48CD
:10223000007838B90C480078012803D1FFF786FDF3
:10224000FFF7FFFD0748007838B9084800780128F3
:1022500003D1FFF77BFDFFF74AFE10BD2A000020E7
:102260007E0000207B000020790000207A00002002
:1022700041542B4E534F53443D0000000010014089
:10228000A4000020470000207D0000204C0D00200D
:102290004C050020256400002C0000002C2C340D7F
:1022A0000A0000007C000020341100204C090020AE
:1022B00008B50121102000F0D9FC0320ADF8000082
:1022C00000208DF8030069465F4800F013FA08BD4E
:1022D00000B591B00121084600F0BBFC0121480285
:1022E00000F0C4FC594802F05FF85948069059487C
:1022F0000790002008900220099000200A9080207A
:102300000B9040000C9080000D9020200E90000259
:102310000F900020109006A94C4802F0E7F8012128
:102320004A4802F00EF90020019001208DF80800C3
:102330008DF809004FF460200390002004900220E3
:102340008DF8140001A942484C3801F02CFE4FF4DE
:10235000404000F0EFFB052301220A213C484C38A5
:1023600001F0B9FE052302220B2139484C3801F057
:10237000B2FE012136484C3801F04CFE01213448B0
:102380004C3801F03CFE32484C3801F05AFE00BF98
:102390002F484C3801F05AFE0028F9D12C484C380F
:1023A00001F05EFE00BF2A484C3801F05EFE0028B6
:1023B000F9D1012126484C3801F061FE11B000BD71
:1023C00010B5FFF775FFFFF783FF10BD2DE9F05F34
:1023D0002049088802F07AFA83464FF08B4102F0D8
:1023E00056F9824602F095FA06464FF066321A4BCD
:1023F00002F08BF9804600224FF0804302F085F90D
:10240000044602F099FA154908601249488802F01A
:102410005DFA83464FF08B4102F039F9824602F0B3
:1024200078FA80464FF066320B4B02F06EF90646A2
:1024300000224FF0804302F068F9044602F07CFA73
:1024400006494860BDE8F09F0010014008000240C6
:102450004C2401408000002066660A408400002071
:1024600010B56FF0040000F0C6F82E4800682E4941
:10247000B0FBF1F02D4908700846007800EB4001F0
:10248000C1EBC0104FF6FF7101EAC0002849088077
:1024900010BD0146254A12784A434FF0E0235A61A5
:1024A00000229A611A46126942F001021A6100BFC5
:1024B0004FF0E022106900F001021AB100F48032FE
:1024C000002AF5D04FF0E022126922F001024FF00D
:1024D000E0231A6100229A6170470146144A12886B
:1024E0004A434FF0E0235A6100229A611A4612696A
:1024F00042F001021A6100BF4FF0E022106900F0C3
:1025000001021AB100F48032002AF5D04FF0E02227
:10251000126922F001024FF0E0231A6100229A6151
:10252000704700000000002000127A008C0000209C
:102530008E0000200648804706480047FEE7FEE779
:10254000FEE7FEE7FEE7FEE7FEE7FEE7FEE7FEE763
:10255000870400083101000831490143314A116004
:10256000704770B5002100230F22C47804B32D4CAE
:10257000246804F4E064C4F5E064210AC1F10403B2
:10258000CA40447804FA03F18478144021430901D5
:10259000254C0678A155047804F01F050124AC40B1
:1025A00005786D11AD0005F1E025C5F8004109E0A1
:1025B000047804F01F050124AC401C4D0678761108
:1025C00045F8264070BD1A4A0A400243154B1B1FAE
:1025D0001A60704739B1134A121D12680243114B39
:1025E0001B1D1A6006E00F4A121D126882430D4B34
:1025F0001B1D1A607047042808D14FF0E0210969BB
:1026000041F004014FF0E022116107E04FF0E021BA
:10261000096921F004014FF0E022116170470000C8
:102620000000FA050CED00E000E400E080E100E0CD
:1026300080FFFF1F10B50446CC48844208D1012119
:10264000042000F02DFB0021042000F029FB46E0CF
:10265000C748844208D10121082000F021FB002155
:10266000082000F01DFB3AE0C248844208D1012155
:10267000102000F015FB0021102000F011FB2EE0CF
:10268000BD48844208D10121202000F009FB00212F
:10269000202000F005FB22E0B848844208D1012147
:1026A000402000F0FDFA0021402000F0F9FA16E089
:1026B000B348844208D10121802000F0F1FA0021C2
:1026C000802000F0EDFA0AE0AE48844207D10121F3
:1026D000801500F0E5FA0021A01500F0E1FA10BD28
:1026E00010B50121084600F0DBFA0021012000F0BE
:1026F000D7FA10BD2DE9F041024600250026002042
:1027000000230024002791F803C00CF00F0591F876
:1027100003C00CF0100CBCF1000F03D091F802C004
:102720004CEA050591F800C0BCF1000F31D01468E7
:1027300000202BE04FF0010C0CFA00F3B1F800C0C0
:102740000CEA03069E4220D183004FF00F0C0CFAD6
:1027500003F7BC4305FA03FC4CEA040491F803C0F8
:10276000BCF1280F06D14FF0010C0CFA00FCC2F8A6
:1027700014C00AE091F803C0BCF1480F05D14FF036
:10278000010C0CFA00FCC2F810C0401C0828D1D380
:102790001460B1F800C0BCF1FF0F34DD54680020B4
:1027A0002EE000F1080C4FF0010808FA0CF3B1F824
:1027B00000C00CEA03069E4221D183004FF00F0CAB
:1027C0000CFA03F7BC4305FA03FC4CEA040491F845
:1027D00003C0BCF1280F05D100F1080C08FA0CF871
:1027E000C2F8148091F803C0BCF1480F07D100F182
:1027F000080C4FF0010808FA0CF8C2F81080401CD1
:102800000828CED35460BDE8F0814FF6FF710180F7
:10281000022181700421C170704702460020936834
:102820000B400BB1012000E0002070470146886892
:1028300080B2704702460020D3680B400BB10120E4
:1028400000E0002070470146C86880B2704701610F
:102850007047416170470AB1016100E04161704712
:10286000C16070474FF480320A43826181618261A6
:1028700082698269704702460020434B18684FF610
:102880008073184040EA021008433F4B18607047BD
:102890003E49C8617047F0B50A4600230024002174
:1028A000002500F00046B6F1004F02D1364EF16926
:1028B00001E0354E7168C0F3034583B200F4401661
:1028C000B6F5401F08D121F070612F4E766826F0D2
:1028D00070662D4F7E6012E000F48016B6F5801F02
:1028E00006D1032606FA05F4A14341F0706106E023
:1028F000460D360103FA06F6B14341F0706122B18C
:10290000460D360103FA06F6314300F00046B6F1F3
:10291000004F02D11C4EF16101E01B4E7160F0BD11
:1029200030B500228B071C0F0F2303FA04F2164B5D
:1029300008338C1053F824309343134C08348D1013
:1029400044F8253023468C1053F824308C07240F8C
:1029500000FA04F423430C4C08348D1044F825305D
:1029600030BD0A49DC3108607047000000080140B2
:10297000000C01400010014000140140001801400B
:10298000001C0140002001400000014000002042E6
:10299000DF48006840F00100DD49086008464068F3
:1029A000DC490840DA49486008460068DA490840CE
:1029B000D74908600846006820F48020086008466F
:1029C000406820F4FE0048604FF41F0088607047A4
:1029D000CF49096821F48031CD4A11601146096858
:1029E00021F480211160B0F5803F03D0B0F5802F35
:1029F0000ED106E0C649096841F48031C44A11602D
:102A000007E0C349096841F4A021C14A116000E010
:102A100000BF00BF704710B5014600220023002010
:102A20004A11012A02D1BA4C236806E0022A02D1D7
:102A3000B74C236A01E0B64C636A01F01F0201241F
:102A400094401C400CB1012000E0002010BD38B5BE
:102A5000002000900024002500BF3120FFF7DBFF9D
:102A600005460098401C00900098B0F5A06F01D07A
:102A7000002DF2D03120FFF7CEFF08B1012400E095
:102A80000024204638BD01460020A14A106820F0ED
:102A9000F80040EAC10010607047A0490860704724
:102AA000024600209A4B586820F47C1042EA010349
:102AB0001843974B5860704798490866704701461D
:102AC0000020934A506820F003000843506070478C
:102AD0008F48406800F00C007047014600208C4A87
:102AE000506820F0F0000843506070470146002015
:102AF000874A506820F4E060084350607047014600
:102B00000020834A506820F4605040EAC1005060C1
:102B1000704729B17E4A527A02437D4B5A7204E0D3
:102B20007B4A527A82437A4B5A7270477B49D8313A
:102B30000860704701460020754A506820F4404004
:102B40000843506070470021714A20321170704A6A
:102B500082F82010012802D004280AD104E00121C3
:102B60006B4A2032117005E00521694A203211704C
:102B700000E000BF00BF70476949086070476449C2
:102B8000096A0143624A1162704765494439086025
:102B9000704730B500210022002400235C4D6D6891
:102BA00005F00C0121B1042905D0082923D105E045
:102BB0005C4D056022E05B4D05601FE0544D6D6883
:102BC00005F47012524D6D6805F48034022505EB52
:102BD00092421CB9544D554305600BE04C4D6D6855
:102BE00005F400351DB1504D5543056002E04D4DD3
:102BF0005543056002E04B4D056000BF00BF444DEA
:102C00006D6805F0F0010909484D6B5C0568DD4011
:102C100045603F4D6D6805F4E061090A434D6B5C0A
:102C20004568DD4085603A4D6D6805F46051C90A1C
:102C30003E4D6B5C4568DD40C560354D6D6805F403
:102C40004041890B3A4D6B5CC568B5FBF3F50561F6
:102C500030BD29B12E4A526902432D4B5A6104E01E
:102C60002B4A526982432A4B5A61704729B1284A3C
:102C700092690243264B9A6104E0254A9269824395
:102C8000234B9A61704729B1214AD2690243204BF4
:102C9000DA6104E01E4AD26982431D4BDA61704753
:102CA00029B11B4AD2680243194BDA6004E0184A82
:102CB000D2688243164BDA60704729B1144A126910
:102CC0000243134B1A6104E0114A12698243104B0C
:102CD0001A61704712494039086070470F49C8644B
:102CE00070470B49C87170470948406A40F08070CE
:102CF00007494862704701460020054A92680A4029
:102D00000AB1012000E00020704701498872704735
:102D1000001002400000FFF8FFFFF6FE00004242F4
:102D20008004424200127A0000093D009000002019
:102D3000A000002010B50446FB48844209D10121BF
:102D40008803FFF7ADFF00214FF48040FFF7A8FF95
:102D500032E0F648844209D101214804FFF7ADFF73
:102D600000214FF40030FFF7A8FF25E0F04884422F
:102D700009D101218804FFF7A0FF00214FF4802032
:102D8000FFF79BFF18E0EB48844209D10121C804FA
:102D9000FFF793FF00214FF40020FFF78EFF0BE0B9
:102DA000E548844208D101210805FFF786FF00218C
:102DB0004FF48010FFF781FF10BD2DE9F04786B07A
:102DC00005460E460024A24600BFA1460027B08952
:102DD00000B100BF2F462C8A4CF6FF700440F088EB
:102DE00004432C82AC894EF6F3100440B08831893C
:102DF0000843718908430443AC81AC8A4FF6FF4015
:102E00000440B0890443AC8201A8FFF7C2FEC64863
:102E1000874202D1DDF810A001E0DDF80CA0A889FE
:102E200000F4004040B10AEBCA0000EB0A10316820
:102E30004900B0FBF1F807E00AEBCA0000EB0A100A
:102E400031688900B0FBF1F86420B8FBF0F00401B0
:102E50002009642101FB1089A88900F4004040B1D9
:102E6000322000EBC900B0FBF1F000F00700044392
:102E700008E0322000EB09106421B0FBF1F000F013
:102E80000F0004432C8106B0BDE8F0874FF41651C3
:102E9000016000218180C18001810C2141810021DC
:102EA0008181704710B502460020108A4FF2FF035F
:102EB00018400B884C8823438C882343CC882343B9
:102EC0001843108210BD0021018041808180C180A3
:102ED000704721B1828942F40052828104E08289E4
:102EE0004DF6FF731A4082817047F0B50346002407
:102EF00000260025002040F66A17B94200D100BF25
:102F00001846C1F3421401F01F06012707FA06F51F
:102F1000012C01D10C3004E0022C01D1103000E072
:102F200014301AB107682F43076002E00768AF4307
:102F30000760F0BD1AB1838A0B43838202E0838A63
:102F40008B4383827047028A4FF6F0731A400282E5
:102F5000028A0A430282704782894FF2FF731A4045
:102F6000828182890A438281704721B1828942F03D
:102F70000202828104E082894FF6FD731A40828149
:102F80007047028A4FF6DF731A400282028A0A43B0
:102F90000282704721B1028A42F48042028204E038
:102FA000028A4BF6FF731A4002827047C1F308028F
:102FB0008280704701468888C0F308007047818985
:102FC00041F0010181817047028BD2B20283028BF2
:102FD00042EA012202837047028B02F47F4202839D
:102FE000028B0A430283704721B1828A42F0200299
:102FF000828204E0828A4FF6DF731A408282704731
:1030000021B1828A42F01002828204E0828A4FF665
:10301000EF731A408282704721B1828A42F008021F
:10302000828204E0828A4FF6F7731A4082827047E8
:1030300021B1828942F40042828103E08289C2F395
:103040000E028281704721B1828A42F4006282823C
:1030500004E0828A4FF2FF731A4082827047828AAC
:103060004FF6FB731A408282828A0A43828270473B
:1030700021B1828A42F00202828204E0828A4FF603
:10308000FD731A408282704702460020B1F5007F2E
:1030900000D100BF13880B400BB1012000E00020DD
:1030A000704701F40072B2F5007F00D100BFCA433F
:1030B0000280704770B502460024002300250020DE
:1030C00040F66A16B14200D100BFC1F3421501F0CB
:1030D0001F03012606FA03F3012D02D1968933401E
:1030E00006E0022D02D1168A334001E0968A334071
:1030F0000C12012606FA04F41688344013B10CB100
:10310000012000E0002070BD10B50022002340F631
:103110006A14A14200D100BF0A1201249440A3B254
:10312000DC43048010BD0000003801400044004032
:1031300000480040004C00400050004010B50446DC
:10314000FE48844208D10121C014FFF7A9FD0021E7
:10315000E014FFF7A5FDC4E0B4F1804F08D10121D0
:103160000846FFF7AAFD00210120FFF7A6FDB8E001
:10317000F348844208D101210220FFF79EFD00217F
:103180000220FFF79AFDACE0EE48844208D101210D
:103190000420FFF792FD00210420FFF78EFDA0E040
:1031A000E948844208D101210820FFF786FD00216B
:1031B0000820FFF782FD94E0E448844208D1012111
:1031C0001020FFF77AFD00211020FFF776FD88E040
:1031D000DF48844208D101212020FFF76EFD002145
:1031E0002020FFF76AFD7CE0DA48844208D1012103
:1031F0004014FFF755FD00216014FFF751FD70E00A
:10320000D548844209D10121C804FFF749FD0021B6
:103210004FF40020FFF744FD63E0D048844209D119
:1032200001210805FFF73CFD00214FF48010FFF756
:1032300037FD56E0CA48844209D101214805FFF70D
:103240002FFD00214FF40010FFF72AFD49E0C5488B
:10325000844208D101214020FFF72FFD00214020AA
:10326000FFF72BFD3DE0C048844208D101218020BA
:10327000FFF723FD00218020FFF71FFD31E0BB4851
:10328000844208D101218015FFF717FD0021A01508
:10329000FFF713FD25E0B648844209D10121080457
:1032A000FFF7FEFC00214FF48030FFF7F9FC18E037
:1032B000B048844209D101214804FFF7F1FC002104
:1032C0004FF40030FFF7ECFC0BE0AB48844208D130
:1032D00001218804FFF7E4FC00214FF48020FFF770
:1032E000DFFC10BD00220288944B98420ED0994B0F
:1032F00098420BD0B0F1804F08D0914B984205D046
:10330000904B984202D0904B984204D14FF68F7365
:103310001A404B881A438D4B984207D08C4B9842E9
:1033200004D04FF6FF431A40CB881A4302808B88A3
:1033300083850B880385814B98420BD0854B98423F
:1033400008D08B4B984205D08A4B984202D08A4BCA
:10335000984201D10B7A038601238382704770B5AE
:10336000002400220023058C4FF6FE7635400584AC
:10337000028C8388048B4FF68F752C40B51E2C4031
:103380000D882C43751E2A400D892A434D882A43F7
:103390006A4DA8420BD06F4DA84208D0744DA84288
:1033A00005D0744DA84202D0734DA84213D14FF6F8
:1033B000F7752A404D892A434FF6FB752A408D88C0
:1033C0002A434FF6FF652B404FF6FF552B408D8962
:1033D0002B43CD892B4383800483CD88858602844B
:1033E00070BD70B5002400220023058C4FF6EF76E7
:1033F00035400584028C8388048B48F6FF752C4089
:103400004FF6FF452C400D884FF6FF7606EA05255E
:103410002C434FF6DF752A400D8906EA05152A432D
:103420004D8806EA05152A43444DA84202D0494D6D
:10343000A8421DD14FF67F752A404D894FF6FF7681
:1034400006EA05152A434FF6BF752A408D8806EA1D
:1034500005152A434FF6FF352B404FF2FF752B40E1
:103460008D8906EA85052B43CD8906EA85052B4320
:1034700083800483CD880587028470BD70B50024E5
:1034800000220023058C4FF6FF6635400584028C30
:103490008388848B4FF68F752C404FF6FC752C403B
:1034A0000D882C434FF6FF552A400D894FF6FF76C5
:1034B00006EA05252A434D8806EA05252A431F4DBD
:1034C000A84202D0234DA8421DD14FF2FF752A40D9
:1034D0004D894FF6FF7606EA05252A434FF6FF355C
:1034E0002A408D8806EA05252A434EF6FF752B40B3
:1034F0004DF6FF752B408D8906EA05152B43CD89C6
:1035000006EA05152B4383808483CD888587028452
:1035100070BD70B5002200230024058C4EF6FF76A6
:1035200035400584038C8488828B48F6FF752A40D9
:103530004FF6FF452A400D8820E00000002C014096
:103540000004004000080040000C00400010004053
:103550000014004000340140004C01400050014084
:103560000054014000180040001C004000200040B2
:103570000040014000440140004801404FF6FF7602
:1035800006EA05252A434DF6FF752B400D8906EA0C
:1035900005352B434D8806EA05352B43FA4DA842E5
:1035A00002D0FA4DA84208D14BF6FF752C408D8908
:1035B0004FF6FF7606EA85152C4384808283CD88FA
:1035C000A0F84050038470BD828B4FF2FF331A4045
:1035D0008283828B4FF6FF7303EA01231A438283AF
:1035E0007047F0B50C461546002200210026078CD6
:1035F0004EF6FF7C07EA0C070784828B018C4FF69E
:10360000FF7707EA043640F6FF473A404FF6FF7768
:1036100007EA05273A434FF6FF7707EA03373A43AD
:10362000D94FB8420ED0D94FB8420BD0B0F1804F2D
:1036300008D0D74FB84205D0D64FB84202D0D64FA7
:10364000B84206D14DF6FF77394046F480573943EA
:1036500005E047F6FF57394044F4805739438283E9
:103660000184F0BD828B4FF6F3731A408283828B04
:103670000A4382837047F0B50C46154600220021AC
:103680000026078C4FF6FF6C07EA0C070784828B35
:10369000018C4FF6FF7707EA04264FF60C773A4085
:1036A0004FF6FF7707EA03172F433A43B64FB84266
:1036B0000ED0B64FB8420BD0B0F1804F08D0B44F07
:1036C000B84205D0B34FB84202D0B34FB84206D18A
:1036D0004FF6FF57394046F48077394305E04FF203
:1036E000FF57394044F48077394382830184F0BD29
:1036F000028B4FF2FF331A400283028B4FF6FF73A7
:1037000003EA01231A4302837047F0B50C461546BD
:10371000002200210026078C4FF6EF7C07EA0C07F9
:103720000784028B018C4FF6FF7707EA041640F6F8
:10373000FF473A404FF6FF7707EA03373A434FF621
:10374000FF7707EA05273A438F4FB8420ED08F4FD5
:10375000B8420BD0B0F1804F08D08D4FB84205D0A1
:103760008C4FB84202D08C4FB84206D14FF6DF776B
:10377000394046F01007394305E04FF65F7739408E
:1037800044F01007394302830184F0BD028B4FF6E9
:10379000F3731A400283028B0A4302837047F0B529
:1037A0000C46154600220021068C4FF6FE773E405F
:1037B0000684028B018C4FF60C7632407E1C06EAA2
:1037C00003162E433243704EB0420ED06F4EB042BD
:1037D0000BD0B0F1804F08D06D4EB04205D06D4E89
:1037E000B04202D06C4EB04206D14FF6FD76314069
:1037F00044F00106314305E04FF6F576314044F0E0
:103800000106314302830184F0BD70B505460C46C4
:103810005D4885420ED05D4885420BD0B5F1804FA2
:1038200008D05B48854205D05A48854202D05A48A4
:10383000854200D100E000BF208850B92389A288CA
:1038400061882846FFF7ABFFE1882846FFF79EFF17
:1038500025E0208804280AD12389A2886188284687
:10386000FFF753FFE1882846FFF742FF17E0208863
:1038700008280AD12389A28861882846FFF7FBFE21
:10388000E1882846FFF7EEFE09E02389A2886188D7
:103890002846FFF7A6FEE1882846FFF795FE70BD93
:1038A0002DE9F04105460C4600260127608808B93D
:1038B000022600E00026A088012801D1022700E0AE
:1038C00001272088A0B92389A28861882846FFF7AC
:1038D00066FFE1882846FFF759FF23893A463146BB
:1038E0002846FFF712FFE1882846FFF701FF13E0A3
:1038F0002389A28861882846FFF707FFE1882846C8
:10390000FFF7F6FE23893A4631462846FFF747FF80
:10391000E1882846FFF73AFFBDE8F0810A884B8826
:103920001A438B881A43CB881A430B891A434B8955
:103930001A438B891A43A0F8442070474FF6FF7151
:10394000818000210180C180418001727047002187
:10395000018041808180C180018141818181C1815B
:103960007047002101804180012181800021C180B8
:10397000018170470021018041808180C1800181E7
:103980004181818170470000002C014000340140DA
:103990000004004000080040000C004021B10288F3
:1039A00042F00102028004E002884FF6FE731A40E2
:1039B0000280704731B1B0F8442042F40042A0F8D0
:1039C000442005E0B0F84420C2F30E02A0F84420E1
:1039D00070471AB183890B43838102E083898B434B
:1039E000838170478182704741EA0203A0F8483022
:1039F00070471AB183890B43838102E083898B432B
:103A00008381704701894FF6F87211400181704738
:103A10000A46002101894FF68F7319401143018135
:103A2000704730B504460D4629462046FFF7F0FFA3
:103A3000208940F00700208130BD2DE9F041044687
:103A40000D4616461F46602D06D13B4601223146E3
:103A50002046FFF75AFE05E03B460122314620464C
:103A6000FFF79DFE29462046FFF7D2FF208940F050
:103A700007002081BDE8F08130B50C4600210189A6
:103A8000C9B24FF6FF7505EA0325154325432943BF
:103A9000018130BD2DE9F04105460E461746984696
:103AA000002443463A4631462846FFF7E5FF2C8975
:103AB0004FF6F870044044F007044FF68F7004404E
:103AC00044F070042C81BDE8F081F0B504460D4649
:103AD00016461F463B46324629462046FFF7CCFF96
:103AE000208940F480402081F0BD018582827047AA
:103AF0000A46002101884FF68F7319401143018057
:103B00007047F0B50C4615461E46002100220023E2
:103B10000189028B038C4FF6F877394021434FF629
:103B2000FC473A4040F201173A434FF6DD773B40FD
:103B30004FF6FF7707EA06172F433B4301810283C5
:103B40000384F0BD0A460021018B4FF68F731940A4
:103B50001143018370470A460021018B48F6FF7329
:103B600019404FF6FF7303EA02231943018370479C
:103B70000A460021818B4FF68F73194011438183D0
:103B800070470A460021818B48F6FF7319404FF6B3
:103B9000FF7303EA022319438183704721B102882E
:103BA00042F08002028004E002884FF67F731A40E0
:103BB0000280704721B1828842F00402828004E0D2
:103BC00082884FF6FB731A408280704721B1828849
:103BD00042F00802828004E082884FF6F7731A40B0
:103BE0008280704721B1828842F00102828004E025
:103BF00082884FF6FE731A40828070470A46002181
:103C0000018B4FF6F77319401143018370470A4641
:103C10000021018B4FF2FF7319404FF6FF7303EA47
:103C200002231943018370470A460021818B4FF616
:103C3000F77319401143818370470A460021818B35
:103C40004FF2FF7319404FF6FF7303EA0223194343
:103C5000818370470A460021018B4FF6FB731940A0
:103C60001143018370470A460021018B4FF6FF3351
:103C700019404FF6FF7303EA02231943018370478B
:103C80000A460021818B4FF6FB7319401143818353
:103C900070470A460021818B4FF6FF3319404FF6DB
:103CA000FF7303EA02231943818370470A46002108
:103CB000018B4FF67F7319401143018370470A4609
:103CC0000021018BC1F30E014FF6FF7303EA0223BB
:103CD0001943018370470A460021818B4FF67F7399
:103CE00019401143818370470A460021818BC1F33B
:103CF0000E014FF6FF7303EA0223194381837047D5
:103D00000A460021018C4FF6FD73194011430184CE
:103D100070470A460021018C4FF6F7731940114392
:103D2000018470470A460021018C4FF6DF73194069
:103D30004FF6FF7303EA02131943018470470A46E2
:103D40000021018C4FF67F7319404FF6FF7303EA91
:103D500002131943018470470A460021018C4FF673
:103D6000FF5319404FF6FF7303EA022319430184FE
:103D700070470A460021018C4FF2FF7319404FF63D
:103D8000FF7303EA02231943018470470A460021A6
:103D9000018C4DF6FF7319404FF6FF7303EA0233AF
:103DA00019430184704730B5002301248C40A3B22D
:103DB000048C9C430484048C02FA01F5ADB22C43BC
:103DC000048430BD30B5002304248C40A3B2048C9D
:103DD0009C430484048C02FA01F5ADB22C430484A4
:103DE00030BD70B503460020002418461830012568
:103DF0008D40ACB21D8CA5431D8409B1082909D1A1
:103E000000EB6100056825F0700505600568154345
:103E100005600EE00D1FC5F34E052844056825F426
:103E2000E045056005684FF6FF7606EA0226354351
:103E3000056070BD21B1028842F00202028004E0F8
:103E400002884FF6FD731A400280704721B1028844
:103E500042F00402028004E002884FF6FB731A402D
:103E60000280704721B1828842F08002828004E0A3
:103E700082884FF67F731A408280704702884FF61F
:103E8000F7731A40028002880A43028070478288D2
:103E90004FF68F731A40828082880A43828070476F
:103EA00002894FF6F8731A40028102890A4302819F
:103EB000704702894FF67F731A40028102890A43D4
:103EC0000281704781847047818570478186704781
:103ED0000187704781877047A0F8401070470288BB
:103EE0004FF6FF431A40028002880A43028070475F
:103EF0000146888E70470146088F70470146888FBB
:103F000070470146B1F8400070470146888C704701
:103F10000146088D704702460020138A0B400BB102
:103F2000012000E000207047CA430282704730B58C
:103F30000246002000230024158A05EA0103958922
:103F400005EA010413B10CB1012000E0002030BDEE
:103F5000CA4302827047000010B50446FA48844202
:103F600008D101214015FEF79BFE00216015FEF7E8
:103F700097FE17E0F548844208D101210015FEF7AD
:103F80008FFE00212015FEF78BFE0BE0F0488442E7
:103F900008D10121C803FEF783FE00214FF4004041
:103FA000FEF77EFE10BD30B50246002000235068AB
:103FB000E84C20400D790C6844EA05242043506009
:103FC0009068E54C2040D1E902542C434D7944EAF5
:103FD000450420439060D06A20F470000C7C641E7D
:103FE000E4B2234340EA0350D06230BD00210160B7
:103FF000017141718160C16001210174704721B17B
:10400000826842F00102826003E0826822F00102CD
:104010008260704721B1826842F48072826003E05E
:10402000826822F480728260704710B50023CBB2A0
:104030001AB144681C43446002E044689C434460F5
:1040400010BD816841F00801816070470146002081
:104050008A6802F008020AB1012000E000207047DF
:10406000816841F0040181607047014600208A6840
:1040700002F004020AB1012000E00020704721B1E3
:10408000826842F4A002826003E0826822F4A00207
:1040900082607047014600208A6802F480020AB1FB
:1040A000012000E00020704710B50A4600210023DF
:1040B000416821F46041531E41EA4331416010BD23
:1040C00021B1426842F40062426003E0426822F497
:1040D000006242607047F0B504460D4600200021A2
:1040E000092D11DDE068A5F10A0606EB4607072653
:1040F00006FA07F18843A5F10A0606EB460603FA1D
:1041000006F10843E0600CE0206905EB450707264F
:1041100006FA07F1884305EB450603FA06F1084362
:104120002061072A0FDA606B561E06EB86071F26F2
:1041300006FA07F18843561E06EB860605FA06F1D5
:104140000843606322E00D2A0FDA206BD61F06EBCE
:1041500086071F2606FA07F18843D61F06EB860658
:1041600005FA06F10843206310E0E06AA2F10D06AB
:1041700006EB86071F2606FA07F18843A2F10D0613
:1041800006EB860605FA06F10843E062F0BD21B1B0
:10419000826842F48012826003E0826822F4801216
:1041A000826070470146C86C80B2704766484C30E8
:1041B0000068704721B1426842F48062426003E0C7
:1041C000426822F480624260704721B1426842F442
:1041D0008052426003E0426822F48052426070479D
:1041E0000A460021816821F4E04111438160704753
:1041F00021B1826842F40042826003E0826822F4C6
:1042000000428260704721B1826842F402128260EB
:1042100003E0826822F402128260704701460020A7
:104220008A6802F400120AB1012000E00020704701
:10423000F0B504461546002000220026092911DDAC
:10424000E068A1F10A0707EB470C072707FA0CF211
:104250009043A1F10A0707EB470703FA07F210435F
:10426000E0600CE0206901EB410C072707FA0CF233
:10427000904301EB410703FA07F210432061A06B62
:10428000C0F30156EF1C06F1010CA7EB0C0707EB7E
:10429000870C1F2707FA0CF29043EF1C06F1010C64
:1042A000A7EB0C0707EB870701FA07F21043A0639F
:1042B000F0BD10B50A4600210023816B21F44011A6
:1042C000531E41EA0351816310BD08B500230093DA
:1042D0000090009B0B440093009B1A6008BD08B53A
:1042E000024600200090009201F12800009B184433
:1042F00000900098006880B208BD0A46002141681D
:10430000164B194011434160704741628262704709
:104310000A460021416821F01F01114341607047A6
:1043200040B109490831096841F40001064A0832E0
:10433000116007E004490831096821F40001024ACC
:10434000083211607047000000240140002801403D
:10435000003C0140FFFEF0FFFDF7F1FFFFFD3FFFD6
:104360000246002013680B400BB1012000E0002042
:104370007047CA430260704770B5024600200023B0
:1043800000240B125568CEB205EA060415681D40DC
:1043900015B10CB1012000E0002070BD00220A120E
:1043A000D34303607047000001684FF6FE7211406E
:1043B00001600021016041608160C1608D498842D7
:1043C00008D18C490839496841F00F01894A083AF7
:1043D00051608AE087491431884208D185490839FB
:1043E000496841F0F001834A083A51607DE0814913
:1043F0002831884208D17F490839496841F4706101
:104400007C4A083A516070E07A493C31884208D1D0
:1044100078490839496841F47041764A083A516050
:1044200063E074495031884208D1724908394968BB
:1044300041F470216F4A083A516056E06D49643189
:10444000884208D16B490839496841F47001694ACA
:10445000083A516049E067497831884208D1654996
:104460000839496841F07061624A083A51603CE09D
:104470006149884206D1011F096841F00F01021FFE
:10448000116032E05C491431884208D15A49091F51
:10449000096841F0F001584A121F116025E05649A1
:1044A0002831884208D15449091F096841F47061D4
:1044B000514A121F116018E04F493C31884208D11F
:1044C0004D49091F096841F470414B4A121F1160A0
:1044D0000BE049495031884207D14749091F096813
:1044E00041F47021444A121F1160704710B5002238
:1044F000026847F6F0739A430C6A8B6823430C6991
:1045000023434C6923438C692343CC6923434C6A7E
:1045100023438C6A23431A430260CB6843600B68D1
:1045200083604B68C36010BD002101604160816001
:10453000C160016141618161C16101624162816269
:10454000704721B1026842F00102026004E0026893
:104550004FF6FE731A40026070471AB103680B43AE
:10456000036002E003688B4303607047416070475B
:104570000146486880B2704701460020002201F0E1
:1045800080531BB11C4B083B1A6802E0194B083BD7
:104590001A6802EA01030BB1012000E00020704715
:1045A00000F0805119B11449091F086002E0114957
:1045B00008394860704701460020002201F080530E
:1045C0001BB10D4B083B1A6802E00A4B083B1A6806
:1045D00002EA01030BB1012000E00020704700F067
:1045E000805119B10449091F086002E001490839E6
:1045F00048607047080002400804024040EA010396
:104600009B0703D009E008C9121F08C0042AFAD288
:1046100003E011F8013B00F8013B521EF9D270474C
:10462000D2B201E000F8012B491EFBD270470022F4
:10463000F6E710B513460A4604461946FFF7F0FFA1
:10464000204610BD421E12F8013F002BFBD111F88D
:10465000013B02F8013B002BF9D1704730B505460C
:104660002A460B4612F8010B13F8014B08B1A04281
:10467000F8D01CB1002802D06D1CF1E7284630BDEF
:10468000421C10F8011B0029FBD1801A704730B47E
:1046900080EA010202F0004530F0004221F00040C3
:1046A00013D090B1C30DD40DC2F31601C0F31600A0
:1046B000E41A41F4000140F400027D34914201D338
:1046C000641C00E04900002C02DA30BC0020704776
:1046D0004FF400000023914201D3891A034340089C
:1046E0004FEA4101F7D151B1914202D14FF000415F
:1046F00005E002D24FF0010101E06FF0010103EB90
:10470000C450284430BC00F07AB92DE9FE4F81EA4C
:10471000030404F0004421F0004100944FF0000B2A
:1047200023F0004350EA01045ED052EA03045BD058
:10473000C3F30A54C1F30A552C44A4F2F334019490
:10474000A0FB0254C1F3130141F48011C3F313031E
:1047500043F4801301FB024400FB034E840A970AD2
:1047600044EA815447EA8357A4FB076802958D0AFF
:1047700005FB07854FEA932C04FB0C542705029D8B
:104780004FEA065847EA1637B5EB08056EEB070CFB
:10479000870E920E47EA811742EA8312A7FB0201B5
:1047A000B6EB0B0164EB00042B0D43EA0C335E18EF
:1047B00044EB1C50DA465146E7FB0201C5F31304F3
:1047C0004FEA0B3343EA14534FEA0432019C43EAA5
:1047D0000603A4F10C040294009CCDE900B400F09F
:1047E00054F903B0BDE8F08F00200146F9E72DE948
:1047F000F04D81EA030404F0004B21F0004514461B
:104800004FF0000A23F0004150EA050220D054EA9C
:1048100001021DD0C5F30A570246C5F31303C1F3C5
:104820001300C1F30A5640F4801543F48013A7EB3C
:104830000608101BD64608F2FD3873EB050002D3BC
:1048400008F1010801E092185B41B8F1000F03DAAA
:1048500000200146BDE8F08D00204FF4801106468F
:1048600084460EE0171B73EB050705D3121B63EBA1
:10487000050306434CEA010C49084FEA3000921840
:104880005B4150EA0107EDD152EA030012D082EAFF
:10489000040083EA0501084305D0101BAB4106D292
:1048A0000122002306E000224FF0004302E06FF0F7
:1048B000010253101AEB06004CEB085110EB0A00F2
:1048C00041EB0B01BDE8F04D00F0D0B8962300227B
:1048D000114600F09DB80EB5C10F80EAE0700844A3
:1048E000CA07002140F233438DE80E000A460B460A
:1048F00000F0CBF803B000BD0EB540F23341029199
:104900000021CDE900110A460B4600F0BEF803B0C5
:1049100000BD00F0004230F000400AD0C10D01F5AA
:104920006071C0F3160042EA0151C208400711430A
:10493000704700200146704701F0004330B421F079
:10494000004150EA010206D00A0DA2F56072C1F3DF
:104950001301002A02DC30BC00207047440F44EAF7
:10496000C104C100E01830BC00EBC25000F047B8F1
:1049700030B50B46014600202022012409E021FA2F
:1049800002F59D4205D303FA02F5491B04FA02F52C
:104990002844151EA2F10102F1DC30BD2DE9F05FC3
:1049A0000546002092469B4688460646814640249E
:1049B0001BE0284641464746224600F0ACF95346E4
:1049C0005A46C01A914110D311461846224600F0AB
:1049D00093F92D1A67EB01084F462246012000216A
:1049E00000F08AF917EB00094E41201EA4F10104E2
:1049F000DFDC484631462A464346BDE8F09F0029A1
:104A0000A8BF7047401C490008BF20F00100704754
:104A100010B4B0FA80FC00FA0CF050EA010404BFB4
:104A200010BC704749B1CCF1200421FA04F411FA0A
:104A30000CF118BF012121430843A3EB0C01CB1D4E
:104A40004FEA00614FEA102042BF002010BC7047BF
:104A500000EBC35010440029A4BF10BC7047401C99
:104A6000490008BF20F0010010BC704710B5141EAB
:104A700073F1000408DA401C41F1000192185B4117
:104A80001A4301D120F0010010BD2DE9F04D9246EE
:104A90009B4611B1B1FA81F202E0B0FA80F2203205
:104AA000904600F029F904460F4640EA0A0041EA20
:104AB0000B0153465A46084313D0114653EA0100EE
:104AC00019D0C8F14002504600F025F905460E46BF
:104AD00050465946424600F00FF9084305D00120E0
:104AE00004E020463946BDE8F08D0020054346EA43
:104AF000E0762C4337430A986305E40AA0EB0800EC
:104B00000022FD0A44EA47540A3002D5002001463B
:104B1000E9E7010510196941DDE908450019694116
:104B2000BDE8F04DA2E72DE9FE4F804681EA030083
:104B3000C00F0C46009021F0004123F00045B8EB77
:104B40000200A94105D24046214690461C460B462C
:104B5000024623F00040104347D0270DC7F30A0058
:104B6000C3F30A510290401A019040286BDAC3F354
:104B7000130040F4801B0098924620B10023D2EB32
:104B8000030A63EB0B0B01985946C0F140025046F3
:104B900000F0B2F806460D4650465946019A00F01C
:104BA000CAF810EB08006141002487EA115284EA38
:104BB000E7731A4340D0009A62B3019A012A4FEA80
:104BC000075215DC001B61EB02014FF0004202EAC4
:104BD0000752CDE90042001C41F5801132462B46B8
:104BE000FFF753FF03B0BDE8F08F40462146F9E7D9
:104BF000001B61EB0201001C41F5801300185B41B2
:104C00002018A2F5001747EB030140EAD570B6194A
:104C10006D4111E06D084FEA360645EAC0754FEA6E
:104C20000752001B61EB0201001C41F5801149088D
:104C30004FEA30000019514132462B4603B0BDE81F
:104C4000F04FFFF713BF0098012240000023D0EB84
:104C5000020263EBE073009821464FEAE074B8EB80
:104C6000000061EB0401E9E783F000435BE781F0BA
:104C7000004158E7C1F30A52C1F3130140F2FF3378
:104C800041F480119A4202DA00200146704740F256
:104C900033439A42A2F2334202DC524200F03BB864
:104CA00000F02AB830B5041E71F1000404DB4FF0A7
:104CB0000044404264EB0101141E73F1000405DB63
:104CC0001C464FF00043524263EB0403994208BF75
:104CD000904230BD064C074D06E0E06840F001030D
:104CE00094E8070098471034AC42F6D3FBF724FA57
:104CF000BC580008DC580008202A04DB203A00FADF
:104D000002F1002070479140C2F1200320FA03F322
:104D1000194390407047202A04DB203A21FA02F020
:104D20000021704721FA02F3D040C2F120029140E5
:104D3000084319467047202A06DBCB17203A41FA70
:104D400002F043EAE07306E041FA02F3D040C2F118
:104D50002002914008431946704700000FB4084BE9
:104D600010B504A902AA039800F0CEF8044602A9DF
:104D7000002000F060FC204610BC5DF814FB000031
:104D80003756000802E008C8121F08C1002AFAD1ED
:104D900070477047002001E001C1121F002AFBD1BB
:104DA000704700002DE9FF5FDDE90220010DDDF80D
:104DB00038B0024318D044F61050A1F2FF314143FD
:104DC0000D140F98012820D0A5EB0B00401C5FEAC2
:104DD000000A4FF00004474EDFF81C91A0465046F1
:104DE00016D5CAF1000728E00F98012443A2012834
:104DF00008D0002100980F9BC0E90021C0E90243C0
:104E0000BDE8FF9F6FEA0B01F4E7CBF10000DEE79E
:104E1000074612E0F80707D0224633464046494687
:104E2000FFF773FC804689462246334610461946F2
:104E3000FFF76BFC04460E467F10002FEAD1DDE938
:104E40000201BAF1000F42464B4602DAFFF75DFC61
:104E500001E0FFF7CCFC04460E460022284BFFF78A
:104E600021FF03D84FF0FF30014607E00022254B19
:104E700020463146FFF757FEFFF7FCFE102409E0FD
:104E8000002C0ADB0A220023FFF788FD019B303249
:104E90001A55641E50EA0102F2D1641C019AC4F151
:104EA000110314440F9A012A03D0012208430DD1A3
:104EB0000AE0084304D000204FF0110B0F9080E768
:104EC000A3EB0B056D1E0DE05B4504DD4FF000020A
:104ED00005F1010504E003DA4FF00002A5F1010538
:104EE000002AECD000980F99C0E90231C0E90045D2
:104EF00086E70000000024400000F03F3000000082
:104F00000000F0430000E03F2DE9FF4F95B09B46C5
:104F10008946064600250FE2252877D1002427463A
:104F2000F84A0121059400E0044316F8013F203BB4
:104F300001FA03F01042F7D130782A2811D06FF02F
:104F40002F033078A0F13002092A16D8059A44F0D0
:104F5000020402EB820203EB42021044761C05902D
:104F6000EFE759F8042B0592002A03DA504244F483
:104F70000054059044F00204761C30782E2816D197
:104F800016F8010F44F004042A280DD06FF02F0208
:104F90003078A0F13003092B09D807EB870302EB27
:104FA0004303C718761CF3E759F8047B761C307866
:104FB0006C280FD006DC4C2817D068280DD06A2842
:104FC00014D104E0742810D07A280FD10DE044F4F5
:104FD00000140AE044F4801401E044F440147278B0
:104FE000824202D104F58014761C761C3078662843
:104FF0000BD013DC582877D009DC002875D0452861
:10500000F6D04628F4D047281AD19DE118E063284D
:1050100035D0642879D0652812D195E1702873D0F5
:1050200008DC6728F1D069286FD06E280DD06F2872
:1050300006D1B5E073282CD0752875D0782874D0A7
:105040005A46179990476D1C75E1C4F30250022827
:1050500009D003280DD0D9F8001004280DD00D6018
:1050600009F1040967E1D9F80010EA17C1E9005213
:10507000F6E7D9F800100D80F2E70D70F0E719F8A7
:10508000041B8DF8001000208DF80100EA46012075
:1050900003E059F804AB4FF0FF3061074FF0000117
:1050A00002D40DE008F101018846B9420FDA8045CB
:1050B000F8DB1AF808100029F4D108E008F1010122
:1050C00088468142FADB1AF808100029F6D10598C3
:1050D0005B46A0EB080721463846179A00F094FA81
:1050E000284400EB080507E04DE029E10DE01AF83F
:1050F000010B5A4617999047B8F10108F7D25B4661
:1051000021463846179A13E142E00A220092C4F37E
:1051100002524FF0000A022A08D059F804CB032AA1
:105120004FEAEC710AD00DE029E02AE009F107010D
:1051300021F00702F2E802C1914609E00FFA8CFC67
:105140004FEAEC71042A03D14FFA8CFC4FEAEC7160
:10515000002907DA0A460021DCF1000C61EB0201AC
:105160002D2202E0220504D52B228DF804200122F5
:1051700003E0E20701D02022F7E7904659E00A2138
:1051800002E010220DE010214FF0000A00910BE028
:1051900010224FF0000A44F004040827009203E0B4
:1051A00008224FF0000A0092C4F30252022A05D0EE
:1051B00059F804CB0021032A08D009E009F10701BE
:1051C00021F00702F2E802C1914605E01FFA8CFCCB
:1051D000042A01D10CF0FF0C4FF00008220728D55B
:1051E000702806D0009B83F0100353EA0A0305D011
:1051F0000EE040228DF80420012208E05CEA010262
:1052000006D030228DF804208DF805000222904649
:10521000009B83F0080353EA0A030AD15CEA010207
:1052200001D1620705D530228DF804204FF0010826
:105230007F1E582804D034A003900EA802900DE0E1
:1052400036A0F9E753466046009AFFF7A7FB84466D
:105250000398825C0298401E029002705CEA010092
:10526000F0D1029806A9081A00F1200A600702D5B9
:1052700024F4803400E00127574502DDA7EB0A0043
:1052800000E0002000EB0A01009005984144401A1C
:105290000590E00306D45B462146179A059800F076
:1052A000B3F90544002706E001A85A46C05D1799E6
:1052B00090476D1C7F1C4745F6DBE0030CD55B4631
:1052C0002146179A059800F09FF9054404E0302024
:1052D0005A46179990476D1C0099481E0090002966
:1052E000F5DC08E0029802995A460078491C0291C0
:1052F000179990476D1CBAF10001AAF1010AF1DC7F
:1053000065E1000009280100303132333435363789
:105310003839616263646566000000003031323301
:1053200034353637383941424344454600000000A1
:1053300000F058F90544761C307800287FF4ECAD75
:1053400019B02846BDE8F08F620700D4062709F19E
:10535000070222F0070CFCE80223E14603F00048B4
:105360005FEA080C02D00FF2702C0DE05FEA045CDB
:1053700002D50FF2682C07E05FEAC47C02D00FF27E
:10538000602C01E0AFF2700C4FF0FF3823F00043C7
:10539000CDF850C065280CD006DC452809D0462839
:1053A0001DD047283DD13DE0662818D067287ED122
:1053B00038E00021112F01DB112000E0781CCDE93D
:1053C000000106A90EA8FFF7EDFCDDE90F010E9A1A
:1053D00003910021009207F1010A04914DE04FF082
:1053E00000400097CDE9011006A90EA8FFF7DAFCEE
:1053F000DDE90F0203920E9B11990022DDF80CA04B
:105400000093049211B9791C00EB010AB7EB0A0072
:1054100004D4C0F1FF3007F1010A0490AAEB0700A1
:10542000019044E0012F00DA01270021112F01DD56
:10543000112000E03846CDE9000106A90EA8FFF7CB
:10544000B1FCDDE90F010E9A039100210491009255
:10545000BA4621070CD40399514500DA8A46BAF1BD
:10546000010F05DD009AAAF10101515C302908D035
:10547000B84202DA10F1040F06DA0121CDE9011079
:1054800015E0AAF10101E9E7002805DC04990144CF
:105490000491AAEB000102E0411C514500DD8A465F
:1054A0000499401A401C01904FF0004002902007E0
:1054B00004D40198504501DBCDF8048000208DF81C
:1054C0004F0002980DF14F07B0F1004F25D02B206F
:1054D0000E9002984FF0020800280CDA4042029029
:1054E0002D200E9007E00A210298FFF741FA303193
:1054F000029007F8011DB8F10001A8F10108F2DCE3
:1055000002980028EFD1791E0E980870307800F0CC
:10551000200040F0450007F8020D12A8C01B00F162
:1055200007081498007800B1012000EB0A010198E7
:1055300001EBE07105984144401A401E0590E003DC
:1055400006D45B462146179A059800F05DF805449D
:105550001498007818B15A46179990476D1CE003CB
:1055600024D55B462146179A059800F04DF805446E
:105570001CE00498002807DBDDE90301884203DD15
:105580000098405C179901E0179930205A469047DF
:10559000049805F10105401C04900198401E0190FB
:1055A00004D12E205A46179990476D1CBAF100017C
:1055B000AAF1010ADDDC05E017F8010B5A4617993C
:1055C00090476D1CB8F10001A8F10108F4DC5B46BE
:1055D0002146179A0598ABE62D0000002B0000002D
:1055E000200000002DE9F041044600251E46174624
:1055F000880404D405E039462020B0476D1C641EA1
:10560000F9D52846BDE8F0812DE9F0410446002592
:105610001E469046C80301D5302700E020278804A5
:1056200004D505E041463846B0476D1C641EF9D5E7
:105630002846BDE8F0810A68531C0B601070704763
:1056400000C1814001C0804101C0804100C1814052
:1056500001C0804100C1814000C1814001C0804142
:1056600001C0804100C1814000C1814001C0804132
:1056700000C1814001C0804101C0804100C1814022
:1056800001C0804100C1814000C1814001C0804112
:1056900000C1814001C0804101C0804100C1814002
:1056A00000C1814001C0804101C0804100C18140F2
:1056B00001C0804100C1814000C1814001C08041E2
:1056C00001C0804100C1814000C1814001C08041D2
:1056D00000C1814001C0804101C0804100C18140C2
:1056E00000C1814001C0804101C0804100C18140B2
:1056F00001C0804100C1814000C1814001C08041A2
:1057000000C1814001C0804101C0804100C1814091
:1057100001C0804100C1814000C1814001C0804181
:1057200001C0804100C1814000C1814001C0804171
:1057300000C1814001C0804101C0804100C1814061
:1057400000C0C101C30302C2C60607C705C5C40421
:10575000CC0C0DCD0FCFCE0E0ACACB0BC90908C891
:10576000D81819D91BDBDA1A1EDEDF1FDD1D1CDC81
:1057700014D4D515D71716D6D21213D311D1D010F1
:10578000F03031F133F3F23236F6F737F53534F4E1
:105790003CFCFD3DFF3F3EFEFA3A3BFB39F9F83851
:1057A00028E8E929EB2B2AEAEE2E2FEF2DEDEC2C41
:1057B000E42425E527E7E62622E2E323E12120E0B1
:1057C000A06061A163A3A26266A6A767A56564A4A1
:1057D0006CACAD6DAF6F6EAEAA6A6BAB69A9A86811
:1057E00078B8B979BB7B7ABABE7E7FBF7DBDBC7C01
:1057F000B47475B577B7B67672B2B373B17170B071
:105800005090915193535292965657975595945460
:105810009C5C5D9D5F9F9E5E5A9A9B5B99595898D0
:10582000884849894B8B8A4A4E8E8F4F8D4D4C8CC0
:105830004484854587474686824243834181804030
:1058400041542B4E52420D0A0000000041542B4E91
:10585000534F434C3D200D0A0000000041542B4E95
:10586000534F43523D2253545245414D222C362C26
:10587000202C320D0A0000000000000041542B4E85
:10588000534F434F3D202C3130332E34362E31329E
:10589000382E34392C35363934390D0A41542B4ED3
:1058A000534F434F3D202C3232312E3133312E387D
:1058B000352E392C313233340D0A0000DC58000803
:1058C00000000020A4000000844D0008805900085A
:1058D000A400002084200000944D000800A24A0487
:1058E0000000000000000000010203040607080990
:1058F00033203230000000000000332033203320FA
:105900003230000000000000000000000000000035
:1059100000000000802500000000040000000000DE
:1059200000000001030000004C000008000000001F
:105930000000000000000000B1040000EA030000C5
:10594000FF0800000C200000000000000000000024
:1059500000000000000000000000610000000000E6
:105960000000000000000000000000000000000037
:1059700001020304010203040607080902040608E1
:0400000508000131BD
:00000001FF
