:020000040800F2
:100000009015002059170008E9020008EB020008CB
:10001000EF020008F3020008F702000800000000E9
:10002000000000000000000000000000FB020008CB
:10003000FD02000800000000FF02000801030008A4
:100040007317000873170008731700087317000868
:100050007317000873170008731700087317000858
:100060007317000873170008E905000873170008E4
:100070007317000873170008731700087317000838
:100080007317000873170008731700087317000828
:100090007317000873170008731700082B04000873
:1000A0007317000873170008731700087317000808
:1000B00073170008731700087317000873170008F8
:1000C00073170008731700087317000873170008E8
:1000D000731700087317000803030008731700085C
:1000E00083040008731700087317000873170008CB
:1000F00073170008731700087317000873170008B8
:1001000073170008731700087317000873170008A7
:100110007317000873170008731700087317000897
:100120007317000873170008731700087317000887
:10013000DFF80CD003F042F8004800474501000802
:100140009015002000F019FB01F05CF94FF4A0605D
:1001500001F014FB00F026FD01F0EFF901F0B6FA12
:1001600001F04EF801F03FF99EE050480078012878
:1001700005D100024E4908614000486105E04FF496
:1001800080704B4948614000486100F0E0FF4948F9
:10019000008802F0BEFD81464FF08B4102F009FD60
:1001A000044602F0BBFD07464FF06632424B02F0B8
:1001B0003EFD054602F0C5FD4049086080213C48EF
:1001C00001F071FA012807D13DA13F4801F077F80D
:1001D0004FF4FA7001F053F93C48006801281DDB28
:1001E0004FF4FA7001F04BF93948006860B9032008
:1001F0003849086000F052FC642001F040F900F03A
:100200002AFF00203349086031480068012802D1E4
:1002100000202F49086000202C4908602D48006804
:10022000022809D100F03AFC642001F028F900F01E
:1002300012FF00202749086026480068012809D1DC
:1002400000F02CFC642001F01AF900F004FF0020FB
:100250002049086020480068012805D11F4800682F
:10026000401C1E49086002E000201C4908601B4831
:1002700000680A2190FBF1F01949086019480068EC
:10028000962809D100F00AFC642001F0F8F800F08B
:10029000E2FE002013490860642001F0F0F81148E4
:1002A0000068401C0F4908605FE700009F000020C5
:1002B00000100140A200002066660A4024000020D1
:1002C00041320D0A00000000004C004038000020C0
:1002D000140000200C00002000000020300000204E
:1002E0005C0000202C000020704700BFFEE700BF2C
:1002F000FEE700BFFEE700BFFEE7704770477047AC
:10030000704710B50121D74801F0D0FF30B1D54872
:1003100001F062FF0121D34801F0D5FF0821D14847
:1003200001F0C4FF30B1CF4801F056FF0821CD489D
:1003300001F0C9FF0221CB4801F0B8FF30B1C94834
:1003400001F04AFF0221C74801F0BDFF40F22551EC
:10035000C44801F0C1FF38B32021C24801F0B3FF07
:1003600040F22551BF4801F0E1FF0721BD4801F0EF
:100370009DFF08B1012400E00024B4B9BA48006828
:1003800040F2FF71884210D2B64801F025FFC1B299
:10039000B54802680068401CB34B186003F10900BF
:1003A000815401201946087202E0AE4801F014FFA2
:1003B000AEA1AD48093002F0E3FBE8B14021AD4801
:1003C00001F071F9C0B98021AA4801F06CF9012847
:1003D00012D14020A84908608020091D086041F220
:1003E000883001F04CF84FF4FA6001F048F84020F2
:1003F000A149086080200860A0A19B48093002F054
:10040000BFFB88B140219B4801F04DF901280BD179
:100410008021984801F047F930B940209649091DDC
:1004200008608020091F086010BD10B5402002F050
:100430005DFB80B140218F4801F035F9012807D1DB
:1004400040208D4908608020086001208D490860A7
:10045000402002F05CFB802002F048FB80B180214C
:10046000844801F020F9012807D140208249086022
:1004700080200860002083490860802002F047FB4C
:1004800010BD10B54FF4804002F030FB002836D08C
:10049000322000F0F4FF8021764801F004F90128B1
:1004A00004D1402074490860802008608021714890
:1004B00001F0F9F8F8B94FF480416F48103801F0B5
:1004C000F2F8012804D170480068401C6E490860A9
:1004D0006D48006802280ED140206749091D086058
:1004E0008020091F08600120684908606849086089
:1004F0000020654908604FF4804002F008FB4FF48B
:10050000004002F0F3FA90B30020624908609620A0
:1005100000F0B5FF0DE04FF4C87000F0B0FF5D488B
:100520000068401C5B49086008460068052800DD3B
:1005300007E04FF400415048103801F0B4F80128AA
:10054000E9D000BF53480068062809DB40204A492B
:10055000091D08608020091F086002204B490860BF
:1005600000204C4908604FF4004002F0D0FA4FF4EC
:10057000805002F0BBFAB0B340213E4801F093F83E
:10058000012804D140203C490860802008604021B7
:10059000384801F088F810BB4FF480513E4801F014
:1005A00082F801281BD110213B4801F07CF801287A
:1005B00015D1142000F063FF40202F4908608020EF
:1005C000091D086041F2883000F059FF41F288307F
:1005D00000F055FF402028490860802008604FF453
:1005E000805002F094FA10BD10B5102002F07EFA8F
:1005F000002835D040211F4801F055F8012804D1CA
:1006000040201D490860802008604021194801F001
:100610004AF810BB4FF480511F4801F044F80128FC
:100620001BD110211C4801F03EF8012815D11420DF
:1006300000F025FF4020104908608020091D086057
:1006400041F2883000F01BFF41F2883000F017FFC4
:1006500040200949086080200860102002F057FA05
:1006600010BD0000004400408009002034463333B0
:100670003333000000100140100C01403533333497
:100680003334000000000020380000200C0000205F
:100690001400002034000020000801400CB50020A8
:1006A000019000906C48006840F480306A4908600E
:1006B00000BF6948006800F4003000900198401CB9
:1006C0000190009818B90198B0F5A06FF1D1624877
:1006D000006800F4003010B10120009001E000201B
:1006E00000900098012843D15C48006840F0100059
:1006F0005A4908600846006820F003000860084670
:10070000006840F002000860534840685249486061
:100710000846406848600846406840F48060486089
:100720000846406820F47C1048600846406840F461
:10073000E81048600846006840F08070086000BF1C
:100740004548006800F000700028F9D04248406831
:1007500020F00300404948600846406840F002002D
:10076000486000BF3C48406800F00C000828F9D100
:100770000CBD10B5FFF792FF10BD10B536480068EC
:1007800040F0010034490860084640683449084098
:100790003149486008460068324908402E490860DF
:1007A0000846006820F4802008600846406820F46D
:1007B000FE0048604FF41F008860FFF7DAFF4FF03B
:1007C00000602949086010BD10B5002100200022FA
:1007D000214B5B6803F00C0121B1042906D00829E4
:1007E00028D107E0214B224C236027E01F4B204CEF
:1007F000236023E0184B5B6803F47010164B5B68B2
:1008000003F48032022303EB904022B9194B434397
:10081000174C23600DE0104B5B6803F4003323B1E9
:10082000144B4343124C236003E0104B4343104CE2
:10083000236003E00D4B0E4C236000BF00BF064B4E
:100840005B68C3F303130C4CE15C094B1B68CB40A2
:10085000074C236010BD0000001002400020024041
:100860000000FFF8FFFFF6FE08ED00E000127A003E
:100870004400002000093D004800002070B514210C
:10088000AC4802F066F93C21AB4802F062F9AB4992
:10089000A84802F069F9AAA1A64802F065F9002566
:1008A00000241CE0A348005D30280BDBA148005D5C
:1008B000392807DC3320A04948559E48015D9E4AEF
:1008C000681C11549B48005D202806D132209A49AB
:1008D00048553021984A681C1154AD1C641C954839
:1008E000005D0028DED170BD2DE9F0419548002162
:1008F0000160416001811E21934802F02AF993486A
:10090000006802F00BFA064632460B4690A18D486D
:1009100002F098FC8AA18B4802F026F900240025F9
:1009200032E08848405D30280BDB8648405D39283E
:1009300007DC3320844908558248415D824A601CA7
:1009400011548048405D202806D132207E49085548
:1009500030217D4A601C11547A48405D2D2806D113
:100960003220794908554421774A601C1154754852
:10097000405D2E2806D13220734908554521724A20
:10098000601C1154A41C6D1C6E48405D0028C8D129
:10099000BDE8F08170B570480021016041600181BF
:1009A0001E216E4802F0D5F86D486EA102686A48B3
:1009B00002F048FC62A1684802F0D6F80025002445
:1009C0001CE06548005D30280BDB6348005D39287A
:1009D00007DC3320614948555F48015D5F4A681C68
:1009E00011545D48005D202806D132205B494855EE
:1009F00030215A4A681C1154AD1C641C5648005DD5
:100A00000028DED170BD2DE9F0415748002101607A
:100A1000416001811E21554802F09BF8544800684E
:100A200002F07CF9064632460B4652A14E4802F0CF
:100A300009FC43A14C4802F097F80024002527E068
:100A40004948405D30280BDB4748405D392807DCCA
:100A50003320464908554448415D444A601C1154BE
:100A60004148405D202806D13220404908553021B8
:100A70003E4A601C11543C48405D2E2806D132206D
:100A80003A4908554521394A601C1154A41C6D1C73
:100A90003548405D0028D3D1BDE8F08110B54FF452
:100AA0008061364802F055F8FFF7E8FEFFF71CFFBB
:100AB000FFF770FF2049314802F056F822492F48CD
:100AC00002F052F82E48006818B92E492B4802F05F
:100AD0004BF82B480068012803D12B49274802F026
:100AE00043F81E49254802F03FF82848006818B925
:100AF0002749224802F038F824480068012803D129
:100B000024491E4802F030F820480068022803D12A
:100B100021491A4802F028F81C480068032803D12C
:100B20001E49164802F020F81D49144802F01CF82E
:100B300010BD0000BC000020D00000206C09002087
:100B4000200000000C0100201601002058000020A9
:100B5000252E316600000000340100203E010020F7
:100B60005C000020256400005C010020660100207C
:100B700060000020252E3266000000008401002065
:100B800000000020940000208D0000200C000020B8
:100B900084000020720000207B00002069000020FB
:100BA0006400002000B587B00121042001F070F935
:100BB0000121480401F079F90420ADF8180018204B
:100BC0008DF81B0003208DF81A0006A9FA4800F0E2
:100BD000A3FE0820ADF8180004208DF81B0006A91C
:100BE000F54800F099FE4FF4E13002900020ADF896
:100BF0000C00ADF80E00ADF81000ADF814000C209C
:100C0000ADF8120002A9ED4801F0E9F94FF4A06037
:100C100000F0B4FD26208DF8040002208DF80500B8
:100C200001208DF806008DF8070001A800F0ABFD4B
:100C3000012240F22551E14801F069FA0121DF4823
:100C400001F059FA07B000BD70B504460D462946BB
:100C5000204601F0BDFA00BF8021204601F026FBAE
:100C60000028F9D070BD2DE9F04107460D46164623
:100C7000002405E0295D3846FFF7E6FF601CC4B29A
:100C8000B442F7DB00BF4021384601F00FFB0028DB
:100C9000F9D0BDE8F08170B506460C46002500BFCE
:100CA000615D3046FFF7D0FF6D1C605D0028F7D115
:100CB00000BF4021304601F0F9FA0028F9D070BD9C
:100CC0002DE9F04105460C46260AE7B23146284692
:100CD00001F07EFA00BF8021284601F0E7FA0028E3
:100CE000F9D03946284601F073FA00BF8021284622
:100CF00001F0DCFA0028F9D0BDE8F08170B50446B7
:100D00000D46E1B2AD4801F063FA00BF8021AB4867
:100D100001F0CCFA0028F9D0204670BD10B5044689
:100D200000BF2021A54801F0C1FA0028F9D0A3484E
:100D300001F052FA10BD70B504460D460DE000BF3B
:100D400040219E4801F0B2FA0028F9D014F8011BA6
:100D50009A4801F03DFA681E85B2002DEFDC70BDA7
:100D600010B500209649086008724FF4006194485D
:100D7000093001F0EEFE10BD2DE9F04188B00546C6
:100D80000C460026002706E014F8012B3046711CA3
:100D9000CEB20DF8002020780028F5D1FFF7E0FF53
:100DA000284601F0FFFE1FFA80F841462846FFF76B
:100DB000C2FF4FF47A7000F062FB8148007A01288C
:100DC0000CD10CB901270AE069467D48093001F0D1
:100DD000D7FE08B1012702E0002700E00027012F1D
:100DE00003D1002008B0BDE8F0810120FAE73EB54C
:100DF000744A07CA8DE80700FFF7B2FF1421724852
:100E000001F0A7FE4FF4FA7000F039FB6FA16846BD
:100E1000FFF7B2FF08BB0B24002512E06848093039
:100E2000005D30280BDB66480930005D392806DCA0
:100E300063480930005D64494855681CC5B2601CB0
:100E4000C4B25F48093001F0ADFEA042E6D80E2DD5
:100E50002EDB00205E4908702AE040F2DC5000F0F2
:100E60000EFB5AA15648093001F08AFE00B3002457
:100E7000002512E052480930005D30280BDB504855
:100E80000930005D392806DC4D480930005D4E49C7
:100E90004855681CC5B2601CC4B24948093001F00D
:100EA00081FEA042E6D80E2D02DB002048490870E2
:100EB0003EBD0EB5434A0C3207CA8DE80700FFF766
:100EC0004FFF4FF4FA7000F0DAFA40A16846FFF7DE
:100ED00053FF0EBD10B586B03A4B18330FCB02ACA2
:100EE0000FC43CA103C9CDE9000100240FE01DF8A7
:100EF00004008DF81100FFF733FF4FF4FA7000F093
:100F0000BEFA32A102A8FFF737FF601CC4B2022C60
:100F1000EDDB01203149087006B010BD30B589B055
:100F200020222849283101A801F0FAFD002533E0EC
:100F3000FFF716FF4FF4FA7000F0A1FA23A101A801
:100F4000FFF71AFF30BB0E2414E01D480930005D86
:100F500030280DDB1A480930005D392808DC1848B4
:100F60000930005D1E49087001201E49087007E025
:100F7000601CC4B21248093001F014FEA042E4D84B
:100F800000BF17480078302804DB1548007839285E
:100F900000DC03E0681CC5B2022DC9DB00BF022DD6
:100FA00008DB0F480078612804D100200B49087045
:100FB0000C49087009B030BD0008014000440040F1
:100FC00080090020483B00086C0900204F4B0000BE
:100FD0009E00002030313233343536009C00002032
:100FE000A10000209D00002000B59BB0342275496F
:100FF0000EA801F095FD34227249343101A801F0A8
:101000008FFD714800788DF84200FFF7A9FEC820D7
:1010100000F035FAAFF24C010EA8FFF7ADFE18B99B
:1010200001206A49087014E040F2DC5000F027FA11
:10103000AFF26801664801F0A3FD18B101206349D1
:10104000087006E0002063490870634908705F4932
:1010500008701BB000BD10B588B060A207CA05AB10
:1010600007C35A48007801286FD15748007801908B
:101070004FF47A715C4801F06CFD5C4801F092FD20
:10108000440822465AA102A802F0DCF805A95648F5
:1010900001F06AFD01A9544801F066FD55A15248CE
:1010A00001F062FD02A9504801F05EFD51A14E48D9
:1010B00001F05AFD4D494C4801F056FD4EA14A48F9
:1010C00001F052FDFFF74CFE4FF47A7000F0D7F9B3
:1010D000AFF208114448FFF74FFE18B90120474905
:1010E000087032E040F2DC5000F0C9F9AFF2241190
:1010F000374801F045FD18B101204049087024E04F
:1011000040F2DC5000F0BBF9AFF24011304801F082
:1011100037FD18B101203949087016E040F2DC5063
:1011200000F0ADF9AFF25C11294801F029FD18B1CA
:1011300001203249087008E000202649087026493D
:101140000870224908702D49087008B010BD10B50C
:101150002048007898B9FFF703FE642000F08FF96B
:10116000FFF7B8FE642000F08AF9FFF7F9FD64206C
:1011700000F085F9FFF73BFE642000F080F9164887
:10118000007868B913480078012809D1FFF7E8FD15
:10119000642000F074F9FFF7C1FE642000F06FF9DD
:1011A0000A48007868B90C480078012809D1FFF78F
:1011B000D7FD642000F063F9FFF716FF642000F00C
:1011C0005EF910BD903B0008A10000209F000020A8
:1011D000890900209C0000209D00002041542B45DF
:1011E000534F53454E443D008405002084010020A8
:1011F000256400002C0000000D0A0000A000002063
:1012000000B585B00121C80400F04FFE0121102077
:1012100000F03EFE4FF48060ADF8100018208DF80D
:10122000130003208DF8120004A92C4800F074FB71
:101230004FF40060ADF8100004208DF8130004A9ED
:10124000264800F069FB4FF4165000900020ADF8DE
:101250000400ADF80600ADF80800ADF80C000C2055
:10126000ADF80A0069461E4800F0B9FE01211C488D
:1012700000F041FF40211A4801F025F805B000BDFB
:1012800070B504460D462946204600F0A1FF00BF78
:101290008021204601F00AF80028F9D070BD2DE920
:1012A000F04107460D461646002400BF295D38462A
:1012B000FFF7E6FF641CB442F8D3BDE8F08170B5D7
:1012C00006460C46002500BF615D3046FFF7D8FF9B
:1012D0006D1C605D0028F7D170BD0000001001405A
:1012E000004C004008B50121102000F0D1FD022083
:1012F000ADF8000000208DF8030069463D4800F07D
:101300000BFB08BD00B591B00121084600F0B3FD0C
:101310000121480200F0BCFD374801F049FA374886
:10132000069037480790002008900120099000207F
:101330000A900B904FF480700C9080000D9020204C
:101340000E9000020F900020109006A92A4801F08C
:10135000D1FA0121284801F0F8FA002001908DF817
:10136000080001208DF809004FF460200390002050
:10137000049001208DF8140001A920484C3801F098
:1013800016F84FF4404000F0E7FC052301220B2142
:101390001A484C3801F0A3F8012118484C3801F0E4
:1013A0003DF8012115484C3801F02DF813484C3810
:1013B00001F04BF800BF11484C3801F04BF8002801
:1013C000F9D10E484C3801F04FF800BF0B484C38AB
:1013D00001F04FF80028F9D1012108484C3801F0FC
:1013E00052F811B000BD10B5FFF77CFFFFF78AFF80
:1013F00010BD000000100140080002404C240140D4
:10140000A200002010B56FF0040000F006FA2E488C
:1014100000682E49B0FBF1F02D49087008460078AD
:1014200000EB4001C1EBC0104FF6FF7101EAC000B4
:101430002849088010BD0146254A12784A434FF0DA
:10144000E0235A6100229A611A46126942F00102B1
:101450001A6100BF4FF0E022106900F001021AB1DA
:1014600000F48032002AF5D04FF0E022126922F019
:1014700001024FF0E0231A6100229A617047014691
:10148000144A12884A434FF0E0235A6100229A61BD
:101490001A46126942F001021A6100BF4FF0E022C1
:1014A000106900F001021AB100F48032002AF5D070
:1014B0004FF0E022126922F001024FF0E0231A619E
:1014C00000229A61704700004400002000127A0058
:1014D000A4000020A600002008B54FF4A06000F092
:1014E0004DF917208DF8000001208DF801008DF8CE
:1014F00002008DF80300684600F045F917208DF8CA
:101500000000684600F03FF928208DF8000068468A
:1015100000F039F928208DF80000684600F033F912
:1015200028208DF80000684600F02DF90A208DF87B
:101530000000684600F027F908BD0EB501211D2006
:1015400000F0A6FCFFF7C8FF4020ADF8080004201B
:101550008DF80B0002A95A4800F0DEF9062102209E
:1015600000F0F0FA4020009000208DF804000C20DC
:101570008DF8050001208DF80600684601F050FA4C
:101580008020ADF8080004208DF80B0002A94C481B
:1015900000F0C2F90721022000F0D4FA8020009068
:1015A00000208DF804000C208DF8050001208DF836
:1015B0000600684601F034FA4FF48040ADF80800A8
:1015C00004208DF80B0002A93E4800F0A5F90E2179
:1015D000012000F0B7FA4FF48040009000208DF811
:1015E00004000C208DF8050001208DF806006846E7
:1015F00001F016FA4FF40040ADF8080004208DF811
:101600000B0002A92F4800F087F90F21012000F0FC
:1016100099FA4FF40040009000208DF804000C204F
:101620008DF8050001208DF80600684601F0F8F9F4
:101630004FF48050ADF8080004208DF80B0002A98B
:10164000214800F069F90C21002000F07BFA4FF4EA
:101650008050009000208DF804000C208DF80500CB
:1016600001208DF80600684601F0DAF91020ADF887
:10167000080004208DF80B0002A9134800F04CF973
:101680000421002000F05EFA1020009000208DF868
:1016900004000C208DF8050001208DF80600684636
:1016A00001F0BEF90EBD70B504460D462946204630
:1016B00000F0C5F908B9012070BD0020FCE700006A
:1016C00000100140000C01400008014008B5012154
:1016D000182000F0DDFB4020ADF8000010208DF850
:1016E000030003208DF802006946194800F014F940
:1016F0008020ADF800006946154800F00DF94FF460
:101700008070ADF800006946124800F005F94FF40A
:101710000070ADF8000069460E4800F0FDF8402169
:101720000B4800F0A6F98021094800F0A2F94FF417
:101730008071084800F09DF94FF40071054800F0F1
:1017400098F908BD4022024B14331A60704700001C
:10175000000C014000100140064880470648004741
:10176000FEE7FEE7FEE7FEE7FEE7FEE7FEE7FEE751
:10177000FEE7FEE77B07000831010008314901431D
:10178000314A1160704770B5002100230F22C478E0
:1017900004B32D4C246804F4E064C4F5E064210A29
:1017A000C1F10403CA40447804FA03F18478144078
:1017B00021430901254C0678A155047804F01F0542
:1017C0000124AC4005786D11AD0005F1E025C5F8A8
:1017D000004109E0047804F01F050124AC401C4DD1
:1017E0000678761145F8264070BD1A4A0A40024331
:1017F000154B1B1F1A60704739B1134A121D12682E
:101800000243114B1B1D1A6006E00F4A121D12689D
:1018100082430D4B1B1D1A607047042808D14FF0FE
:10182000E021096941F004014FF0E022116107E075
:101830004FF0E021096921F004014FF0E02211612D
:10184000704700000000FA050CED00E000E400E045
:1018500080E100E080FFFF1F10B50446CC488442C1
:1018600008D10121042000F02DFB0021042000F00C
:1018700029FB46E0C748844208D10121082000F036
:1018800021FB0021082000F01DFB3AE0C248844201
:1018900008D10121102000F015FB0021102000F0DC
:1018A00011FB2EE0BD48844208D10121202000F028
:1018B00009FB0021202000F005FB22E0B84884420B
:1018C00008D10121402000F0FDFA0021402000F065
:1018D000F9FA16E0B348844208D10121802000F0D3
:1018E000F1FA0021802000F0EDFA0AE0AE488442CF
:1018F00007D10121801500F0E5FA0021A01500F0C4
:10190000E1FA10BD10B50121084600F0DBFA002114
:10191000012000F0D7FA10BD2DE9F0410246002564
:101920000026002000230024002791F803C00CF0BB
:101930000F0591F803C00CF0100CBCF1000F03D0A0
:1019400091F802C04CEA050591F800C0BCF1000F07
:1019500031D0146800202BE04FF0010C0CFA00F39A
:10196000B1F800C00CEA03069E4220D183004FF07C
:101970000F0C0CFA03F7BC4305FA03FC4CEA040411
:1019800091F803C0BCF1280F06D14FF0010C0CFAFE
:1019900000FCC2F814C00AE091F803C0BCF1480F83
:1019A00005D14FF0010C0CFA00FCC2F810C0401C2D
:1019B0000828D1D31460B1F800C0BCF1FF0F34DDAA
:1019C000546800202EE000F1080C4FF0010808FADE
:1019D0000CF3B1F800C00CEA03069E4221D183004B
:1019E0004FF00F0C0CFA03F7BC4305FA03FC4CEA6A
:1019F000040491F803C0BCF1280F05D100F1080CD4
:101A000008FA0CF8C2F8148091F803C0BCF1480F32
:101A100007D100F1080C4FF0010808FA0CF8C2F8E1
:101A20001080401C0828CED35460BDE8F0814FF6EA
:101A3000FF710180022181700421C170704702464C
:101A4000002093680B400BB1012000E0002070479C
:101A50000146886880B2704702460020D3680B4078
:101A60000BB1012000E0002070470146C86880B239
:101A7000704701617047416170470AB1016100E040
:101A800041617047C16070474FF480320A43826100
:101A90008161826182698269704702460020434BFE
:101AA00018684FF68073184040EA021008433F4B15
:101AB000186070473E49C8617047F0B50A46002378
:101AC00000240021002500F00046B6F1004F02D1AD
:101AD000364EF16901E0354E7168C0F3034583B2BB
:101AE00000F44016B6F5401F08D121F070612F4E6A
:101AF000766826F070662D4F7E6012E000F4801646
:101B0000B6F5801F06D1032606FA05F4A14341F07D
:101B1000706106E0460D360103FA06F6B14341F066
:101B2000706122B1460D360103FA06F6314300F02A
:101B30000046B6F1004F02D11C4EF16101E01B4E90
:101B40007160F0BD30B500228B071C0F0F2303FA24
:101B500004F2164B08338C1053F824309343134C83
:101B600008348D1044F8253023468C1053F8243067
:101B70008C07240F00FA04F423430C4C08348D1016
:101B800044F8253030BD0A49DC3108607047000058
:101B900000080140000C0140001001400014014009
:101BA00000180140001C01400020014000000140DD
:101BB00000002042DF48006840F00100DD49086075
:101BC00008464068DC490840DA4948600846006831
:101BD000DA490840D74908600846006820F48020A8
:101BE00008600846406820F4FE0048604FF41F007B
:101BF00088607047CF49096821F48031CD4A11606F
:101C00001146096821F480211160B0F5803F03D0AE
:101C1000B0F5802F0ED106E0C649096841F4803145
:101C2000C44A116007E0C349096841F4A021C14AD0
:101C3000116000E000BF00BF704710B501460022F0
:101C4000002300204A11012A02D1BA4C236806E081
:101C5000022A02D1B74C236A01E0B64C636A01F054
:101C60001F02012494401C400CB1012000E0002020
:101C700010BD38B5002000900024002500BF3120A1
:101C8000FFF7DBFF05460098401C00900098B0F578
:101C9000A06F01D0002DF2D03120FFF7CEFF08B1A8
:101CA000012400E00024204638BD01460020A14A5E
:101CB000106820F0F80040EAC10010607047A049A9
:101CC00008607047024600209A4B586820F47C1048
:101CD00042EA01031843974B5860704798490866D9
:101CE000704701460020934A506820F003000843E3
:101CF000506070478F48406800F00C007047014604
:101D000000208C4A506820F0F00008435060704773
:101D100001460020874A506820F4E0600843506084
:101D2000704701460020834A506820F4605040EA22
:101D3000C1005060704729B17E4A527A02437D4B00
:101D40005A7204E07B4A527A82437A4B5A72704745
:101D50007B49D8310860704701460020754A5068B9
:101D600020F440400843506070470021714A2032FF
:101D70001170704A82F82010012802D004280AD17C
:101D800004E001216B4A2032117005E00521694A07
:101D90002032117000E000BF00BF70476949086041
:101DA00070476449096A0143624A11627047654994
:101DB00044390860704730B5002100220024002318
:101DC0005C4D6D6805F00C0121B1042905D008298E
:101DD00023D105E05C4D056022E05B4D05601FE00E
:101DE000544D6D6805F47012524D6D6805F48034E1
:101DF000022505EB92421CB9544D554305600BE09A
:101E00004C4D6D6805F400351DB1504D55430560CE
:101E100002E04D4D5543056002E04B4D056000BFAB
:101E200000BF444D6D6805F0F0010909484D6B5C39
:101E30000568DD4045603F4D6D6805F4E061090AC5
:101E4000434D6B5C4568DD4085603A4D6D6805F437
:101E50006051C90A3E4D6B5C4568DD40C560354D3B
:101E60006D6805F44041890B3A4D6B5CC568B5FB64
:101E7000F3F5056130BD29B12E4A526902432D4B5D
:101E80005A6104E02B4A526982432A4B5A617047D7
:101E900029B1284A92690243264B9A6104E0254AF7
:101EA00092698243234B9A61704729B1214AD269D2
:101EB0000243204BDA6104E01E4AD26982431D4B83
:101EC000DA61704729B11B4AD2680243194BDA60C4
:101ED00004E0184AD2688243164BDA60704729B191
:101EE000144A12690243134B1A6104E0114A126941
:101EF0008243104B1A61704712494039086070479D
:101F00000F49C86470470B49C87170470948406A57
:101F100040F0807007494862704701460020054A3A
:101F200092680A400AB1012000E000207047014990
:101F300088727047001002400000FFF8FFFFF6FEB5
:101F4000000042428004424200127A0000093D0033
:101F5000A8000020B800002010B50446FB488442C9
:101F600009D101218803FFF7ADFF00214FF4804024
:101F7000FFF7A8FF32E0F648844209D10121480466
:101F8000FFF7ADFF00214FF40030FFF7A8FF25E079
:101F9000F048844209D101218804FFF7A0FF002105
:101FA0004FF48020FFF79BFF18E0EB48844209D1F3
:101FB0000121C804FFF793FF00214FF40020FFF731
:101FC0008EFF0BE0E548844208D101210805FFF7A8
:101FD00086FF00214FF48010FFF781FF10BD2DE92F
:101FE000F04786B005460E460024A24600BFA14633
:101FF0000027B08900B100BF2F462C8A4CF6FF7035
:102000000440F08804432C82AC894EF6F31004405F
:10201000B08831890843718908430443AC81AC8A94
:102020004FF6FF400440B0890443AC8201A8FFF79B
:10203000C2FEC648874202D1DDF810A001E0DDF8FB
:102040000CA0A88900F4004040B10AEBCA0000EBE4
:102050000A1031684900B0FBF1F807E00AEBCA004A
:1020600000EB0A1031688900B0FBF1F86420B8FB7E
:10207000F0F004012009642101FB1089A88900F413
:10208000004040B1322000EBC900B0FBF1F000F09D
:102090000700044308E0322000EB09106421B0FB84
:1020A000F1F000F00F0004432C8106B0BDE8F0878A
:1020B0004FF41651016000218180C18001810C2103
:1020C000418100218181704710B502460020108AAD
:1020D0004FF2FF0318400B884C8823438C8823431E
:1020E000CC8823431843108210BD00210180418019
:1020F0008180C180704721B1828942F4005282817F
:1021000004E082894DF6FF731A4082817047F0B572
:102110000346002400260025002040F66A17B94235
:1021200000D100BF1846C1F3421401F01F06012779
:1021300007FA06F5012C01D10C3004E0022C01D184
:10214000103000E014301AB107682F43076002E036
:102150000768AF430760F0BD1AB1838A0B438382DF
:1021600002E0838A8B4383827047028A4FF6F073C2
:102170001A400282028A0A430282704782894FF221
:10218000FF731A40828182890A438281704721B19C
:10219000828942F00202828104E082894FF6FD7357
:1021A0001A4082817047028A4FF6DF731A4002821A
:1021B000028A0A430282704721B1028A42F48042B5
:1021C000028204E0028A4BF6FF731A4002827047D3
:1021D000C1F308028280704701468888C0F3080076
:1021E0007047818941F0010181817047028BD2B231
:1021F0000283028B42EA012202837047028B02F4BF
:102200007F420283028B0A430283704721B1828A94
:1022100042F02002828204E0828A4FF6DF731A4085
:102220008282704721B1828A42F01002828204E0E9
:10223000828A4FF6EF731A408282704721B1828AF8
:1022400042F00802828204E0828A4FF6F7731A4055
:102250008282704721B1828942F40042828103E088
:102260008289C2F30E028281704721B1828A42F4D0
:102270000062828204E0828A4FF2FF731A408282F7
:102280007047828A4FF6FB731A408282828A0A4321
:102290008282704721B1828A42F00202828204E087
:1022A000828A4FF6FD731A408282704702460020F0
:1022B000B1F5007F00D100BF13880B400BB10120A6
:1022C00000E00020704701F40072B2F5007F00D1F9
:1022D00000BFCA430280704770B502460024002345
:1022E0000025002040F66A16B14200D100BFC1F3BC
:1022F000421501F01F03012606FA03F3012D02D156
:102300009689334006E0022D02D1168A334001E05F
:10231000968A33400C12012606FA04F416883440DB
:1023200013B10CB1012000E0002070BD10B50022F7
:10233000002340F66A14A14200D100BF0A12012412
:102340009440A3B2DC43048010BD0000003801407B
:102350000044004000480040004C00400050004055
:1023600010B50446FA48844208D101214015FFF710
:10237000A9FD00216015FFF7A5FD17E0F54884428F
:1023800008D101210015FFF79DFD00212015FFF761
:1023900099FD0BE0F048844208D10121C803FFF702
:1023A00091FD00214FF40040FFF78CFD10BD30B5CA
:1023B0000246002000235068E84C20400D790C684C
:1023C00044EA0524204350609068E54C2040D1E960
:1023D00002542C434D7944EA450420439060D06A6E
:1023E00020F470000C7C641EE4B2234340EA0350E6
:1023F000D06230BD00210160017141718160C16016
:1024000001210174704721B1826842F001028260AB
:1024100003E0826822F001028260704721B1826885
:1024200042F48072826003E0826822F480728260EB
:10243000704710B50023CBB21AB144681C43446006
:1024400002E044689C43446010BD816841F008018B
:1024500081607047014600208A6802F008020AB1D4
:10246000012000E000207047816841F00401816094
:102470007047014600208A6802F004020AB1012078
:1024800000E00020704721B1826842F4A00282601F
:1024900003E0826822F4A0028260704701460020B7
:1024A0008A6802F480020AB1012000E0002070472F
:1024B00010B50A4600210023416821F46041531EF3
:1024C00041EA4331416010BD21B1426842F40062EB
:1024D000426003E0426822F4006242607047F0B557
:1024E00004460D4600200021092D11DDE068A5F10C
:1024F0000A0606EB4607072606FA07F18843A5F108
:102500000A0606EB460603FA06F10843E0600CE013
:10251000206905EB4507072606FA07F1884305EB16
:10252000450603FA06F108432061072A0FDA606BBB
:10253000561E06EB86071F2606FA07F18843561E2D
:1025400006EB860605FA06F10843606322E00D2AD1
:102550000FDA206BD61F06EB86071F2606FA07F157
:102560008843D61F06EB860605FA06F1084320636A
:1025700010E0E06AA2F10D0606EB86071F2606FAB8
:1025800007F18843A2F10D0606EB860605FA06F16F
:102590000843E062F0BD21B1826842F4801282609B
:1025A00003E0826822F48012826070470146C86CA2
:1025B00080B2704766484C300068704721B142686D
:1025C00042F48062426003E0426822F4806242602A
:1025D000704721B1426842F48052426003E0426891
:1025E00022F48052426070470A460021816821F43B
:1025F000E04111438160704721B1826842F400429A
:10260000826003E0826822F400428260704721B158
:10261000826842F40212826003E0826822F40212AD
:1026200082607047014600208A6802F400120AB1F5
:10263000012000E000207047F0B504461546002058
:1026400000220026092911DDE068A1F10A0707EB45
:10265000470C072707FA0CF29043A1F10A0707EB92
:10266000470703FA07F21043E0600CE0206901EB32
:10267000410C072707FA0CF2904301EB410703FADC
:1026800007F210432061A06BC0F30156EF1C06F166
:10269000010CA7EB0C0707EB870C1F2707FA0CF2BE
:1026A0009043EF1C06F1010CA7EB0C0707EB870723
:1026B00001FA07F21043A063F0BD10B50A460021ED
:1026C0000023816B21F44011531E41EA03518163C1
:1026D00010BD08B5002300930090009B0B440093AD
:1026E000009B1A6008BD08B50246002000900092C9
:1026F00001F12800009B184400900098006880B207
:1027000008BD0A4600214168164B1940114341603B
:1027100070474162826270470A460021416821F099
:102720001F0111434160704740B1094908310968F0
:1027300041F40001064A0832116007E004490831FB
:10274000096821F40001024A083211607047000054
:102750000024014000280140003C0140FFFEF0FF42
:10276000FDF7F1FFFFFD3FFF0246002013680B401D
:102770000BB1012000E000207047CA43026070479F
:1027800070B502460020002300240B125568CEB21B
:1027900005EA060415681D4015B10CB1012000E0E2
:1027A000002070BD00220A12D3430360704700006E
:1027B00001684FF6FE721140016000210160416026
:1027C0008160C1608D49884208D18C4908394968C7
:1027D00041F00F01894A083A51608AE08749143173
:1027E000884208D185490839496841F0F001834A97
:1027F000083A51607DE081492831884208D17F49FB
:102800000839496841F470617C4A083A516070E0C7
:102810007A493C31884208D178490839496841F4FD
:102820007041764A083A516063E0744950318842F9
:1028300008D172490839496841F470216F4A083A51
:10284000516056E06D496431884208D16B490839BE
:10285000496841F47001694A083A516049E06749A2
:102860007831884208D165490839496841F070617A
:10287000624A083A51603CE06149884206D1011F32
:10288000096841F00F01021F116032E05C49143108
:10289000884208D15A49091F096841F0F001584A95
:1028A000121F116025E056492831884208D1544949
:1028B000091F096841F47061514A121F116018E044
:1028C0004F493C31884208D14D49091F096841F4FC
:1028D00070414B4A121F11600BE049495031884248
:1028E00007D14749091F096841F47021444A121F62
:1028F0001160704710B50022026847F6F0739A43E2
:102900000C6A8B6823430C6923434C6923438C690D
:102910002343CC6923434C6A23438C6A23431A43E1
:102920000260CB6843600B6883604B68C36010BD76
:102930000021016041608160C1600161416181618C
:10294000C161016241628162704721B1026842F057
:102950000102026004E002684FF6FE731A40026052
:1029600070471AB103680B43036002E003688B43AE
:1029700003607047416070470146486880B2704705
:1029800001460020002201F080531BB11C4B083B84
:102990001A6802E0194B083B1A6802EA01030BB1FE
:1029A000012000E00020704700F0805119B1144967
:1029B000091F086002E01149083948607047014664
:1029C0000020002201F080531BB10D4B083B1A6818
:1029D00002E00A4B083B1A6802EA01030BB101202E
:1029E00000E00020704700F0805119B10449091F30
:1029F000086002E001490839486070470800024059
:102A000008040240002044490860091D0860091DAF
:102A10000860091D086041483F491431086070474B
:102A200000213D498279002A3AD00A46126803689B
:102A30009A430B461A600A1D126803689A430B1DDD
:102A40001A60027911440A6803681A430A60324A1C
:102A50000832126803689A432F4B08331A601A1D14
:102A6000126803689A432C4B0C331A604279102A7F
:102A70000ED11A1F126803681A43274B08331A60D5
:102A80001A1D126803681A43234B0C331A600DE0B9
:102A90002149427911440A6803681A430A6005E033
:102AA000027911440A6803689A430A60704700215A
:102AB000016001710C21417100218171704716493B
:102AC000103109680143144A103211607047014601
:102AD0000020114A143212680A400AB1012000E0B5
:102AE000002070470C4914310860704701460020EF
:102AF0000022094B1B6803EA0102074B14331B68D1
:102B00000B4013B10AB1012000E0002070470249D8
:102B1000143108607047000000040140FFFF0F00FF
:102B200040EA01039B0703D009E008C9121F08C04F
:102B3000042AFAD203E011F8013B00F8013B521ECF
:102B4000F9D27047D2B201E000F8012B491EFBD246
:102B500070470022F6E710B513460A4604461946A8
:102B6000FFF7F0FF204610BD421E12F8013F002B78
:102B7000FBD111F8013B02F8013B002BF9D1704762
:102B800030B505462A460B4612F8010B13F8014BE7
:102B900008B1A042F8D01CB1002802D06D1CF1E7AA
:102BA000284630BD421C10F8011B0029FBD1801AB9
:102BB000704730B480EA010202F0004530F0004274
:102BC00021F0004013D090B1C30DD40DC2F3160113
:102BD000C0F31600E41A41F4000140F400027D3411
:102BE000914201D3641C00E04900002C02DA30BCA1
:102BF000002070474FF400000023914201D3891A4E
:102C0000034340084FEA4101F7D151B1914202D14B
:102C10004FF0004105E002D24FF0010101E06FF0FA
:102C2000010103EBC450284430BC00F0EDB82DE99D
:102C3000FE4F81EA030404F0004421F000410094B7
:102C40004FF0000B23F0004350EA01045ED052EA3B
:102C500003045BD0C3F30A54C1F30A552C44A4F215
:102C6000F3340194A0FB0254C1F3130141F4801129
:102C7000C3F3130343F4801301FB024400FB034E30
:102C8000840A970A44EA815447EA8357A4FB0768F9
:102C900002958D0A05FB07854FEA932C04FB0C5423
:102CA0002705029D4FEA065847EA1637B5EB080597
:102CB0006EEB070C870E920E47EA811742EA8312E9
:102CC000A7FB0201B6EB0B0164EB00042B0D43EAFA
:102CD0000C335E1844EB1C50DA465146E7FB020108
:102CE000C5F313044FEA0B3343EA14534FEA04329B
:102CF000019C43EA0603A4F10C040294009CCDE974
:102D000000B400F0C7F803B0BDE8F08F0020014622
:102D1000F9E796230022114600F07FB800F0004248
:102D200030F000400AD0C10D01F56071C0F316000B
:102D300042EA0151C2084007114370470020014692
:102D4000704701F0004330B421F0004150EA010225
:102D500006D00A0DA2F56072C1F31301002A02DC4D
:102D600030BC00207047440F44EAC104C100E018A1
:102D700030BC00EBC25000F047B830B50B460146FE
:102D800000202022012409E021FA02F59D4205D30A
:102D900003FA02F5491B04FA02F52844151EA2F1B4
:102DA0000102F1DC30BD2DE9F05F054600209246BE
:102DB0009B4688460646814640241BE028464146FD
:102DC0004746224600F01BFA53465A46C01A914124
:102DD00010D311461846224600F002FA2D1A67EB6E
:102DE00001084F4622460120002100F0F9F917EBB7
:102DF00000094E41201EA4F10104DFDC48463146A3
:102E00002A464346BDE8F09F0029A8BF7047401CF2
:102E1000490008BF20F00100704710B4B0FA80FCF0
:102E200000FA0CF050EA010404BF10BC704749B12D
:102E3000CCF1200421FA04F411FA0CF118BF01219D
:102E400021430843A3EB0C01CB1D4FEA00614FEA7D
:102E5000102042BF002010BC704700EBC35010444C
:102E60000029A4BF10BC7047401C490008BF20F0D7
:102E7000010010BC704710B5141E73F1000408DA8D
:102E8000401C41F1000192185B411A4301D120F02E
:102E9000010010BD2DE9F04D92469B4611B1B1FAEB
:102EA00081F202E0B0FA80F22032904600F098F908
:102EB00004460F4640EA0A0041EA0B0153465A46CF
:102EC000084313D0114653EA010019D0C8F140025B
:102ED000504600F094F905460E4650465946424683
:102EE00000F07EF9084305D0012004E02046394671
:102EF000BDE8F08D0020054346EAE0762C433743D9
:102F00000A986305E40AA0EB08000022FD0A44EADF
:102F100047540A3002D500200146E9E7010510199F
:102F20006941DDE9084500196941BDE8F04DA2E7B6
:102F30002DE9FE4F804681EA0300C00F0C46009049
:102F400021F0004123F00045B8EB0200A94105D271
:102F50004046214690461C460B46024623F0004060
:102F6000104347D0270DC7F30A00C3F30A5102905C
:102F7000401A019040286BDAC3F3130040F4801B21
:102F80000098924620B10023D2EB030A63EB0B0BAF
:102F900001985946C0F14002504600F021F906461A
:102FA0000D4650465946019A00F039F910EB0800D9
:102FB0006141002487EA115284EAE7731A4340D042
:102FC000009A62B3019A012A4FEA075215DC001BEE
:102FD00061EB02014FF0004202EA0752CDE90042E4
:102FE000001C41F5801132462B46FFF753FF03B01A
:102FF000BDE8F08F40462146F9E7001B61EB020176
:10300000001C41F5801300185B412018A2F5001741
:1030100047EB030140EAD570B6196D4111E06D0828
:103020004FEA360645EAC0754FEA0752001B61EBCE
:103030000201001C41F5801149084FEA30000019D7
:10304000514132462B4603B0BDE8F04FFFF713BFA6
:103050000098012240000023D0EB020263EBE073F2
:10306000009821464FEAE074B8EB000061EB0401E0
:10307000E9E783F000435BE781F0004158E72DE981
:10308000F04D81EA030404F0004B21F000451446A2
:103090004FF0000A23F0004150EA050220D054EA24
:1030A00001021DD0C5F30A570246C5F31303C1F34D
:1030B0001300C1F30A5640F4801543F48013A7EBC4
:1030C0000608101BD64608F2FD3873EB050002D344
:1030D00008F1010801E092185B41B8F1000F03DA32
:1030E00000200146BDE8F08D00204FF48011064617
:1030F00084460EE0171B73EB050705D3121B63EB29
:10310000050306434CEA010C49084FEA30009218C7
:103110005B4150EA0107EDD152EA030012D082EA86
:10312000040083EA0501084305D0101BAB4106D219
:103130000122002306E000224FF0004302E06FF07E
:10314000010253101AEB06004CEB085110EB0A0079
:1031500041EB0B01BDE8F04DFFF78DBEC1F30A5204
:10316000C1F3130140F2FF3341F480119A4202DAB5
:1031700000200146704740F233439A42A2F23342A4
:1031800002DC524200F03BB800F02AB830B5041E11
:1031900071F1000404DB4FF00044404264EB010194
:1031A000141E73F1000405DB1C464FF0004352422D
:1031B00063EB0403994208BF904230BD064C074DB3
:1031C00006E0E06840F0010394E8070098471034F7
:1031D000AC42F6D3FCF7B0FFF83B0008183C0008FF
:1031E000202A04DB203A00FA02F1002070479140C7
:1031F000C2F1200320FA03F3194390407047202ABC
:1032000004DB203A21FA02F00021704721FA02F390
:10321000D040C2F120029140084319467047202A4D
:1032200006DBCB17203A41FA02F043EAE07306E0EE
:1032300041FA02F3D040C2F12002914008431946FE
:10324000704700000FB4084B10B504A902AA0398F8
:1032500000F0DEF8044602A9002000F070FC2046D1
:1032600010BC5DF814FB00003F3B000802E008C8FA
:10327000121F08C1002AFAD170477047002001E0F0
:1032800001C1121F002AFBD1704700002DE9FF5F2A
:1032900082B00021DDE90430020DDDF840B00343C7
:1032A00018D044F61050A2F2FF3242431514119880
:1032B00001281FD0A5EB0B00401C5FEA000A4FF06D
:1032C00000064E4FDFF83891B046504615D5CAF18A
:1032D000000413E0119801244AA3012801D16FEAE8
:1032E0000B010298119AC0E90031C0E9024206B010
:1032F000BDE8F09FCBF10000DFE704460021404A23
:10330000491842EB0450CDE9001012E0E00707D065
:1033100032463B4640464946FFF789FC804689468F
:1033200032463B4610461946FFF781FC06460F46DB
:103330006410002CEAD1DDE90401DDE90023BAF1D3
:10334000000F06DAFFF773FC42464B46FFF76FFCAF
:1033500005E0FFF794FE42464B46FFF790FE044619
:103360000E460022284BFFF711FF03D84FF0FF3025
:10337000014607E00022254B20463146FFF7D8FDE5
:10338000FFF7ECFE102409E0002C0ADB0A220023E0
:10339000FFF709FD039B30321A55641E50EA010203
:1033A000F2D1641C039AC4F111031444119A012A46
:1033B00003D0012208430DD10AE0084304D00020C5
:1033C0004FF0110B119072E7A3EB0B056D1E0DE092
:1033D0005B4504DD4FF0000205F1010504E003DA6E
:1033E0004FF00002A5F10105002AECD002981199D6
:1033F000C0E90231C0E9004579E70000000014404F
:103400000000F03F300000000000F0430000E03F0B
:103410002DE9FF4F95B09B468946064600250FE2F1
:10342000252877D100242746F84A0121059400E099
:10343000044316F8013F203B01FA03F01042F7D194
:1034400030782A2811D06FF02F033078A0F13002A5
:10345000092A16D8059A44F0020402EB820203EB13
:1034600042021044761C0590EFE759F8042B0592B0
:10347000002A03DA504244F40054059044F0020458
:10348000761C30782E2816D116F8010F44F004046B
:103490002A280DD06FF02F023078A0F13003092BCD
:1034A00009D807EB870302EB4303C718761CF3E741
:1034B00059F8047B761C30786C280FD006DC4C2839
:1034C00017D068280DD06A2814D104E0742810D0D1
:1034D0007A280FD10DE044F400140AE044F480147B
:1034E00001E044F440147278824202D104F5801461
:1034F000761C761C307866280BD013DC582877D0E1
:1035000009DC002875D04528F6D04628F4D0472895
:103510001AD19DE118E0632835D0642879D0652858
:1035200012D195E1702873D008DC6728F1D06928A2
:103530006FD06E280DD06F2806D1B5E073282CD03F
:10354000752875D0782874D05A46179990476D1C05
:1035500075E1C4F30250022809D003280DD0D9F830
:10356000001004280DD00D6009F1040967E1D9F8B5
:103570000010EA17C1E90052F6E7D9F800100D80F3
:10358000F2E70D70F0E719F8041B8DF80010002029
:103590008DF80100EA46012003E059F804AB4FF032
:1035A000FF3061074FF0000102D40DE008F1010186
:1035B0008846B9420FDA8045F8DB1AF8081000296E
:1035C000F4D108E008F1010188468142FADB1AF8DB
:1035D00008100029F6D105985B46A0EB08072146A4
:1035E0003846179A00F094FA284400EB080507E0E3
:1035F0004DE029E10DE01AF8010B5A461799904762
:10360000B8F10108F7D25B4621463846179A13E114
:1036100042E00A220092C4F302524FF0000A022A4A
:1036200008D059F804CB032A4FEAEC710AD00DE018
:1036300029E02AE009F1070121F00702F2E802C1BE
:10364000914609E00FFA8CFC4FEAEC71042A03D191
:103650004FFA8CFC4FEAEC71002907DA0A46002188
:10366000DCF1000C61EB02012D2202E0220504D501
:103670002B228DF80420012203E0E20701D0202252
:10368000F7E7904659E00A2102E010220DE01021F0
:103690004FF0000A00910BE010224FF0000A44F0B6
:1036A00004040827009203E008224FF0000A009269
:1036B000C4F30252022A05D059F804CB0021032A90
:1036C00008D009E009F1070121F00702F2E802C180
:1036D000914605E01FFA8CFC042A01D10CF0FF0C86
:1036E0004FF00008220728D5702806D0009B83F0F1
:1036F000100353EA0A0305D00EE040228DF804209F
:10370000012208E05CEA010206D030228DF8042094
:103710008DF8050002229046009B83F0080353EACF
:103720000A030AD15CEA010201D1620705D5302201
:103730008DF804204FF001087F1E582804D034A0D3
:1037400003900EA802900DE036A0F9E753466046BC
:10375000009AFFF728FB84460398825C0298401E7B
:10376000029002705CEA0100F0D1029806A9081AE2
:1037700000F1200A600702D524F4803400E001271C
:10378000574502DDA7EB0A0000E0002000EB0A012C
:10379000009005984144401A0590E00306D45B462A
:1037A0002146179A059800F0B3F90544002706E072
:1037B00001A85A46C05D179990476D1C7F1C47456C
:1037C000F6DBE0030CD55B462146179A059800F01E
:1037D0009FF9054404E030205A46179990476D1C24
:1037E0000099481E00900029F5DC08E00298029933
:1037F0005A460078491C0291179990476D1CBAF1FE
:103800000001AAF1010AF1DC65E1000009280100CC
:103810003031323334353637383961626364656646
:103820000000000030313233343536373839414208
:10383000434445460000000000F058F90544761C5A
:10384000307800287FF4ECAD19B02846BDE8F08F41
:10385000620700D4062709F1070222F0070CFCE8F2
:103860000223E14603F000485FEA080C02D00FF2A1
:10387000702C0DE05FEA045C02D50FF2682C07E0C3
:103880005FEAC47C02D00FF2602C01E0AFF2700C52
:103890004FF0FF3823F00043CDF850C065280CD01E
:1038A00006DC452809D046281DD047283DD13DE0FB
:1038B000662818D067287ED138E00021112F01DB5F
:1038C000112000E0781CCDE9000106A90EA8FFF741
:1038D000DDFCDDE90F010E9A03910021009207F152
:1038E000010A04914DE04FF000400097CDE901102E
:1038F00006A90EA8FFF7CAFCDDE90F0203920E9B92
:1039000011990022DDF80CA00093049211B9791CE2
:1039100000EB010AB7EB0A0004D4C0F1FF3007F155
:10392000010A0490AAEB0700019044E0012F00DA9D
:1039300001270021112F01DD112000E03846CDE9DB
:10394000000106A90EA8FFF7A1FCDDE90F010E9A00
:103950000391002104910092BA4621070CD40399E7
:10396000514500DA8A46BAF1010F05DD009AAAF145
:103970000101515C302908D0B84202DA10F1040F7D
:1039800006DA0121CDE9011015E0AAF10101E9E70C
:10399000002805DC049901440491AAEB000102E02F
:1039A000411C514500DD8A460499401A401C019093
:1039B0004FF000400290200704D40198504501DBED
:1039C000CDF8048000208DF84F0002980DF14F07CC
:1039D000B0F1004F25D02B200E9002984FF0020836
:1039E00000280CDA404202902D200E9007E00A21B8
:1039F0000298FFF7C2F93031029007F8011DB8F1C3
:103A00000001A8F10108F2DC02980028EFD1791E2C
:103A10000E980870307800F0200040F0450007F85C
:103A2000020D12A8C01B00F107081498007800B11D
:103A3000012000EB0A01019801EBE0710598414477
:103A4000401A401E0590E00306D45B462146179AB3
:103A5000059800F05DF805441498007818B15A46AE
:103A6000179990476D1CE00324D55B462146179AB1
:103A7000059800F04DF805441CE00498002807DB89
:103A8000DDE90301884203DD0098405C179901E0FD
:103A9000179930205A469047049805F10105401CBB
:103AA00004900198401E019004D12E205A46179987
:103AB00090476D1CBAF10001AAF1010ADDDC05E0B6
:103AC00017F8010B5A46179990476D1CB8F1000181
:103AD000A8F10108F4DC5B462146179A0598ABE68D
:103AE0002D0000002B000000200000002DE9F04117
:103AF000044600251E461746880404D405E03946CE
:103B00002020B0476D1C641EF9D52846BDE8F08121
:103B10002DE9F041044600251E469046C80301D514
:103B2000302700E02027880404D505E041463846C8
:103B3000B0476D1C641EF9D52846BDE8F0810A68BF
:103B4000531C0B601070704741542B4347534E3D3C
:103B5000310D0A0041542B5A5253540D0A000000F3
:103B600041542B45534F434C3D200D0A00000000AB
:103B700041542B45534F433D312C312C310D0A001C
:103B80000000000000000000000000000000000035
:103B900041542B45534F434F4E3D202C353639343D
:103BA000392C223130332E34362E3132382E3439FE
:103BB000220D0A00000000000000000000000000CC
:103BC0000000000041542B45534F434F4E3D202CE5
:103BD00031303038372C2234372E3131312E3131DB
:103BE000322E3330220D0A000000000000000000D9
:103BF0000000000000000000183C00080000002049
:103C0000BC0000006C320008D43C0008BC0000205E
:103C1000D41400007C320008000000000000000006
:103C20000000000000000000000000000000000094
:103C30000000000000000000000000000000000084
:103C40000000000000000000000000000000000074
:103C500000000000000000000000000000A24A0474
:103C6000000000000000000001020304060708092C
:103C70003333CA42000000000000000030443041ED
:103C8000003433333133313230003438333133316F
:103C90003230003433333233323230003330333069
:103CA0003330323000343333313230003446333243
:103CB0003230000000000000006100000000000041
:103CC00000000000010203040102030406070809C2
:043CD00002040608DC
:0400000508000131BD
:00000001FF
