:020000040800F2
:10000000D0150020C1180008F5020008F70200080A
:10001000FB020008FF0200080303000800000000C4
:1000200000000000000000000000000007030008BE
:1000300009030008000000000B0300080D0300087E
:10004000DB180008DB180008DB180008DB180008C4
:10005000DB180008DB180008DB180008DB180008B4
:10006000DB180008DB18000865050008DB1800082D
:10007000DB180008DB180008DB180008DB18000894
:10008000DB180008DB180008DB180008DB18000884
:10009000DB180008DB180008DB1800080B04000858
:1000A000DB180008DB180008DB180008DB18000864
:1000B000E3050008DB180008DB180008DB1800085F
:1000C000DB180008DB180008DB180008DB18000844
:1000D000DB180008DB1800080F030008DB18000815
:1000E00077040008DB180008DB180008DB1800089C
:1000F000DB180008DB180008DB180008DB18000814
:10010000DB180008DB180008DB180008DB18000803
:10011000DB180008DB180008DB180008DB180008F3
:10012000DB180008DB180008DB180008DB180008E3
:10013000DFF80CD003F0C0FB0048004713020008B2
:10014000D015002010B540215B4801F062FB20BBB8
:100150008021594801F05DFB01281ED157480078E5
:1001600001281AD10103564801F053FB012814D18C
:100170001021534801F04DFB01280ED1142001F04D
:100180004CFA40204F4908608020091D086000207B
:100190004A49087001204C49087010BD10B54B4801
:1001A0000078012816D100204849087048490860A5
:1001B0004848006848490860012048490860002014
:1001C00047490860434800684349086000F0BCFCA8
:1001D00000F0F4FF4348007801280CD10020414989
:1001E00008703E4908603E4908603B49086000F0DD
:1001F000ABFC00F0E3FF10BD3B480078012803D1C1
:1002000000022D49086103E04FF480702A494861DB
:10021000704700F008FB01F0C3F94FF4A06001F053
:1002200061FB01F0B7F900F04FFD01F04FFA01F06A
:1002300003FB01F0A7F84FF400701F4908614FF469
:10024000C87001F0EAF94FF400701B494861402082
:100250001C49091D08608020091F086001201749FA
:1002600008700BE0FFF7C8FF01F024F801F017F960
:10027000FFF794FF00F0BBFCFFF764FFF2E710B557
:100280001A480078012815D100F05EFC642001F0C6
:10029000C4F900220121880702F061FD00F08EFF01
:1002A00001221146900702F05AFD00201049086013
:1002B0000E49087010BD000000100140D40000205D
:1002C00000080140100C0140CD000020CC000020AF
:1002D000C8000020D800002058000020080000209E
:1002E00018000020CE000020C400002004000020E0
:1002F00000000020704700BFFEE700BFFEE700BF20
:10030000FEE700BFFEE7704770477047704710B5C3
:100310000121F64802F07EF830B1F44802F010F8FE
:100320000121F24802F083F80821F04802F072F847
:1003300030B1EE4802F004F80821EC4802F077F8FA
:100340000221EA4802F066F830B1E84801F0F8FF0F
:100350000221E64802F06BF840F22551E34802F032
:100360006FF838B32021E14802F061F840F22551DE
:10037000DE4802F08FF80721DC4802F04BF808B1A4
:10038000012400E00024B4B9D948006840F2FF71AC
:10039000884210D2D54801F0D3FFC1B2D4480268D8
:1003A0000068401CD24B186003F109008154012001
:1003B0001946087202E0CD4801F0C2FFCDA1CC4839
:1003C000093003F04DF868B14020CC490860802026
:1003D000091D08600120CA490870C102C4480930DB
:1003E00003F027F8C7A1C248093003F039F858B123
:1003F0004020C249091D08608020091F08600101D2
:10040000BB48093003F015F810BD10B5402002F0CC
:10041000DDFF80B14021BD4801F0FBF9012807D183
:100420004020B6490860802008600120B849086073
:10043000402002F0DCFF802002F0C8FFD0B1802114
:10044000B24801F0E6F9012811D14020AB4908601B
:10045000802008600020AE4908600120AD49087086
:10046000AD4908700020AD490860AD490870802092
:1004700002F0BDFF10BD10B54FF4804002F0A6FFA2
:1004800088B3322001F0C9F88021A04801F0C1F9F9
:10049000012804D1402099490860802008604FF469
:1004A00080419648103801F0B4F9012804D19D48E4
:1004B0000068401C9B4908609A48006802280ED1D9
:1004C00040208E49091D08608020091F0860012016
:1004D0009549086000208E490860924908604FF4F1
:1004E000804002F084FF4FF4805002F06FFFC0B3F1
:1004F0004021864801F08DF9012804D140207F4930
:100500000860802008604021804801F082F920BB0B
:1005100080217E4801F07DF901281ED180480078B5
:1005200001281AD10103814801F073F9012814D17F
:1005300010217E4801F06DF901280ED1142001F040
:100540006CF840206D4908608020091D086001207A
:100550006B4908700020724908704FF4805002F017
:1005600046FF10BD10B5102002F030FF002837D034
:100570004021664801F04DF9012804D140205F492F
:100580000860802008604021604801F042F920BBEB
:1005900080215E4801F03DF901281ED160480078B5
:1005A00001281AD10103614801F033F9012814D15F
:1005B00010215E4801F02DF901280ED1142001F020
:1005C0002CF840204D4908608020091D086000205B
:1005D0005349087001204A490870102002F007FFB3
:1005E00010BD10B50121880702F067FE00287CD0FD
:1005F00049480078012804D148480068401C474910
:10060000086046480068B0F5617F08D10020424983
:1006100008700120424908700020404908604FF4EA
:1006200000413648103801F0F4F8012804D1404860
:100630000068401C3E4908603D480068C82808D151
:1006400002203949086001203149086000203849FA
:10065000086034480068012804D136480068401C0E
:10066000344908603348006828280AD100202D4901
:10067000086003202C4908600020254908602D49A6
:1006800008601F480078012804D12B480068401CEE
:100690002949086028480068F0280CD10020184932
:1006A000087025490860012024490870402013493A
:1006B00008608020086016480068012805D120489D
:1006C0000068401C1E49086002E000201C490860C8
:1006D0001B480068642804D11A480068401C194966
:1006E00008600121880702F0F9FD10BD00440040B8
:1006F000C00900203466333333330000100C01404E
:10070000CD00002035333334333400000010014075
:1007100008000020CE000020CF000020D0000020E4
:10072000D4000020380000201800002000080140FC
:10073000DC0000203C000020C8000020CC0000208D
:100740000C000020D80000200CB500200190009083
:100750006C48006840F480306A49086000BF69480E
:10076000006800F4003000900198401C019000984F
:1007700018B90198B0F5A06FF1D16248006800F493
:10078000003010B10120009001E00020009000989E
:10079000012843D15C48006840F010005A490860C5
:1007A0000846006820F0030008600846006840F032
:1007B0000200086053484068524948600846406853
:1007C00048600846406840F48060486008464068D9
:1007D00020F47C1048600846406840F4E810486007
:1007E0000846006840F08070086000BF4548006817
:1007F00000F000700028F9D04248406820F0030063
:10080000404948600846406840F00200486000BF28
:100810003C48406800F00C000828F9D10CBD10B528
:10082000FFF792FF10BD10B53648006840F0010098
:1008300034490860084640683449084031494860F6
:1008400008460068324908402E490860084600689A
:1008500020F4802008600846406820F4FE004860CC
:100860004FF41F008860FFF7DAFF4FF0006029495E
:10087000086010BD10B5002100200022214B5B68EC
:1008800003F00C0121B1042906D0082928D107E082
:10089000214B224C236027E01F4B204C236023E098
:1008A000184B5B6803F47010164B5B6803F48032DE
:1008B000022303EB904022B9194B4343174C2360AA
:1008C0000DE0104B5B6803F4003323B1144B43433A
:1008D000124C236003E0104B4343104C236003E0B1
:1008E0000D4B0E4C236000BF00BF064B5B68C3F38B
:1008F00003130C4CE15C094B1B68CB40074C236095
:1009000010BD000000100240002002400000FFF86F
:10091000FFFFF6FE08ED00E000127A004000002024
:1009200000093D004400002070B51421C74802F0C2
:1009300080FD3C21C64802F07CFDC649C34802F058
:1009400083FDC5A1C14802F07FFD002500241CE005
:10095000BE48005D30280BDBBC48005D392807DC51
:100960003320BB494855B948015DB94A681C115448
:10097000B648005D202806D13220B54948553021BF
:10098000B34A681C1154AD1C641CB048005D0028BB
:10099000DED170BD2DE9F041B04800210160416019
:1009A00001811E21AE4802F044FDAE48006802F00D
:1009B00070FD064632460B46ABA1A84803F01CF872
:1009C000A5A1A64802F040FD0024002532E0A3487E
:1009D000405D30280BDBA148405D392807DC33201F
:1009E0009F4908559D48415D9D4A601C11549B4894
:1009F000405D202806D13220994908553021984A77
:100A0000601C11549548405D2D2806D13220944930
:100A100008554421924A601C11549048405D2E288C
:100A200006D132208E49085545218D4A601C11544B
:100A3000A41C6D1C8948405D0028C8D1BDE8F08128
:100A400070B58B4800210160416001811E218948F9
:100A500002F0EFFC884889A10268854802F0CCFFCB
:100A60007DA1834802F0F0FC002500241CE08048B2
:100A7000005D30280BDB7E48005D392807DC332021
:100A80007C4948557A48015D7A4A681C1154784877
:100A9000005D202806D13220764948553021754A1C
:100AA000681C1154AD1C641C7148005D0028DED127
:100AB00070BD2DE9F0417248002101604160018163
:100AC0001E21704802F0B5FC6F48006802F0E1FC9E
:100AD000064632460B466DA1694802F08DFF5EA1C5
:100AE000674802F0B1FC0024002527E06448405D1F
:100AF00030280BDB6248405D392807DC3320614930
:100B000008555F48415D5F4A601C11545C48405D78
:100B1000202806D132205B4908553021594A601CF3
:100B200011545748405D2E2806D1322055490855AA
:100B30004521544A601C1154A41C6D1C5048405D52
:100B40000028D3D1BDE8F08110B54FF48061514841
:100B500002F06FFCFFF7E8FEFFF71CFFFFF770FFE6
:100B60003B494C4802F070FC3D494A4802F06CFC9D
:100B70004948006818B94949464802F065FC4648AA
:100B80000068012803D14649424802F05DFC39491A
:100B9000404802F059FC4348006818B942493D48B2
:100BA00002F052FC3F480068012803D13F49394810
:100BB00002F04AFC3B480068022803D13C49354812
:100BC00002F042FC37480068032803D13949314814
:100BD00002F03AFC38492F4802F036FC37492D48DC
:100BE00002F032FC36492B4802F02EFC10BD10B545
:100BF0002C48006803280AD1324800681E49086062
:100C0000FFF7A2FF00F0DAFA002026490860254825
:100C1000006802280AD12B48006817490860FFF7CE
:100C200093FF00F0CBFA00201E4908601D480068C1
:100C300001280AD1234800680F490860FFF784FFA4
:100C400000F0BCFA00201749086010BDFC0000202D
:100C500010010020AC090020200000004C01002001
:100C60005601002054000020252E316600000000AF
:100C7000740100207E01002058000020256400003F
:100C80009C010020A60100205C000020252E326679
:100C900000000000C4010020080000209000002097
:100CA0008900002018000020800000206E00002035
:100CB000770000206500002097000020A900002098
:100CC00060000020D800002000B587B0012104207A
:100CD00001F092F90121480401F09BF90420ADF8DC
:100CE000180018208DF81B0003208DF81A0006A9A3
:100CF000FD4800F0C5FE0820ADF8180004208DF86E
:100D00001B0006A9F84800F0BBFE4FF416500290F5
:100D10000020ADF80C00ADF80E00ADF81000ADF8F5
:100D200014000C20ADF8120002A9F04801F00BFAF3
:100D30004FF4A06000F0D6FD26208DF804000120BD
:100D40008DF805008DF806008DF8070001A800F069
:100D5000CEFD012240F22551E44801F08CFA012138
:100D6000E24801F07CFA07B000BD70B504460D46BC
:100D70002946204601F0E0FA00BF8021204601F01C
:100D800049FB0028F9D070BD2DE9F04107460D461A
:100D90001646002405E0295D3846FFF7E6FF601C93
:100DA000C4B2B442F7DB00BF4021384601F032FB49
:100DB0000028F9D0BDE8F08170B506460C46002544
:100DC00000BF615D3046FFF7D0FF6D1C605D0028FD
:100DD000F7D100BF4021304601F01CFB0028F9D0BC
:100DE00070BD2DE9F04105460C46260AE7B23146B2
:100DF000284601F0A1FA00BF8021284601F00AFB35
:100E00000028F9D03946284601F096FA00BF802123
:100E1000284601F0FFFA0028F9D0BDE8F08170B54E
:100E200004460D46E1B2B14801F086FA00BF8021C8
:100E3000AE4801F0EFFA0028F9D0204670BD10B599
:100E4000044600BF2021A94801F0E4FA0028F9D0A7
:100E5000A64801F075FA10BD70B504460D460DE0C8
:100E600000BF4021A14801F0D5FA0028F9D014F8BC
:100E7000011B9E4801F060FA681E85B2002DEFDC70
:100E800070BD10B500209A49086008724FF40061E7
:100E90009748093002F0CDFA10BD2DE9F04188B035
:100EA00005460C460026002706E014F8012B3046C4
:100EB000711CCEB20DF8002020780028F5D1FFF784
:100EC000E0FF284602F0DEFA1FFA80F84146284685
:100ED000FFF7C2FF4FF47A7000F09FFB8448007A5E
:100EE00001280CD10CB901270AE069468048093075
:100EF00002F0B6FA08B1012702E0002700E000275F
:100F0000012F03D1002008B0BDE8F0810120FAE7ED
:100F10003EB5784A07CA8DE80700FFF7B2FF1421F3
:100F2000754802F086FA4FF4FA7000F076FB73A170
:100F30006846FFF7B2FF08BB0C24002512E06C489E
:100F40000930005D30280BDB69480930005D392825
:100F500006DC67480930005D67494855681CC5B222
:100F6000601CC4B26248093002F08CFAA042E6D894
:100F70000E2D36DB00206249087032E04FF4FA7023
:100F800000F04BFB4FF4FA7000F047FB4FF4FA709F
:100F900000F043FB59A15648093002F061FA00B352
:100FA0000C24002512E052480930005D30280BDB8C
:100FB0004F480930005D392806DC4D480930005D96
:100FC0004D494855681CC5B2601CC4B24848093038
:100FD00002F058FAA042E6D80E2D02DB0020484964
:100FE00008703EBD0EB5434A0C3207CA8DE80700B3
:100FF000FFF747FF4FF4FA7000F00FFB3FA1684680
:10100000FFF74BFF0EBD0EB53A4A183207CA8DE8FE
:101010000700FFF736FF4FF4FA7000F0FEFA37A131
:101020006846FFF73AFF0EBD10B586B0314B24334A
:101030000FCB02AC0FC433A103C9CDE900010024DA
:101040000FE01DF804008DF81100FFF71AFF4FF4B0
:10105000FA7000F0E2FA29A102A8FFF71EFF601C57
:10106000C4B2022CEDDB01202849087006B010BD87
:1010700030B589B020221F49343101A802F0C0F9EF
:1010800000254CE0FFF7FDFE4FF4FA7000F0C5FAC2
:101090001AA101A8FFF701FFF0BB0E2414E01448C9
:1010A0000930005D30280DDB11480930005D39281A
:1010B00008DC0F480930005D15490870012015490A
:1010C000087007E0601CC4B20948093002F0DAF980
:1010D000A042E4D800BF0E48007830281DDB0C4841
:1010E0000078392819DC1CE0000801400044004069
:1010F000C0090020FC420008AC0900204F4B000052
:10110000C30000203031323334353600C1000020B6
:10111000E0000020C2000020FFE7681CC5B2022DDD
:10112000B0DB00BF022D08DB87480078612804D1BE
:101130000020864908708649087009B030BD00B5A6
:101140009BB0342283490EA802F05AF93422814917
:10115000343101A802F054F97B4800788DF8420040
:10116000FFF78FFEC82000F058FAAFF270010EA80A
:10117000FFF793FE18B90120774908701CE04FF47F
:10118000FA7000F04AFA4FF4FA7000F046FA4FF4A1
:10119000FA7000F042FAAFF29C01704802F060F978
:1011A00018B101206C49087006E0002067490870FA
:1011B00067490870684908701BB000BD10B588B059
:1011C00067A207CA05AB07C36348007801286FD13F
:1011D0005D48007801904FF47A71644802F029F973
:1011E000634802F04FF94408224662A102A802F0C7
:1011F00003FC05A95D4802F027F901A95B4802F04C
:1012000023F95DA1594802F01FF902A9574802F0DD
:101210001BF959A1554802F017F95549534802F0F6
:1012200013F956A1514802F00FF9FFF72AFE4FF4C7
:10123000FA7000F0F2F9AFF23C114C48FFF72DFEC6
:1012400018B901204E49087032E04FF4FA7000F0EE
:10125000E4F9AFF25811414802F002F918B1012047
:101260004749087024E04FF4FA7000F0D6F9AFF265
:1012700074113A4802F0F4F818B10120404908709E
:1012800016E04FF4FA7000F0C8F9AFF2901133484D
:1012900002F0E6F818B101203949087008E0002092
:1012A0002A4908702A4908702B4908703449087087
:1012B00008B010BD10B525480078E8B9002201211A
:1012C000880701F04CFDFFF7DCFD642000F0A5F974
:1012D000FFF799FE642000F0A0F9FFF7A5FE642057
:1012E00000F09BF9FFF7CDFD642000F096F9FFF7C1
:1012F0000FFE642000F091F91548007868B9134892
:101300000078012809D1FFF7BCFD642000F085F9C1
:10131000FFF7AEFE642000F080F90F48007890B926
:101320000B48007801280ED1FFF7ABFD642000F0D8
:1013300074F9FFF704FF642000F06FF901221146F1
:10134000900701F00CFD10BDE0000020C10000205E
:10135000C200002050430008C4000020C90900203A
:1013600041542B45534F53454E443D00C405002086
:10137000C4010020256400002C0000000D0A0000BC
:10138000C500002000B585B00121C80400F041FE71
:101390000121102000F030FE4FF48060ADF8100005
:1013A00018208DF8130003208DF8120004A953486B
:1013B00000F066FB4FF40060ADF8100004208DF8DB
:1013C000130004A94D4800F05BFB4FF41650009049
:1013D0000020ADF80400ADF80600ADF80800ADF847
:1013E0000C000820ADF80A006946454800F0ABFE45
:1013F0000121434800F033FF4021414801F017F834
:1014000005B000BD70B504460D462946204600F0E3
:1014100093FF00BF8021204600F0FCFF0028F9D098
:1014200070BD2DE9F04107460D461646002400BF69
:10143000295D3846FFF7E6FF641CB442F8D3BDE8E7
:10144000F08170B506460C46002500BF615D304650
:10145000FFF7D8FF6D1C605D0028F7D170BD10B597
:1014600028A12748FFF7EDFF642000F0D6F827A158
:101470002348FFF7E6FF642000F0CFF825A12048BD
:10148000FFF7DFFF642000F0C8F810BD10B522A1FF
:101490001B48FFF7D6FF642000F0BFF810BD10B561
:1014A0008021164800F0B5F9012813D11B480078B7
:1014B00080B9642000F0B1F88021104800F0A9F94B
:1014C000012807D11548007820B9FFF7C8FF01208F
:1014D000124908708021094800F09BF960B9642026
:1014E00000F09BF88021054800F093F920B9FFF740
:1014F000CDFF00200949087010BD00000010014018
:10150000004C004041463A323700000042343A3045
:10151000310000004132000041340000E1000020B1
:1015200008B54FF4A06000F0DDF91C208DF8000034
:1015300002208DF8010001208DF802008DF80300D3
:10154000684600F0D4F908BD0EB50121084600F048
:1015500060FD42F20F70ADF804004720ADF80000C6
:101560000020ADF80600ADF802008DF808006946CD
:101570004FF0804001F07CF80121880701F09AFECD
:1015800001221146900701F0EAFB0121880701F0D2
:10159000CBFB0EBD10B5FFF7C3FFFFF7D5FF10BDA6
:1015A00010B56FF0040000F0ECF92E4800682E49E9
:1015B000B0FBF1F02D4908700846007800EB4001BF
:1015C000C1EBC0104FF6FF7101EAC0002849088046
:1015D00010BD0146254A12784A434FF0E0235A6174
:1015E00000229A611A46126942F001021A6100BF94
:1015F0004FF0E022106900F001021AB100F48032CD
:10160000002AF5D04FF0E022126922F001024FF0DB
:10161000E0231A6100229A6170470146144A128839
:101620004A434FF0E0235A6100229A611A46126938
:1016300042F001021A6100BF4FF0E022106900F091
:1016400001021AB100F48032002AF5D04FF0E022F6
:10165000126922F001024FF0E0231A6100229A6120
:10166000704700004000002000127A00E2000020D5
:10167000E400002008B54FF4A06000F033F9172013
:101680008DF8000000208DF8010001208DF8020087
:101690008DF80300684600F02AF917208DF8000045
:1016A000684600F024F928208DF80000684600F014
:1016B0001EF928208DF80000684600F018F90A206D
:1016C0008DF80000684600F012F908BD0EB5012142
:1016D0001D2000F091FCFFF7CDFF4020ADF8080081
:1016E00004208DF80B0002A9504800F0C9F906212A
:1016F000022000F0DBFA4020009000208DF804006A
:101700000C208DF8050001208DF80600684601F0D8
:10171000F7FD8020ADF8080004208DF80B0002A929
:10172000424800F0ADF90721022000F0BFFA802006
:10173000009000208DF804000C208DF80500012099
:101740008DF80600684601F0DBFD4FF48040ADF8EF
:10175000080004208DF80B0002A9354800F090F92C
:101760000E21012000F0A2FA4FF4804000900020EA
:101770008DF804000C208DF8050001208DF806007E
:10178000684601F0BDFD4FF40040ADF808000420AC
:101790008DF80B0002A9264800F072F94FF4805032
:1017A000ADF8080004208DF80B0002A9214800F0D4
:1017B00067F90C21002000F079FA4FF48050009076
:1017C00000208DF804000C208DF8050001208DF814
:1017D0000600684601F094FD1020ADF808000420D2
:1017E0008DF80B0002A9134800F04AF904210020EB
:1017F00000F05CFA1020009000208DF804000C200E
:101800008DF8050001208DF80600684601F078FD8E
:101810000EBD70B504460D462946204600F0C3F9BA
:1018200008B9012070BD0020FCE700000010014055
:10183000000C01400008014008B50121182000F00B
:10184000DBFB4020ADF8000010208DF803000320E2
:101850008DF802006946184800F012F98020ADF8B2
:1018600000006946144800F00BF94FF48070ADF8A1
:1018700000006946114800F003F94FF40070ADF81C
:10188000000069460D4800F0FBF840210A4800F0CE
:10189000A4F98021084800F0A0F94FF480700749AE
:1018A00048614100054800F098F908BD4022024B0C
:1018B00014331A6070470000000C01400010014012
:1018C0000648804706480047FEE7FEE7FEE7FEE7DA
:1018D000FEE7FEE7FEE7FEE7FEE7FEE72708000873
:1018E0003101000831490143314A1160704770B538
:1018F000002100230F22C47804B32D4C246804F483
:10190000E064C4F5E064210AC1F10403CA404478EC
:1019100004FA03F18478144021430901254C067828
:10192000A155047804F01F050124AC4005786D1121
:10193000AD0005F1E025C5F8004109E0047804F0A8
:101940001F050124AC401C4D0678761145F8264051
:1019500070BD1A4A0A400243154B1B1F1A6070479C
:1019600039B1134A121D12680243114B1B1D1A6034
:1019700006E00F4A121D126882430D4B1B1D1A60B0
:101980007047042808D14FF0E021096941F00401B3
:101990004FF0E022116107E04FF0E021096921F0EA
:1019A00004014FF0E0221161704700000000FA05C9
:1019B0000CED00E000E400E080E100E080FFFF1FAC
:1019C00010B50446CC48844208D10121042000F01F
:1019D0002DFB0021042000F029FB46E0C74884428B
:1019E00008D10121082000F021FB0021082000F08F
:1019F0001DFB3AE0C248844208D10121102000F0CA
:101A000015FB0021102000F011FB2EE0BD488442A0
:101A100008D10121202000F009FB0021202000F046
:101A200005FB22E0B848844208D10121402000F0A3
:101A3000FDFA0021402000F0F9FA16E0B348844294
:101A400008D10121802000F0F1FA0021802000F06F
:101A5000EDFA0AE0AE48844207D10121801500F07A
:101A6000E5FA0021A01500F0E1FA10BD10B5012142
:101A7000084600F0DBFA0021012000F0D7FA10BD83
:101A80002DE9F04102460025002600200023002415
:101A9000002791F803C00CF00F0591F803C00CF07B
:101AA000100CBCF1000F03D091F802C04CEA050500
:101AB00091F800C0BCF1000F31D0146800202BE079
:101AC0004FF0010C0CFA00F3B1F800C00CEA030669
:101AD0009E4220D183004FF00F0C0CFA03F7BC4359
:101AE00005FA03FC4CEA040491F803C0BCF1280F8A
:101AF00006D14FF0010C0CFA00FCC2F814C00AE049
:101B000091F803C0BCF1480F05D14FF0010C0CFA5D
:101B100000FCC2F810C0401C0828D1D31460B1F8F2
:101B200000C0BCF1FF0F34DD546800202EE000F14E
:101B3000080C4FF0010808FA0CF3B1F800C00CEAE9
:101B400003069E4221D183004FF00F0C0CFA03F7DD
:101B5000BC4305FA03FC4CEA040491F803C0BCF151
:101B6000280F05D100F1080C08FA0CF8C2F814800F
:101B700091F803C0BCF1480F07D100F1080C4FF0F9
:101B8000010808FA0CF8C2F81080401C0828CED3CF
:101B90005460BDE8F0814FF6FF7101800221817031
:101BA0000421C17070470246002093680B400BB1BE
:101BB000012000E0002070470146886880B270472D
:101BC00002460020D3680B400BB1012000E000204A
:101BD00070470146C86880B2704701617047416133
:101BE00070470AB1016100E041617047C160704710
:101BF0004FF480320A438261816182618269826925
:101C0000704702460020434B18684FF68073184017
:101C100040EA021008433F4B186070473E49C861D4
:101C20007047F0B50A46002300240021002500F08B
:101C30000046B6F1004F02D1364EF16901E0354E53
:101C40007168C0F3034583B200F44016B6F5401F37
:101C500008D121F070612F4E766826F070662D4F06
:101C60007E6012E000F48016B6F5801F06D10326D0
:101C700006FA05F4A14341F0706106E0460D360115
:101C800003FA06F6B14341F0706122B1460D360108
:101C900003FA06F6314300F00046B6F1004F02D1D8
:101CA0001C4EF16101E01B4E7160F0BD30B50022A9
:101CB0008B071C0F0F2303FA04F2164B08338C100A
:101CC00053F824309343134C08348D1044F82530D6
:101CD00023468C1053F824308C07240F00FA04F4A8
:101CE00023430C4C08348D1044F8253030BD0A498C
:101CF000DC3108607047000000080140000C014022
:101D0000001001400014014000180140001C014077
:101D1000002001400000014000002042DF48006830
:101D200040F00100DD49086008464068DC49084091
:101D3000DA49486008460068DA490840D74908602F
:101D40000846006820F4802008600846406820F4B7
:101D5000FE0048604FF41F0088607047CF49096853
:101D600021F48031CD4A11601146096821F48021A7
:101D70001160B0F5803F03D0B0F5802F0ED106E0A2
:101D8000C649096841F48031C44A116007E0C3497B
:101D9000096841F4A021C14A116000E000BF00BF02
:101DA000704710B501460022002300204A11012A85
:101DB00002D1BA4C236806E0022A02D1B74C236A4A
:101DC00001E0B64C636A01F01F02012494401C40FC
:101DD0000CB1012000E0002010BD38B500200090BB
:101DE0000024002500BF3120FFF7DBFF05460098E7
:101DF000401C00900098B0F5A06F01D0002DF2D0EB
:101E00003120FFF7CEFF08B1012400E00024204676
:101E100038BD01460020A14A106820F0F80040EAD1
:101E2000C10010607047A04908607047024600205A
:101E30009A4B586820F47C1042EA01031843974BF0
:101E40005860704798490866704701460020934AD9
:101E5000506820F003000843506070478F48406886
:101E600000F00C007047014600208C4A506820F0BA
:101E7000F00008435060704701460020874A5068D0
:101E800020F4E06008435060704701460020834A18
:101E9000506820F4605040EAC1005060704729B19A
:101EA0007E4A527A02437D4B5A7204E07B4A527A50
:101EB00082437A4B5A7270477B49D8310860704729
:101EC00001460020754A506820F4404008435060A5
:101ED00070470021714A20321170704A82F8201038
:101EE000012802D004280AD104E001216B4A2032E3
:101EF000117005E00521694A2032117000E000BF31
:101F000000BF70476949086070476449096A014326
:101F1000624A11627047654944390860704730B5BC
:101F200000210022002400235C4D6D6805F00C01A7
:101F300021B1042905D0082923D105E05C4D0560B5
:101F400022E05B4D05601FE0544D6D6805F4701292
:101F5000524D6D6805F48034022505EB92421CB9A0
:101F6000544D554305600BE04C4D6D6805F400354C
:101F70001DB1504D5543056002E04D4D5543056080
:101F800002E04B4D056000BF00BF444D6D6805F099
:101F9000F0010909484D6B5C0568DD4045603F4D27
:101FA0006D6805F4E061090A434D6B5C4568DD40EE
:101FB00085603A4D6D6805F46051C90A3E4D6B5C11
:101FC0004568DD40C560354D6D6805F44041890BBD
:101FD0003A4D6B5CC568B5FBF3F5056130BD29B1C1
:101FE0002E4A526902432D4B5A6104E02B4A526932
:101FF00082432A4B5A61704729B1284A92690243A9
:10200000264B9A6104E0254A92698243234B9A61E8
:10201000704729B1214AD2690243204BDA6104E0BA
:102020001E4AD26982431D4BDA61704729B11B4AAF
:10203000D2680243194BDA6004E0184AD26882433E
:10204000164BDA60704729B1144A12690243134BE8
:102050001A6104E0114A12698243104B1A617047F9
:1020600012494039086070470F49C86470470B49EE
:10207000C87170470948406A40F08070074948625B
:10208000704701460020054A92680A400AB10120C3
:1020900000E000207047014988727047001002403C
:1020A0000000FFF8FFFFF6FE0000424280044242BB
:1020B00000127A0000093D00E6000020F600002032
:1020C00010B50446FB48844209D101218803FFF77B
:1020D000ADFF00214FF48040FFF7A8FF32E0F64843
:1020E000844209D101214804FFF7ADFF00214FF4DC
:1020F0000030FFF7A8FF25E0F048844209D1012114
:102100008804FFF7A0FF00214FF48020FFF79BFF1A
:1021100018E0EB48844209D10121C804FFF793FF7E
:1021200000214FF40020FFF78EFF0BE0E5488442CA
:1021300008D101210805FFF786FF00214FF4801028
:10214000FFF781FF10BD2DE9F04786B005460E462A
:102150000024A24600BFA1460027B08900B100BFFD
:102160002F462C8A4CF6FF700440F08804432C82E2
:10217000AC894EF6F3100440B08831890843718968
:1021800008430443AC81AC8A4FF6FF400440B08959
:102190000443AC8201A8FFF7C2FEC648874202D1C1
:1021A000DDF810A001E0DDF80CA0A88900F40040E3
:1021B00040B10AEBCA0000EB0A1031684900B0FBDD
:1021C000F1F807E00AEBCA0000EB0A103168890059
:1021D000B0FBF1F86420B8FBF0F0040120096421A1
:1021E00001FB1089A88900F4004040B1322000EBC7
:1021F000C900B0FBF1F000F00700044308E0322012
:1022000000EB09106421B0FBF1F000F00F00044373
:102210002C8106B0BDE8F0874FF416510160002113
:102220008180C18001810C21418100218181704721
:1022300010B502460020108A4FF2FF0318400B88A9
:102240004C8823438C882343CC8823431843108233
:1022500010BD0021018041808180C180704721B183
:10226000828942F40052828104E082894DF6FF7334
:102270001A4082817047F0B50346002400260025ED
:10228000002040F66A17B94200D100BF1846C1F3DA
:10229000421401F01F06012707FA06F5012C01D1AF
:1022A0000C3004E0022C01D1103000E014301AB1DF
:1022B00007682F43076002E00768AF430760F0BD7F
:1022C0001AB1838A0B43838202E0838A8B43838221
:1022D0007047028A4FF6F0731A400282028A0A435C
:1022E0000282704782894FF2FF731A40828182898D
:1022F0000A438281704721B1828942F002028281C1
:1023000004E082894FF6FD731A4082817047028A89
:102310004FF6DF731A400282028A0A430282704734
:1023200021B1028A42F48042028204E0028A4BF622
:10233000FF731A4002827047C1F30802828070471F
:1023400001468888C0F308007047818941F0010187
:1023500081817047028BD2B20283028B42EA012252
:1023600002837047028B02F47F420283028B0A438E
:102370000283704721B1828A42F02002828204E007
:10238000828A4FF6DF731A408282704721B1828AB7
:1023900042F01002828204E0828A4FF6EF731A4004
:1023A0008282704721B1828A42F00802828204E070
:1023B000828A4FF6F7731A408282704721B1828970
:1023C00042F40042828103E08289C2F30E028281DC
:1023D000704721B1828A42F40062828204E0828ADC
:1023E0004FF2FF731A4082827047828A4FF6FB7366
:1023F0001A408282828A0A438282704721B1828A8D
:1024000042F00202828204E0828A4FF6FD731A4093
:102410008282704702460020B1F5007F00D100BFE4
:1024200013880B400BB1012000E00020704701F43D
:102430000072B2F5007F00D100BFCA43028070472E
:1024400070B50246002400230025002040F66A16DD
:10245000B14200D100BFC1F3421501F01F030126B4
:1024600006FA03F3012D02D19689334006E0022DCE
:1024700002D1168A334001E0968A33400C120126BD
:1024800006FA04F41688344013B10CB1012000E0C0
:10249000002070BD10B50022002340F66A14A1424E
:1024A00000D100BF0A1201249440A3B2DC4304808F
:1024B00010BD0000003801400044004000480040CA
:1024C000004C00400050004010B50446FE488442D5
:1024D00008D10121C014FFF7A9FD0021E014FFF786
:1024E000A5FDC4E0B4F1804F08D101210846FFF7F3
:1024F000AAFD00210120FFF7A6FDB8E0F3488442C1
:1025000008D101210220FFF79EFD00210220FFF7E4
:102510009AFDACE0EE48844208D101210420FFF787
:1025200092FD00210420FFF78EFDA0E0E9488442DF
:1025300008D101210820FFF786FD00210820FFF7C0
:1025400082FD94E0E448844208D101211020FFF785
:102550007AFD00211020FFF776FD88E0DF488442F5
:1025600008D101212020FFF76EFD00212020FFF778
:102570006AFD7CE0DA48844208D101214014FFF76B
:1025800055FD00216014FFF751FD70E0D5488442ED
:1025900009D10121C804FFF749FD00214FF40020B3
:1025A000FFF744FD63E0D048844209D101210805CA
:1025B000FFF73CFD00214FF48010FFF737FD56E098
:1025C000CA48844209D101214805FFF72FFD0021A7
:1025D0004FF40010FFF72AFD49E0C548844208D1B6
:1025E00001214020FFF72FFD00214020FFF72BFDA8
:1025F0003DE0C048844208D101218020FFF723FD3F
:1026000000218020FFF71FFD31E0BB48844208D144
:1026100001218015FFF717FD0021A015FFF713FD1D
:1026200025E0B648844209D101210804FFF7FEFCE9
:1026300000214FF48030FFF7F9FC18E0B0488442E5
:1026400009D101214804FFF7F1FC00214FF40030CB
:10265000FFF7ECFC0BE0AB48844208D10121880471
:10266000FFF7E4FC00214FF48020FFF7DFFC10BDF2
:1026700000220288944B98420ED0994B98420BD07E
:10268000B0F1804F08D0914B984205D0904B9842C2
:1026900002D0904B984204D14FF68F731A404B886A
:1026A0001A438D4B984207D08C4B984204D04FF67A
:1026B000FF431A40CB881A4302808B8883850B889E
:1026C0000385814B98420BD0854B984208D08B4BA9
:1026D000984205D08A4B984202D08A4B984201D149
:1026E0000B7A038601238382704770B50024002291
:1026F0000023058C4FF6FE7635400584028C8388D6
:10270000048B4FF68F752C40B51E2C400D882C4342
:10271000751E2A400D892A434D882A436A4DA842D6
:102720000BD06F4DA84208D0744DA84205D0744D0F
:10273000A84202D0734DA84213D14FF6F7752A4034
:102740004D892A434FF6FB752A408D882A434FF660
:10275000FF652B404FF6FF552B408D892B43CD89CC
:102760002B4383800483CD888586028470BD70B539
:10277000002400220023058C4FF6EF7635400584B7
:10278000028C8388048B48F6FF752C404FF6FF457A
:102790002C400D884FF6FF7606EA05252C434FF6B0
:1027A000DF752A400D8906EA05152A434D8806EA99
:1027B00005152A43444DA84202D0494DA8421DD1D7
:1027C0004FF67F752A404D894FF6FF7606EA0515CC
:1027D0002A434FF6BF752A408D8806EA05152A431D
:1027E0004FF6FF352B404FF2FF752B408D8906EADF
:1027F00085052B43CD8906EA85052B438380048319
:10280000CD880587028470BD70B5002400220023A6
:10281000058C4FF6FF6635400584028C8388848BD7
:102820004FF68F752C404FF6FC752C400D882C43CD
:102830004FF6FF552A400D894FF6FF7606EA05252B
:102840002A434D8806EA05252A431F4DA84202D097
:10285000234DA8421DD14FF2FF752A404D894FF6F6
:10286000FF7606EA05252A434FF6FF352A408D8874
:1028700006EA05252A434EF6FF752B404DF6FF75F7
:102880002B408D8906EA05152B43CD8906EA0515EF
:102890002B4383808483CD888587028470BD70B587
:1028A000002200230024058C4EF6FF763540058477
:1028B000038C8488828B48F6FF752A404FF6FF45CB
:1028C0002A400D8820E00000002C01400004004058
:1028D00000080040000C00400010004000140040C0
:1028E00000340140004C01400050014000540140C0
:1028F00000180040001C0040002000400040014043
:1029000000440140004801404FF6FF7606EA0525E5
:102910002A434DF6FF752B400D8906EA05352B43FA
:102920004D8806EA05352B43FA4DA84202D0FA4DF0
:10293000A84208D14BF6FF752C408D894FF6FF76E3
:1029400006EA85152C4384808283CD88A0F8405008
:10295000038470BD828B4FF2FF331A408283828BD7
:102960004FF6FF7303EA01231A4382837047F0B5E1
:102970000C461546002200210026078C4EF6FF7CEF
:1029800007EA0C070784828B018C4FF6FF7707EA72
:10299000043640F6FF473A404FF6FF7707EA05272F
:1029A0003A434FF6FF7707EA03373A43D94FB84225
:1029B0000ED0D94FB8420BD0B0F1804F08D0D74FCE
:1029C000B84205D0D64FB84202D0D64FB84206D151
:1029D0004DF6FF77394046F48057394305E047F616
:1029E000FF57394044F48057394382830184F0BD56
:1029F000828B4FF6F3731A408283828B0A43828361
:102A00007047F0B50C461546002200210026078CC1
:102A10004FF6FF6C07EA0C070784828B018C4FF698
:102A2000FF7707EA04264FF60C773A404FF6FF7718
:102A300007EA03172F433A43B64FB8420ED0B64FBA
:102A4000B8420BD0B0F1804F08D0B44FB84205D097
:102A5000B34FB84202D0B34FB84206D14FF6FF573A
:102A6000394046F48077394305E04FF2FF5739404B
:102A700044F48077394382830184F0BD028B4FF2A6
:102A8000FF331A400283028B4FF6FF7303EA0123E0
:102A90001A4302837047F0B50C4615460022002108
:102AA0000026078C4FF6EF7C07EA0C070784028BA1
:102AB000018C4FF6FF7707EA041640F6FF473A40CD
:102AC0004FF6FF7707EA03373A434FF6FF7707EAF7
:102AD00005273A438F4FB8420ED08F4FB8420BD0E4
:102AE000B0F1804F08D08D4FB84205D08C4FB8421E
:102AF00002D08C4FB84206D14FF6DF77394046F00E
:102B00001007394305E04FF65F77394044F010076E
:102B1000394302830184F0BD028B4FF6F3731A40F0
:102B20000283028B0A4302837047F0B50C461546B8
:102B300000220021068C4FF6FE773E400684028B71
:102B4000018C4FF60C7632407E1C06EA03162E43AB
:102B50003243704EB0420ED06F4EB0420BD0B0F147
:102B6000804F08D06D4EB04205D06D4EB04202D0BD
:102B70006C4EB04206D14FF6FD76314044F001066E
:102B8000314305E04FF6F576314044F0010631431C
:102B900002830184F0BD70B505460C465D48854250
:102BA0000ED05D4885420BD0B5F1804F08D05B4810
:102BB000854205D05A48854202D05A48854200D104
:102BC00000E000BF208850B92389A2886188284688
:102BD000FFF7ABFFE1882846FFF79EFF25E020883E
:102BE00004280AD12389A28861882846FFF753FF69
:102BF000E1882846FFF742FF17E0208808280AD11D
:102C00002389A28861882846FFF7FBFEE1882846D1
:102C1000FFF7EEFE09E02389A28861882846FFF7C6
:102C2000A6FEE1882846FFF795FE70BD2DE9F0412C
:102C300005460C4600260127608808B9022600E0F8
:102C40000026A088012801D1022700E00127208862
:102C5000A0B92389A28861882846FFF766FFE1882A
:102C60002846FFF759FF23893A4631462846FFF7A1
:102C700012FFE1882846FFF701FF13E02389A288AD
:102C800061882846FFF707FFE1882846FFF7F6FE30
:102C900023893A4631462846FFF747FFE188284610
:102CA000FFF73AFFBDE8F0810A884B881A438B880A
:102CB0001A43CB881A430B891A434B891A438B89D1
:102CC0001A43A0F8442070474FF6FF71818000211D
:102CD0000180C180418001727047002101804180E4
:102CE0008180C180018141818181C1817047002142
:102CF00001804180012181800021C18001817047D4
:102D00000021018041808180C180018141818181D8
:102D100070470000002C01400034014000040040D6
:102D200000080040000C004021B1028842F001027E
:102D3000028004E002884FF6FE731A40028070475A
:102D400031B1B0F8442042F40042A0F8442005E03C
:102D5000B0F84420C2F30E02A0F8442070471AB124
:102D600083890B43838102E083898B43838170478E
:102D70008182704741EA0203A0F8483070471AB1D7
:102D800083890B43838102E083898B43838170476E
:102D900001894FF6F8721140018170470A460021FF
:102DA00001894FF68F73194011430181704730B587
:102DB00004460D4629462046FFF7F0FF208940F0E3
:102DC0000700208130BD2DE9F04104460D4616462E
:102DD0001F46602D06D13B46012231462046FFF7B3
:102DE0005AFE05E03B46012231462046FFF79DFE94
:102DF00029462046FFF7D2FF208940F007002081B6
:102E0000BDE8F08130B50C4600210189C9B24FF60A
:102E1000FF7505EA0325154325432943018130BD8C
:102E20002DE9F04105460E461746984600244346D4
:102E30003A4631462846FFF7E5FF2C894FF6F870F1
:102E4000044044F007044FF68F70044044F07004CF
:102E50002C81BDE8F081F0B504460D4616461F46AC
:102E60003B46324629462046FFF7CCFF208940F4F6
:102E700080402081F0BD0185828270470A46002192
:102E800001884FF68F731940114301807047F0B5E8
:102E90000C4615461E460021002200230189028BA4
:102EA000038C4FF6F877394021434FF6FC473A4000
:102EB00040F201173A434FF6DD773B404FF6FF777C
:102EC00007EA06172F433B43018102830384F0BDC9
:102ED0000A460021018B4FF68F731940114301837D
:102EE00070470A460021018B48F6FF7319404FF6E0
:102EF000FF7303EA02231943018370470A46002146
:102F0000818B4FF68F7319401143818370470A46B6
:102F10000021818B48F6FF7319404FF6FF7303EAD7
:102F2000022319438183704721B1028842F0800255
:102F3000028004E002884FF67F731A4002807047D7
:102F400021B1828842F00402828004E082884FF638
:102F5000FB731A408280704721B1828842F00802D8
:102F6000828004E082884FF6F7731A4082807047AF
:102F700021B1828842F00102828004E082884FF60B
:102F8000FE731A40828070470A460021018B4FF67B
:102F9000F77319401143018370470A460021018BE2
:102FA0004FF2FF7319404FF6FF7303EA02231943F0
:102FB000018370470A460021818B4FF6F773194051
:102FC0001143818370470A460021818B4FF2FF73C2
:102FD00019404FF6FF7303EA0223194381837047B8
:102FE0000A460021018B4FF6FB7319401143018300
:102FF00070470A460021018B4FF6FF3319404FF608
:10300000FF7303EA02231943018370470A46002134
:10301000818B4FF6FB7319401143818370470A4639
:103020000021818B4FF6FF3319404FF6FF7303EAFF
:1030300002231943818370470A460021018B4FF612
:103040007F7319401143018370470A460021018BA9
:10305000C1F30E014FF6FF7303EA02231943018304
:1030600070470A460021818B4FF67F731940114348
:10307000818370470A460021818BC1F30E014FF610
:10308000FF7303EA02231943818370470A46002134
:10309000018C4FF6FD7319401143018470470A46B5
:1030A0000021018C4FF6F7731940114301847047DA
:1030B0000A460021018C4FF6DF7319404FF6FF736B
:1030C00003EA02131943018470470A460021018C68
:1030D0004FF67F7319404FF6FF7303EA021319434B
:1030E000018470470A460021018C4FF6FF531940B6
:1030F0004FF6FF7303EA02231943018470470A461F
:103100000021018C4FF2FF7319404FF6FF7303EA61
:1031100002231943018470470A460021018C4DF6B1
:10312000FF7319404FF6FF7303EA0233194301841A
:10313000704730B5002301248C40A3B2048C9C431B
:103140000484048C02FA01F5ADB22C43048430BD32
:1031500030B5002304248C40A3B2048C9C43048427
:10316000048C02FA01F5ADB22C43048430BD70B575
:103170000346002000241846183001258D40ACB2CB
:103180001D8CA5431D8409B1082909D100EB6100FC
:10319000056825F0700505600568154305600EE0BB
:1031A0000D1FC5F34E052844056825F4E04505606C
:1031B00005684FF6FF7606EA02263543056070BDC6
:1031C00021B1028842F00202028004E002884FF638
:1031D000FD731A400280704721B1028842F0040258
:1031E000028004E002884FF6FB731A4002807047A9
:1031F00021B1828842F08002828004E082884FF60A
:103200007F731A408280704702884FF6F7731A4026
:10321000028002880A430280704782884FF68F73CB
:103220001A40828082880A438280704702894FF662
:10323000F8731A40028102890A43028170470289A9
:103240004FF67F731A40028102890A430281704758
:1032500081847047818570478186704701877047F8
:1032600081877047A0F84010704702884FF6FF43EF
:103270001A40028002880A43028070470146888E05
:1032800070470146088F70470146888F7047014696
:10329000B1F8400070470146888C70470146088DA0
:1032A000704702460020138A0B400BB1012000E05A
:1032B00000207047CA430282704730B502460020A2
:1032C00000230024158A05EA0103958905EA010413
:1032D00013B10CB1012000E0002030BDCA430282CE
:1032E00070470000002044490860091D0860091D5E
:1032F0000860091D086041483F4914310860704763
:1033000000213D498279002A3AD00A4612680368B2
:103310009A430B461A600A1D126803689A430B1DF4
:103320001A60027911440A6803681A430A60324A33
:103330000832126803689A432F4B08331A601A1D2B
:10334000126803689A432C4B0C331A604279102A96
:103350000ED11A1F126803681A43274B08331A60EC
:103360001A1D126803681A43234B0C331A600DE0D0
:103370002149427911440A6803681A430A6005E04A
:10338000027911440A6803689A430A607047002171
:10339000016001710C214171002181717047164952
:1033A000103109680143144A103211607047014618
:1033B0000020114A143212680A400AB1012000E0CC
:1033C000002070470C491431086070470146002006
:1033D0000022094B1B6803EA0102074B14331B68E8
:1033E0000B4013B10AB1012000E0002070470249F0
:1033F000143108607047000000040140FFFF0F0017
:1034000040EA01039B0703D009E008C9121F08C066
:10341000042AFAD203E011F8013B00F8013B521EE6
:10342000F9D27047D2B201E000F8012B491EFBD25D
:1034300070470022F6E710B513460A4604461946BF
:10344000FFF7F0FF204610BD421E12F8013F002B8F
:10345000FBD111F8013B02F8013B002BF9D1704779
:1034600030B505462A460B4612F8010B13F8014BFE
:1034700008B1A042F8D01CB1002802D06D1CF1E7C1
:10348000284630BD421C10F8011B0029FBD1801AD0
:10349000704700F0004230F000400AD0C10D01F545
:1034A0006071C0F3160042EA0151C208400711439F
:1034B000704700200146704730B50B46014600209A
:1034C0002022012409E021FA02F59D4205D303FAE6
:1034D00002F5491B04FA02F52844151EA2F1010267
:1034E000F1DC30BD2DE9F05F0546002092469B4699
:1034F00088460646814640241BE02846414647460A
:10350000224600F0FAF953465A46C01A914110D3A8
:1035100011461846224600F0E1F92D1A67EB010822
:103520004F4622460120002100F0D8F917EB000990
:103530004E41201EA4F10104DFDC484631462A46F4
:103540004346BDE8F09F2DE9FE4F804681EA030027
:10355000C00F0C46009021F0004123F00045B8EB6D
:103560000200A94105D24046214690461C460B4622
:10357000024623F00040104347D0270DC7F30A004E
:10358000C3F30A510290401A019040286BDAC3F34A
:10359000130040F4801B0098924620B10023D2EB28
:1035A000030A63EB0B0B01985946C0F140025046E9
:1035B00000F094F906460D4650465946019A00F02F
:1035C000ACF910EB08006141002487EA115284EA4B
:1035D000E7731A4340D0009A62B3019A012A4FEA76
:1035E000075215DC001B61EB02014FF0004202EABA
:1035F0000752CDE90042001C41F5801132462B46AE
:1036000000F0ACF903B0BDE8F08F40462146F9E781
:10361000001B61EB0201001C41F5801300185B41A7
:103620002018A2F5001747EB030140EAD570B61940
:103630006D4111E06D084FEA360645EAC0754FEA64
:103640000752001B61EB0201001C41F58011490883
:103650004FEA30000019514132462B4603B0BDE815
:10366000F04F00F06CB90098012240000023D0EB2D
:10367000020263EBE073009821464FEAE074B8EB76
:10368000000061EB0401E9E783F000435BE781F0B0
:10369000004158E72DE9FE4F81EA030404F000449D
:1036A00021F0004100944FF0000B23F0004350EA5A
:1036B00001045ED052EA03045BD0C3F30A54C1F3A1
:1036C0000A552C44A4F2F3340194A0FB0254C1F334
:1036D000130141F48011C3F3130343F4801301FB7E
:1036E000024400FB034E840A970A44EA815447EAE5
:1036F0008357A4FB076802958D0A05FB07854FEAEF
:10370000932C04FB0C542705029D4FEA065847EA08
:103710001637B5EB08056EEB070C870E920E47EADD
:10372000811742EA8312A7FB0201B6EB0B0164EB9F
:1037300000042B0D43EA0C335E1844EB1C50DA46B0
:103740005146E7FB0201C5F313044FEA0B3343EA8A
:1037500014534FEA0432019C43EA0603A4F10C041B
:103760000294009CCDE900B400F0F8F803B0BDE885
:10377000F08F00200146F9E72DE9F04D81EA0304BE
:1037800004F0004B21F0004514464FF0000A23F0EE
:10379000004150EA050220D054EA01021DD0C5F3D1
:1037A0000A570246C5F31303C1F31300C1F30A56C7
:1037B00040F4801543F48013A7EB0608101BD6468F
:1037C00008F2FD3873EB050002D308F1010801E0AF
:1037D00092185B41B8F1000F03DA00200146BDE802
:1037E000F08D00204FF48011064684460EE0171B32
:1037F00073EB050705D3121B63EB050306434CEA85
:10380000010C49084FEA300092185B4150EA010769
:10381000EDD152EA030012D082EA040083EA0501E6
:10382000084305D0101BAB4106D20122002306E05D
:1038300000224FF0004302E06FF0010253101AEB38
:1038400006004CEB085110EB0A0041EB0B01BDE800
:10385000F04D00F074B8C1F30A52C1F3130140F205
:10386000FF3341F480119A4202DA0020014670478A
:1038700040F233439A42A2F2334202DC524200F059
:103880003CB800F02BB8000030B5041E71F1000404
:1038900004DB4FF00044404264EB0101141E73F15D
:1038A000000405DB1C464FF00043524263EB040367
:1038B000994208BF904230BD064C074D06E0E068D3
:1038C00040F0010394E8070098471034AC42F6D367
:1038D000FCF732FCB8430008D8430008202A04DB78
:1038E000203A00FA02F1002070479140C2F1200313
:1038F00020FA03F3194390407047202A04DB203A52
:1039000021FA02F00021704721FA02F3D040C2F1FF
:1039100020029140084319467047202A06DBCB1746
:10392000203A41FA02F043EAE07306E041FA02F37A
:10393000D040C2F12002914008431946704710B5AB
:10394000141E73F1000408DA401C41F100019218C2
:103950005B411A4301D120F0010010BD2DE9F04D6B
:1039600092469B4611B1B1FA81F202E0B0FA80F2C0
:1039700020329046FFF7B2FF04460F4640EA0A00A5
:1039800041EA0B0153465A46084313D0114653EA05
:10399000010019D0C8F140025046FFF7AEFF0546BE
:1039A0000E46504659464246FFF798FF084305D059
:1039B000012004E020463946BDE8F08D0020054393
:1039C00046EAE0762C4337430A986305E40AA0EB05
:1039D00008000022FD0A44EA47540A3002D50020BC
:1039E0000146E9E7010510196941DDE908450019BB
:1039F0006941BDE8F04DA2E70FB4084B10B504A92A
:103A000002AA039800F0DEF8044602A9002000F0A4
:103A100070FC204610BC5DF814FB0000F342000867
:103A200002E008C8121F08C1002AFAD17047704787
:103A3000002001E001C1121F002AFBD170470000E5
:103A40002DE9FF5F82B00021DDE90430020DDDF8D1
:103A500040B0034318D044F61050A2F2FF32424364
:103A60001514119801281FD0A5EB0B00401C5FEA2C
:103A7000000A4FF000064E4FDFF83891B04650462E
:103A800015D5CAF1000413E0119801244AA30128B6
:103A900001D16FEA0B010298119AC0E90031C0E927
:103AA000024206B0BDE8F09FCBF10000DFE704461C
:103AB0000021404A491842EB0450CDE9001012E0C1
:103AC000E00707D032463B4640464946FFF7E2FD55
:103AD0008046894632463B4610461946FFF7DAFDD6
:103AE00006460F466410002CEAD1DDE90401DDE949
:103AF0000023BAF1000F06DAFFF7CCFD42464B4631
:103B0000FFF7C8FD05E0FFF737FE42464B46FFF7DB
:103B100033FE04460E460022284BFFF7B5FE03D8BD
:103B20004FF0FF30014607E00022254B204631468A
:103B3000FFF709FDFFF78FFE102409E0002C0ADBD8
:103B40000A220023FFF7CEFC039B30321A55641E75
:103B500050EA0102F2D1641C039AC4F11103144427
:103B6000119A012A03D0012208430DD10AE008432B
:103B700004D000204FF0110B119072E7A3EB0B055E
:103B80006D1E0DE05B4504DD4FF0000205F10105FF
:103B900004E003DA4FF00002A5F10105002AECD0A1
:103BA00002981199C0E90231C0E9004579E70000A7
:103BB000000014400000F03F300000000000F0431F
:103BC0000000E03F2DE9FF4F95B09B468946064631
:103BD00000250FE2252877D100242746F84A012145
:103BE000059400E0044316F8013F203B01FA03F07E
:103BF0001042F7D130782A2811D06FF02F03307897
:103C0000A0F13002092A16D8059A44F0020402EB0A
:103C1000820203EB42021044761C0590EFE759F84C
:103C2000042B0592002A03DA504244F40054059014
:103C300044F00204761C30782E2816D116F8010FB5
:103C400044F004042A280DD06FF02F023078A0F140
:103C50003003092B09D807EB870302EB4303C7188E
:103C6000761CF3E759F8047B761C30786C280FD06B
:103C700006DC4C2817D068280DD06A2814D104E03F
:103C8000742810D07A280FD10DE044F400140AE013
:103C900044F4801401E044F440147278824202D16A
:103CA00004F58014761C761C307866280BD013DC63
:103CB000582877D009DC002875D04528F6D046284A
:103CC000F4D047281AD19DE118E0632835D0642844
:103CD00079D0652812D195E1702873D008DC672867
:103CE000F1D069286FD06E280DD06F2806D1B5E0CD
:103CF00073282CD0752875D0782874D05A46179917
:103D000090476D1C75E1C4F30250022809D00328C6
:103D10000DD0D9F8001004280DD00D6009F1040968
:103D200067E1D9F80010EA17C1E90052F6E7D9F8BF
:103D300000100D80F2E70D70F0E719F8041B8DF804
:103D4000001000208DF80100EA46012003E059F838
:103D500004AB4FF0FF3061074FF0000102D40DE0DB
:103D600008F101018846B9420FDA8045F8DB1AF8FC
:103D700008100029F4D108E008F1010188468142C9
:103D8000FADB1AF808100029F6D105985B46A0EB7B
:103D9000080721463846179A00F094FA284400EBA9
:103DA000080507E04DE029E10DE01AF8010B5A463D
:103DB00017999047B8F10108F7D25B46214638467B
:103DC000179A13E142E00A220092C4F302524FF024
:103DD000000A022A08D059F804CB032A4FEAEC71F2
:103DE0000AD00DE029E02AE009F1070121F00702DD
:103DF000F2E802C1914609E00FFA8CFC4FEAEC713F
:103E0000042A03D14FFA8CFC4FEAEC71002907DA3F
:103E10000A460021DCF1000C61EB02012D2202E0D8
:103E2000220504D52B228DF80420012203E0E207AD
:103E300001D02022F7E7904659E00A2102E0102243
:103E40000DE010214FF0000A00910BE010224FF01E
:103E5000000A44F004040827009203E008224FF00F
:103E6000000A0092C4F30252022A05D059F804CB8A
:103E70000021032A08D009E009F1070121F0070217
:103E8000F2E802C1914605E01FFA8CFC042A01D138
:103E90000CF0FF0C4FF00008220728D5702806D040
:103EA000009B83F0100353EA0A0305D00EE0402282
:103EB0008DF80420012208E05CEA010206D03022DD
:103EC0008DF804208DF8050002229046009B83F0B7
:103ED000080353EA0A030AD15CEA010201D162072E
:103EE00005D530228DF804204FF001087F1E582898
:103EF00004D034A003900EA802900DE036A0F9E79C
:103F000053466046009AFFF7EDFA84460398825CB8
:103F10000298401E029002705CEA0100F0D1029803
:103F200006A9081A00F1200A600702D524F480349B
:103F300000E00127574502DDA7EB0A0000E0002062
:103F400000EB0A01009005984144401A0590E003F7
:103F500006D45B462146179A059800F0B3F905444C
:103F6000002706E001A85A46C05D179990476D1CCE
:103F70007F1C4745F6DBE0030CD55B462146179ACC
:103F8000059800F09FF9054404E030205A4617993F
:103F900090476D1C0099481E00900029F5DC08E050
:103FA000029802995A460078491C02911799904745
:103FB0006D1CBAF10001AAF1010AF1DC65E1000013
:103FC00009280100303132333435363738396162EF
:103FD00063646566000000003031323334353637B3
:103FE00038394142434445460000000000F058F98A
:103FF0000544761C307800287FF4ECAD19B02846D3
:10400000BDE8F08F620700D4062709F1070222F00D
:10401000070CFCE80223E14603F000485FEA080CC5
:1040200002D00FF2702C0DE05FEA045C02D50FF2B3
:10403000682C07E05FEAC47C02D00FF2602C01E03C
:10404000AFF2700C4FF0FF3823F00043CDF850C0B2
:1040500065280CD006DC452809D046281DD0472805
:104060003DD13DE0662818D067287ED138E0002198
:10407000112F01DB112000E0781CCDE9000106A919
:104080000EA8FFF7DDFCDDE90F010E9A0391002178
:10409000009207F1010A04914DE04FF000400097B3
:1040A000CDE9011006A90EA8FFF7CAFCDDE90F0251
:1040B00003920E9B11990022DDF80CA0009304924C
:1040C00011B9791C00EB010AB7EB0A0004D4C0F166
:1040D000FF3007F1010A0490AAEB0700019044E0C9
:1040E000012F00DA01270021112F01DD112000E04E
:1040F0003846CDE9000106A90EA8FFF7A1FCDDE9CD
:104100000F010E9A0391002104910092BA462107F3
:104110000CD40399514500DA8A46BAF1010F05DD46
:10412000009AAAF10101515C302908D0B84202DAA4
:1041300010F1040F06DA0121CDE9011015E0AAF112
:104140000101E9E7002805DC049901440491AAEB88
:10415000000102E0411C514500DD8A460499401AE5
:10416000401C01904FF000400290200704D40198B9
:10417000504501DBCDF8048000208DF84F000298F7
:104180000DF14F07B0F1004F25D02B200E90029873
:104190004FF0020800280CDA404202902D200E90C9
:1041A00007E00A210298FFF787F93031029007F8FB
:1041B000011DB8F10001A8F10108F2DC0298002805
:1041C000EFD1791E0E980870307800F0200040F092
:1041D000450007F8020D12A8C01B00F1070814984B
:1041E000007800B1012000EB0A01019801EBE071B9
:1041F00005984144401A401E0590E00306D45B46F2
:104200002146179A059800F05DF805441498007847
:1042100018B15A46179990476D1CE00324D55B46A8
:104220002146179A059800F04DF805441CE00498C3
:10423000002807DBDDE90301884203DD0098405CCC
:10424000179901E0179930205A469047049805F1D4
:104250000105401C04900198401E019004D12E20BD
:104260005A46179990476D1CBAF10001AAF1010A4C
:10427000DDDC05E017F8010B5A46179990476D1CD5
:10428000B8F10001A8F10108F4DC5B462146179A59
:104290000598ABE62D0000002B0000002000000078
:1042A0002DE9F041044600251E461746880404D433
:1042B00005E039462020B0476D1C641EF9D528461C
:1042C000BDE8F0812DE9F041044600251E469046E8
:1042D000C80301D5302700E02027880404D505E075
:1042E00041463846B0476D1C641EF9D52846BDE8E6
:1042F000F0810A68531C0B601070704741542B43C7
:1043000047534E3D310D0A0041542B5A5253540D20
:104310000A0000002B4950523D393630300D0A005A
:1043200041542B45534F434C3D200D0A00000000E3
:1043300041542B45534F433D312C312C310D0A0054
:10434000000000000000000000000000000000006D
:1043500041542B45534F434F4E3D202C3339373278
:10436000342C223130332E34362E3132382E343341
:10437000220D0A0000000000000000000000000004
:104380000000000041542B45534F434F4E3D202C1D
:1043900031303038372C2234372E3131312E313113
:1043A000322E3330220D0A00000000000000000011
:1043B0000000000000000000D843000800000020BA
:1043C000FC000000203A0008D4440008FC00002053
:1043D000D4140000303A0008000000000000000083
:1043E00000000000000000000000000000000000CD
:1043F00000000000000000000000000000000000BD
:1044000000000000000000000000000000000000AC
:10441000000000000000000000A24A0400000000AC
:104420000000000001020304060708093333CA42F2
:1044300000000000000000003044304100343333FD
:1044400031333132300034383331333132300034AB
:104450003333323332323000333033303330323072
:1044600000343333313230003446333232300033AB
:10447000333332324533303338333233363230002F
:104480000033313331333832453334333633393313
:104490003632300000000000000000000000000084
:1044A000000000000000000000000000000000000C
:1044B000000000000000000061000000000000009B
:1044C00000000102030401020304060708090204B4
:0444D00006080000DA
:0400000508000131BD
:00000001FF
