:020000040800F2
:10000000101D0020C9430008750600087706000887
:100010007B0600087F060008830600080000000039
:10002000000000000000000000000000870600083B
:1000300089060008000000008B0600088D060008F5
:10004000E3430008E3430008E3430008E3430008F8
:10005000E3430008E3430008E34300083D080008C9
:10006000E3430008E343000861080008E343000895
:10007000E3430008E3430008E3430008E3430008C8
:10008000E3430008E3430008E3430008E3430008B8
:10009000E3430008E3430008E34300084707000880
:1000A000E343000849360008E3430008E34300083F
:1000B000E343000873080008F1350008E343000833
:1000C000E3430008E3430008E3430008E343000878
:1000D000E3430008954100088F060008E343000849
:1000E000F1070008E3430008E3430008E343000886
:1000F000E3430008E3430008E3430008E343000848
:10010000E3430008E3430008E3430008E343000837
:10011000E3430008BB380008E3430008E34300085A
:10012000E3430008E3430008E3430008E343000817
:10013000DFF810D007F0C6F9004800477D0400083A
:10014000AFF30080101D002010B58021FE4803F0A1
:100150002EFEFE4948704021FB4803F028FEFB4973
:1001600088704FF48051FA4803F021FEF749C870B7
:100170004FF40041F64803F01AFEF44908714FF4B9
:100180008051F34803F013FEF04948711021F04804
:1001900003F00DFEED4988710846C07830B9084675
:1001A000007918B90120EB49087009E0E748C078E8
:1001B000012805D1E548007910B90020E54908700B
:1001C000E5480078012819D102F0F2FF18B90120A2
:1001D000E249087002E00020E0490870E048007839
:1001E000DE49097888420FD0002001F068FB02F058
:1001F000DAF9DA480078DA49087005E0D64800787C
:1002000010B90020D5490870D6480078D14909783E
:1002100088421ED0CF48007828B90020D249087003
:10022000D24908700CE0CB480078012808D1CE49AB
:1002300008704FF44870CE4908800120CB490870FF
:10024000022001F03CFB02F0AEF9C2480078C5493B
:10025000087010BD10B5C7480078012816D10020DD
:10026000C4490870C4490860C4480068C4490860AB
:100270000120C44908600020C3490860BF480068E5
:10028000BF49086001F08AFB02F08DF9BF48007891
:1002900001280ED10020BD490870BA49086001202C
:1002A000B94908600020B649086001F077FB02F008
:1002B0007AF9B7480078012806D10020B4490870BF
:1002C00001F06CFB02F06FF910BD2DE9F84FB14859
:1002D000007800287CD1B049488806F0A8FE814605
:1002E0004FF08B4106F0DDFC044606F0D7FE0746D2
:1002F0004FF06632A94B06F0B9FD054606F012FF35
:10030000A749486048684FF0804106F098FC00908B
:1003100006F0C4FE80460022A24B06F0A1FD064670
:100320000022A14B06F0A2FD044600229F4B06F0DE
:100330000FFE824606F099FE9D4908700846007837
:10034000032801DA0020087099480078642802DD4B
:1003500064209749087096480078002819DB944873
:1003600000780A2815DA9348007890B992480088F6
:10037000401C914908800846008840F6B831884200
:100380000AD102F032FC01208A4908708B490870BA
:1003900002E00020884908808948008847F23051EF
:1003A000884204DB02F021FC002085490880804857
:1003B000007800280DDB7E4800780A2809DA4FF41F
:1003C0000060634910310860C010091D086008E032
:1003D00031E04FF400605E4914310860C010091F1D
:1003E00008607848007870B96D4948684FF08041DE
:1003F00006F025FC064606F051FE04460022724B2C
:1004000006F060FE14D201206E49087001F0FFF979
:1004100002F0C9F84FF47A7003F04DFB012080F32D
:10042000108800BF4103694804F05DF900BFFEE792
:10043000002067490870BDE8F88F10B5654800785E
:10044000012816D16448007870B90120624908700B
:1004500002F045FB46F2A81003F02DFB00205549A1
:10046000087001205D4908704FF4807036490861BA
:1004700003E04FF480703449486110BD584804F0DF
:10048000D2FA03F06FFF03F06FFB03F0B9FC00F04A
:10049000E8FD03F0D3FA4FF4A06003F0A7FF4FF498
:1004A00080414A4803F083FC58B13C2003F003FB31
:1004B0004FF48041454803F07AFC10B101204949CE
:1004C000087001F081FF02F06DFE03F0B1FE6420C0
:1004D00003F0F1FA00240DE002F0D9FF30B94FF437
:1004E00000513A4804F0FFF800BFFEE7322003F065
:1004F000E2FA641C282CEFDBFFF7E7FE02F099FF1D
:1005000002F077FA03F02CF94FF4FA7003F0D3FA03
:100510004FF4FA7003F0CFFA4FF4FA7003F0CBFA0D
:1005200000BF4FF4007008490861C82003F0C3FA07
:100530004FF400700449486102F0B1FA4FF47A7048
:1005400003F0B9FA50E00000001001404300002021
:10055000000801406A0000201017002069000020F8
:100560004B0000204C0000206B0000206C0000209D
:100570006E00002070010020680100208001002032
:10058000B0000020080000201C00002073010020A3
:10059000110000203E0000201E02002066660A4076
:1005A000DC02002000000C40000059400000E03F49
:1005B0003A000020100000203C000020A70100208D
:1005C000400000200500002000000840000C014011
:1005D00029020020640100204A0000203900002088
:1005E000C80200209F0100204FF47A7003F063FAE4
:1005F0004FF47A7003F05FFA4FF47A7003F05BFA0D
:10060000C82003F058FA02F0E6FB012015490870F3
:100610004FF4165003F04DFD00201349087011E00F
:1006200003F099F9FFF709FF02F0B0F9FFF74DFE6B
:1006300002F0D1FBFFF70EFE01F09BFAFFF784FDFD
:1006400001F083FCECE710B508480078012808D1D8
:1006500001F0A4F901F0A7FF002005490860034953
:10066000087010BD7C010020120000200400002052
:1006700000000020704700BFFEE700BFFEE700BF9C
:10068000FEE700BFFEE7704770477047704710B540
:100690000121FE4804F042FC30B1FC4804F0D4FBD8
:1006A0000121FA4804F047FC0821F84804F036FC20
:1006B00030B1F64804F0C8FB0821F44804F03BFCD4
:1006C0000221F24804F02AFC30B1F04804F0BCFBEF
:1006D0000221EE4804F02FFC40F22551EB4804F0D3
:1006E00033FC58B32021E94804F025FC40F22551A1
:1006F000E64804F053FC0721E44804F00FFC08B17D
:10070000012400E00024D4B9E1480068C82816D2CA
:10071000DE4804F099FBC1B2DD4802680068401C65
:10072000DB4B186003F1090081540120194608725F
:1007300008460068C72805D10020086002E0D348B9
:1007400004F082FB10BD10B5802005F015FF10B33A
:100750008021D04803F02BFB012819D1CE48007826
:10076000012815D10020CD4908800120CC4908601E
:100770000020C9490870CB4908600120CA490870A7
:100780000020CA4908701020C94908600820086084
:10079000802005F002FF402005F0EEFE38B3402136
:1007A000BC4803F004FB01281ED1C2480078012890
:1007B0001AD10020B9490880BE490870BE490860B6
:1007C000BA4908701020BA49086008200860002063
:1007D000B34908600120B9490870B9490870002080
:1007E000B8490860B8490870402005F0D6FE10BD31
:1007F00010B54FF4804005F0BFFE18B14FF48040B3
:1008000005F0CBFE4FF4004005F0B6FE18B14FF4F2
:10081000004005F0C2FE4FF4805005F0ADFE60B11F
:100820004FF4805005F0B9FEA8480088401CA74945
:1008300008808021974803F0BAFA10BD10B5022055
:1008400005F09AFE58B1022005F0A7FE9F480088E7
:10085000401C9E49088080218E4803F0A8FA10BDF4
:1008600010B5102005F088FE10B1102005F095FE9F
:1008700010BD10B50121964805F0A3FA00287CD0E0
:100880000121934805F0AEFA92480088401C914936
:10089000088091480088401C8F4908808F48007864
:1008A00001280CD18E480088401C8D4908800846DC
:1008B0000088FA2803D100200880884908708948F8
:1008C000007860B188480078012808D18748C0784E
:1008D000012804D186480088401C85490880844846
:1008E000008840F2DC51884210DB002080490880FB
:1008F0007C4908707F480068142807DB06207E4981
:10090000087001207D49087002F030FA7B480078B9
:10091000012804D17A480068401C79490860784869
:100920000068B0F5967F19D10020744908707449A9
:10093000086001205D49087010205D4908600820AA
:10094000091F08600120564908605349087001F0EA
:1009500025F801F028FE01206A4908706A480078ED
:10096000012807D16148C07820B968480068401C58
:10097000664908606548006800E0B0E2B0F57A7F3B
:1009800007DB6048007820B902F0F0F900205F49E9
:1009900008605D48007801280BD15448C0780128D0
:1009A00007D100205849087001203B49087055497B
:1009B00008705748007820B156480088401C5549B7
:1009C00008805448008847F23051884204DB0020F8
:1009D0004F4908704F4908804F48007880B94F4808
:1009E0000088401C4D4908800846008847F2305175
:1009F000884205DB012048490870002047490880EB
:100A00004748007820B147480088401C4549088085
:100A1000454800780A2808D142480088C82804DDE3
:100A20000020404908803E4908703E480088B0F5E3
:100A3000C87F04DD00203B490880394908703B48E5
:100A4000006820B13A480068401C394908603848BD
:100A50000068052807D1002034490860344908603F
:100A60000120344908601C480088642809D100200E
:100A7000194908801D488078012802D106201E49A6
:100A800008702D48007801285DD157E000440040EF
:100A90004C0E002000100140710100206000002079
:100AA0000800002068010020700100203E000020A6
:100AB000140C0140720100206C0100207301002021
:100AC00074010020780100207C01002062000020D9
:100AD000000400408200002084000020120000205A
:100AE0007A0000205501002013000020101700207C
:100AF0007C000020440200207300002057010020E9
:100B00008C0000205601002078000020900000207A
:100B100074000020760000201100002086000020D4
:100B200015020020940000201602002094020020EC
:100B3000980200209002002010000020E848008861
:100B4000401CE7490880E7480068E74988420FDB16
:100B5000E648007840B91E20E54908600120E349D5
:100B600008700020DF4908600020E049087004E0B8
:100B7000DC480068401CDB490860DE4800886428C7
:100B800013D10020DB490880DB48007810B9DB482E
:100B9000007830B1DA48006880F00200D849086077
:100BA00003E00220D64908310860D648007820B911
:100BB000D5480088401CD4490880D3480088642860
:100BC0000CD10020D04908800120CE490870CF48C0
:100BD0000078082802DB0120CC490870CC48008846
:100BE000401CCB490880084600880A280FD1C94814
:100BF0000088032803DD0120C749088002E00020A7
:100C0000C54908800020C3490880C149088002F016
:100C10006BFC4FF48041C14803F0C9F8012807D1AB
:100C2000BF480078012101EB4000BD49087006E093
:100C3000BB480078FE2101EA4000B9490870B84875
:100C400000780F282CD1B7480068401CB5490860CF
:100C500008460068022823D1B348407801281CD1F7
:100C60004021B24803F0A3F8B8B90120B049087098
:100C7000B04908701020A949103108600820091DEA
:100C8000086001209A4908600020AB4908600120F3
:100C9000AA4908700020AA4908700020A1490860EC
:100CA0004FF400419D4803F082F8012807D1A54880
:100CB0000078012101EB4000A249087006E0A1483C
:100CC0000078FE2101EA40009E4908709D480078A6
:100CD0000F280DD19C480068401C9B4908600846BD
:100CE0000068022804D100200860042080490860C0
:100CF00096480078012804D195480068401C944922
:100D0000086093480068B0F5617F08D100208F49E2
:100D1000087001208F49087000208D4908604FF449
:100D200000417E4803F043F8012804D18A48006856
:100D3000401C8949086088480068C8280CD10220F6
:100D40006B49086001207C490860002082490860E6
:100D50007D4908608149086072480068012832D1E5
:100D60007E480068401C7D49086008460068642889
:100D700010D14FF48041694803F019F850B90020B0
:100D80006849086003205A49086000206A490860E1
:100D90007249086071480068B0F5FA7F13D14FF4CA
:100DA00080415E4803F003F801280CD100205D4922
:100DB00008605D488078012802D105204C49086010
:100DC00000206649086065480068B0F5FA7F02D9DE
:100DD0000020624908605C480068012804D160482E
:100DE0000068401C5E4908605D480068642804D1C2
:100DF0000020554908605A4908605A48007801287F
:100E000004D159480068401C57490860564800689A
:100E1000C82813D1012048490860002051490870B2
:100E2000514908600120514908700020404908706C
:100E300010203A4914310860082008603F480078C3
:100E4000012804D14A480068401C494908604948C3
:100E5000008847490968884203D2454800884549C7
:100E600008804448008840490968884203D23E48C7
:100E70000088404908803E480068C82819D10020F1
:100E80002E4908703A490860294908701020234902
:100E900014310860082008600020274908600120FC
:100EA00035490870294908700020294908602949F6
:100EB000087021480068012805D130480068401CAE
:100EC0002E49086002E000202C4908602B48006889
:100ED000642804D12A480068401C2949086010BDD4
:100EE000400000208800002000F22B007E0000203F
:100EF0001C00002082000020690000206B00002000
:100F00000C080140A101002080000020A001002069
:100F1000660000206200002064000020000C0140F8
:100F20007100002050000020101700200010014028
:100F30003E00002068000020080000207201002010
:100F40005601002070000020540000207401002091
:100F5000780100207C01002084010020580000203E
:100F60005C00002071010020680100207001002059
:100F70006C01002060000020730100200C000020A4
:100F8000800100200CB50020019000906C480068A2
:100F900040F480306A49086000BF6948006800F486
:100FA000003000900198401C0190009818B90198F9
:100FB000B0F5A06FF1D16248006800F4003010B1C4
:100FC0000120009001E0002000900098012843D10A
:100FD0005C48006840F010005A4908600846006804
:100FE00020F0030008600846006840F00200086036
:100FF000534840685249486008464068486008467F
:10100000406840F4806048600846406820F47C10E6
:1010100048600846406840F4E810486008460068A8
:1010200040F08070086000BF4548006800F0007024
:101030000028F9D04248406820F003004049486049
:101040000846406840F00200486000BF3C484068E5
:1010500000F00C000828F9D10CBD10B5FFF792FF85
:1010600010BD10B53648006840F0010034490860F2
:1010700008464068344908403149486008460068DD
:10108000324908402E4908600846006820F4802054
:1010900008600846406820F4FE0048604FF41F00D6
:1010A0008860FFF7DAFF4FF000602949086010BD43
:1010B00010B5002100200022214B5B6803F00C01D9
:1010C00021B1042906D0082928D107E0214B224C60
:1010D000236027E01F4B204C236023E0184B5B6804
:1010E00003F47010164B5B6803F48032022303EBA9
:1010F000904022B9194B4343174C23600DE0104B2D
:101100005B6803F4003323B1144B4343124C236058
:1011100003E0104B4343104C236003E00D4B0E4C97
:10112000236000BF00BF064B5B68C3F303130C4C86
:10113000E15C094B1B68CB40074C236010BD0000ED
:1011400000100240002002400000FFF8FFFFF6FE02
:1011500008ED00E000127A009800002000093D0030
:101160009C00002070B55A21FE4805F016FD0024B1
:1011700012251CE0FC48405D30280BDBFA48405D3E
:10118000392807DC3320F7490855F748415DF54A0F
:10119000601C1154F448405D2E2806D13220F149DC
:1011A00008554521EF4A601C1154A41C6D1C1C2DD0
:1011B000E0DB3220EB4908553021EA4A601C11542B
:1011C00070BD70B55A21E94805F0E7FC00241F25E1
:1011D0001CE0E548405D30280BDBE348405D3928E2
:1011E00007DC3320E1490855DF48415DDF4A601CD8
:1011F0001154DD48405D2E2806D13220DB490855C8
:101200004521DA4A601C1154A41C6D1C2A2DE0DB18
:101210003220D64908553021D44A601C115470BD83
:1012200070B51421D24805F0B8FC3C21D14805F036
:10123000B4FCD149CE4805F0BBFCD0A1CC4805F0A8
:10124000B7FC002500241CE0C948005D30280BDBFA
:10125000C748005D392807DC3320C6494855C448D3
:10126000015DC44A681C1154C148005D202806D1A4
:101270003220C04948553021BE4A681C1154AD1C6B
:10128000641C142C05D23C2D03D2B948005D002803
:10129000DAD170BD70B51421B94805F07EFC3C214F
:1012A000B84805F07AFCB849B54805F081FCB3A10F
:1012B000B34805F07DFC0025002439E0B048005D0E
:1012C00030280BDBAE48005D392807DC3320AD4900
:1012D0004855AB48015DAB4A681C1154A848005DF5
:1012E00041280DDBA648005D462809DC3420A549CD
:1012F0004855A348005D1038C1B2A24A681C115479
:101300009F48005D202806D132209E494855302153
:101310009C4A681C11549A48005D2C2806D1322042
:10132000984948554321974A681C1154AD1C641CC8
:10133000142C05D23C2D03D29148005D0028BDD16C
:1013400070BD2DE9F04191480021016041600181AB
:101350001E218F4805F021FC8E48006805F09EFE96
:10136000064632460B468CA1884806F03FFB83A117
:10137000864805F01DFC0024002532E08348405DCE
:1013800030280BDB8148405D392807DC3320804959
:1013900008557E48415D7E4A601C11547B48405D83
:1013A000202806D132207A4908553021784A601C1D
:1013B00011547648405D2D2806D1322074490855D5
:1013C0004421734A601C11547048405D2E2806D198
:1013D00032206F49085545216D4A601C1154A41CE8
:1013E0006D1C6A48405D0028C8D1BDE8F08170B529
:1013F0006B4800210160416001811E21694805F0B0
:10140000CCFB694869A10268654806F0EFFA5BA168
:10141000634805F0CDFB002500241CE06048005D1A
:1014200030280BDB5E48005D392807DC33205D493E
:1014300048555B48015D5B4A681C11545848005D83
:10144000202806D13220574948553021554A681C7A
:101450001154AD1C641C5248005D0028DED170BDE3
:101460002DE9F041524800210160416001811E21B7
:10147000504805F092FB5048006805F00FFE064604
:1014800032460B464DA14A4806F0B0FA3BA1484807
:1014900005F08EFB0024002527E04548405D3028FC
:1014A0000BDB4348405D392807DC332041490855B0
:1014B0003F48415D3F4A601C11543D48405D202833
:1014C00006D132203B49085530213A4A601C11545C
:1014D0003748405D2E2806D132203649085545212F
:1014E000344A601C1154A41C6D1C3148405D002816
:1014F000D3D1BDE8F081704770B53248002101605A
:10150000416001811E21304805F047FB2F480068EB
:10151000002801DA002601E02C480668324623A1A3
:10152000284806F063FA15A1264805F041FB35204E
:1015300025490870342048700225002453E02148D2
:10154000005D30280BDB1F48005D392807DC3320A5
:101550001D4948551B48015D1B4A681C11541A4817
:10156000005D35E0880300204C100020E2030020DD
:10157000E8020020FC0200208B0100202000000077
:10158000380300204C0300202C0900203C040020DC
:1015900046040020AC000020252E3166000000002B
:1015A000640400206E040020B000002025640000C8
:1015B000040500200E050020B4000020252E326610
:1015C00000000000B4040020BE04002044020020FB
:1015D000202806D13220FE4948553021FC4A681C9B
:1015E0001154AD1C641CFB48005D0028A7D170BDE0
:1015F0002DE9F041F8480068072852DBF6480068FA
:101600000A284EDC0027F548002101604160018175
:101610001E21F34805F0C1FAEF480068C01FF149E8
:101620000E5CED480078801FC7B23A46AFF28401E5
:10163000EA4806F0DBF93246AFF29001E748401C79
:1016400006F0D4F9AFF2CC01E44805F0B1FA352048
:10165000E349087032204870022500241CE0DF486E
:10166000005D30280BDBDD48005D392807DC3320C6
:10167000DB494855D948015DD94A681C1154D848FE
:10168000005D202806D13220D54948553021D44A62
:10169000681C1154AD1C641CD048005D0028DED1CC
:1016A00000BFBDE8F08110B5CF480078CF49086091
:1016B0004FF48061CE4805F070FAFFF753FDFFF755
:1016C00080FDFFF7ADFDFFF73CFEFFF790FEFFF753
:1016D00012FFFFF7DFFDC749C54805F069FAC649A3
:1016E000C34805F065FAC549C14805F061FAC44927
:1016F000BF4805F05DFAB848006818B9C149BC4850
:1017000005F056FAB4480068012803D1BE49B8482C
:1017100005F04EFAB0480068022803D1BB49B4482E
:1017200005F046FAAC480068032803D1B849B04830
:1017300005F03EFAB749AE4805F03AFAB649AC486A
:1017400005F036FAB549AA4805F032FAB449A84876
:1017500005F02EFAB349A64805F02AFA10BD10B5D7
:10176000A1480078A14908604FF48061A04805F0C5
:1017700014FAFFF7F7FCFFF724FDFFF751FDFFF721
:10178000E0FDFFF734FEFFF7B6FEFFF783FD994952
:10179000974805F00DFA9849954805F009FAA249CD
:1017A000934805F005FA9649914805F001FA8A48F0
:1017B000006818B993498E4805F0FAF98648006820
:1017C000012803D190498A4805F0F2F9824800685F
:1017D000022803D18D49864805F0EAF97E48006861
:1017E000032803D18A49824805F0E2F989498048F3
:1017F00005F0DEF988497E4805F0DAF987497C482A
:1018000005F0D6F987497A4805F0D2F910BD10B530
:1018100075480078754908604FF48061744805F098
:10182000BCF9FFF79FFCFFF7CCFCFFF7F9FCFFF7D3
:1018300088FDFFF7DCFDFFF75EFEFFF72BFD6D492E
:101840006B4805F0B5F96C49694805F0B1F977497D
:10185000674805F0ADF96A49654805F0A9F95E48A1
:10186000006818B96749624805F0A2F95A4800684B
:10187000012803D164495E4805F09AF9564800688A
:10188000022803D161495A4805F092F9524800688C
:10189000032803D15E49564805F08AF95D4954484A
:1018A00005F086F95C49524805F082F95B495048D9
:1018B00005F07EF95B494E4805F07AF910BD10B588
:1018C000044649480078494908604FF48061484817
:1018D00005F063F9FFF746FCFFF773FCFFF7A0FC88
:1018E000FFF72FFDFFF783FDFFF7D4FC4149404888
:1018F00005F05EF940493E4805F05AF94C48006849
:1019000018B94C493A4805F053F94948006801288C
:1019100003D14949364805F04BF93949344805F0B7
:1019200047F984B94548007820B94549304805F061
:101930003FF922E04148007801281ED141492C4856
:1019400005F036F919E0052C17DA022C15DB04F145
:1019500030003D49C8703D49C8703D4800780128B5
:1019600004D13949224805F023F906E038480078C7
:1019700018B936491E4805F01BF926491C4805F0E0
:1019800017F925491A4805F013F92449184805F0B4
:101990000FF92449164805F00BF910BD10B512488F
:1019A0000078124908604FF48061114805F0F5F89D
:1019B000FFF7D8FBFFF705FCFFF732FCFFF7C1FC90
:1019C000FFF715FDFFF797FDFFF764FC42E000000D
:1019D000BE040020B40400201C000020DC04002011
:1019E000E6040020101700203A000020B00000207C
:1019F0002C050020FC02002046040020FD000020F1
:101A00006E040020DD000020CB000020D400002068
:101A1000C200002088030020E20300204C030020C5
:101A200096040020BD00002006010020F4000020E4
:101A300008000020ED000020E600002069000020E2
:101A400021010020180100202A010020330100207C
:101A50006A000020FFF750FDFFF7CAFDF649F7487E
:101A600005F0A6F8F649F54805F0A2F8F548006833
:101A700018B9F549F14805F09BF8F24800680128CB
:101A800003D1F249ED4805F093F8F149EB4805F030
:101A90008FF8F048006818B9EF49E84805F088F871
:101AA000EC480068012803D1EC49E44805F080F8CF
:101AB000E8480068022803D1E949E04805F078F8D1
:101AC000E4480068032803D1E649DC4805F070F8D3
:101AD000E0480068042803D1E349D84805F068F8D5
:101AE000DC480068052803D0DA48006815280BD1C7
:101AF000DE480078012807D1DD49D04805F058F8C4
:101B0000DCA1CE4805F054F8D248006807280BDB6A
:101B1000D04800680A2807DCD749C84805F048F8CB
:101B2000D4A1C64805F044F8CA480068142803D177
:101B3000D249C24805F03CF8C64800681E2803D1C7
:101B4000CF49BE4805F034F8CE49BC4805F030F81E
:101B5000CD49BA4805F02CF8C6A1B84805F028F8D8
:101B6000CA49B64805F024F8C949B44805F020F838
:101B700010BD10B5C748007898B9C748007801284B
:101B80000FD1C6490868002801DB014600E0414248
:101B90000A2906DA0120BF490870C0480068C04918
:101BA0000860AC4800681E280CD10120BD490870AF
:101BB0001E20A8490860FFF7F1FE00F0F4FC0020A9
:101BC000A4490860A348006807280EDBA148006804
:101BD0000A280ADCB4480078B4490860FFF7DEFE42
:101BE00000F0E1FC00209B490860B148007806281D
:101BF00073D1AA480468A74A1278012A21D1AD4AB4
:101C00001278F2B9A64A1268A11A002901DB0A4625
:101C100000E04A42642A14DBA14A1268A01A002894
:101C200001DB024600E04242B2F57A7F09DC9C48C3
:101C30000460142087490860FFF7B0FE00F0B3FC91
:101C400046E097490968081B002801DB014600E0CF
:101C5000414205293CDB8F480078C8B383480078AF
:101C600001282CD18B48007801280DD18C480068C0
:101C7000142809DA142C07DB01F078F801208E49CA
:101C800008708E4908701AE082480078012816D141
:101C900083480068142812DB142C10DA01208849CC
:101CA00008701020874908600820091D086001207D
:101CB000854908700020854908707F490870784878
:101CC0000460152063490860FFF768FE00F06BFCB4
:101CD0000020774908705F4908605E480068052861
:101CE00015D101F0D4FD00206D49086001206A493A
:101CF000087000F017FFFFF751FE00F054FC0020C1
:101D0000544908600120594908706A4908705148CF
:101D1000006804280CD1644800786449086001F028
:101D200005F8FFF73BFE00F03EFC00204949086043
:101D30004848006803280CD15B4800785B4908607C
:101D400000F0D4FFFFF72AFE00F02DFC00204149EF
:101D500008604048006802280CD153480078534975
:101D6000086000F0A3FFFFF719FE00F01CFC002044
:101D70003849086037480068012815D15448007870
:101D800020B100205249087000F070FF46480078EA
:101D900046490860FFF702FE00F005FC00202D49CF
:101DA000086001204B49087010BD2DE9F04107463D
:101DB0000C460026002532E0625D302A06DB625DBB
:101DC000392A03DC625D303AD0B208E0625D612AF4
:101DD00005DB625D662A02DC625D573AD0B26A1C9E
:101DE000A25C302A08DB6A1CA25C392A04DC6A1C6B
:101DF000A25C303AD1B20BE06A1CA25C612A07DB1C
:101E00006A1CA25C662A03DC6A1CA25C573AD1B247
:101E100041EA0012BA55701CC6B2A81CC5B22046D1
:101E200004F0F0FEB042C7D8BDE8F081F0B502463C
:101E30000D46002400237AE0FC0200202C0500203F
:101E40004604002008000020ED000020E6000020ED
:101E50006E0400201C000020DD000020CB000020CC
:101E6000D4000020C20000200F0100201300002039
:101E7000BE04002032300000E60400203C010020B7
:101E80004501002088030020E20300204C030020CD
:101E9000BD000020540100207200002044020020F8
:101EA00050010020A70100203A000020B0000020CF
:101EB000730000201200002078000020570100204D
:101EC0003E000020100C014072010020560100204D
:101ED00068000020550100202E5D30092E5D06F0BF
:101EE0000F01002805DB092803DC00F13006D65479
:101EF00006E00A2804DB0F2802DC00F15706D6545E
:101F0000002907DB092905DC01F13006F7B25E1C68
:101F1000975508E00A2906DB0F2904DC01F1570672
:101F2000F7B25E1C9755601C84B2981C83B2E748D8
:101F300000888442D0DBF0BD10B50020E449088061
:101F4000C821E44804F029FE10BDF0B5ADF5177DB9
:101F5000E1484068E049096888424BD0DE48416862
:101F60004068401CDC4A506002F10900415CD848DE
:101F700002880088401CD64B1880D64881541846E9
:101F80000088C72802D1002019460880D24840683E
:101F9000C72802D10020D0494860CD4800880128D8
:101FA00011D1CB480088401ECA49085C0D2805D0D5
:101FB000C7480088401E085C0A2804D10020C44994
:101FC0000880C6490870C2480088022812DDC0484F
:101FD0000088401EBF49085C0D2805D0BC48008819
:101FE000401E085C0A2805D10020B949088001205C
:101FF000BA490870B948007800287CD0B8A1B54823
:1020000004F0E2FDB8A1B34804F0DEFDB748007863
:1020100006280CD1B6A1AF4804F0D6FD38B1072090
:10202000B2490870FFF788FF0020AC490870AEA1E4
:10203000A84804F0C9FDB0A1A64804F0C5FDB0A1B0
:10204000A44804F0C1FDB0A1A24804F0BDFD10B148
:102050000120B1490870B1A19E4804F0B5FD38B126
:102060000020AD490870B149087001209F490870EF
:10207000AFA1984804F0A8FD002851D0AE480078E0
:1020800010B90120AC4908700024002500264FF447
:10209000167101A804F081FD072412E08D48005D4F
:1020A0002C2802D16D1C00260AE08A48005D05EB51
:1020B000C50101EB051101AA02EB41018855761C0F
:1020C000641C8448005D0028E8D101A804F09AFD52
:1020D00028B39AA10DF1360004F076FDF8B19848C6
:1020E00000210160416001819648016041600181E9
:1020F0002821954800E0E5E004F04FFD01A9904853
:1021000004F087FD65A98E4804F083FD1AA98E4866
:1021100004F07FFD33A98C48143004F07AFD00BF31
:102120008AA16C4804F050FD40B11E218A4804F099
:1021300034FD68492231884804F06BFD87A1654869
:1021400004F042FD20B16348007B303886490870B6
:1021500086A1814804F038FD90B18021844801F0C7
:1021600026FE68B901208349087010208249086062
:102170000820091F08600120804908708049087004
:1021800080A1754804F020FDA0B14021784801F0FD
:102190000EFE78B901207749087010207649091F92
:1021A00008600820091D0860012077490870002098
:1021B0007249087075A1474804F006FD18B3002461
:1021C00000260DE04348005D2C2801D1701CC6B2EA
:1021D000601CC4B206B92546052E01D1274604E08D
:1021E0003C4804F00FFDA042ECD800BF781B801ED5
:1021F000142807DA781B821E36482844411C65489B
:1022000004F0F4FC00BF64A1534804F0DDFC10BBF3
:1022100062A1514804F0D8FCE8B961A14E4804F02D
:10222000D3FCC0B95FA14C4804F0CEFC98B95EA1C4
:10223000494804F0C9FC70B95CA1474804F0C4FCEB
:1022400048B95BA1444804F0BFFC20B959A14248F9
:1022500004F0BAFC58B3404E0025002424E00020CE
:10226000949095909690621C53A194A805F0BEFBA3
:10227000002594A9384804F0A7FC054695B1A97833
:102280003039C8B208B101280BD14C490855E11DBD
:102290004B4A11602CB94949095D11B90121494ADC
:1022A000117000BF601CC4B2092CD8DB00BF02F063
:1022B0003FF81E21284804F070FCFFF73DFE002087
:1022C0000649087000200DF5177DF0BDA40200201E
:1022D00058010020400900204C0E00205A01002027
:1022E0002B5A5245414459004F4B0000A001002099
:1022F0004552524F520000002B4353513A00000008
:102300002B435245473A00002B5A495053544154ED
:102310003A20312C31000000640100202B5A495032
:10232000535441543A20312C30000000A1010020C8
:10233000244750524D430000650100204100000039
:10234000260A0020300A00203A0A00202B5A495061
:102350005245435600000000080A00202B5A4950FD
:1023600053544154000000005B0100204F33330000
:10237000001001403E000020140C014056010020D6
:102380007101002053343400720100202B5A434461
:10239000530000002C090020503131005031300032
:1023A0005032310050323000503331005033300061
:1023B0005034310050343000502564001017002094
:1023C0001C0000201702002000B587B00121042066
:1023D00002F096FB0121480402F09FFB0420ADF8B7
:1023E000180018208DF81B0003208DF81A0006A98C
:1023F000FE4802F0C9F80820ADF8180004208DF856
:102400001B0006A9F94802F0BFF8F94802F0DCFB0E
:102410004FF4165002900020ADF80C00ADF80E00FD
:10242000ADF81000ADF814000C20ADF8120002A9B0
:10243000EF4802F00CFC40F22551ED4802F0AEFDF1
:10244000012240F22551EA4802F099FC26208DF83D
:10245000040002208DF8050003208DF806000120FD
:102460008DF8070001A801F0C6FF0121E04802F045
:102470007AFC07B000BD70B504460D4629462046DB
:1024800002F0DEFC00BF8021204602F047FD00285C
:10249000F9D070BD2DE9F04107460D4616460024DF
:1024A00005E0295D3846FFF7E6FF601CC4B2B44280
:1024B000F7DB00BF4021384602F030FD0028F9D09C
:1024C000BDE8F08170B506460C46002500BF615D91
:1024D0003046FFF7D0FF6D1C605D0028F7D100BFCC
:1024E0004021304602F01AFD0028F9D070BD2DE9D8
:1024F000F04105460C46260AE7B23146284602F06E
:102500009FFC00BF8021284602F008FD0028F9D07A
:102510003946284602F094FC00BF8021284602F08C
:10252000FDFC0028F9D0BDE8F08170B504460D46E9
:10253000E1B2AF4802F084FC00BF8021AC4802F059
:10254000EDFC0028F9D0204670BD10B5044600BF50
:102550002021A74802F0E2FC0028F9D0A44802F0AC
:1025600073FC10BD70B504460D460DE000BF402160
:102570009F4802F0D3FC0028F9D014F8011B9C48B6
:1025800002F05EFC681E85B2002DEFDC70BD10B558
:1025900000209849086048600872C82195480930B1
:1025A00004F0FBFA10BD10B59348007818B19349B8
:1025B00093A005F00BFA10BD10B5964800780028DE
:1025C00076D08D480078002872D193480078002892
:1025D0006ED092480078092868D2DFE800F0050E36
:1025E0001A26323E47575E008C480078401C8B49C3
:1025F000087000208849087059E089A005F0E6F9C4
:1026000000208549087085480078401C834908707F
:102610004DE087A005F0DAF900207F4908707F4877
:102620000078401C7D49087041E084A005F0CEF997
:1026300000207949087079480078401C7749087073
:1026400035E085A005F0C2F9002073490870734891
:102650000078401C7149087029E000206E4908701C
:102660006E480078401C6D49087020E07E48007874
:1026700018B17EA005F0AAF902E086A005F0A6F93F
:102680000020654908708C49087010E08BA005F0A7
:102690009DF900206149087009E088A005F096F9CD
:1026A00000205E49087002E002E0FFE700BF00BFC3
:1026B0005148007838B380480078032823DA564818
:1026C000007800B37C480078401C7B4908700846BD
:1026D0000078012804D0022806D003280ED108E093
:1026E0007AA005F073F90AE0FFF758F9FFF75BFFEE
:1026F00005E0FFF753F9FFF756FF00E000BF00BF0A
:1027000000204549087010BD2DE9F04188B005460C
:102710000C460026002706E014F8012B3046711CF9
:10272000CEB20DF8002020780028F5D1FFF72FFF5A
:10273000284604F067FA1FFA80F841462846FFF75A
:1027400011FF4FF47A7001F0B6F92A48007A012897
:102750000CD10CB901270AE069462648093004F07B
:1027600033FA08B1012702E0002700E00027012F1B
:1027700003D1002008B0BDE8F0810120FAE73EB5A2
:10278000594A07CA8DE80700FFF701FF142157488F
:1027900004F003FA4FF4FA7001F08DF954A1684681
:1027A000FFF7B2FF00BB0024002512E011480930FA
:1027B000005D30280BDB0F480930005D392806DC4E
:1027C0000C480930005D49494855681CC5B2601C79
:1027D000C4B20848093004F015FAA042E6D84348CC
:1027E000007810B1414885E093E08AE0000801409C
:1027F000004400404C0E0020640100202C05002005
:1028000041542B5A495053454E443D312C25730DAC
:102810000A00000063010020A1010020A0010020A7
:1028200041542B4950523D393630300D0A000000DA
:1028300041542B5A4344533F0D0A000041542B5A34
:1028400049504346473D636D6E65742C4E6F6E650F
:102850002C4E6F6E650D0A0041542B5A495043416E
:102860004C4C3D310D0A00009F01002041542B5A71
:1028700049504F50454E3D312C302C3130332E34A1
:10288000362E3132382E34392C32313938380D0A5F
:102890000000000041542B5A49504F50454E3D31E5
:1028A0002C302C7777772E6A73616C642E636E2CD4
:1028B000383036380D0A0000A201002041542B5A4E
:1028C000495043414C4C3D300D0A000041542B5AB5
:1028D0004950414C4956453D312C312C3330302C38
:1028E00037352C390D0A0000248300088B010020A5
:1028F0004F4B00004078302803D02B488078302898
:1029000003D10020294908703FE0012027490870C1
:102910003BE04FF4FA7001F0CEF84FF4FA7001F09A
:10292000CAF84FF4FA7001F0C6F8AFF23C01204843
:1029300004F04AF928B3002400250FE01C48005D8C
:10294000302809DB1A48005D392805DC1848005D8D
:1029500015494855681CC5B2601CC4B2144804F03F
:1029600051F9A042EAD81048007838B10E484078B2
:10297000302803D00C488078302803D100200B4940
:10298000087002E00120094908703EBD10B50748F3
:10299000007828B9FFF7FBFDFFF7F1FEFFF7F7FD21
:1029A000FFF70AFE10BD00008B010020630100202C
:1029B000550E002070B504460D462946204602F00B
:1029C0003FFA00BF8021204602F0A8FA0028F9D083
:1029D00070BD2DE9F04107460D461646002400BFA4
:1029E000295D3846FFF7E6FF641CB442F8D3BDE822
:1029F000F08100B585B00121C80402F08EF80121F4
:102A0000102002F07DF84FF48060ADF8100018201F
:102A10008DF8130003208DF8120004A9FE4801F080
:102A2000B3FD4FF40060ADF8100004208DF81300E2
:102A300004A9F94801F0A8FD4FF4165000900020B9
:102A4000ADF80400ADF80600ADF80800ADF80C00D4
:102A50000C20ADF80A006946F04802F0F8F80121B0
:102A6000EE4802F080F94021EC4802F064FA0522B9
:102A7000EB49EA48FFF7ADFF642001F01CF805B010
:102A800000BD70B506460C46002500BF615D3046AE
:102A9000FFF790FF6D1C605D0028F7D170BD10B589
:102AA0000522E049DD48FFF794FF1E20DE4908704B
:102AB000642001F000F80622DC49D848FFF789FFBE
:102AC000642000F0F8FF0622D949D448FFF781FFBF
:102AD0000120D8490870642000F0EDFF10BD10B54A
:102AE0000522D049CD48FFF774FF1E20CE4908705B
:102AF000642000F0E0FF0622CC49C848FFF769FFD8
:102B0000642000F0D8FF0622CB49C448FFF761FFDC
:102B10000120C8490870642000F0CDFF0020C7499B
:102B2000087010BD10B50522BE49BC48FFF751FF23
:102B30001E20BD490870642000F0BDFF0622BB497D
:102B4000B648FFF746FF642000F0B5FF0622BC49F7
:102B5000B248FFF73EFF642000F0ADFF0020B74908
:102B600008700120B349087010BD10B50522AD49A9
:102B7000AA48FFF72EFF1E20AB490870642000F022
:102B80009AFF0622A949A548FFF723FF642000F019
:102B900092FF0622AB49A148FFF71BFF642000F01B
:102BA0008AFF0120A349087010BD10B505229D4978
:102BB0009A48FFF70EFF0A209B490870642000F036
:102BC0007AFF0522A0499548FFF703FF642000F033
:102BD00072FF06229D499148FFF7FBFE642000F03A
:102BE0006AFF01209349087010BD10B505228D4978
:102BF0008A48FFF7EEFE0F208B490870642000F032
:102C00005AFF062289498548FFF7E3FE642000F059
:102C100052FF06228E498148FFF7DBFE4FF4967083
:102C200000F049FF01208349087010BD10B505224E
:102C30007C497A48FFF7CDFE1E207B49087064204E
:102C400000F039FF062279497448FFF7C2FE64207C
:102C500000F031FF06227F497048FFF7BAFE64207A
:102C600000F029FF01207349087010BD10B505223E
:102C70006C496A48FFF7ADFE1E206B49087064205E
:102C800000F019FF062269496448FFF7A2FE64209C
:102C900000F011FF062270496048FFF79AFE642099
:102CA00000F009FF01206349087010BD10B505222E
:102CB0005C495A48FFF78DFE1E205B49087064206E
:102CC00000F0F9FE062259495448FFF782FE6420BD
:102CD00000F0F1FE062261495048FFF77AFE6420B9
:102CE00000F0E9FE01205349087010BD10B505221F
:102CF0004C494A48FFF76DFE1E204B49087064207E
:102D000000F0D9FE062249494448FFF762FE6420DC
:102D100000F0D1FE062252494048FFF75AFE6420D7
:102D200000F0C9FE01204349087010BD10B505220E
:102D30003C493A48FFF74DFE1E203B49087064208D
:102D400000F0B9FE062239493448FFF742FE6420FC
:102D500000F0B1FE062243493048FFF73AFE6420F6
:102D600000F0A9FE01203349087010BD10B50522FE
:102D70002C492A48FFF72DFE1E202B49087064209D
:102D800000F099FE062229492448FFF722FE64201C
:102D900000F091FE062234492048FFF71AFE642015
:102DA00000F089FE01202349087010BD10B50522EE
:102DB0001C491A48FFF70DFE1E201B4908706420AD
:102DC00000F079FE042229491448FFF702FE64202E
:102DD00000F071FE10BD10B51648007830B91248E9
:102DE0000078052802D00020214908701148007899
:102DF00030B90D4800780F2802D000201D49087016
:102E00000C48007830B9084800780A2802D0002021
:102E10000A490870184831E000100140004C004099
:102E2000AD010020A801002016020020B201002000
:102E30000002002015020020FA010020A601002057
:102E4000F4010020EE010020060200200F02002005
:102E5000D6010020D0010020CA010020E801002096
:102E6000E2010020DC010020C40100200B02002050
:102E70007E0000201000002010170020007801289C
:102E800035D12F480078C0B100F092F9A8B92D488B
:102E9000007890B900F08CF978B92A48007860B9C8
:102EA0002948007848B92948007830B9FFF77DFEF5
:102EB000012027490870234908702148007880B311
:102EC00000F076F968B31F480078012829D100F096
:102ED0006FF930B31B480078012822D11A480078D6
:102EE000F8B9FFF763FF00201649087019E015488C
:102EF0000078012803D017480078012811D1114823
:102F00000078012803D013480078012809D10E4821
:102F1000007830B9FFF74AFF00200A4908700D49D0
:102F200008700D48007848B10C48007830B901208D
:102F30000B49087009490870FFF717FE10BD000023
:102F400064010020A601002015020020A701002036
:102F500018020020170200202A0200201902002077
:102F60002B02002008B50121102001F0C9FD02202C
:102F7000ADF8000000208DF803006946B14801F06B
:102F800003FB08BD00B591B00121084601F0ABFD7F
:102F90000121480201F0B4FDAB4803F04FF9AB4802
:102FA0000690AB480790002008900120099000206F
:102FB0000A900B904FF480700C9080000D902020B0
:102FC0000E9000020F900020109006A99E4803F07A
:102FD000D7F901219C4803F0FEF9002001908DF8FB
:102FE000080001208DF809004FF4602003900020B4
:102FF000049001208DF8140001A994484C3802F087
:103000001CFF4FF4404001F0DFFC002301220B21A4
:103010008E484C3802F0A9FF01218C484C3802F050
:1030200043FF012189484C3802F033FF87484C3870
:1030300002F051FF00BF85484C3802F051FF0028D4
:10304000F9D182484C3802F055FF00BF7F484C3818
:1030500002F055FF0028F9D101217C484C3802F0DC
:1030600058FF11B000BD10B5FFF77CFFFFF78AFFD6
:1030700010BD08B50121142001F042FD3020ADF84B
:10308000000000208DF8030069466E4801F07CFACC
:103090002020ADF8000000208DF8030069466D483F
:1030A00001F072FA08BD00B591B00121084601F0A7
:1030B0001AFD0121480201F023FD634803F0BEF828
:1030C0006248069064480790002008900320099009
:1030D00000200A9080200B9040000C9080000D9002
:1030E00020200E9000020F900020109006A9564854
:1030F00003F046F90121544803F06DF900200190D6
:1031000001208DF808008DF809004FF4602003902D
:103110000020049003208DF8140001A94B484C387E
:1031200002F08BFE4FF4404001F04EFC07230122D9
:103130000E2146484C3802F018FF072302220F21C7
:1031400042484C3802F011FF0723032205213F4873
:103150004C3802F00AFF01213C484C3802F0A4FE32
:1031600001213A484C3802F094FE38484C3802F0BD
:10317000B2FE00BF35484C3802F0B2FE0028F9D14B
:1031800032484C3802F0B6FE00BF30484C3802F0EE
:10319000B6FE0028F9D101212C484C3802F0B9FEC6
:1031A00011B000BD10B5FFF764FFFFF77CFF10BD45
:1031B0002DE9F0472849888803F039FF81464FF010
:1031C0008B4103F06EFD044603F068FF07464FF0A5
:1031D0006632224B03F04AFE054603F0A3FF204966
:1031E00088608868002103F0B9FF0ED81C49886800
:1031F00003F054FF04461B4A1B4B03F063FF04D843
:1032000001201A490860BDE8F0871549886803F075
:1032100045FF04464FF06632154B03F06BFF0ED2AC
:103220000F49886803F03AFF04464FF066320B4BB3
:1032300003F048FF03D800200C490860E3E70B487F
:103240000068E0E700100140080002404C24014003
:103250001C020020000801401E02002066660A4091
:10326000DC0200209A999999999901402402002042
:103270006666024030B589B005460C460121084615
:1032800001F04BFC0121052001F03AFC0120ADF8D2
:10329000200018208DF8230003208DF8220008A9B3
:1032A000FA4801F071F9ADF81850ADF8144000205B
:1032B000ADF81A00ADF8160005A94FF0804001F0F6
:1032C0005BFF6020ADF804000120ADF806004B2044
:1032D000ADF80A000020ADF80C0001A94FF08040C5
:1032E00001F087FF0821C80602F0D2FB0121880700
:1032F00002F09EFB0121880702F09AFA09B030BD66
:103300001FB50121042001F008FC0A20ADF80800D7
:1033100040F2CF20ADF804000020ADF80A00ADF86F
:10332000060001A9DA4801F027FF01224121D8480F
:1033300002F099FA1E208DF8000000208DF801009F
:1033400003208DF8020001208DF80300684601F08B
:1033500052F80121CE4802F06BFA1FBD1FB50121C2
:10336000C80201F0CDFB6420ADF808004720ADF89D
:1033700004000020ADF80A00ADF806008DF80C003E
:1033800001A9C44801F0F8FE0121C24802F016FD6F
:1033900001224121BF4802F066FA19208DF8000091
:1033A00000208DF8010003208DF8020001208DF827
:1033B0000300684601F01FF80121B64802F038FA10
:1033C0001FBD08B54FF4A06001F010F81D208DF866
:1033D000000001208DF801008DF802008DF8030037
:1033E000684601F008F808BD0EB50121022001F081
:1033F00094FB42F20F70ADF804004720ADF80000D6
:103400000020ADF80600ADF802008DF8080069460E
:10341000A14801F0B1FE01219F4802F0CFFC01223A
:1034200011469D4802F01FFA01219B4802F000FA64
:103430000EBD10B5FFF7C5FFFFF7D6FF10BD30B5C5
:1034400000221EE0002116E0944830F811400546A5
:10345000481C35F8100084420BDD284630F8113046
:103460000446481C34F8100024F81100481C24F8C5
:103470001030481C81B2C2F163008842E4DC501C69
:1034800082B2632ADEDB8548B0F8620030BD2DE9E8
:10349000F0478349088803F0CAFD81464FF08B410D
:1034A00003F0FFFB044603F0F9FD07464FF06632D8
:1034B0007C4B03F0DBFC054603F034FE7A490860E0
:1034C0007A48007870B9086803F0E8FD04464FF0C8
:1034D0003332774B03F0F6FD02D20020BDE8F087CF
:1034E0000120FBE700BFF9E72DE9F0476C490888A8
:1034F00003F09DFD81464FF08B4103F0D2FB044663
:1035000003F0CCFD07464FF06632664B03F0AEFC8D
:10351000054603F007FE6449086064480078002807
:1035200064D1086803F0BAFD04464FF03332604BB3
:1035300003F0C8FD07D25F480078FE2101EA400091
:103540005C4908700FE05C480078012804DD5B48A6
:103550000088401C5949088056480078012101EB39
:10356000400054490870534800780F280AD1524847
:103570000078401C5049087008460078032801D1A3
:10358000022008704C48007801282FDD4948007857
:1035900000F0C300C3280ED148480088FA280AD199
:1035A0004748007838B9012045490870002045494E
:1035B0000880424908803F48007800F0C300C028D6
:1035C00005D13F48007810B900203C4908803C48AC
:1035D000007820B13B480088401C3A4908803948AF
:1035E0000088B42802DB012030490870BDE8F0876C
:1035F00010B50121264802F0E4FB20B30121244844
:1036000002F0F0FB3048007878B930480078642840
:103610000BDA2348408821492C4A127821F81200FD
:103620002A480078401C29490870284800786428F6
:1036300005D1012024490870002024490870FFF7B3
:1036400053FFFEF782FC10BD10B50121114802F0B6
:10365000B8FB002878D001210E4802F0C3FB1C48BB
:103660000088322838D10021400702F0E1F81948DB
:103670000088401C1749088008460088C82863D184
:10368000002013490880134908805DE000080140CC
:1036900000080040002C014000040040200F0020E2
:1036A0001E02002066660A40DC02002005000020A1
:1036B0003333D33F2C020020320200202E020020A0
:1036C0002A020020300200202902002028020020C7
:1036D000380200203A0200201C480088C0B91C486B
:1036E0000088401C1A4908800846008802282BD10F
:1036F00018480088401C1749088000201449088099
:103700000120124908800021800702F091F81BE097
:103710000F480088401C0E490880084600880A2887
:1037200012D10D480088401C0B4908800020084930
:103730000880064908800121880702F079F80748C7
:103740000088401C0549088010BD0000340200209C
:10375000360200203C0200203E02002038020020F9
:1037600000B587B00121080501F0D7F9012110202B
:1037700001F0C6F94FF48050ADF8180018208DF80C
:103780001B0003208DF81A0006A9984800F0FCFEE3
:103790000420ADF818008DF81B0006A9944800F02D
:1037A000F3FE944801F010FA4FF4E130029000204B
:1037B000ADF80C00ADF80E00ADF81000ADF8140037
:1037C0000C20ADF8120002A98A4801F040FA40F23C
:1037D0002551884801F0E2FB012240F2255185483D
:1037E00001F0CDFA35208DF8040002208DF8050097
:1037F00003208DF8060001208DF8070001A800F0D5
:10380000FAFD01217B4801F0AEFA07B000BD70B5AA
:1038100004460D462946204601F012FB00BF8021D8
:10382000204601F07BFB0028F9D070BD2DE9F04166
:1038300007460D461646002400BF295D3846FFF7AF
:10384000E6FF641CB442F8D3BDE8F08170B50646CB
:103850000C46002500BF615D3046FFF7D8FF6D1CA8
:10386000605D0028F7D170BD10B504461D22624985
:103870006048FFF7DBFF642000F01DF905225F4977
:103880005C48FFF7D3FF642000F015F910BD10B5B8
:103890004FF47A7000F00FF91B2257495548FFF793
:1038A000C5FF642000F007F9062255495148FFF78B
:1038B000BDFF00205349086010BD10B501214D48DF
:1038C00001F02CFB30B14B4801F0BEFA0121494810
:1038D00001F031FB0821474801F020FB30B1454899
:1038E00001F0B2FA0821434801F025FB02214148CA
:1038F00001F014FB30B13F4801F0A6FA02213D4827
:1039000001F019FB40F225513A4801F01DFB08B3C4
:103910002021384801F00FFB40F22551354801F0D5
:103920003DFB344801F090FAC1B2374802680068A4
:10393000401C354B186035488154012034490860DB
:1039400000203449086018460068632802D100202E
:103950001946086010BDF0B5B3B02F4800680028C4
:1039600041D0C82101A803F018F927480068C828E9
:1039700002D9B4202449086023482449026801A8D8
:1039800003F0F2F86421214803F007F900202249EE
:103990000860204908601C49086000251FA101A893
:1039A00003F012F904462CB104F10B0003F03AF9CC
:1039B0001D49086000241DA101A803F005F9044673
:1039C00084B104F1090004F097FC064603F0AAFB59
:1039D00005461949284603F032F9064603F02CFB48
:1039E0000849086000BF33B0F0BD0000001001407E
:1039F00000140140005000404802002066020020F0
:103A00007A020020440200209C020020E80F0020DF
:103A100094020020980200209002002050726573EA
:103A200073757265203D200040020020486569677B
:103A30006874203D200000000000204110B56FF0A8
:103A4000040000F022FD2E4800682E49B0FBF1F082
:103A50002D4908700846007800EB4001C1EBC0100A
:103A60004FF6FF7101EAC0002849088010BD0146E9
:103A7000254A12784A434FF0E0235A6100229A61A6
:103A80001A46126942F001021A6100BF4FF0E022AB
:103A9000106900F001021AB100F48032002AF5D05A
:103AA0004FF0E022126922F001024FF0E0231A6188
:103AB00000229A6170470146144A12884A434FF027
:103AC000E0235A6100229A611A46126942F001020B
:103AD0001A6100BF4FF0E022106900F001021AB134
:103AE00000F48032002AF5D04FF0E022126922F073
:103AF00001024FF0E0231A6100229A617047000032
:103B00009800002000127A00A0020020A2020020EB
:103B100008B54FF4A06000F069FC17208DF8000094
:103B200000208DF8010001208DF802008DF80300BF
:103B3000684600F060FC17208DF80000684600F031
:103B40005AFC28208DF80000684600F054FC28201C
:103B50008DF80000684600F04EFC0A208DF8000049
:103B6000684600F048FC08BD1FB501211C2000F08C
:103B7000C7FFC020ADF80C0048208DF80F0003A946
:103B80009C4800F001FD4FF44040ADF80C00482087
:103B90008DF80F0003A9984800F0F6FC49F21200D6
:103BA000ADF80C0048208DF80F0003A9934800F0F1
:103BB000EBFC4FF4C070ADF80C0048208DF80F00FE
:103BC00003A98C4800F0E0FC0121084600F098FFB2
:103BD0000421002000F0EEFD0621022000F0EAFDA5
:103BE0000721022000F0E6FD0C21002000F0E2FD9C
:103BF0000E21012000F0DEFD0F21012000F0DAFD92
:103C00004DF2D200019000208DF808000C208DF8B4
:103C1000090001208DF80A0001A802F047FC0720E6
:103C20008DF8000001208DF801008DF802008DF85C
:103C30000300684600F0DFFB0A208DF80000012039
:103C40008DF801008DF802008DF80300684600F041
:103C5000D2FB17208DF8000002208DF8010005200E
:103C60008DF8020001208DF80300684600F0C3FBC8
:103C700028208DF8000001208DF8010007208DF824
:103C8000020001208DF80300684600F0B4FB1FBD60
:103C90000EB501211D2000F033FFFFF739FF802012
:103CA000ADF8080004208DF80B0002A9514800F07F
:103CB0006BFC8020009000208DF804000C208DF813
:103CC000050001208DF80600684602F0EFFB402059
:103CD000ADF8080004208DF80B0002A9454800F05B
:103CE00053FC4020009000208DF804000C208DF83B
:103CF000050001208DF80600684602F0D7FB4FF45E
:103D00008040ADF8080004208DF80B0002A93A4865
:103D100000F03AFC4FF48040009000208DF8040041
:103D20000C208DF8050001208DF80600684602F091
:103D3000BDFB4FF40040ADF8080004208DF80B00E7
:103D400002A92D4800F020FC4FF48050ADF8080087
:103D500004208DF80B0002A9284800F015FC4FF450
:103D60008050009000208DF804000C208DF8050094
:103D700001208DF80600684602F098FB1020ADF88F
:103D8000080004208DF80B0002A91C4800F0FCFB81
:103D90001020009000208DF804000C208DF8050004
:103DA00001208DF80600684602F080FB0EBD70B55C
:103DB00005460C46B4F5805F00D010E02146284649
:103DC00000F075FC48B91420FFF775FE214628461F
:103DD00000F06DFC60B9012070BD0020FCE72146B9
:103DE000284600F064FC08B90120F5E70020F3E75D
:103DF00000BFF1E700100140000C01400008014045
:103E000008B501211D2000F07BFE0121304800F0A3
:103E10008CFC0820ADF8000010208DF80300032072
:103E20008DF8020069462B4800F0AEFB1020ADF87B
:103E300000006946274800F0A7FB10208DF803001A
:103E40000001ADF800006946234800F09DFB4FF4E7
:103E50000070ADF8000069461F4800F095FB4FF474
:103E60008070ADF8000069461C4800F08DFB4FF4EF
:103E70000060ADF800006946184800F085FB02209C
:103E8000ADF800006946154800F07EFB102011498E
:103E9000143108600820086040010F494861410062
:103EA0000D4800F01EFC4FF480710C4800F019FC26
:103EB0004FF40061094800F014FC0221074800F0AB
:103EC00012FC08BD1022034B10331A60704700002B
:103ED00000023000000C01400010014000080140C9
:103EE00008B50121042000F00BFE4FF40070ADF87E
:103EF000000003208DF8020018208DF803006946A9
:103F0000C24800F041FB4FF48060ADF8000004208F
:103F10008DF803006946BD4800F036FB08BD08B5C2
:103F200025208DF8000003208DF801008DF8020097
:103F300001208DF80300684600F05DFA08BD00B569
:103F40008BB0B34802F07AF9B2480090B2480190C1
:103F5000002002904FF4FA7003900020049080201B
:103F6000059000200690079008904FF4805009902B
:103F700000200A906946A64802F002FA0121A448EE
:103F800002F029FA0BB000BD00B58BB0A048143880
:103F900002F054F99F480090A04801901020029030
:103FA0004FF47A7003900020049080200590002048
:103FB0000690079008904FF48050099000200A90D6
:103FC00069469348143802F0DBF90121904814380F
:103FD00002F001FA0BB000BD70B505460E46002494
:103FE0000EE000BF40218B48001F00F097FF002823
:103FF000F8D0295D8748001F00F022FF601CC4B282
:10400000B442EEDB00BF40218248001F00F086FF73
:104010000028F8D070BD0146092903DC01F1300009
:10402000C0B270470F2903DC01F13700C0B2F8E7D6
:104030000020F6E730B587B004461C227849684670
:1040400002F092FD04F13000C0B28DF808000020AB
:104050008DF80A008DF80B00012012E09DF80A107F
:104060001DF8002081EA22118DF80A109DF80B102E
:104070001DF8002002F00F0251408DF80B10411C7A
:10408000C8B20928EADB9DF80A00FFF7C4FF8DF8E3
:104090000A009DF80B00FFF7BEFF8DF80B00684685
:1040A00002F0B0FDC5B229466846FFF795FF07B09C
:1040B00030BD1FB504460121880300F021FD012118
:1040C000084600F010FD00940020ADF80400ADF8A3
:1040D0000600ADF80800ADF80C000C20ADF80A00A1
:1040E00069464C48001F00F0B2FDFFF7F9FEFFF7EC
:1040F00016FF012240F224414648001F00F03FFE17
:10410000012240214348001F00F05EFE012141488A
:10411000001F00F028FEFFF712FF0320FFF78AFFC1
:104120001FBD10B5002240213A48001F00F04CFE90
:104130000021374802F04FF94FF4FA71344802F089
:104140005FF90121324802F046F90122402131484D
:10415000001F00F039FE10BD10B5002280212D484F
:10416000001F00F031FE00212948143802F033F915
:104170004FF47A712648143802F042F9012124489C
:10418000143802F028F9012280212248001F00F093
:104190001BFE10BD10B540F224411E48001F00F068
:1041A000D3FE90B340F224411A48001F00F0F6FEFF
:1041B0001848001F00F048FE154802F023F9C0F52A
:1041C000FA701849088014491448FDF72FFE0120A1
:1041D00015490870002405E00F48005D1349085593
:1041E000601C84B20C48005D38B10B48005D0D289E
:1041F00003D00948005D0A28EED1FFF792FF4FF483
:10420000FA71054802F0C9FC00BF10BD000801406A
:1042100058000240043801404C1000204012002099
:1042200030830008A4020020A802002028160020E5
:1042300008B50121082000F063FC4FF40050ADF8F0
:10424000000010208DF8030003208DF8020069465D
:10425000154800F099F94FF40051134800F041FA65
:104260000220ADF8000010208DF8030003208DF827
:10427000020069460C4800F087F902210A4800F064
:1042800030FA0121102000F03BFC0220ADF80000C4
:1042900010208DF8030003208DF8020069460348C2
:1042A00000F072F908BD0000000C01400010014050
:1042B0002DE9F04705460F461646A5F100694FEA7D
:1042C000D9284FF0006000EBC82AB5F1006F04D385
:1042D00005EB46003749884201D3BDE8F08702F07C
:1042E00084F9504602F0C6F9002407E037F81410AC
:1042F00005EB440002F0C1FA601C84B2B442F5DB65
:1043000002F07FF900BFE8E701460888704730B542
:1043100003460C461546002207E003EB4200FFF778
:10432000F3FF24F81200501C82B2AA42F5DB30BD24
:1043300010B54FF4FA71204802F02FFC84221F4977
:104340001D4802F011FC1C4880301D490A6842607B
:104350004A68826009898181FA2217491948FFF762
:10436000A7FF10BD10B54FF4FA71134802F015FC09
:10437000FA2211491348FFF7CAFF84220E490F4859
:1043800002F0F2FB0E490C48803042680A608268F5
:104390004A6080890881002008E00949095CFF29FA
:1043A00002D10121064A1154411CC8B20A28F4DB8B
:1043B00010BD0000000008081A1700208C1600200D
:1043C0001017002000600308064880470648004791
:1043D000FEE7FEE7FEE7FEE7FEE7FEE7FEE7FEE7B5
:1043E000FEE7FEE763100008310100083149014390
:1043F000314A1160704770B5002100230F22C47844
:1044000004B32D4C246804F4E064C4F5E064210A8C
:10441000C1F10403CA40447804FA03F184781440DB
:1044200021430901254C0678A155047804F01F05A5
:104430000124AC4005786D11AD0005F1E025C5F80B
:10444000004109E0047804F01F050124AC401C4D34
:104450000678761145F8264070BD1A4A0A40024394
:10446000154B1B1F1A60704739B1134A121D126891
:104470000243114B1B1D1A6006E00F4A121D126801
:1044800082430D4B1B1D1A607047042808D14FF062
:10449000E021096941F004014FF0E022116107E0D9
:1044A0004FF0E021096921F004014FF0E022116191
:1044B000704700000000FA050CED00E000E400E0A9
:1044C00080E100E080FFFF1F10B50446CC48844225
:1044D00008D10121042000F02DFB0021042000F070
:1044E00029FB46E0C748844208D10121082000F09A
:1044F00021FB0021082000F01DFB3AE0C248844265
:1045000008D10121102000F015FB0021102000F03F
:1045100011FB2EE0BD48844208D10121202000F08B
:1045200009FB0021202000F005FB22E0B84884426E
:1045300008D10121402000F0FDFA0021402000F0C8
:10454000F9FA16E0B348844208D10121802000F036
:10455000F1FA0021802000F0EDFA0AE0AE48844232
:1045600007D10121801500F0E5FA0021A01500F027
:10457000E1FA10BD10B50121084600F0DBFA002178
:10458000012000F0D7FA10BD2DE9F04102460025C8
:104590000026002000230024002791F803C00CF01F
:1045A0000F0591F803C00CF0100CBCF1000F03D004
:1045B00091F802C04CEA050591F800C0BCF1000F6B
:1045C00031D0146800202BE04FF0010C0CFA00F3FE
:1045D000B1F800C00CEA03069E4220D183004FF0E0
:1045E0000F0C0CFA03F7BC4305FA03FC4CEA040475
:1045F00091F803C0BCF1280F06D14FF0010C0CFA62
:1046000000FCC2F814C00AE091F803C0BCF1480FE6
:1046100005D14FF0010C0CFA00FCC2F810C0401C90
:104620000828D1D31460B1F800C0BCF1FF0F34DD0D
:10463000546800202EE000F1080C4FF0010808FA41
:104640000CF3B1F800C00CEA03069E4221D18300AE
:104650004FF00F0C0CFA03F7BC4305FA03FC4CEACD
:10466000040491F803C0BCF1280F05D100F1080C37
:1046700008FA0CF8C2F8148091F803C0BCF1480F96
:1046800007D100F1080C4FF0010808FA0CF8C2F845
:104690001080401C0828CED35460BDE8F0814FF64E
:1046A000FF710180022181700421C17070470246B0
:1046B000002093680B400BB1012000E00020704700
:1046C0000146886880B2704702460020D3680B40DC
:1046D0000BB1012000E0002070470146C86880B29D
:1046E000704701617047416170470AB1016100E0A4
:1046F00041617047C16070474FF480320A43826164
:104700008161826182698269704702460020434B61
:1047100018684FF68073184040EA021008433F4B78
:10472000186070473E49C8617047F0B50A460023DB
:1047300000240021002500F00046B6F1004F02D110
:10474000364EF16901E0354E7168C0F3034583B21E
:1047500000F44016B6F5401F08D121F070612F4ECD
:10476000766826F070662D4F7E6012E000F48016A9
:10477000B6F5801F06D1032606FA05F4A14341F0E1
:10478000706106E0460D360103FA06F6B14341F0CA
:10479000706122B1460D360103FA06F6314300F08E
:1047A0000046B6F1004F02D11C4EF16101E01B4EF4
:1047B0007160F0BD30B500228B071C0F0F2303FA88
:1047C00004F2164B08338C1053F824309343134CE7
:1047D00008348D1044F8253023468C1053F82430CB
:1047E0008C07240F00FA04F423430C4C08348D107A
:1047F00044F8253030BD0A49DC31086070470000BC
:1048000000080140000C014000100140001401406C
:1048100000180140001C0140002001400000014040
:1048200000002042DF48006840F00100DD490860D8
:1048300008464068DC490840DA4948600846006894
:10484000DA490840D74908600846006820F480200B
:1048500008600846406820F4FE0048604FF41F00DE
:1048600088607047CF49096821F48031CD4A1160D2
:104870001146096821F480211160B0F5803F03D012
:10488000B0F5802F0ED106E0C649096841F48031A9
:10489000C44A116007E0C349096841F4A021C14A34
:1048A000116000E000BF00BF704710B50146002254
:1048B000002300204A11012A02D1BA4C236806E0E5
:1048C000022A02D1B74C236A01E0B64C636A01F0B8
:1048D0001F02012494401C400CB1012000E0002084
:1048E00010BD38B5002000900024002500BF312005
:1048F000FFF7DBFF05460098401C00900098B0F5DC
:10490000A06F01D0002DF2D03120FFF7CEFF08B10B
:10491000012400E00024204638BD01460020A14AC1
:10492000106820F0F80040EAC10010607047A0490C
:1049300008607047024600209A4B586820F47C10AB
:1049400042EA01031843974B58607047984908663C
:10495000704701460020934A506820F00300084346
:10496000506070478F48406800F00C007047014667
:1049700000208C4A506820F0F000084350607047D7
:1049800001460020874A506820F4E06008435060E8
:10499000704701460020834A506820F4605040EA86
:1049A000C1005060704729B17E4A527A02437D4B64
:1049B0005A7204E07B4A527A82437A4B5A727047A9
:1049C0007B49D8310860704701460020754A50681D
:1049D00020F440400843506070470021714A203263
:1049E0001170704A82F82010012802D004280AD1E0
:1049F00004E001216B4A2032117005E00521694A6B
:104A00002032117000E000BF00BF704769490860A4
:104A100070476449096A0143624A116270476549F7
:104A200044390860704730B500210022002400237B
:104A30005C4D6D6805F00C0121B1042905D00829F1
:104A400023D105E05C4D056022E05B4D05601FE071
:104A5000544D6D6805F47012524D6D6805F4803444
:104A6000022505EB92421CB9544D554305600BE0FD
:104A70004C4D6D6805F400351DB1504D5543056032
:104A800002E04D4D5543056002E04B4D056000BF0F
:104A900000BF444D6D6805F0F0010909484D6B5C9D
:104AA0000568DD4045603F4D6D6805F4E061090A29
:104AB000434D6B5C4568DD4085603A4D6D6805F49B
:104AC0006051C90A3E4D6B5C4568DD40C560354D9F
:104AD0006D6805F44041890B3A4D6B5CC568B5FBC8
:104AE000F3F5056130BD29B12E4A526902432D4BC1
:104AF0005A6104E02B4A526982432A4B5A6170473B
:104B000029B1284A92690243264B9A6104E0254A5A
:104B100092698243234B9A61704729B1214AD26935
:104B20000243204BDA6104E01E4AD26982431D4BE6
:104B3000DA61704729B11B4AD2680243194BDA6027
:104B400004E0184AD2688243164BDA60704729B1F4
:104B5000144A12690243134B1A6104E0114A1269A4
:104B60008243104B1A617047124940390860704700
:104B70000F49C86470470B49C87170470948406ABB
:104B800040F0807007494862704701460020054A9E
:104B900092680A400AB1012000E0002070470149F4
:104BA00088727047001002400000FFF8FFFFF6FE19
:104BB000000042428004424200127A0000093D0097
:104BC000A9020020B902002010B50446FB48844227
:104BD00009D101218803FFF7ADFF00214FF4804088
:104BE000FFF7A8FF32E0F648844209D101214804CA
:104BF000FFF7ADFF00214FF40030FFF7A8FF25E0DD
:104C0000F048844209D101218804FFF7A0FF002168
:104C10004FF48020FFF79BFF18E0EB48844209D156
:104C20000121C804FFF793FF00214FF40020FFF794
:104C30008EFF0BE0E548844208D101210805FFF70B
:104C400086FF00214FF48010FFF781FF10BD2DE992
:104C5000F04786B005460E460024A24600BFA14696
:104C60000027B08900B100BF2F462C8A4CF6FF7098
:104C70000440F08804432C82AC894EF6F3100440C3
:104C8000B08831890843718908430443AC81AC8AF8
:104C90004FF6FF400440B0890443AC8201A8FFF7FF
:104CA000C2FEC648874202D1DDF810A001E0DDF85F
:104CB0000CA0A88900F4004040B10AEBCA0000EB48
:104CC0000A1031684900B0FBF1F807E00AEBCA00AE
:104CD00000EB0A1031688900B0FBF1F86420B8FBE2
:104CE000F0F004012009642101FB1089A88900F477
:104CF000004040B1322000EBC900B0FBF1F000F001
:104D00000700044308E0322000EB09106421B0FBE7
:104D1000F1F000F00F0004432C8106B0BDE8F087ED
:104D20004FF41651016000218180C18001810C2166
:104D3000418100218181704710B502460020108A10
:104D40004FF2FF0318400B884C8823438C88234381
:104D5000CC8823431843108210BD0021018041807C
:104D60008180C180704721B1828942F400528281E2
:104D700004E082894DF6FF731A4082817047F0B5D6
:104D80000346002400260025002040F66A17B94299
:104D900000D100BF1846C1F3421401F01F060127DD
:104DA00007FA06F5012C01D10C3004E0022C01D1E8
:104DB000103000E014301AB107682F43076002E09A
:104DC0000768AF430760F0BD1AB1838A0B43838243
:104DD00002E0838A8B4383827047028A4FF6F07326
:104DE0001A400282028A0A430282704782894FF285
:104DF000FF731A40828182890A438281704721B100
:104E0000828942F00202828104E082894FF6FD73BA
:104E10001A4082817047028A4FF6DF731A4002827D
:104E2000028A0A430282704721B1028A42F4804218
:104E3000028204E0028A4BF6FF731A400282704736
:104E4000C1F308028280704701468888C0F30800D9
:104E50007047818941F0010181817047028BD2B294
:104E60000283028B42EA012202837047028B02F422
:104E70007F420283028B0A430283704721B1828AF8
:104E800042F02002828204E0828A4FF6DF731A40E9
:104E90008282704721B1828A42F01002828204E04D
:104EA000828A4FF6EF731A408282704721B1828A5C
:104EB00042F00802828204E0828A4FF6F7731A40B9
:104EC0008282704721B1828942F40042828103E0EC
:104ED0008289C2F30E028281704721B1828A42F434
:104EE0000062828204E0828A4FF2FF731A4082825B
:104EF0007047828A4FF6FB731A408282828A0A4385
:104F00008282704721B1828A42F00202828204E0EA
:104F1000828A4FF6FD731A40828270470246002053
:104F2000B1F5007F00D100BF13880B400BB1012009
:104F300000E00020704701F40072B2F5007F00D15C
:104F400000BFCA430280704770B5024600240023A8
:104F50000025002040F66A16B14200D100BFC1F31F
:104F6000421501F01F03012606FA03F3012D02D1B9
:104F70009689334006E0022D02D1168A334001E0C3
:104F8000968A33400C12012606FA04F4168834403F
:104F900013B10CB1012000E0002070BD10B500225B
:104FA000002340F66A14A14200D100BF0A12012476
:104FB0009440A3B2DC43048010BD000000380140DF
:104FC0000044004000480040004C004000500040B9
:104FD00010B50446FE48844208D10121C014FFF7F1
:104FE000A9FD0021E014FFF7A5FDC4E0B4F1804F56
:104FF00008D101210846FFF7AAFD00210120FFF793
:10500000A6FDB8E0F348844208D101210220FFF751
:105010009EFD00210220FFF79AFDACE0EE4884429D
:1050200008D101210420FFF792FD00210420FFF7A1
:105030008EFDA0E0E948844208D101210820FFF755
:1050400086FD00210820FFF782FD94E0E4488442B9
:1050500008D101211020FFF77AFD00211020FFF771
:1050600076FD88E0DF48844208D101212020FFF747
:105070006EFD00212020FFF76AFD7CE0DA488442C3
:1050800008D101214014FFF755FD00216014FFF7FE
:1050900051FD70E0D548844209D10121C804FFF7D1
:1050A00049FD00214FF40020FFF744FD63E0D048A4
:1050B000844209D101210805FFF73CFD00214FF48E
:1050C0008010FFF737FD56E0CA48844209D101211C
:1050D0004805FFF72FFD00214FF40010FFF72AFDD0
:1050E00049E0C548844208D101214020FFF72FFD47
:1050F00000214020FFF72BFD3DE0C048844208D14D
:1051000001218020FFF723FD00218020FFF71FFDF4
:1051100031E0BB48844208D101218015FFF717FD1B
:105120000021A015FFF713FD25E0B648844209D100
:1051300001210804FFF7FEFC00214FF48030FFF747
:10514000F9FC18E0B048844209D101214804FFF776
:10515000F1FC00214FF40030FFF7ECFC0BE0AB4812
:10516000844208D101218804FFF7E4FC00214FF4B8
:105170008020FFF7DFFC10BD00220288944B98428C
:105180000ED0994B98420BD0B0F1804F08D0914B84
:10519000984205D0904B984202D0904B984204D14F
:1051A0004FF68F731A404B881A438D4B984207D0A5
:1051B0008C4B984204D04FF6FF431A40CB881A43D9
:1051C00002808B8883850B880385814B98420BD0A6
:1051D000854B984208D08B4B984205D08A4B984219
:1051E00002D08A4B984201D10B7A03860123838235
:1051F000704770B5002400220023058C4FF6FE7620
:1052000035400584028C8388048B4FF68F752C40C3
:10521000B51E2C400D882C43751E2A400D892A434B
:105220004D882A436A4DA8420BD06F4DA84208D042
:10523000744DA84205D0744DA84202D0734DA842C7
:1052400013D14FF6F7752A404D892A434FF6FB7567
:105250002A408D882A434FF6FF652B404FF6FF55B5
:105260002B408D892B43CD892B4383800483CD88AC
:105270008586028470BD70B5002400220023058C51
:105280004FF6EF7635400584028C8388048B48F610
:10529000FF752C404FF6FF452C400D884FF6FF76EA
:1052A00006EA05252C434FF6DF752A400D8906EAEC
:1052B00005152A434D8806EA05152A43444DA842A0
:1052C00002D0494DA8421DD14FF67F752A404D8925
:1052D0004FF6FF7606EA05152A434FF6BF752A40BA
:1052E0008D8806EA05152A434FF6FF352B404FF20D
:1052F000FF752B408D8906EA85052B43CD8906EA8B
:1053000085052B4383800483CD880587028470BD87
:1053100070B5002400220023058C4FF6FF6635404F
:105320000584028C8388848B4FF68F752C404FF652
:10533000FC752C400D882C434FF6FF552A400D89F3
:105340004FF6FF7606EA05252A434D8806EA05252D
:105350002A431F4DA84202D0234DA8421DD14FF22F
:10536000FF752A404D894FF6FF7606EA05252A4348
:105370004FF6FF352A408D8806EA05252A434EF66A
:10538000FF752B404DF6FF752B408D8906EA0515FC
:105390002B43CD8906EA05152B4383808483CD8872
:1053A0008587028470BD70B5002200230024058C1F
:1053B0004EF6FF7635400584038C8488828B48F650
:1053C000FF752A404FF6FF452A400D8820E0000077
:1053D000002C01400004004000080040000C004088
:1053E000001000400014004000340140004C014017
:1053F000005001400054014000180040001C0040D3
:1054000000200040004001400044014000480140AD
:105410004FF6FF7606EA05252A434DF6FF752B4029
:105420000D8906EA05352B434D8806EA05352B43E1
:10543000FA4DA84202D0FA4DA84208D14BF6FF75AA
:105440002C408D894FF6FF7606EA85152C43848023
:105450008283CD88A0F84050038470BD828B4FF2C8
:10546000FF331A408283828B4FF6FF7303EA0123D6
:105470001A4382837047F0B50C461546002200217E
:105480000026078C4EF6FF7C07EA0C070784828B08
:10549000018C4FF6FF7707EA043640F6FF473A40A3
:1054A0004FF6FF7707EA05273A434FF6FF7707EAFB
:1054B00003373A43D94FB8420ED0D94FB8420BD038
:1054C000B0F1804F08D0D74FB84205D0D64FB84280
:1054D00002D0D64FB84206D14DF6FF77394046F498
:1054E0008057394305E047F6FF57394044F4805769
:1054F000394382830184F0BD828B4FF6F3731A40E7
:105500008283828B0A4382837047F0B50C4615462E
:10551000002200210026078C4FF6FF6C07EA0C07DB
:105520000784828B018C4FF6FF7707EA04264FF63B
:105530000C773A404FF6FF7707EA03172F433A43B9
:10554000B64FB8420ED0B64FB8420BD0B0F1804F34
:1055500008D0B44FB84205D0B34FB84202D0B34FD1
:10556000B84206D14FF6FF57394046F480773943A9
:1055700005E04FF2FF57394044F480773943828386
:105580000184F0BD028B4FF2FF331A400283028B7D
:105590004FF6FF7303EA01231A4302837047F0B505
:1055A0000C461546002200210026078C4FF6EF7CA2
:1055B00007EA0C070784028B018C4FF6FF7707EA96
:1055C000041640F6FF473A404FF6FF7707EA0337E5
:1055D0003A434FF6FF7707EA05273A438F4FB84221
:1055E0000ED08F4FB8420BD0B0F1804F08D08D4F06
:1055F000B84205D08C4FB84202D08C4FB84206D189
:105600004FF6DF77394046F01007394305E04FF693
:105610005F77394044F01007394302830184F0BDBD
:10562000028B4FF6F3731A400283028B0A43028304
:105630007047F0B50C46154600220021068C4FF647
:10564000FE773E400684028B018C4FF60C7632408A
:105650007E1C06EA03162E433243704EB0420ED033
:105660006F4EB0420BD0B0F1804F08D06D4EB042BB
:1056700005D06D4EB04202D06C4EB04206D14FF60E
:10568000FD76314044F00106314305E04FF6F576F2
:10569000314044F00106314302830184F0BD70B50E
:1056A00005460C465D4885420ED05D4885420BD0CC
:1056B000B5F1804F08D05B48854205D05A488542F5
:1056C00002D05A48854200D100E000BF208850B97E
:1056D0002389A28861882846FFF7ABFFE188284626
:1056E000FFF79EFF25E0208804280AD12389A2889D
:1056F00061882846FFF753FFE1882846FFF742FFFD
:1057000017E0208808280AD12389A28861882846C2
:10571000FFF7FBFEE1882846FFF7EEFE09E023894C
:10572000A28861882846FFF7A6FEE1882846FFF791
:1057300095FE70BD2DE9F04105460C460026012777
:10574000608808B9022600E00026A088012801D15F
:10575000022700E001272088A0B92389A288618858
:105760002846FFF766FFE1882846FFF759FF23899F
:105770003A4631462846FFF712FFE1882846FFF7F0
:1057800001FF13E02389A28861882846FFF707FFFD
:10579000E1882846FFF7F6FE23893A463146284637
:1057A000FFF747FFE1882846FFF73AFFBDE8F081A1
:1057B0000A884B881A438B881A43CB881A430B8973
:1057C0001A434B891A438B891A43A0F84420704727
:1057D0004FF6FF71818000210180C18041800172FC
:1057E00070470021018041808180C1800181418119
:1057F0008181C18170470021018041800121818028
:105800000021C18001817047002101804180818099
:10581000C18001814181818170470000002C0140DD
:10582000003401400004004000080040000C00402B
:1058300021B1028842F00102028004E002884FF6A2
:10584000FE731A400280704731B1B0F8442042F430
:105850000042A0F8442005E0B0F84420C2F30E0254
:10586000A0F8442070471AB183890B43838102E07A
:1058700083898B43838170478182704741EA0203A9
:10588000A0F8483070471AB183890B43838102E046
:1058900083898B438381704701894FF6F8721140E9
:1058A000018170470A46002101894FF68F73194024
:1058B00011430181704730B504460D462946204604
:1058C000FFF7F0FF208940F00700208130BD2DE96F
:1058D000F04104460D4616461F46602D06D13B4654
:1058E000012231462046FFF75AFE05E03B460122E1
:1058F00031462046FFF79DFE29462046FFF7D2FF9E
:10590000208940F007002081BDE8F08130B50C46C9
:1059100000210189C9B24FF6FF7505EA0325154339
:1059200025432943018130BD2DE9F04105460E464E
:1059300017469846002443463A4631462846FFF724
:10594000E5FF2C894FF6F870044044F007044FF649
:105950008F70044044F070042C81BDE8F081F0B5F4
:1059600004460D4616461F463B463246294620460B
:10597000FFF7CCFF208940F480402081F0BD0185F5
:10598000828270470A46002101884FF68F731940C2
:10599000114301807047F0B50C4615461E460021A4
:1059A000002200230189028B038C4FF6F8773940DF
:1059B00021434FF6FC473A4040F201173A434FF675
:1059C000DD773B404FF6FF7707EA06172F433B434F
:1059D000018102830384F0BD0A460021018B4FF64A
:1059E0008F7319401143018370470A460021018BD0
:1059F00048F6FF7319404FF6FF7303EA0223194379
:105A0000018370470A460021818B4FF68F7319403E
:105A10001143818370470A460021818B48F6FF734A
:105A200019404FF6FF7303EA02231943818370473D
:105A300021B1028842F08002028004E002884FF621
:105A40007F731A400280704721B1828842F00402BD
:105A5000828004E082884FF6FB731A408280704790
:105A600021B1828842F00802828004E082884FF6E9
:105A7000F7731A408280704721B1828842F0010298
:105A8000828004E082884FF6FE731A40828070475D
:105A90000A460021018B4FF6F77319401143018329
:105AA00070470A460021018B4FF2FF7319404FF6F1
:105AB000FF7303EA02231943018370470A4600215A
:105AC000818B4FF6F77319401143818370470A4663
:105AD0000021818B4FF2FF7319404FF6FF7303EAE9
