:020000040800F2
:10000000101D0020794300084D0600084F06000827
:1000100053060008570600085B06000800000000B1
:100020000000000000000000000000005F06000863
:10003000610600080000000063060008650600086D
:100040009343000893430008934300089343000838
:1000500093430008934300089343000815080008E1
:1000600093430008934300083908000893430008AD
:100070009343000893430008934300089343000808
:1000800093430008934300089343000893430008F8
:100090009343000893430008934300081F07000898
:1000A0009343000825360008934300089343000853
:1000B000934300084B080008CD350008934300081F
:1000C00093430008934300089343000893430008B8
:1000D0009343000845410008670600089343000861
:1000E000C90700089343000893430008934300089E
:1000F0009343000893430008934300089343000888
:100100009343000893430008934300089343000877
:10011000934300089738000893430008934300086E
:100120009343000893430008934300089343000857
:10013000DFF80CD007F09EF900480047790400086A
:10014000101D002010B58021FE4803F01EFEFE4960
:1001500048704021FB4803F018FEFB4988704FF4BB
:100160008051FA4803F011FEF749C8704FF400417E
:10017000F64803F00AFEF44908714FF48051F34841
:1001800003F003FEF04948711021F04803F0FDFD33
:10019000ED4988710846C07830B90846007918B929
:1001A0000120EB49087009E0E748C078012805D133
:1001B000E548007910B90020E5490870E548007865
:1001C000012819D102F0E2FF18B90120E2490870B4
:1001D00002E00020E0490870E0480078DE49097834
:1001E00088420FD0002001F056FB02F0C8F9DA482F
:1001F0000078DA49087005E0D648007810B9002088
:10020000D5490870D6480078D149097888421ED06F
:10021000CF48007828B90020D2490870D249087028
:100220000CE0CB480078012808D1CE4908704FF483
:100230004870CE4908800120CB490870022001F0A7
:100240002AFB02F09CF9C2480078C549087010BD2D
:1002500010B5C7480078012816D10020C44908709D
:10026000C4490860C4480068C44908600120C44902
:1002700008600020C3490860BF480068BF490860A3
:1002800001F078FB02F07BF9BF48007801280ED11D
:100290000020BD490870BA4908600120B9490860CA
:1002A0000020B649086001F065FB02F068F9B74824
:1002B0000078012806D10020B449087001F05AFBEB
:1002C00002F05DF910BD2DE9F84FB1480078002823
:1002D0007CD1B049488806F082FE81464FF08B41C0
:1002E00006F0B7FC044606F0B1FE07464FF0663252
:1002F000A94B06F093FD054606F0ECFEA7494860C1
:1003000048684FF0804106F072FC009006F09EFEB7
:1003100080460022A24B06F07BFD06460022A14B40
:1003200006F07CFD044600229F4B06F0E9FD824664
:1003300006F073FE9D49087008460078032801DA2C
:100340000020087099480078642802DD64209749ED
:10035000087096480078002819DB944800780A282D
:1003600015DA9348007890B992480088401C91496A
:1003700008800846008840F6B83188420AD102F069
:1003800022FC01208A4908708B49087002E0002095
:10039000884908808948008847F23051884204DB48
:1003A00002F011FC00208549088080480078002870
:1003B0000DDB7E4800780A2809DA4FF400606349B3
:1003C00010310860C010091D086008E031E04FF4EA
:1003D00000605E4914310860C010091F0860784849
:1003E000007870B96D4948684FF0804106F0FFFB16
:1003F000064606F02BFE04460022724B06F03AFE3B
:1004000014D201206E49087001F0EDF902F0B7F83E
:100410004FF47A7003F03DFB012080F3108800BF99
:100420004103694804F037F900BFFEE7002067493F
:100430000870BDE8F88F10B565480078012816D11E
:100440006448007870B901206249087002F035FBF9
:1004500046F2A81003F01DFB00205549087001204A
:100460005D4908704FF480703649086103E04FF42D
:1004700080703449486110BD584804F0ACFA03F06C
:1004800049FF03F05FFB03F093FC00F0D6FD03F09F
:10049000C3FA4FF4A06003F081FF4FF480414A4853
:1004A00003F073FC58B13C2003F0F3FA4FF48041A1
:1004B000454803F06AFC10B101204949087001F079
:1004C0006FFF02F05DFE03F08BFE642003F0E1FAA3
:1004D00000BFFFF7F8FE02F09AFF02F078FA03F08F
:1004E0002DF94FF4FA7003F0D4FA4FF4FA7003F0D8
:1004F000D0FA4FF4FA7003F0CCFA00BF4FF400705A
:1005000010490861C82003F0C4FA4FF400700D4987
:10051000486102F0B2FA4FF47A7003F0BAFA4FF47D
:100520007A7003F0B6FA4FF47A7003F0B2FA4FF42F
:100530007A7003F0AEFAC82003F0ABFA02F039FC8F
:1005400001204FE00010014043000020000801405E
:100550006A00002010170020690000204B000020D6
:100560004C0000206B0000206C0000206E0000207A
:10057000700100206801002080010020B0000020F0
:10058000080000201C000020730100201100002042
:100590003E0000201E02002066660A40DC020020A9
:1005A00000000C40000059400000E03F3A000020ED
:1005B000100000203C000020A70100204000002087
:1005C0000500002000000840000C01402902002026
:1005D000640100204A00002039000020C8020020E9
:1005E0009F010020154908704FF4165003F039FDA3
:1005F00000201349087011E003F09BF9FFF71BFF7F
:1006000002F0B2F9FFF75FFE02F0D3FBFFF720FE26
:1006100001F09BFAFFF796FD01F083FCECE710B5C3
:1006200008480078012808D101F0A4F901F0A7FFDB
:100630000020054908600349087010BD7C010020B6
:10064000120000200400002000000020704700BFBE
:10065000FEE700BFFEE700BFFEE700BFFEE7704712
:1006600070477047704710B50121FE4804F02EFC1A
:1006700030B1FC4804F0C0FB0121FA4804F033FC1F
:100680000821F84804F022FC30B1F64804F0B4FB2D
:100690000821F44804F027FC0221F24804F016FC7B
:1006A00030B1F04804F0A8FB0221EE4804F01BFC36
:1006B00040F22551EB4804F01FFC58B32021E948D3
:1006C00004F011FC40F22551E64804F03FFC0721FC
:1006D000E44804F0FBFB08B1012400E00024D4B995
:1006E000E1480068C82816D2DE4804F085FBC1B294
:1006F000DD4802680068401CDB4B186003F109000C
:10070000815401201946087208460068C72805D19F
:100710000020086002E0D34804F06EFB10BD10B565
:10072000802005F001FF10B38021D04803F02DFB9D
:10073000012819D1CE480078012815D10020CD49D3
:1007400008800120CC4908600020C9490870CB49C5
:1007500008600120CA4908700020CA4908701020AA
:10076000C949086008200860802005F0EEFE40209E
:1007700005F0DAFE38B34021BC4803F006FB01283F
:100780001ED1C248007801281AD10020B94908803A
:10079000BE490870BE490860BA4908701020BA49BD
:1007A0000860082008600020B34908600120B949AA
:1007B0000870B94908700020B8490860B849087045
:1007C000402005F0C2FE10BD10B54FF4804005F08A
:1007D000ABFE18B14FF4804005F0B7FE4FF4004077
:1007E00005F0A2FE18B14FF4004005F0AEFE4FF444
:1007F000805005F099FE60B14FF4805005F0A5FEE1
:10080000A8480088401CA74908808021974803F029
:10081000BCFA10BD10B5022005F086FE58B10220CA
:1008200005F093FE9F480088401C9E490880802167
:100830008E4803F0AAFA10BD10B5102005F074FE22
:1008400010B1102005F081FE10BD10B501219648B1
:1008500005F08FFA00287CD00121934805F09AFA20
:1008600092480088401C9149088091480088401CAB
:100870008F4908808F48007801280CD18E48008865
:10088000401C8D49088008460088FA2803D10020C2
:100890000880884908708948007860B188480078E5
:1008A000012808D18748C078012804D186480088EB
:1008B000401C854908808448008840F2DC51884209
:1008C00010DB0020804908807C4908707F48006860
:1008D000142807DB06207E49087001207D49087036
:1008E00002F032FA7B480078012804D17A48006887
:1008F000401C7949086078480068B0F5967F19D1A6
:100900000020744908707449086001205D4908702E
:1009100010205D4908600820091F08600120564921
:1009200008605349087001F025F801F028FE012005
:100930006A4908706A480078012807D16148C07880
:1009400020B968480068401C66490860654800682E
:1009500000E0B0E2B0F57A7F07DB6048007820B9AC
:1009600002F0F2F900205F4908605D480078012834
:100970000BD15448C078012807D10020584908708D
:1009800001203B490870554908705748007820B14C
:1009900056480088401C554908805448008847F252
:1009A0003051884204DB00204F4908704F490880CD
:1009B0004F48007880B94F480088401C4D49088056
:1009C0000846008847F23051884205DB012048493B
:1009D00008700020474908804748007820B1474800
:1009E0000088401C45490880454800780A2808D1FD
:1009F00042480088C82804DD0020404908803E495C
:100A000008703E480088B0F5C87F04DD00203B49EF
:100A10000880394908703B48006820B13A480068AE
:100A2000401C3949086038480068052807D1002073
:100A300034490860344908600120344908601C4882
:100A40000088642809D10020194908801D48807851
:100A5000012802D106201E4908702D48007801287F
:100A60005DD157E0004400404C0E002000100140D2
:100A700071010020600000200800002068010020B3
:100A8000700100203E000020140C01407201002083
:100A90006C01002073010020740100207801002007
:100AA0007C01002062000020000400408200002041
:100AB00084000020120000207A0000205501002050
:100AC00013000020101700207C00002044020020AA
:100AD00073000020570100208C00002056010020E8
:100AE0007800002090000020740000207600002094
:100AF0001100002086000020150200209400002034
:100B0000160200209402002098020020900200208B
:100B100010000020E8480088401CE7490880E748AA
:100B20000068E74988420FDBE648007840B91E209C
:100B3000E54908600120E34908700020DF490860AA
:100B40000020E049087004E0DC480068401CDB49F4
:100B50000860DE480088642813D10020DB49088043
:100B6000DB48007810B9DB48007830B1DA4800681B
:100B700080F00200D849086003E00220D64908311D
:100B80000860D648007820B9D5480088401CD44970
:100B90000880D348008864280CD10020D049088000
:100BA0000120CE490870CF480078082802DB0120D8
:100BB000CC490870CC480088401CCB4908800846C6
:100BC00000880A280FD1C9480088032803DD0120C6
:100BD000C749088002E00020C54908800020C349B9
:100BE0000880C149088002F06DFC4FF48041C14883
:100BF00003F0CBF8012807D1BF480078012101EBB1
:100C00004000BD49087006E0BB480078FE2101EABB
:100C10004000B9490870B84800780F282CD1B7486F
:100C20000068401CB549086008460068022823D1C6
:100C3000B348407801281CD14021B24803F0A5F800
:100C4000B8B90120B0490870B04908701020A9490E
:100C5000103108600820091D086001209A490860C9
:100C60000020AB4908600120AA4908700020AA4969
:100C700008700020A14908604FF400419D4803F02E
:100C800084F8012807D1A5480078012101EB400034
:100C9000A249087006E0A1480078FE2101EA400060
:100CA0009E4908709D4800780F280DD19C48006827
:100CB000401C9B49086008460068022804D10020B7
:100CC000086004208049086096480078012804D113
:100CD00095480068401C9449086093480068B0F546
:100CE000617F08D100208F49087001208F4908706A
:100CF00000208D4908604FF400417E4803F045F81C
:100D0000012804D18A480068401C89490860884845
:100D10000068C8280CD102206B49086001207C497A
:100D200008600020824908607D49086081490860A8
:100D300072480068012832D17E480068401C7D4915
:100D4000086008460068642810D14FF48041694863
:100D500003F01BF850B900206849086003205A4985
:100D6000086000206A49086072490860714800689C
:100D7000B0F5FA7F13D14FF480415E4803F005F8D7
:100D800001280CD100205D4908605D488078012869
:100D900002D105204C49086000206649086065487A
:100DA0000068B0F5FA7F02D90020624908605C480B
:100DB0000068012804D160480068401C5E49086052
:100DC0005D480068642804D10020554908605A49EC
:100DD00008605A480078012804D159480068401C2E
:100DE0005749086056480068C82813D1012048496F
:100DF000086000205149087051490860012051499C
:100E0000087000204049087010203A4914310860E9
:100E1000082008603F480078012804D14A4800684B
:100E2000401C494908604948008847490968884288
:100E300003D2454800884549088044480088404915
:100E40000968884203D23E480088404908803E48ED
:100E50000068C82819D100202E4908703A49086056
:100E600029490870102023491431086008200860BF
:100E70000020274908600120354908702949087079
:100E80000020294908602949087021480068012884
:100E900005D130480068401C2E49086002E000205F
:100EA0002C4908602B480068642804D12A4800684F
:100EB000401C2949086010BD400000208800002027
:100EC00000F22B007E0000201C0000208200002089
:100ED000690000206B0000200C080140A1010020E7
:100EE00080000020A0010020660000206200002099
:100EF00064000020000C0140710000205000002020
:100F000010170020001001403E0000206800002063
:100F1000080000207201002056010020700000200F
:100F20005400002074010020780100207C01002082
:100F300084010020580000205C0000207101002086
:100F400068010020700100206C010020600000207A
:100F5000730100200C000020800100200CB500204F
:100F6000019000906C48006840F480306A49086045
:100F700000BF6948006800F4003000900198401CF0
:100F80000190009818B90198B0F5A06FF1D16248AE
:100F9000006800F4003010B10120009001E0002052
:100FA00000900098012843D15C48006840F0100090
:100FB0005A4908600846006820F0030008600846A7
:100FC000006840F002000860534840685249486099
:100FD0000846406848600846406840F480604860C1
:100FE0000846406820F47C1048600846406840F499
:100FF000E81048600846006840F08070086000BF54
:101000004548006800F000700028F9D04248406868
:1010100020F00300404948600846406840F0020064
:10102000486000BF3C48406800F00C000828F9D137
:101030000CBD10B5FFF792FF10BD10B53648006823
:1010400040F00100344908600846406834490840CF
:101050003149486008460068324908402E49086016
:101060000846006820F4802008600846406820F4A4
:10107000FE0048604FF41F008860FFF7DAFF4FF072
:1010800000602949086010BD10B500210020002231
:10109000214B5B6803F00C0121B1042906D008291B
:1010A00028D107E0214B224C236027E01F4B204C26
:1010B000236023E0184B5B6803F47010164B5B68E9
:1010C00003F48032022303EB904022B9194B4343CF
:1010D000174C23600DE0104B5B6803F4003323B121
:1010E000144B4343124C236003E0104B4343104C1A
:1010F000236003E00D4B0E4C236000BF00BF064B86
:101100005B68C3F303130C4CE15C094B1B68CB40D9
:10111000074C236010BD0000001002400020024078
:101120000000FFF8FFFFF6FE08ED00E000127A0075
:101130009800002000093D009C00002070B55A2155
:10114000FE4805F002FD002412251CE0FC48405D2D
:1011500030280BDBFA48405D392807DC3320F7499B
:101160000855F748415DF54A601C1154F448405D4C
:101170002E2806D13220F14908554521EF4A601C3E
:101180001154A41C6D1C1C2DE0DB3220EB490855CA
:101190003021EA4A601C115470BD70B55A21E948EB
:1011A00005F0D3FC00241F251CE0E548405D3028F5
:1011B0000BDBE348405D392807DC3320E149085563
:1011C000DF48415DDF4A601C1154DD48405D2E2838
:1011D00006D13220DB4908554521DA4A601C1154FA
:1011E000A41C6D1C2A2DE0DB3220D6490855302185
:1011F000D44A601C115470BD70B51421D24805F05A
:10120000A4FC3C21D14805F0A0FCD149CE4805F012
:10121000A7FCD0A1CC4805F0A3FC002500241CE0CD
:10122000C948005D30280BDBC748005D392807DC62
:101230003320C6494855C448015DC44A681C11544E
:10124000C148005D202806D13220C04948553021D0
:10125000BE4A681C1154AD1C641C142C05D23C2DD4
:1012600003D2B948005D0028DAD170BD70B51421F1
:10127000B94805F06AFC3C21B84805F066FCB8495D
:10128000B54805F06DFCB3A1B34805F069FC002535
:10129000002439E0B048005D30280BDBAE48005D2B
:1012A000392807DC3320AD494855AB48015DAB4ACE
:1012B000681C1154A848005D41280DDBA648005D5C
:1012C000462809DC3420A5494855A348005D10385C
:1012D000C1B2A24A681C11549F48005D202806D163
:1012E00032209E49485530219C4A681C11549A4826
:1012F000005D2C2806D13220984948554321974A51
:10130000681C1154AD1C641C142C05D23C2D03D256
:101310009148005D0028BDD170BD2DE9F041914894
:1013200000210160416001811E218F4805F00DFC04
:101330008E48006805F08AFE064632460B468CA1B0
:10134000884806F02BFB83A1864805F009FC0024A1
:10135000002532E08348405D30280BDB8148405D4A
:10136000392807DC3320804908557E48415D7E4A94
:10137000601C11547B48405D202806D132207A49F8
:1013800008553021784A601C11547648405D2D285C
:1013900006D13220744908554421734A601C115407
:1013A0007048405D2E2806D132206F4908554521EE
:1013B0006D4A601C1154A41C6D1C6A48405D0028D5
:1013C000C8D1BDE8F08170B56B4800210160416073
:1013D00001811E21694805F0B8FB694869A10268CE
:1013E000654806F0DBFA5BA1634805F0B9FB002510
:1013F00000241CE06048005D30280BDB5E48005D87
:10140000392807DC33205D4948555B48015D5B4A5C
:10141000681C11545848005D202806D132205749D5
:1014200048553021554A681C1154AD1C641C524863
:10143000005D0028DED170BD2DE9F0415248002149
:101440000160416001811E21504805F07EFB50483B
:10145000006805F0FBFD064632460B464DA14A48A2
:1014600006F09CFA3BA1484805F07AFB00240025D1
:1014700027E04548405D30280BDB4348405D392874
:1014800007DC3320414908553F48415D3F4A601C15
:1014900011543D48405D202806D132203B49085573
:1014A00030213A4A601C11543748405D2E2806D13D
:1014B0003220364908554521344A601C1154A41C79
:1014C0006D1C3148405D0028D3D1BDE8F0817047E4
:1014D00070B5324800210160416001811E21304811
:1014E00005F033FB2F480068002801DA002601E0F0
:1014F0002C480668324623A1284806F04FFA15A169
:10150000264805F02DFB3520254908703420487009
:101510000225002453E02148005D30280BDB1F48E2
:10152000005D392807DC33201D4948551B48015D03
:101530001B4A681C11541A48005D35E088030020DE
:101540004C100020E2030020E8020020FC020020F2
:101550008B01002020000000380300204C030020F5
:101560002C0900203C04002046040020AC00002090
:10157000252E316600000000640400206E04002067
:10158000B000002025640000040500200E050020A6
:10159000B4000020252E326600000000B4040020B4
:1015A000BE04002044020020202806D13220FE493B
:1015B00048553021FC4A681C1154AD1C641CFB4882
:1015C000005D0028A7D170BD2DE9F041F848006802
:1015D000072852DBF64800680A284EDC0027F54849
:1015E00000210160416001811E21F34805F0ADFA40
:1015F000EF480068C01FF1490E5CED480078801F7D
:10160000C7B23A46AFF28401EA4806F0C7F932465B
:10161000AFF29001E748401C06F0C0F9AFF2CC01F0
:10162000E44805F09DFA3520E349087032204870FF
:10163000022500241CE0DF48005D30280BDBDD487C
:10164000005D392807DC3320DB494855D948015D66
:10165000D94A681C1154D848005D202806D1322090
:10166000D54948553021D44A681C1154AD1C641C1E
:10167000D048005D0028DED100BFBDE8F08110B584
:10168000CF480078CF4908604FF48061CE4805F01C
:101690005CFAFFF753FDFFF780FDFFF7ADFDFFF7A5
:1016A0003CFEFFF790FEFFF712FFFFF7DFFDC74993
:1016B000C54805F055FAC649C34805F051FAC54971
:1016C000C14805F04DFAC449BF4805F049FAB84889
:1016D000006818B9C149BC4805F042FAB44800682E
:1016E000012803D1BE49B84805F03AFAB04800686D
:1016F000022803D1BB49B44805F032FAAC4800686F
:10170000032803D1B849B04805F02AFAB749AE48D2
:1017100005F026FAB649AC4805F022FAB549AA48C0
:1017200005F01EFAB449A84805F01AFAB349A648CC
:1017300005F016FA10BD10B5A1480078A14908605F
:101740004FF48061A04805F000FAFFF7F7FCFFF7BF
:1017500024FDFFF751FDFFF7E0FDFFF734FEFFF733
:10176000B6FEFFF783FD9949974805F0F9F99849C6
:10177000954805F0F5F9A249934805F0F1F9964925
:10178000914805F0EDF98A48006818B993498E48E8
:1017900005F0E6F986480068012803D190498A4897
:1017A00005F0DEF982480068022803D18D49864899
:1017B00005F0D6F97E480068032803D18A4982489B
:1017C00005F0CEF98949804805F0CAF988497E4874
:1017D00005F0C6F987497C4805F0C2F987497A487F
:1017E00005F0BEF910BD10B5754800787549086060
:1017F0004FF48061744805F0A8F9FFF79FFCFFF7EC
:10180000CCFCFFF7F9FCFFF788FDFFF7DCFDFFF7E5
:101810005EFEFFF72BFD6D496B4805F0A1F96C49A1
:10182000694805F09DF97749674805F099F96A49D3
:10183000654805F095F95E48006818B9674962483F
:1018400005F08EF95A480068012803D164495E48C2
:1018500005F086F956480068022803D161495A48C4
:1018600005F07EF952480068032803D15E495648C6
:1018700005F076F95D49544805F072F95C49524823
:1018800005F06EF95B49504805F06AF95B494E482E
:1018900005F066F910BD10B504464948007849497D
:1018A00008604FF48061484805F04FF9FFF746FCA7
:1018B000FFF773FCFFF7A0FCFFF72FFDFFF783FD99
:1018C000FFF7D4FC4149404805F04AF940493E48F9
:1018D00005F046F94C48006818B94C493A4805F0FB
:1018E0003FF949480068012803D14949364805F0C5
:1018F00037F93949344805F033F984B94548007857
:1019000020B94549304805F02BF922E041480078DC
:1019100001281ED141492C4805F022F919E0052C77
:1019200017DA022C15DB04F130003D49C8703D493F
:10193000C8703D480078012804D13949224805F093
:101940000FF906E03848007818B936491E4805F006
:1019500007F926491C4805F003F925491A4805F0FE
:10196000FFF82449184805F0FBF82449164805F00B
:10197000F7F810BD10B512480078124908604FF40E
:101980008061114805F0E1F8FFF7D8FBFFF705FC8F
:10199000FFF732FCFFF7C1FCFFF715FDFFF797FDDE
:1019A000FFF764FC42E00000BE040020B404002005
:1019B0001C000020DC040020E6040020101700209A
:1019C0003A000020B00000202C050020FC0200207E
:1019D00046040020FD0000206E040020DD000020F1
:1019E000CB000020D4000020C2000020880300208B
:1019F000E20300204C03002096040020BD000020DC
:101A000006010020F400002008000020ED00002066
:101A1000E6000020690000202101002018010020BC
:101A20002A010020330100206A000020FFF750FD4A
:101A3000FFF7CAFDF649F74805F092F8F649F54870
:101A400005F08EF8F548006818B9F549F14805F039
:101A500087F8F2480068012803D1F249ED4805F003
:101A60007FF8F149EB4805F07BF8F048006818B9B9
:101A7000EF49E84805F074F8EC480068012803D104
:101A8000EC49E44805F06CF8E8480068022803D106
:101A9000E949E04805F064F8E4480068032803D108
:101AA000E649DC4805F05CF8E0480068042803D10A
:101AB000E349D84805F054F8DC480068052803D00D
:101AC000DA48006815280BD1DE480078012807D1D4
:101AD000DD49D04805F044F8DCA1CE4805F040F8D7
:101AE000D248006807280BDBD04800680A2807DCCA
:101AF000D749C84805F034F8D4A1C64805F030F8F5
:101B0000CA480068142803D1D249C24805F028F811
:101B1000C64800681E2803D1CF49BE4805F020F80A
:101B2000CE49BC4805F01CF8CD49BA4805F018F874
:101B3000C6A1B84805F014F8CA49B64805F010F82F
:101B4000C949B44805F00CF810BD10B5C748007875
:101B500098B9C748007801280FD1C64908680028FD
:101B600001DB014600E041420A2906DA0120BF49B3
:101B70000870C0480068C0490860AC4800681E286A
:101B80000CD10120BD4908701E20A8490860FFF74C
:101B9000F1FE00F0F4FC0020A4490860A3480068AE
:101BA00007280EDBA14800680A280ADCB448007840
:101BB000B4490860FFF7DEFE00F0E1FC00209B491D
:101BC0000860B1480078062873D1AA480468A74A7B
:101BD0001278012A21D1AD4A1278F2B9A64A1268C8
:101BE000A11A002901DB0A4600E04A42642A14DBFC
:101BF000A14A1268A01A002801DB024600E0424216
:101C0000B2F57A7F09DC9C4804601420874908609B
:101C1000FFF7B0FE00F0B3FC46E097490968081BE7
:101C2000002801DB014600E0414205293CDB8F48EA
:101C30000078C8B38348007801282CD18B480078FD
:101C400001280DD18C480068142809DA142C07DB10
:101C500001F07AF801208E4908708E4908701AE068
:101C600082480078012816D183480068142812DBC6
:101C7000142C10DA01208849087010208749086068
:101C80000820091D08600120854908700020854949
:101C900008707F490870784804601520634908601F
:101CA000FFF768FE00F06BFC0020774908705F4981
:101CB00008605E480068052815D101F0D6FD0020B7
:101CC0006D49086001206A49087000F019FFFFF7AC
:101CD00051FE00F054FC002054490860012059498D
:101CE00008706A4908705148006804280CD164489B
:101CF00000786449086001F007F8FFF73BFE00F048
:101D00003EFC0020494908604848006803280CD17F
:101D10005B4800785B49086000F0D6FFFFF72AFEB9
:101D200000F02DFC0020414908604048006802286E
:101D30000CD1534800785349086000F0A5FFFFF725
:101D400019FE00F01CFC0020384908603748006884
:101D5000012815D15448007820B10020524908705C
:101D600000F072FF4648007846490860FFF702FE1F
:101D700000F005FC00202D49086001204B49087047
:101D800010BD2DE9F04107460C460026002532E043
:101D9000625D302A06DB625D392A03DC625D303A1F
:101DA000D0B208E0625D612A05DB625D662A02DC72
:101DB000625D573AD0B26A1CA25C302A08DB6A1C0A
:101DC000A25C392A04DC6A1CA25C303AD1B20BE076
:101DD0006A1CA25C612A07DB6A1CA25C662A03DC1F
:101DE0006A1CA25C573AD1B241EA0012BA55701C83
:101DF000C6B2A81CC5B2204604F0DCFEB042C7D86B
:101E0000BDE8F081F0B502460D46002400237AE0DB
:101E1000FC0200202C0500204604002008000020C1
:101E2000ED000020E60000206E0400201C000020D1
:101E3000DD000020CB000020D4000020C2000020E4
:101E40000F01002013000020BE04002032300000EB
:101E5000E60400203C01002045010020880300200A
:101E6000E20300204C030020BD00002054010020AC
:101E7000720000204402002050010020A701002031
:101E80003A000020B0000020730000201200002063
:101E900078000020570100203E000020100C014077
:101EA000720100205601002068000020550100202A
:101EB0002E5D30092E5D06F00F01002805DB092894
:101EC00003DC00F13006D65406E00A2804DB0F28B4
:101ED00002DC00F15706D654002907DB092905DC8E
:101EE00001F13006F7B25E1C975508E00A2906DBBF
:101EF0000F2904DC01F15706F7B25E1C9755601CF0
:101F000084B2981C83B2E74800888442D0DBF0BDDD
:101F100010B50020E4490880C821E44804F015FE0B
:101F200010BDF0B5ADF5177DE1484068E04909689E
:101F300088424BD0DE4841684068401CDC4A506013
:101F400002F10900415CD84802880088401CD64B49
:101F50001880D648815418460088C72802D100202E
:101F600019460880D2484068C72802D10020D049CD
:101F70004860CD480088012811D1CB480088401E18
:101F8000CA49085C0D2805D0C7480088401E085C77
:101F90000A2804D10020C4490880C6490870C248F4
:101FA0000088022812DDC0480088401EBF49085C36
:101FB0000D2805D0BC480088401E085C0A2805D1C1
:101FC0000020B94908800120BA490870B948007852
:101FD00000287CD0B8A1B54804F0CEFDB8A1B34824
:101FE00004F0CAFDB748007806280CD1B6A1AF4866
:101FF00004F0C2FD38B10720B2490870FFF788FF2E
:102000000020AC490870AEA1A84804F0B5FDB0A10D
:10201000A64804F0B1FDB0A1A44804F0ADFDB0A104
:10202000A24804F0A9FD10B10120B1490870B1A186
:102030009E4804F0A1FD38B10020AD490870B149B7
:10204000087001209F490870AFA1984804F094FDE2
:10205000002851D0AE48007810B90120AC49087072
:102060000024002500264FF4167101A804F06DFD30
:10207000072412E08D48005D2C2802D16D1C00263B
:102080000AE08A48005D05EBC50101EB051101AAD4
:1020900002EB41018855761C641C8448005D0028D1
:1020A000E8D101A804F086FD28B39AA10DF136000D
:1020B00004F062FDF8B1984800210160416001819F
:1020C00096480160416001812821954800E0E5E0E3
:1020D00004F03BFD01A9904804F073FD65A98E480A
:1020E00004F06FFD1AA98E4804F06BFD33A98C48EB
:1020F000143004F066FD00BF8AA16C4804F03CFD7A
:1021000040B11E218A4804F020FD684922318848E8
:1021100004F057FD87A1654804F02EFD20B1634807
:10212000007B30388649087086A1814804F024FD80
:1021300090B18021844801F028FE68B901208349CC
:1021400008701020824908600820091F08600120DB
:10215000804908708049087080A1754804F00CFD22
:10216000A0B14021784801F010FE78B901207749EC
:10217000087010207649091F08600820091D0860B2
:1021800001207749087000207249087075A14748FE
:1021900004F0F2FC18B3002400260DE04348005D73
:1021A0002C2801D1701CC6B2601CC4B206B92546E9
:1021B000052E01D1274604E03C4804F0FBFCA04278
:1021C000ECD800BF781B801E142807DA781B821E0B
:1021D00036482844411C654804F0E0FC00BF64A177
:1021E000534804F0C9FC10BB62A1514804F0C4FC80
:1021F000E8B961A14E4804F0BFFCC0B95FA14C48EA
:1022000004F0BAFC98B95EA1494804F0B5FC70B975
:102210005CA1474804F0B0FC48B95BA1444804F015
:10222000ABFC20B959A1424804F0A6FC58B3404E7B
:102230000025002424E00020949095909690621C44
:1022400053A194A805F0AAFB002594A9384804F0EE
:1022500093FC054695B1A9783039C8B208B1012878
:102260000BD14C490855E11D4B4A11602CB9494925
:10227000095D11B90121494A117000BF601CC4B247
:10228000092CD8DB00BF02F02BF81E21284804F0EF
:102290005CFCFFF73DFE00200649087000200DF5AC
:1022A000177DF0BDA4020020580100204009002045
:1022B0004C0E00205A0100202B5A5245414459002F
:1022C0004F4B0000A00100204552524F5200000029
:1022D0002B4353513A0000002B435245473A00002C
:1022E0002B5A4950535441543A20312C31000000AC
:1022F000640100202B5A4950535441543A20312C48
:1023000030000000A1010020244750524D4300003E
:102310006501002041000000260A0020300A00204C
:102320003A0A00202B5A49505245435600000000FB
:10233000080A00202B5A4950535441540000000011
:102340005B0100204F333300001001403E000020AD
:10235000140C014056010020710100205334340058
:10236000720100202B5A4344530000002C09002026
:102370005031310050313000503231005032300095
:10238000503331005033300050343100503430007D
:1023900050256400101700201C00002017020020A8
:1023A00000B587B00121042002F082FB012148041E
:1023B00002F08BFB0420ADF8180018208DF81B00EC
:1023C00003208DF81A0006A9FE4802F0B5F808208F
:1023D000ADF8180004208DF81B0006A9F94802F09A
:1023E000ABF8F94802F0C8FB4FF4165002900020F9
:1023F000ADF80C00ADF80E00ADF81000ADF814000B
:102400000C20ADF8120002A9EF4802F0F8FB40F2F0
:102410002551ED4802F09AFD012240F22551EA488B
:1024200002F085FC26208DF8040002208DF80500BE
:1024300003208DF8060001208DF8070001A801F0A7
:10244000B2FF0121E04802F066FC07B000BD70B5A4
:1024500004460D462946204602F0CAFC00BF8021F2
:10246000204602F033FD0028F9D070BD2DE9F0417F
:1024700007460D461646002405E0295D3846FFF75D
:10248000E6FF601CC4B2B442F7DB00BF402138460F
:1024900002F01CFD0028F9D0BDE8F08170B50646B9
:1024A0000C46002500BF615D3046FFF7D0FF6D1C74
:1024B000605D0028F7D100BF4021304602F006FDE4
:1024C0000028F9D070BD2DE9F04105460C46260ADA
:1024D000E7B23146284602F08BFC00BF8021284637
:1024E00002F0F4FC0028F9D03946284602F080FCBE
:1024F00000BF8021284602F0E9FC0028F9D0BDE8A1
:10250000F08170B504460D46E1B2AF4802F070FCB0
:1025100000BF8021AC4802F0D9FC0028F9D0204649
:1025200070BD10B5044600BF2021A74802F0CEFCC4
:102530000028F9D0A44802F05FFC10BD70B5044635
:102540000D460DE000BF40219F4802F0BFFC00286F
:10255000F9D014F8011B9C4802F04AFC681E85B2B1
:10256000002DEFDC70BD10B5002098490860486070
:102570000872C8219548093004F0E7FA10BD10B57B
:102580009348007818B1934993A005F0F7F910BD6E
:1025900010B596480078002876D08D48007800283D
:1025A00072D19348007800286ED0924800780928AC
:1025B00068D2DFE800F0050E1A26323E47575E006B
:1025C0008C480078401C8B490870002088490870AE
:1025D00059E089A005F0D2F90020854908708548A6
:1025E0000078401C834908704DE087A005F0C6F9CB
:1025F00000207F4908707F480078401C7D490870A2
:1026000041E084A005F0BAF90020794908707948C2
:102610000078401C7749087035E085A005F0AEF9D8
:1026200000207349087073480078401C7149087095
:1026300029E000206E4908706E480078401C6D4902
:10264000087020E07E48007818B17EA005F096F969
:1026500002E086A005F092F90020654908708D49D6
:10266000087010E08CA005F089F90020614908701D
:1026700009E089A005F082F900205E49087002E0B7
:1026800002E0FFE700BF00BF5148007838B381483F
:102690000078032823DA5648007800B37D48007894
:1026A000401C7C49087008460078012804D00228A4
:1026B00006D003280ED108E07BA005F05FF90AE000
:1026C000FFF758F9FFF75BFF05E0FFF753F9FFF756
:1026D00056FF00E000BF00BF00204549087010BD54
:1026E0002DE9F04188B005460C460026002706E09B
:1026F00014F8012B3046711CCEB20DF80020207862
:102700000028F5D1FFF72FFF284604F053FA1FFAEF
:1027100080F841462846FFF711FF4FF47A7001F028
:10272000B8F92A48007A01280CD10CB901270AE02F
:1027300069462648093004F01FFA08B1012702E073
:10274000002700E00027012F03D1002008B0BDE8DA
:10275000F0810120FAE73EB55A4A07CA8DE8070022
:10276000FFF701FF1421584804F0EFF94FF4FA7015
:1027700001F08FF955A16846FFF7B2FF00BB0024B6
:10278000002512E011480930005D30280BDB0F48AE
:102790000930005D392806DC0C480930005D4A49E3
:1027A0004855681CC5B2601CC4B20848093004F022
:1027B00001FAA042E6D84448007810B1424887E0C8
:1027C00095E08CE000080140004400404C0E0020E1
:1027D000640100202C05002041542B5A49505345D8
:1027E0004E443D312C25730D0A000000630100208A
:1027F000A1010020A001002041542B4950523D3935
:102800003630300D0A00000041542B5A4344533FE8
:102810000D0A000041542B5A49504346473D636D11
:102820006E65742C4E6F6E652C4E6F6E650D0A00D2
:1028300041542B5A495043414C4C3D310D0A000044
:102840009F01002041542B5A49504F50454E3D3175
:102850002C302C3130332E34362E3132382E343960
:102860002C32313938380D0A0000000041542B5AFF
:1028700049504F50454E3D312C302C3131352E32A0
:1028800033362E3135332E3137342C323031363623
:102890000D0A0000A201002041542B5A4950434127
:1028A0004C4C3D300D0A000041542B5A4950414CCC
:1028B0004956453D312C312C3330302C37352C39AD
:1028C0000D0A0000FC8200088B0100204F4B000025
:1028D0004078302803D02B488078302803D100205E
:1028E000294908703FE00120274908703BE04FF478
:1028F000FA7001F0CEF84FF4FA7001F0CAF84FF414
:10290000FA7001F0C6F8AFF23C01204804F034F947
:1029100028B3002400250FE01C48005D302809DBA7
:102920001A48005D392805DC1848005D15494855EE
:10293000681CC5B2601CC4B2144804F03BF9A04244
:10294000EAD81048007838B10E484078302803D0D3
:102950000C488078302803D100200B49087002E031
:102960000120094908703EBD10B50748007828B914
:10297000FFF7F9FDFFF7EFFEFFF7F5FDFFF708FEA4
:1029800010BD00008B01002063010020550E0020C7
:1029900070B504460D462946204602F029FA00BFCC
:1029A0008021204602F092FA0028F9D070BD2DE96E
:1029B000F04107460D461646002400BF295D384603
:1029C000FFF7E6FF641CB442F8D3BDE8F08100B520
:1029D00085B00121C80402F078F80121102002F02E
:1029E00067F84FF48060ADF8100018208DF81300E0
:1029F00003208DF8120004A9FE4801F09DFD4FF45C
:102A00000060ADF8100004208DF8130004A9F94807
:102A100001F092FD4FF4165000900020ADF8040034
:102A2000ADF80600ADF80800ADF80C000C20ADF8CC
:102A30000A006946F04802F0E2F80121EE4802F08F
:102A40006AF94021EC4802F04EFA0522EB49EA48C7
:102A5000FFF7ADFF642001F01CF805B000BD70B5B4
:102A600006460C46002500BF615D3046FFF790FF2B
:102A70006D1C605D0028F7D170BD10B50522E049DE
:102A8000DD48FFF794FF1E20DE490870642001F046
:102A900000F80622DC49D848FFF789FF642000F0DF
:102AA000F8FF0622D949D448FFF781FF0120D84911
:102AB0000870642000F0EDFF10BD10B50522D0496C
:102AC000CD48FFF774FF1E20CE490870642000F047
:102AD000E0FF0622CC49C848FFF769FF642000F0F8
:102AE000D8FF0622CB49C448FFF761FF0120C8493F
:102AF0000870642000F0CDFF0020C749087010BDA9
:102B000010B50522BE49BC48FFF751FF1E20BD4944
:102B10000870642000F0BDFF0622BB49B648FFF7ED
:102B200046FF642000F0B5FF0622BC49B248FFF71B
:102B30003EFF642000F0ADFF0020B749087001207F
:102B4000B349087010BD10B50522AD49AA48FFF77A
:102B50002EFF1E20AB490870642000F09AFF062269
:102B6000A949A548FFF723FF642000F092FF062241
:102B7000AB49A148FFF71BFF642000F08AFF01204A
:102B8000A349087010BD10B505229D499A48FFF76A
:102B90000EFF0A209B490870642000F07AFF05228E
:102BA000A0499548FFF703FF642000F072FF06225A
:102BB0009D499148FFF7FBFE642000F06AFF012069
:102BC0009349087010BD10B505228D498A48FFF75A
:102BD000EEFE0F208B490870642000F05AFF062299
:102BE00089498548FFF7E3FE642000F052FF062282
:102BF0008E498148FFF7DBFE4FF4967000F049FFE5
:102C000001208349087010BD10B505227C497A481F
:102C1000FFF7CDFE1E207B490870642000F039FFCD
:102C2000062279497448FFF7C2FE642000F031FFA4
:102C300006227F497048FFF7BAFE642000F029FFA2
:102C400001207349087010BD10B505226C496A480F
:102C5000FFF7ADFE1E206B490870642000F019FFDD
:102C6000062269496448FFF7A2FE642000F011FFC4
:102C7000062270496048FFF79AFE642000F009FFC1
:102C800001206349087010BD10B505225C495A48FF
:102C9000FFF78DFE1E205B490870642000F0F9FEEE
:102CA000062259495448FFF782FE642000F0F1FEE5
:102CB000062261495048FFF77AFE642000F0E9FEE1
:102CC00001205349087010BD10B505224C494A48EF
:102CD000FFF76DFE1E204B490870642000F0D9FEFE
:102CE000062249494448FFF762FE642000F0D1FE05
:102CF000062252494048FFF75AFE642000F0C9FE00
:102D000001204349087010BD10B505223C493A48DE
:102D1000FFF74DFE1E203B490870642000F0B9FE0D
:102D2000062239493448FFF742FE642000F0B1FE24
:102D3000062243493048FFF73AFE642000F0A9FE1E
:102D400001203349087010BD10B505222C492A48CE
:102D5000FFF72DFE1E202B490870642000F099FE1D
:102D6000062229492448FFF722FE642000F091FE44
:102D7000062234492048FFF71AFE642000F089FE3D
:102D800001202349087010BD10B505221C491A48BE
:102D9000FFF70DFE1E201B490870642000F079FE2D
:102DA000042229491448FFF702FE642000F071FE56
:102DB00010BD10B51648007830B9124800780528C3
:102DC00002D00020214908701148007830B90D4820
:102DD00000780F2802D000201D4908700C480078A8
:102DE00030B9084800780A2802D000200A49087043
:102DF000184831E000100140004C0040AD010020B7
:102E0000A801002016020020B201002000020020CC
:102E100015020020FA010020A6010020F401002084
:102E2000EE010020060200200F020020D601002043
:102E3000D0010020CA010020E8010020E2010020AA
:102E4000DC010020C40100200B0200207E000020D5
:102E500010000020101700200078012835D12F48DD
:102E60000078C0B100F092F9A8B92D48007890B967
:102E700000F08CF978B92A48007860B929480078C0
:102E800048B92948007830B9FFF77DFE012027496D
:102E90000870234908702148007880B300F076F963
:102EA00068B31F480078012829D100F06FF930B3CA
:102EB0001B480078012822D11A480078F8B9FFF79A
:102EC00063FF00201649087019E0154800780128B2
:102ED00003D017480078012811D111480078012843
:102EE00003D013480078012809D10E48007830B982
:102EF000FFF74AFF00200A4908700D4908700D4885
:102F0000007848B10C48007830B901200B490870AE
:102F100009490870FFF717FE10BD0000640100208A
:102F2000A601002015020020A701002018020020A1
:102F3000170200202A020020190200202B02002084
:102F400008B50121102001F0B3FD0220ADF800000A
:102F500000208DF803006946B14801F0EDFA08BD84
:102F600000B591B00121084601F095FD012148020C
:102F700001F09EFDAB4803F039F9AB480690AB4831
:102F80000790002008900120099000200A900B90E3
:102F90004FF480700C9080000D9020200E90000265
:102FA0000F900020109006A99E4803F0C1F901215E
:102FB0009C4803F0E8F9002001908DF808000120FA
:102FC0008DF809004FF46020039000200490012048
:102FD0008DF8140001A994484C3802F006FF4FF414
:102FE000404001F0C9FC002301220B218E484C38DF
:102FF00002F093FF01218C484C3802F02DFF012193
:1030000089484C3802F01DFF87484C3802F03BFFDE
:1030100000BF85484C3802F03BFF0028F9D18248B8
:103020004C3802F03FFF00BF7F484C3802F03FFFB2
:103030000028F9D101217C484C3802F042FF11B040
:1030400000BD10B5FFF77CFFFFF78AFF10BD08B584
:103050000121142001F02CFD3020ADF800000020EB
:103060008DF8030069466E4801F066FA2020ADF83D
:10307000000000208DF8030069466D4801F05CFAFD
:1030800008BD00B591B00121084601F004FD012101
:10309000480201F00DFD634803F0A8F8624806906D
:1030A00064480790002008900320099000200A90AF
:1030B00080200B9040000C9080000D9020200E90FE
:1030C00000020F900020109006A9564803F030F936
:1030D0000121544803F057F90020019001208DF898
:1030E00008008DF809004FF4602003900020049040
:1030F00003208DF8140001A94B484C3802F075FEEE
:103100004FF4404001F038FC072301220E214648CD
:103110004C3802F002FF072302220F2142484C38AC
:1031200002F0FBFE0723032205213F484C3802F042
:10313000F4FE01213C484C3802F08EFE01213A4851
:103140004C3802F07EFE38484C3802F09CFE00BF3E
:1031500035484C3802F09CFE0028F9D132484C38F2
:1031600002F0A0FE00BF30484C3802F0A0FE00285C
:10317000F9D101212C484C3802F0A3FE11B000BD5A
:1031800010B5FFF764FFFFF77CFF10BD2DE9F04796
:103190002849888803F023FF81464FF08B4103F0D4
:1031A00058FD044603F052FF07464FF06632224BAB
:1031B00003F034FE054603F08DFF204988608868DF
:1031C000002103F0A3FF0ED81C49886803F03EFFDE
:1031D00004461B4A1B4B03F04DFF04D801201A493B
:1031E0000860BDE8F0871549886803F02FFF0446A2
:1031F0004FF06632154B03F055FF0ED20F49886829
:1032000003F024FF04464FF066320B4B03F032FF0D
:1032100003D800200C490860E3E70B480068E0E7AA
:1032200000100140080002404C2401401C02002014
:10323000000801401E02002066660A40DC020020F1
:103240009A99999999990140240200206666024052
:1032500030B589B005460C460121084601F035FC21
:103260000121052001F024FC0120ADF820001820E8
:103270008DF8230003208DF8220008A9FA4801F0F8
:103280005BF9ADF81850ADF814400020ADF81A0005
:10329000ADF8160005A94FF0804001F045FF602011
:1032A000ADF804000120ADF806004B20ADF80A008F
:1032B0000020ADF80C0001A94FF0804001F071FF33
:1032C0000821C80602F0BCFB0121880702F088FB38
:1032D0000121880702F084FA09B030BD1FB5012131
:1032E000042001F0F2FB0A20ADF8080040F2CF20E4
:1032F000ADF804000020ADF80A00ADF8060001A901
:10330000DA4801F011FF01224121D84802F083FA86
:103310001E208DF8000000208DF8010003208DF89C
:10332000020001208DF80300684601F03CF80121FD
:10333000CE4802F055FA1FBD1FB50121C80201F0A9
:10334000B7FB6420ADF808004720ADF8040000206A
:10335000ADF80A00ADF806008DF80C0001A9C448CC
:1033600001F0E2FE0121C24802F000FD01224121EC
:10337000BF4802F050FA19208DF8000000208DF8A7
:10338000010003208DF8020001208DF8030068463B
:1033900001F009F80121B64802F022FA1FBD08B574
:1033A0004FF4A06000F0FAFF1D208DF8000001200E
:1033B0008DF801008DF802008DF80300684600F0DA
:1033C000F2FF08BD0EB50121022001F07EFB42F2A2
:1033D0000F70ADF804004720ADF800000020ADF8F4
:1033E0000600ADF802008DF808006946A14801F01A
:1033F0009BFE01219F4802F0B9FC012211469D4825
:1034000002F009FA01219B4802F0EAF90EBD10B55D
:10341000FFF7C5FFFFF7D6FF10BD30B500221EE055
:10342000002116E0944830F811400546481C35F854
:10343000100084420BDD284630F811300446481C49
:1034400034F8100024F81100481C24F81030481CEF
:1034500081B2C2F163008842E4DC501C82B2632A6C
:10346000DEDB8548B0F8620030BD2DE9F0478349C6
:10347000088803F0B4FD81464FF08B4103F0E9FB6F
:10348000044603F0E3FD07464FF066327C4B03F041
:10349000C5FC054603F01EFE7A4908607A480078AC
:1034A00070B9086803F0D2FD04464FF03332774B11
:1034B00003F0E0FD02D20020BDE8F0870120FBE729
:1034C00000BFF9E72DE9F0476C49088803F087FD54
:1034D00081464FF08B4103F0BCFB044603F0B6FD80
:1034E00007464FF06632664B03F098FC054603F042
:1034F000F1FD6449086064480078002864D10868D8
:1035000003F0A4FD04464FF03332604B03F0B2FDEC
:1035100007D25F480078FE2101EA40005C4908704C
:103520000FE05C480078012804DD5B480088401CFF
:103530005949088056480078012101EB4000544960
:103540000870534800780F280AD152480078401C70
:103550005049087008460078032801D102200870FD
:103560004C48007801282FDD4948007800F0C3005E
:10357000C3280ED148480088FA280AD14748007865
:1035800038B9012045490870002045490880424962
:1035900008803F48007800F0C300C02805D13F48AC
:1035A000007810B900203C4908803C48007820B1E0
:1035B0003B480088401C3A49088039480088B428B4
:1035C00002DB012030490870BDE8F08710B5012109
:1035D000264802F0CEFB20B30121244802F0DAFB9A
:1035E0003048007878B93048007864280BDA2348EE
:1035F000408821492C4A127821F812002A48007884
:10360000401C2949087028480078642805D1012009
:1036100024490870002024490870FFF753FFFEF783
:1036200080FC10BD10B50121114802F0A2FB00285A
:1036300078D001210E4802F0ADFB1C4800883228EA
:1036400038D10021400702F0CBF819480088401C0F
:103650001749088008460088C82863D1002013490C
:103660000880134908805DE0000801400008004020
:10367000002C014000040040200F00201E0200200A
:1036800066660A40DC020020050000203333D33F89
:103690002C020020320200202E0200202A020020EC
:1036A00030020020290200202802002038020020D9
:1036B0003A0200201C480088C0B91C480088401C01
:1036C0001A4908800846008802282BD1184800882B
:1036D000401C174908800020144908800120124925
:1036E00008800021800702F07BF81BE00F4800886B
:1036F000401C0E490880084600880A2812D10D484F
:103700000088401C0B4908800020084908800649B1
:1037100008800121880702F063F807480088401CF0
:103720000549088010BD0000340200203602002048
:103730003C0200203E0200203802002000B587B085
:103740000121080501F0C1F90121102001F0B0F9B3
:103750004FF48050ADF8180018208DF81B0003209E
:103760008DF81A0006A9984800F0E6FE0420ADF88E
:1037700018008DF81B0006A9944800F0DDFE94485F
:1037800001F0FAF94FF4E13002900020ADF80C009E
:10379000ADF80E00ADF81000ADF814000C20ADF837
:1037A000120002A98A4801F02AFA40F225518848FD
:1037B00001F0CCFB012240F22551854801F0B7FA17
:1037C00035208DF8040002208DF8050003208DF8C7
:1037D000060001208DF8070001A800F0E4FD01219A
:1037E0007B4801F098FA07B000BD70B504460D465D
:1037F0002946204601F0FCFA00BF8021204601F056
:1038000065FB0028F9D070BD2DE9F04107460D4653
:103810001646002400BF295D3846FFF7E6FF641C0A
:10382000B442F8D3BDE8F08170B506460C460025D9
:1038300000BF615D3046FFF7D8FF6D1C605D00285A
:10384000F7D170BD10B504461D2262496048FFF7EC
:10385000DBFF642000F01DF905225F495C48FFF79B
:10386000D3FF642000F015F910BD10B54FF47A7045
:1038700000F00FF91B2257495548FFF7C5FF642098
:1038800000F007F9062255495148FFF7BDFF002017
:103890005349086010BD10B501214D4801F016FBD9
:1038A00030B14B4801F0A8FA0121494801F01BFB57
:1038B0000821474801F00AFB30B1454801F09CFA65
:1038C0000821434801F00FFB0221414801F0FEFAB4
:1038D00030B13F4801F090FA02213D4801F003FB6E
:1038E00040F225513A4801F007FB08B3202138483F
:1038F00001F0F9FA40F22551354801F027FB344830
:1039000001F07AFAC1B2374802680068401C354BB2
:10391000186035488154012034490860002034493A
:10392000086018460068632802D100201946086024
:1039300010BDF0B5B3B02F480068002841D0C821B1
:1039400001A803F002F927480068C82802D9B4206A
:103950002449086023482449026801A803F0DCF8E0
:103960006421214803F0F1F8002022490860204931
:1039700008601C49086000251FA101A803F0FCF89D
:1039800004462CB104F10B0003F024F91D49086032
:1039900000241DA101A803F0EFF8044684B104F14E
:1039A000090004F095FC064603F094FB054619490E
:1039B000284603F01CF9064603F016FB0849086088
:1039C00000BF33B0F0BD0000001001400014014002
:1039D0000050004048020020660200207A020020C9
:1039E000440200209C020020E80F002094020020E6
:1039F0009802002090020020507265737375726502
:103A0000203D200040020020486569676874203D21
:103A1000200000000000204110B56FF0040000F00D
:103A20000CFD2E4800682E49B0FBF1F02D490870BE
:103A30000846007800EB4001C1EBC0104FF6FF7163
:103A400001EAC0002849088010BD0146254A1278C5
:103A50004A434FF0E0235A6100229A611A461269E4
:103A600042F001021A6100BF4FF0E022106900F03D
:103A700001021AB100F48032002AF5D04FF0E022A2
:103A8000126922F001024FF0E0231A6100229A61CC
:103A900070470146144A12884A434FF0E0235A61A6
:103AA00000229A611A46126942F001021A6100BFAF
:103AB0004FF0E022106900F001021AB100F48032E8
:103AC000002AF5D04FF0E022126922F001024FF0F7
:103AD000E0231A6100229A617047000098000020DC
:103AE00000127A00A0020020A202002008B54FF4C4
:103AF000A06000F053FC17208DF8000000208DF826
:103B0000010001208DF802008DF80300684600F0E6
:103B10004AFC17208DF80000684600F044FC28207D
:103B20008DF80000684600F03EFC28208DF800006B
:103B3000684600F038FC0A208DF80000684600F066
:103B400032FC08BD1FB501211C2000F0B1FFC020D0
:103B5000ADF80C0048208DF80F0003A9914800F043
:103B6000EBFC4FF44040ADF80C0048208DF80F00FE
:103B700003A98D4800F0E0FC49F21200ADF80C00FA
:103B800048208DF80F0003A9884800F0D5FC4FF4B9
:103B9000C070ADF80C0048208DF80F0003A98148D3
:103BA00000F0CAFC0121084600F082FF0421002039
:103BB00000F0D8FD0621022000F0D4FD07210220EC
:103BC00000F0D0FD0C21002000F0CCFD0E210120E2
:103BD00000F0C8FD0F21012000F0C4FD4DF2D2001D
:103BE000019000208DF808000C208DF809000120BC
:103BF0008DF80A0001A802F031FC07208DF80000C2
:103C000001208DF801008DF802008DF80300684650
:103C100000F0C9FB0A208DF8000001208DF801009A
:103C20008DF802008DF80300684600F0BCFB1720F9
:103C30008DF8000002208DF8010005208DF80200AB
:103C400001208DF80300684600F0ADFB28208DF8B8
:103C5000000001208DF8010007208DF802000120EE
:103C60008DF80300684600F09EFB1FBD0EB50121D4
:103C70001D2000F01DFFFFF739FF8020ADF8080080
:103C800004208DF80B0002A9464800F055FC802066
:103C9000009000208DF804000C208DF80500012014
:103CA0008DF80600684602F0D9FB4020ADF8080008
:103CB00004208DF80B0002A93A4800F03DFC40209A
:103CC000009000208DF804000C208DF805000120E4
:103CD0008DF80600684602F0C1FB4FF48040ADF855
:103CE000080004208DF80B0002A92F4800F024FCE6
:103CF0004FF48040009000208DF804000C208DF8D7
:103D0000050001208DF80600684602F0A7FB4FF47D
:103D10000040ADF8080004208DF80B0002A92248ED
:103D200000F00AFC4FF48050ADF8080004208DF834
:103D30000B0002A91D4800F0FFFB4FF480500090DB
:103D400000208DF804000C208DF8050001208DF86E
:103D50000600684602F082FB1020ADF8080004203F
:103D60008DF80B0002A9114800F0E6FB102000902E
:103D700000208DF804000C208DF8050001208DF83E
:103D80000600684602F06AFB0EBD70B504460D469B
:103D90002946204600F063FC08B9012070BD0020D0
:103DA000FCE7000000100140000C01400008014049
:103DB00008B501211D2000F07BFE0121304800F0F4
:103DC0008CFC0820ADF8000010208DF803000320C3
:103DD0008DF8020069462B4800F0AEFB1020ADF8CC
:103DE00000006946274800F0A7FB10208DF803006B
:103DF0000001ADF800006946234800F09DFB4FF438
:103E00000070ADF8000069461F4800F095FB4FF4C4
:103E10008070ADF8000069461C4800F08DFB4FF43F
:103E20000060ADF800006946184800F085FB0220EC
:103E3000ADF800006946154800F07EFB10201149DE
:103E4000143108600820086040010F4948614100B2
:103E50000D4800F01EFC4FF480710C4800F019FC76
:103E60004FF40061094800F014FC0221074800F0FB
:103E700012FC08BD1022034B10331A60704700007B
:103E800000023000000C0140001001400008014019
:103E900008B50121042000F00BFE4FF40070ADF8CE
:103EA000000003208DF8020018208DF803006946F9
:103EB000C24800F041FB4FF48060ADF800000420E0
:103EC0008DF803006946BD4800F036FB08BD08B513
:103ED00025208DF8000003208DF801008DF80200E8
:103EE00001208DF80300684600F05DFA08BD00B5BA
:103EF0008BB0B34802F07AF9B2480090B248019012
:103F0000002002904FF4FA7003900020049080206B
:103F1000059000200690079008904FF4805009907B
:103F200000200A906946A64802F002FA0121A4483E
:103F300002F029FA0BB000BD00B58BB0A0481438D0
:103F400002F054F99F480090A04801901020029080
:103F50004FF47A7003900020049080200590002098
:103F60000690079008904FF48050099000200A9026
:103F700069469348143802F0DBF90121904814385F
:103F800002F001FA0BB000BD70B505460E460024E4
:103F90000EE000BF40218B48001F00F097FF002873
:103FA000F8D0295D8748001F00F022FF601CC4B2D2
:103FB000B442EEDB00BF40218248001F00F086FFC4
:103FC0000028F8D070BD0146092903DC01F130005A
:103FD000C0B270470F2903DC01F13700C0B2F8E727
:103FE0000020F6E730B587B004461C2278496846C1
:103FF00002F092FD04F13000C0B28DF808000020FC
:104000008DF80A008DF80B00012012E09DF80A10CF
:104010001DF8002081EA22118DF80A109DF80B107E
:104020001DF8002002F00F0251408DF80B10411CCA
:10403000C8B20928EADB9DF80A00FFF7C4FF8DF833
:104040000A009DF80B00FFF7BEFF8DF80B006846D5
:1040500002F0B0FDC5B229466846FFF795FF07B0EC
:1040600030BD1FB504460121880300F021FD012168
:10407000084600F010FD00940020ADF80400ADF8F3
:104080000600ADF80800ADF80C000C20ADF80A00F1
:1040900069464C48001F00F0B2FDFFF7F9FEFFF73C
:1040A00016FF012240F224414648001F00F03FFE67
:1040B000012240214348001F00F05EFE01214148DB
:1040C000001F00F028FEFFF712FF0320FFF78AFF12
:1040D0001FBD10B5002240213A48001F00F04CFEE1
:1040E0000021374802F04FF94FF4FA71344802F0DA
:1040F0005FF90121324802F046F90122402131489E
:10410000001F00F039FE10BD10B5002280212D489F
:10411000001F00F031FE00212948143802F033F965
:104120004FF47A712648143802F042F901212448EC
:10413000143802F028F9012280212248001F00F0E3
:104140001BFE10BD10B540F224411E48001F00F0B8
:10415000D3FE90B340F224411A48001F00F0F6FE4F
:104160001848001F00F048FE154802F023F9C0F57A
:10417000FA701849088014491448FDF743FE0120DD
:1041800015490870002405E00F48005D13490855E3
:10419000601C84B20C48005D38B10B48005D0D28EE
:1041A00003D00948005D0A28EED1FFF792FF4FF4D3
:1041B000FA71054802F0C9FC00BF10BD00080140BB
:1041C00058000240043801404C10002040120020EA
:1041D00008830008A4020020A8020020281600205E
:1041E00008B50121082000F063FC4FF40050ADF841
:1041F000000010208DF8030003208DF802006946AE
:10420000154800F099F94FF40051134800F041FAB5
:104210000220ADF8000010208DF8030003208DF877
:10422000020069460C4800F087F902210A4800F0B4
:1042300030FA0121102000F03BFC0220ADF8000014
:1042400010208DF8030003208DF802006946034812
:1042500000F072F908BD0000000C014000100140A0
:104260002DE9F04705460F461646A5F100694FEACD
:10427000D9284FF0006000EBC82AB5F1006F04D3D5
:1042800005EB46003749884201D3BDE8F08702F0CC
:1042900084F9504602F0C6F9002407E037F81410FC
:1042A00005EB440002F0C1FA601C84B2B442F5DBB5
:1042B00002F07FF900BFE8E701460888704730B593
:1042C00003460C461546002207E003EB4200FFF7C9
:1042D000F3FF24F81200501C82B2AA42F5DB30BD75
:1042E00010B54FF4FA71204802F02FFC84221F49C8
:1042F0001D4802F011FC1C4880301D490A684260CC
:104300004A68826009898181FA2217491948FFF7B2
:10431000A7FF10BD10B54FF4FA71134802F015FC59
:10432000FA2211491348FFF7CAFF84220E490F48A9
:1043300002F0F2FB0E490C48803042680A60826845
:104340004A6080890881002008E00949095CFF294A
:1043500002D10121064A1154411CC8B20A28F4DBDB
:1043600010BD0000000008081A1700208C1600205D
:1043700010170020006003080648804706480047E1
:10438000FEE7FEE7FEE7FEE7FEE7FEE7FEE7FEE705
:10439000FEE7FEE73B100008310100083149014308
:1043A000314A1160704770B5002100230F22C47894
:1043B00004B32D4C246804F4E064C4F5E064210ADD
:1043C000C1F10403CA40447804FA03F1847814402C
:1043D00021430901254C0678A155047804F01F05F6
:1043E0000124AC4005786D11AD0005F1E025C5F85C
:1043F000004109E0047804F01F050124AC401C4D85
:104400000678761145F8264070BD1A4A0A400243E4
:10441000154B1B1F1A60704739B1134A121D1268E1
:104420000243114B1B1D1A6006E00F4A121D126851
:1044300082430D4B1B1D1A607047042808D14FF0B2
:10444000E021096941F004014FF0E022116107E029
:104450004FF0E021096921F004014FF0E0221161E1
:10446000704700000000FA050CED00E000E400E0F9
:1044700080E100E080FFFF1F10B50446CC48844275
:1044800008D10121042000F02DFB0021042000F0C0
:1044900029FB46E0C748844208D10121082000F0EA
:1044A00021FB0021082000F01DFB3AE0C2488442B5
:1044B00008D10121102000F015FB0021102000F090
:1044C00011FB2EE0BD48844208D10121202000F0DC
:1044D00009FB0021202000F005FB22E0B8488442BF
:1044E00008D10121402000F0FDFA0021402000F019
:1044F000F9FA16E0B348844208D10121802000F087
:10450000F1FA0021802000F0EDFA0AE0AE48844282
:1045100007D10121801500F0E5FA0021A01500F077
:10452000E1FA10BD10B50121084600F0DBFA0021C8
:10453000012000F0D7FA10BD2DE9F0410246002518
:104540000026002000230024002791F803C00CF06F
:104550000F0591F803C00CF0100CBCF1000F03D054
:1045600091F802C04CEA050591F800C0BCF1000FBB
:1045700031D0146800202BE04FF0010C0CFA00F34E
:10458000B1F800C00CEA03069E4220D183004FF030
:104590000F0C0CFA03F7BC4305FA03FC4CEA0404C5
:1045A00091F803C0BCF1280F06D14FF0010C0CFAB2
:1045B00000FCC2F814C00AE091F803C0BCF1480F37
:1045C00005D14FF0010C0CFA00FCC2F810C0401CE1
:1045D0000828D1D31460B1F800C0BCF1FF0F34DD5E
:1045E000546800202EE000F1080C4FF0010808FA92
:1045F0000CF3B1F800C00CEA03069E4221D18300FF
:104600004FF00F0C0CFA03F7BC4305FA03FC4CEA1D
:10461000040491F803C0BCF1280F05D100F1080C87
:1046200008FA0CF8C2F8148091F803C0BCF1480FE6
:1046300007D100F1080C4FF0010808FA0CF8C2F895
:104640001080401C0828CED35460BDE8F0814FF69E
:10465000FF710180022181700421C1707047024600
:10466000002093680B400BB1012000E00020704750
:104670000146886880B2704702460020D3680B402C
:104680000BB1012000E0002070470146C86880B2ED
:10469000704701617047416170470AB1016100E0F4
:1046A00041617047C16070474FF480320A438261B4
:1046B0008161826182698269704702460020434BB2
:1046C00018684FF68073184040EA021008433F4BC9
:1046D000186070473E49C8617047F0B50A4600232C
:1046E00000240021002500F00046B6F1004F02D161
:1046F000364EF16901E0354E7168C0F3034583B26F
:1047000000F44016B6F5401F08D121F070612F4E1D
:10471000766826F070662D4F7E6012E000F48016F9
:10472000B6F5801F06D1032606FA05F4A14341F031
:10473000706106E0460D360103FA06F6B14341F01A
:10474000706122B1460D360103FA06F6314300F0DE
:104750000046B6F1004F02D11C4EF16101E01B4E44
:104760007160F0BD30B500228B071C0F0F2303FAD8
:1047700004F2164B08338C1053F824309343134C37
:1047800008348D1044F8253023468C1053F824301B
:104790008C07240F00FA04F423430C4C08348D10CA
:1047A00044F8253030BD0A49DC310860704700000C
:1047B00000080140000C01400010014000140140BD
:1047C00000180140001C0140002001400000014091
:1047D00000002042DF48006840F00100DD49086029
:1047E00008464068DC490840DA49486008460068E5
:1047F000DA490840D74908600846006820F480205C
:1048000008600846406820F4FE0048604FF41F002E
:1048100088607047CF49096821F48031CD4A116022
:104820001146096821F480211160B0F5803F03D062
:10483000B0F5802F0ED106E0C649096841F48031F9
:10484000C44A116007E0C349096841F4A021C14A84
:10485000116000E000BF00BF704710B501460022A4
:10486000002300204A11012A02D1BA4C236806E035
:10487000022A02D1B74C236A01E0B64C636A01F008
:104880001F02012494401C400CB1012000E00020D4
:1048900010BD38B5002000900024002500BF312055
:1048A000FFF7DBFF05460098401C00900098B0F52C
:1048B000A06F01D0002DF2D03120FFF7CEFF08B15C
:1048C000012400E00024204638BD01460020A14A12
:1048D000106820F0F80040EAC10010607047A0495D
:1048E00008607047024600209A4B586820F47C10FC
:1048F00042EA01031843974B58607047984908668D
:10490000704701460020934A506820F00300084396
:10491000506070478F48406800F00C0070470146B7
:1049200000208C4A506820F0F00008435060704727
:1049300001460020874A506820F4E0600843506038
:10494000704701460020834A506820F4605040EAD6
:10495000C1005060704729B17E4A527A02437D4BB4
:104960005A7204E07B4A527A82437A4B5A727047F9
:104970007B49D8310860704701460020754A50686D
:1049800020F440400843506070470021714A2032B3
:104990001170704A82F82010012802D004280AD130
:1049A00004E001216B4A2032117005E00521694ABB
:1049B0002032117000E000BF00BF704769490860F5
:1049C00070476449096A0143624A11627047654948
:1049D00044390860704730B50021002200240023CC
:1049E0005C4D6D6805F00C0121B1042905D0082942
:1049F00023D105E05C4D056022E05B4D05601FE0C2
:104A0000544D6D6805F47012524D6D6805F4803494
:104A1000022505EB92421CB9544D554305600BE04D
:104A20004C4D6D6805F400351DB1504D5543056082
:104A300002E04D4D5543056002E04B4D056000BF5F
:104A400000BF444D6D6805F0F0010909484D6B5CED
:104A50000568DD4045603F4D6D6805F4E061090A79
:104A6000434D6B5C4568DD4085603A4D6D6805F4EB
:104A70006051C90A3E4D6B5C4568DD40C560354DEF
:104A80006D6805F44041890B3A4D6B5CC568B5FB18
:104A9000F3F5056130BD29B12E4A526902432D4B11
:104AA0005A6104E02B4A526982432A4B5A6170478B
:104AB00029B1284A92690243264B9A6104E0254AAB
:104AC00092698243234B9A61704729B1214AD26986
:104AD0000243204BDA6104E01E4AD26982431D4B37
:104AE000DA61704729B11B4AD2680243194BDA6078
:104AF00004E0184AD2688243164BDA60704729B145
:104B0000144A12690243134B1A6104E0114A1269F4
:104B10008243104B1A617047124940390860704750
:104B20000F49C86470470B49C87170470948406A0B
:104B300040F0807007494862704701460020054AEE
:104B400092680A400AB1012000E000207047014944
:104B500088727047001002400000FFF8FFFFF6FE69
:104B6000000042428004424200127A0000093D00E7
:104B7000A9020020B902002010B50446FB48844277
:104B800009D101218803FFF7ADFF00214FF48040D8
:104B9000FFF7A8FF32E0F648844209D1012148041A
:104BA000FFF7ADFF00214FF40030FFF7A8FF25E02D
:104BB000F048844209D101218804FFF7A0FF0021B9
:104BC0004FF48020FFF79BFF18E0EB48844209D1A7
:104BD0000121C804FFF793FF00214FF40020FFF7E5
:104BE0008EFF0BE0E548844208D101210805FFF75C
:104BF00086FF00214FF48010FFF781FF10BD2DE9E3
:104C0000F04786B005460E460024A24600BFA146E6
:104C10000027B08900B100BF2F462C8A4CF6FF70E8
:104C20000440F08804432C82AC894EF6F310044013
:104C3000B08831890843718908430443AC81AC8A48
:104C40004FF6FF400440B0890443AC8201A8FFF74F
:104C5000C2FEC648874202D1DDF810A001E0DDF8AF
:104C60000CA0A88900F4004040B10AEBCA0000EB98
:104C70000A1031684900B0FBF1F807E00AEBCA00FE
:104C800000EB0A1031688900B0FBF1F86420B8FB32
:104C9000F0F004012009642101FB1089A88900F4C7
:104CA000004040B1322000EBC900B0FBF1F000F051
:104CB0000700044308E0322000EB09106421B0FB38
:104CC000F1F000F00F0004432C8106B0BDE8F0873E
:104CD0004FF41651016000218180C18001810C21B7
:104CE000418100218181704710B502460020108A61
:104CF0004FF2FF0318400B884C8823438C882343D2
:104D0000CC8823431843108210BD002101804180CC
:104D10008180C180704721B1828942F40052828132
:104D200004E082894DF6FF731A4082817047F0B526
:104D30000346002400260025002040F66A17B942E9
:104D400000D100BF1846C1F3421401F01F0601272D
:104D500007FA06F5012C01D10C3004E0022C01D138
:104D6000103000E014301AB107682F43076002E0EA
:104D70000768AF430760F0BD1AB1838A0B43838293
:104D800002E0838A8B4383827047028A4FF6F07376
:104D90001A400282028A0A430282704782894FF2D5
:104DA000FF731A40828182890A438281704721B150
:104DB000828942F00202828104E082894FF6FD730B
:104DC0001A4082817047028A4FF6DF731A400282CE
:104DD000028A0A430282704721B1028A42F4804269
:104DE000028204E0028A4BF6FF731A400282704787
:104DF000C1F308028280704701468888C0F308002A
:104E00007047818941F0010181817047028BD2B2E4
:104E10000283028B42EA012202837047028B02F472
:104E20007F420283028B0A430283704721B1828A48
:104E300042F02002828204E0828A4FF6DF731A4039
:104E40008282704721B1828A42F01002828204E09D
:104E5000828A4FF6EF731A408282704721B1828AAC
:104E600042F00802828204E0828A4FF6F7731A4009
:104E70008282704721B1828942F40042828103E03C
:104E80008289C2F30E028281704721B1828A42F484
:104E90000062828204E0828A4FF2FF731A408282AB
:104EA0007047828A4FF6FB731A408282828A0A43D5
:104EB0008282704721B1828A42F00202828204E03B
:104EC000828A4FF6FD731A408282704702460020A4
:104ED000B1F5007F00D100BF13880B400BB101205A
:104EE00000E00020704701F40072B2F5007F00D1AD
:104EF00000BFCA430280704770B5024600240023F9
:104F00000025002040F66A16B14200D100BFC1F36F
:104F1000421501F01F03012606FA03F3012D02D109
:104F20009689334006E0022D02D1168A334001E013
:104F3000968A33400C12012606FA04F4168834408F
:104F400013B10CB1012000E0002070BD10B50022AB
:104F5000002340F66A14A14200D100BF0A120124C6
:104F60009440A3B2DC43048010BD0000003801402F
:104F70000044004000480040004C00400050004009
:104F800010B50446FE48844208D10121C014FFF741
:104F9000A9FD0021E014FFF7A5FDC4E0B4F1804FA6
:104FA00008D101210846FFF7AAFD00210120FFF7E3
:104FB000A6FDB8E0F348844208D101210220FFF7A2
:104FC0009EFD00210220FFF79AFDACE0EE488442EE
:104FD00008D101210420FFF792FD00210420FFF7F2
:104FE0008EFDA0E0E948844208D101210820FFF7A6
:104FF00086FD00210820FFF782FD94E0E44884420A
:1050000008D101211020FFF77AFD00211020FFF7C1
:1050100076FD88E0DF48844208D101212020FFF797
:105020006EFD00212020FFF76AFD7CE0DA48844213
:1050300008D101214014FFF755FD00216014FFF74E
:1050400051FD70E0D548844209D10121C804FFF721
:1050500049FD00214FF40020FFF744FD63E0D048F4
:10506000844209D101210805FFF73CFD00214FF4DE
:105070008010FFF737FD56E0CA48844209D101216C
:105080004805FFF72FFD00214FF40010FFF72AFD20
:1050900049E0C548844208D101214020FFF72FFD97
:1050A00000214020FFF72BFD3DE0C048844208D19D
:1050B00001218020FFF723FD00218020FFF71FFD45
:1050C00031E0BB48844208D101218015FFF717FD6C
:1050D0000021A015FFF713FD25E0B648844209D151
:1050E00001210804FFF7FEFC00214FF48030FFF798
:1050F000F9FC18E0B048844209D101214804FFF7C7
:10510000F1FC00214FF40030FFF7ECFC0BE0AB4862
:10511000844208D101218804FFF7E4FC00214FF408
:105120008020FFF7DFFC10BD00220288944B9842DC
:105130000ED0994B98420BD0B0F1804F08D0914BD4
:10514000984205D0904B984202D0904B984204D19F
:105150004FF68F731A404B881A438D4B984207D0F5
:105160008C4B984204D04FF6FF431A40CB881A4329
:1051700002808B8883850B880385814B98420BD0F6
:10518000854B984208D08B4B984205D08A4B984269
:1051900002D08A4B984201D10B7A03860123838285
:1051A000704770B5002400220023058C4FF6FE7670
:1051B00035400584028C8388048B4FF68F752C4014
:1051C000B51E2C400D882C43751E2A400D892A439C
:1051D0004D882A436A4DA8420BD06F4DA84208D093
:1051E000744DA84205D0744DA84202D0734DA84218
:1051F00013D14FF6F7752A404D892A434FF6FB75B8
:105200002A408D882A434FF6FF652B404FF6FF5505
:105210002B408D892B43CD892B4383800483CD88FC
:105220008586028470BD70B5002400220023058CA1
:105230004FF6EF7635400584028C8388048B48F660
:10524000FF752C404FF6FF452C400D884FF6FF763A
:1052500006EA05252C434FF6DF752A400D8906EA3C
:1052600005152A434D8806EA05152A43444DA842F0
:1052700002D0494DA8421DD14FF67F752A404D8975
:105280004FF6FF7606EA05152A434FF6BF752A400A
:105290008D8806EA05152A434FF6FF352B404FF25D
:1052A000FF752B408D8906EA85052B43CD8906EADB
:1052B00085052B4383800483CD880587028470BDD8
:1052C00070B5002400220023058C4FF6FF663540A0
:1052D0000584028C8388848B4FF68F752C404FF6A3
:1052E000FC752C400D882C434FF6FF552A400D8944
:1052F0004FF6FF7606EA05252A434D8806EA05257E
:105300002A431F4DA84202D0234DA8421DD14FF27F
:10531000FF752A404D894FF6FF7606EA05252A4398
:105320004FF6FF352A408D8806EA05252A434EF6BA
:10533000FF752B404DF6FF752B408D8906EA05154C
:105340002B43CD8906EA05152B4383808483CD88C2
:105350008587028470BD70B5002200230024058C6F
:105360004EF6FF7635400584038C8488828B48F6A0
:10537000FF752A404FF6FF452A400D8820E00000C7
:10538000002C01400004004000080040000C0040D8
:10539000001000400014004000340140004C014067
:1053A000005001400054014000180040001C004023
:1053B00000200040004001400044014000480140FE
:1053C0004FF6FF7606EA05252A434DF6FF752B407A
:1053D0000D8906EA05352B434D8806EA05352B4332
:1053E000FA4DA84202D0FA4DA84208D14BF6FF75FB
:1053F0002C408D894FF6FF7606EA85152C43848074
:105400008283CD88A0F84050038470BD828B4FF218
:10541000FF331A408283828B4FF6FF7303EA012326
:105420001A4382837047F0B50C46154600220021CE
:105430000026078C4EF6FF7C07EA0C070784828B58
:10544000018C4FF6FF7707EA043640F6FF473A40F3
:105450004FF6FF7707EA05273A434FF6FF7707EA4B
:1054600003373A43D94FB8420ED0D94FB8420BD088
:10547000B0F1804F08D0D74FB84205D0D64FB842D0
:1054800002D0D64FB84206D14DF6FF77394046F4E8
:105490008057394305E047F6FF57394044F48057B9
:1054A000394382830184F0BD828B4FF6F3731A4037
:1054B0008283828B0A4382837047F0B50C4615467F
:1054C000002200210026078C4FF6FF6C07EA0C072C
:1054D0000784828B018C4FF6FF7707EA04264FF68C
:1054E0000C773A404FF6FF7707EA03172F433A430A
:1054F000B64FB8420ED0B64FB8420BD0B0F1804F85
:1055000008D0B44FB84205D0B34FB84202D0B34F21
:10551000B84206D14FF6FF57394046F480773943F9
:1055200005E04FF2FF57394044F4807739438283D6
:105530000184F0BD028B4FF2FF331A400283028BCD
:105540004FF6FF7303EA01231A4302837047F0B555
:105550000C461546002200210026078C4FF6EF7CF2
:1055600007EA0C070784028B018C4FF6FF7707EAE6
:10557000041640F6FF473A404FF6FF7707EA033735
:105580003A434FF6FF7707EA05273A438F4FB84271
:105590000ED08F4FB8420BD0B0F1804F08D08D4F56
:1055A000B84205D08C4FB84202D08C4FB84206D1D9
:1055B0004FF6DF77394046F01007394305E04FF6E4
:1055C0005F77394044F01007394302830184F0BD0E
:1055D000028B4FF6F3731A400283028B0A43028355
:1055E0007047F0B50C46154600220021068C4FF698
:1055F000FE773E400684028B018C4FF60C763240DB
:105600007E1C06EA03162E433243704EB0420ED083
:105610006F4EB0420BD0B0F1804F08D06D4EB0420B
:1056200005D06D4EB04202D06C4EB04206D14FF65E
:10563000FD76314044F00106314305E04FF6F57642
:10564000314044F00106314302830184F0BD70B55E
:1056500005460C465D4885420ED05D4885420BD01C
:10566000B5F1804F08D05B48854205D05A48854245
:1056700002D05A48854200D100E000BF208850B9CE
:105680002389A28861882846FFF7ABFFE188284676
:10569000FFF79EFF25E0208804280AD12389A288ED
:1056A00061882846FFF753FFE1882846FFF742FF4D
:1056B00017E0208808280AD12389A2886188284613
:1056C000FFF7FBFEE1882846FFF7EEFE09E023899D
:1056D000A28861882846FFF7A6FEE1882846FFF7E2
:1056E00095FE70BD2DE9F04105460C4600260127C8
:1056F000608808B9022600E00026A088012801D1B0
:10570000022700E001272088A0B92389A2886188A8
:105710002846FFF766FFE1882846FFF759FF2389EF
:105720003A4631462846FFF712FFE1882846FFF740
:1057300001FF13E02389A28861882846FFF707FF4D
:10574000E1882846FFF7F6FE23893A463146284687
:10575000FFF747FFE1882846FFF73AFFBDE8F081F1
:105760000A884B881A438B881A43CB881A430B89C3
:105770001A434B891A438B891A43A0F84420704777
:105780004FF6FF71818000210180C180418001724C
:1057900070470021018041808180C1800181418169
:1057A0008181C18170470021018041800121818078
:1057B0000021C180018170470021018041808180EA
:1057C000C18001814181818170470000002C01402E
:1057D000003401400004004000080040000C00407C
:1057E00021B1028842F00102028004E002884FF6F3
:1057F000FE731A400280704731B1B0F8442042F481
:105800000042A0F8442005E0B0F84420C2F30E02A4
:10581000A0F8442070471AB183890B43838102E0CA
:1058200083898B43838170478182704741EA0203F9
:10583000A0F8483070471AB183890B43838102E096
:1058400083898B438381704701894FF6F872114039
:10585000018170470A46002101894FF68F73194074
:1058600011430181704730B504460D462946204654
:10587000FFF7F0FF208940F00700208130BD2DE9BF
:10588000F04104460D4616461F46602D06D13B46A4
:10589000012231462046FFF75AFE05E03B46012231
:1058A00031462046FFF79DFE29462046FFF7D2FFEE
:1058B000208940F007002081BDE8F08130B50C461A
:1058C00000210189C9B24FF6FF7505EA032515438A
:1058D00025432943018130BD2DE9F04105460E469F
:1058E00017469846002443463A4631462846FFF775
:1058F000E5FF2C894FF6F870044044F007044FF69A
:105900008F70044044F070042C81BDE8F081F0B544
:1059100004460D4616461F463B463246294620465B
:10592000FFF7CCFF208940F480402081F0BD018545
:10593000828270470A46002101884FF68F73194012
:10594000114301807047F0B50C4615461E460021F4
:10595000002200230189028B038C4FF6F87739402F
:1059600021434FF6FC473A4040F201173A434FF6C5
:10597000DD773B404FF6FF7707EA06172F433B439F
:10598000018102830384F0BD0A460021018B4FF69A
:105990008F7319401143018370470A460021018B20
:1059A00048F6FF7319404FF6FF7303EA02231943C9
:1059B000018370470A460021818B4FF68F7319408F
:1059C0001143818370470A460021818B48F6FF739B
:1059D00019404FF6FF7303EA02231943818370478E
:1059E00021B1028842F08002028004E002884FF672
:1059F0007F731A400280704721B1828842F004020E
:105A0000828004E082884FF6FB731A4082807047E0
:105A100021B1828842F00802828004E082884FF639
:105A2000F7731A408280704721B1828842F00102E8
:105A3000828004E082884FF6FE731A4082807047AD
:105A40000A460021018B4FF6F77319401143018379
:105A500070470A460021018B4FF2FF7319404FF641
:105A6000FF7303EA02231943018370470A460021AA
:105A7000818B4FF6F77319401143818370470A46B3
:105A80000021818B4FF2FF7319404FF6FF7303EA39
:105A900002231943818370470A460021018B4FF688
:105AA000FB7319401143018370470A460021018BA3
:105AB0004FF6FF3319404FF6FF7303EA02231943F1
:105AC000018370470A460021818B4FF6FB73194012
:105AD0001143818370470A460021818B4FF6FF33C3
