:020000040800F2
:10000000C81300205D3300087D0400087F04000849
:1000100083040008870400088B0400080000000027
:100020000000000000000000000000008F04000835
:1000300091040008000000009304000895040008E3
:1000400077330008773300087733000877330008E8
:10005000773300087733000877330008EB06000891
:100060007733000877330008430700087733000828
:1000700077330008773300087733000877330008B8
:1000800077330008773300087733000877330008A8
:1000900077330008773300087733000897050008A6
:1000A0007733000877330008773300087733000888
:1000B0007733000891070008E3240008773300082D
:1000C0007733000877330008773300087733000868
:1000D00077330008EB310008970400087B280008FC
:1000E00037060008773300087733000877330008B5
:1000F0007733000877330008773300087733000838
:1001000077330008773300083B2500087733000871
:100110007733000877330008773300087733000817
:100120007733000877330008773300087733000807
:10013000DFF80CD006F09AF800480047F5020008F6
:10014000C813002010B54021B04802F0D8FEB049D5
:1001500048708021AD4802F0D2FEAD4988704FF45E
:100160008051AC4802F0CBFEA94948711021A94842
:1001700002F0C5FEA64988714021A44802F0BFFEE6
:10018000D8B9A5480078012817D11021A14802F05C
:10019000B6FE012811D1A148007870B1142002F0F8
:1001A00032FD80209E4908604020091F0860002021
:1001B0009949087001209B49087010BD10B59A48F4
:1001C0000078012816D100209749087097490860E7
:1001D0009748006897490860012097490860002007
:1001E00096490860924800689249086001F01AF840
:1001F00001F0BDFC9248007801280CD10020904904
:1002000008708D4908608D4908608A49086001F0CE
:1002100009F801F0ACFC10BD2DE9F04789480078E1
:10022000012858D102F0FFF8824605F0A6FD81466C
:100230004FF08B4105F0F1FC044605F0A3FD0746A5
:100240004FF06632804B05F026FD054605F0DEFDD9
:100250007E49486048684FF0804105F0ACFC064696
:1002600005F090FD04467A4A7A4B05F09FFD08D2CE
:100270004FF48070674914310860C000091F08609E
:1002800007E04FF48070634910310860C000091D19
:1002900008606E4948684FF0804105F08CFC0646C6
:1002A00005F070FD04466A4A6B4B05F07FFD0FD2E6
:1002B00001206A49087000F048FF01F058FCC8208E
:1002C00002F0A1FC4FF400515548143803F0D5F961
:1002D00000205C490870BDE8F0876148007801287B
:1002E00003D100024949086103E04FF48070474997
:1002F000486170475B4803F060FB5B4803F022F8FD
:1003000002F0DAFC02F00EFE00F00FFC02F03EFC00
:100310004FF4A06003F034F84FF4804140481438A3
:1003200002F0EDFD60B13C2002F06DFC4FF4804125
:100330003B48143802F0E3FD10B101204B4908702E
:1003400001F022F901F040FFC82002F05CFC02F04D
:1003500083FF02F05EF801F03BFD4FF400702B4983
:100360000861C82002F04FFC4FF400702749486133
:10037000FFF752FF1221632001F072FF1E214FF0A0
:10038000804004F0B7FC8021204802F0B8FD48B955
:1003900001203749087080202149091F086040204A
:1003A000091D086001F081FD4FF4FA7002F02BFC8A
:1003B0004FF4FA7002F027FC0120174908704FF43F
:1003C000165002F087FE0DE0FFF787FFFFF724FFCE
:1003D00001F018FC01F09FFDFFF7F0FE00F096FF22
:1003E000FFF7B0FEF0E710B52248007801280BD1E6
:1003F00000F018FF642002F006FC01F0B8FB0020BA
:100400001D4908601B49087010BD00000010014024
:100410003500002000080140E400002048000020D2
:10042000140C0140D9000020D8000020D00000208A
:10043000E8000020680000200800002018000020CC
:10044000DB0000203101002066660A408C0100209C
:100450009A99999999990D40999909400500002018
:10046000CC00002078010020880D0020050100202C
:10047000DA0000200400002000000020704700BFC8
:10048000FEE700BFFEE700BFFEE700BFFEE77047E4
:1004900070477047704710B50121FE4803F008FD12
:1004A00030B1FC4803F09AFC0121FA4803F00DFD3D
:1004B0000821F84803F0FCFC30B1F64803F08EFC4C
:1004C0000821F44803F001FD0221F24803F0F0FC9A
:1004D00030B1F04803F082FC0221EE4803F0F5FC55
:1004E00040F22551EB4803F0F9FC58B32021E948CC
:1004F00003F0EBFC40F22551E64803F019FD07211B
:10050000E44803F0D5FC08B1012400E00024D4B98C
:10051000E1480068C82816D2DE4803F05FFCC1B28B
:10052000DD4802680068401CDB4B186003F10900DD
:10053000815401201946087208460068C72805D171
:100540000020086002E0D34803F048FCD3A1D24861
:10055000093005F003FB40B18020D24908604020FB
:10056000091F08600120D0490870D0A1CA4809308D
:1005700005F0F4FA48B18020CA49091F08604020FC
:10058000091D08600120CB490870CBA1C248093081
:1005900005F0E4FA10BD10B5402004F0B7FFF8B143
:1005A0004021C74802F0ABFC012816D1BE480078B4
:1005B000012812D10020C34908800120C2490860E7
:1005C0000020B9490870C14908600120C04908707D
:1005D0008020B449086040200860402004F0A7FF54
:1005E000802004F093FF28B38021B54802F087FCF7
:1005F00001281CD1AF480078012818D10020B1494A
:100600000880AC490870B34908608020A54908609B
:10061000402008600020AC4908600120AE49087005
:10062000AE4908700020AE490860AE4908708020CD
:1006300004F07DFF10BD10B54FF4804004F066FF5C
:1006400030B34FF4804004F072FF4FF4804195487E
:10065000143802F054FC012804D1A3480068401C5F
:10066000A1490860A0480068022811D180208D4966
:10067000091F08604020091D086001209B4908608F
:100680000020914908609849086001208949087054
:100690004FF4805004F03AFF30B34FF4805004F030
:1006A00046FF93480088401C9149088040218448B7
:1006B00002F025FCC0B98B480078012814D1102124
:1006C0008C4802F01CFC01280ED18B48008858B1E0
:1006D0008020744908604020091F08600120724989
:1006E000087000207F49087010BD10B5022004F08A
:1006F0000DFF28B3022004F01AFF7D480088401C3B
:100700007B49088040216E4802F0F9FBC0B975486A
:100710000078012814D11021764802F0F0FB01285E
:100720000ED17548008858B180205E49086040208D
:10073000091F086001205C490870002069490870A1
:1007400010BD10B5102004F0E1FE00B340215C485C
:1007500002F0D5FBC0B963480078012814D11021FC
:10076000644802F0CCFB01280ED16348008858B1E0
:1007700080204C4908604020091F0860002059492A
:100780000870012048490870102004F0D0FE10BD08
:1007900010B50121594804F0DEFA002878D0012173
:1007A000564804F0E9FA5648007820B955480088C0
:1007B000401C5449088053480088FA2810D1002072
:1007C0005049088001204E4908704F480078401C6D
:1007D0004D49087008460078082801D101200870AA
:1007E0004A480088401C49490880084600880A2871
:1007F0000FD13F480088032803DD01203E490880CF
:1008000002E000203C4908800020394908803F4927
:10081000088032480078012804D131480068401C23
:100820002F4908602E480068B0F5617F08D100208C
:100830002A49087001202B490870002028490860C7
:100840004FF400411748143802F059FB012804D135
:100850002F480068401C2E4908602D480068C828B1
:1008600008D10220214908600120174908600020B2
:10087000274908601C480068012804D12548006801
:10088000401C244908602348006864284FD143E095
:10089000B8E0000000440040EC0B00203466333325
:1008A00033330000140C0140D900002035333334B9
:1008B00033340000DA0000203331333133310000AB
:1008C000001001404400002008000020D00000205B
:1008D000D8000020D4000020DB000020DC00002035
:1008E000E0000020E40000203C0000201800002070
:1008F000460000200008014048000020000400409D
:10090000520100204C000020510100204A0000202C
:10091000EC0000204000002000203B49086003203C
:100920003A49086000203A4908603A4908603A4864
:100930000078012804D139480068401C3749086014
:1009400036480068F0280FD10120314908600020A6
:100950003149087031490860012031490870802010
:1009600030490860402008602F480078012804D1F1
:100970002E480068401C2D4908602D4800882B49EE
:100980000968884203D229480088294908802848F4
:10099000008822490968884203D2204800882449F7
:1009A000088022480068F02816D100201E490870EF
:1009B0001E49086080201B49086040200860002014
:1009C0001349086001201B4908701B49087000206A
:1009D0001A4908601A4908700D480068012805D1B5
:1009E00018480068401C1749086002E000201549BB
:1009F000086014480068642804D113480068401C4B
:100A00001149086010BD00003C00002018000020C3
:100A10000800002040000020D9000020D000002065
:100A2000D8000020140C0140DA000020D40000207F
:100A300044000020DB000020DC000020E00000205B
:100A4000E40000200C000020E80000200CB500208D
:100A5000019000906C48006840F480306A4908605A
:100A600000BF6948006800F4003000900198401C05
:100A70000190009818B90198B0F5A06FF1D16248C3
:100A8000006800F4003010B10120009001E0002067
:100A900000900098012843D15C48006840F01000A5
:100AA0005A4908600846006820F0030008600846BC
:100AB000006840F0020008605348406852494860AE
:100AC0000846406848600846406840F480604860D6
:100AD0000846406820F47C1048600846406840F4AE
:100AE000E81048600846006840F08070086000BF69
:100AF0004548006800F000700028F9D0424840687E
:100B000020F00300404948600846406840F0020079
:100B1000486000BF3C48406800F00C000828F9D14C
:100B20000CBD10B5FFF792FF10BD10B53648006838
:100B300040F00100344908600846406834490840E4
:100B40003149486008460068324908402E4908602B
:100B50000846006820F4802008600846406820F4B9
:100B6000FE0048604FF41F008860FFF7DAFF4FF087
:100B700000602949086010BD10B500210020002246
:100B8000214B5B6803F00C0121B1042906D0082930
:100B900028D107E0214B224C236027E01F4B204C3B
:100BA000236023E0184B5B6803F47010164B5B68FE
:100BB00003F48032022303EB904022B9194B4343E4
:100BC000174C23600DE0104B5B6803F4003323B136
:100BD000144B4343124C236003E0104B4343104C2F
:100BE000236003E00D4B0E4C236000BF00BF064B9B
:100BF0005B68C3F303130C4CE15C094B1B68CB40EF
:100C0000074C236010BD000000100240002002408D
:100C10000000FFF8FFFFF6FE08ED00E000127A008A
:100C20005000002000093D005400002070B55A21FA
:100C3000FE4804F07CFF002412251CE0FC48405DC7
:100C400030280BDBFA48405D392807DC3320F749B0
:100C50000855F748415DF54A601C1154F448405D61
:100C60002E2806D13220F14908554521EF4A601C53
:100C70001154A41C6D1C1C2DE0DB3220EB490855DF
:100C80003021EA4A601C115470BD70B55A21E94800
:100C900004F04DFF00241F251CE0E548405D30288E
:100CA0000BDBE348405D392807DC3320E149085578
:100CB000DF48415DDF4A601C1154DD48405D2E284D
:100CC00006D13220DB4908554521DA4A601C11540F
:100CD000A41C6D1C2A2DE0DB3220D649085530219A
:100CE000D44A601C115470BD70B51421D24804F070
:100CF0001EFF3C21D14804F01AFFD149CE4804F030
:100D000021FFD0A1CC4804F01DFF002500241CE0E9
:100D1000C948005D30280BDBC748005D392807DC77
:100D20003320C6494855C448015DC44A681C115463
:100D3000C148005D202806D13220C04948553021E5
:100D4000BE4A681C1154AD1C641C142C05D23C2DE9
:100D500003D2B948005D0028DAD170BD2DE9F04119
:100D6000B94800210160416001811E21B74804F0AB
:100D7000DEFEB748006805F005F8064632460B4629
:100D8000B4A1B14805F0F0FAAEA1AF4804F0DAFE24
:100D90000024002532E0AC48405D30280BDBAA4837
:100DA000405D392807DC3320A8490855A648415D35
:100DB000A64A601C1154A448405D202806D1322068
:100DC000A24908553021A14A601C11549E48405D3B
:100DD0002D2806D132209D49085544219B4A601C8C
:100DE00011549948405D2E2806D132209749085564
:100DF0004521964A601C1154A41C6D1C9248405D0C
:100E00000028C8D1BDE8F08170B594480021016088
:100E1000416001811E21924804F089FE914892A10F
:100E200002688E4805F0A0FA86A18C4804F08AFE7C
:100E3000002500241CE08948005D30280BDB874832
:100E4000005D392807DC3320854948558348015D1A
:100E5000834A681C11548148005D202806D1322045
:100E60007F49485530217E4A681C1154AD1C641CD2
:100E70007A48005D0028DED170BD2DE9F0417B4845
:100E800000210160416001811E21794804F04FFE7C
:100E90007848006804F076FF064632460B4676A195
:100EA000724805F061FA67A1704804F04BFE002417
:100EB000002527E06D48405D30280BDB6B48405D26
:100EC000392807DC33206A4908556848415D684A7B
:100ED000601C11546548405D202806D132206449C9
:100EE00008553021624A601C11546048405D2E282C
:100EF00006D132205E49085545215D4A601C1154D7
:100F0000A41C6D1C5948405D0028D3D1BDE8F08178
:100F1000704710B55A480068524908604FF4806124
:100F2000584804F004FEFFF781FEFFF7AEFEFFF71E
:100F3000DBFEFFF713FFFFF767FFFFF7E9FF3F490E
:100F4000504804F0FFFD41494E4804F0FBFD4E4976
:100F50004C4804F0F7FD42494A4804F0F3FD4B4881
:100F6000006818B94A49474804F0ECFD4748006852
:100F7000012803D14749434804F0E4FD4348006891
:100F8000022803D144493F4804F0DCFD3F48006893
:100F9000032803D141493B4804F0D4FD2349394893
:100FA00004F0D0FD2349374804F0CCFD1F4804F07D
:100FB000E7FD0A2803D21D4804F0E2FD40B91B48B2
:100FC00004F0DEFD0A2807D21A4804F0D9FD18B152
:100FD00033A12C4804F0B6FD32492A4804F0B2FD92
:100FE0003149284804F0AEFD10BD10B52448006812
:100FF0001C4908604FF48061224804F098FDFFF717
:1010000015FEFFF742FEFFF76FFEFFF7A7FEFFF7A3
:10101000FBFEFFF77DFF09491A4804F093FD0B49D9
:10102000184804F08FFD2149164841E0E8010020EE
:101030003C0F00204202002098010020AC0100205B
:10104000F1000020200000009C020020A6020020E9
:1010500064000020252E316600000000C40200203C
:10106000CE02002068000020256400001403002048
:101070001E0300206C000020252E326600000000B8
:10108000E80000203C030020B000002018000020F1
:10109000900000207E0000208700002075000020C6
:1010A00032300000F602002070000020B90000205D
:1010B00004F048FDFD49FE4804F044FDFD48006889
:1010C00018B9FD49FA4804F03DFDFA4800680128C6
:1010D00003D1FA49F64804F035FDF64800680228C5
:1010E00003D1F749F24804F02DFDF24800680328C7
:1010F00003D1F449EE4804F025FDF349EC4804F02F
:1011000021FDF249EA4804F01DFDEF4804F038FDE6
:101110000A2803D2EC4804F033FD40B9EA4804F051
:101120002FFD0A2808D2E94804F02AFD20B1AFF2C9
:101130009001DF4804F006FDE549DD4804F002FDBA
:10114000E449DB4804F0FEFC10BD10B5E24800683D
:10115000E24908604FF48061D54804F0E8FCFFF7ED
:1011600065FDFFF792FDFFF7BFFDFFF7F7FDFFF706
:101170004BFEFFF7CDFEDA49CD4804F0E3FCD94938
:10118000CB4804F0DFFCD849C94804F0DBFCC74970
:10119000C74804F0D7FCC748006818B9C649C44816
:1011A00004F0D0FCC3480068012803D1C349C048FB
:1011B00004F0C8FCBF480068022803D1C049BC48FD
:1011C00004F0C0FCBB480068032803D1BD49B848FF
:1011D00004F0B8FCBC49B64804F0B4FCBB49B448C0
:1011E00004F0B0FCB84804F0CBFC0A2803D2B6489F
:1011F00004F0C6FC40B9B44804F0C2FC0A2808D286
:10120000B24804F0BDFC20B1AFF26C11A84804F064
:1012100099FCAF49A64804F095FCAE49A44804F0F7
:1012200091FC10BD10B54FF48061A14804F07FFC23
:10123000FFF7FCFCFFF729FDFFF756FDFFF78EFDDA
:10124000FFF7E2FDFFF764FEA549994804F07AFC38
:10125000A449974804F076FCA448006818B9A4494A
:10126000934804F06FFCA1480068012803D1A1490C
:101270008F4804F067FC8D498D4804F063FC8D486D
:10128000006818B98C498A4804F05CFC89480068F9
:10129000012803D18949864804F054FC8548006838
:1012A000022803D18649824804F04CFC814800683A
:1012B000032803D183497E4804F044FC82497C48DA
:1012C00004F040FC81497A4804F03CFC7E4804F07C
:1012D00057FC0A2803D27C4804F052FC40B97A48F3
:1012E00004F04EFC0A2808D2784804F049FC20B1EA
:1012F000AFF254216E4804F025FC75496C4804F0A7
:1013000021FC74496A4804F01DFC10BD10B5694801
:10131000006803280AD17048006870490860FFF728
:1013200081FF00F024FC00206249086061480068E9
:1013300002280AD16848006868490860FFF772FF10
:1013400000F015FC00205B4908605A48006801283D
:101350000AD16148006861490860FFF763FF00F047
:1013600006FC00205349086010BD2DE9F0410746F6
:101370000C460026002532E0625D302A06DB625D05
:10138000392A03DC625D303AD0B208E0625D612A3E
:1013900005DB625D662A02DC625D573AD0B26A1CE8
:1013A000A25C302A08DB6A1CA25C392A04DC6A1CB5
:1013B000A25C303AD1B20BE06A1CA25C612A07DB66
:1013C0006A1CA25C662A03DC6A1CA25C573AD1B292
:1013D00041EA0012BA55701CC6B2A81CC5B220461C
:1013E00004F0CEFBB042C7D8BDE8F08110B50020B4
:1013F00041490880C821414804F099FB10BD10B54F
:101400003F4840683E490968884231D03C484168BD
:101410004068401C3A4A506002F10900415C36487D
:1014200002880088401C344B188034488154184688
:101430000088C72802D1002019460880304840683B
:10144000C72802D100202E4948602B480088401E42
:101450002A49085C0A2805D027480088401E085CF5
:101460000D2805D100202449088001202549087055
:101470002448007800286BD023A1204804F06EFB9C
:1014800090B11E490E312448FFF76FFF0020234919
:101490000870012022490870FFF7A8FF00201949B1
:1014A00008701D48401E3DE03EE00000CE020020D6
:1014B0003C03002018000020900000207E00002047
:1014C0008700002075000020E80100204202002073
:1014D000F602002070000020E800002068000020D4
:1014E000AC010020A6020020A70000200800002078
:1014F000A000002099000020C20000203C0700202E
:10150000EC0B0020C40000203432346334353464E2
:101510003431343333610000890D00203E01002056
:10152000C500002001F006FF0AA10D4804F016FBDB
:1015300020B90CA10A4804F011FB20B100F007F912
:101540000AA004F001FFFFF751FF00200D490870C9
:10155000002010BD244D59555243524541440000CE
:101560003C070020244D5955524300004154244D5E
:10157000594E4554524541443D312C3230300D0ACC
:1015800000000000C400002000B587B00121042045
:1015900002F080FA0121480402F089FA0420ADF833
:1015A000180018208DF81B0003208DF81A0006A9DA
:1015B000F64801F0B3FF0820ADF8180004208DF8BC
:1015C0001B0006A9F14801F0A9FFF14802F0C6FA94
:1015D0004FF4165002900020ADF80C00ADF80E004C
:1015E000ADF81000ADF814000C20ADF8120002A9FF
:1015F000E74802F0F6FA40F22551E54802F098FC7F
:10160000012240F22551E24802F083FB26208DF8AA
:10161000040002208DF8050003208DF8060001204B
:101620008DF8070001A801F0B0FE0121D84802F0B2
:1016300064FB07B000BD70B504460D462946204640
:1016400002F0C8FB00BF8021204602F031FC0028D8
:10165000F9D070BD2DE9F04107460D46164600242D
:1016600005E0295D3846FFF7E6FF601CC4B2B442CE
:10167000F7DB00BF4021384602F01AFC0028F9D001
:10168000BDE8F08170B506460C46002500BF615DDF
:101690003046FFF7D0FF6D1C605D0028F7D100BF1A
:1016A0004021304602F004FC0028F9D070BD2DE93D
:1016B000F04105460C46260AE7B23146284602F0BC
:1016C00089FB00BF8021284602F0F2FB0028F9D0F8
:1016D0003946284602F07EFB00BF8021284602F0F2
:1016E000E7FB0028F9D0BDE8F08170B504460D464F
:1016F000E1B2A74802F06EFB00BF8021A44802F0CF
:10170000D7FB0028F9D0204670BD10B5044600BFB5
:1017100020219F4802F0CCFB0028F9D09C4802F021
:101720005DFB10BD70B504460D460DE000BF4021C5
:10173000974802F0BDFB0028F9D014F8011B94482B
:1017400002F048FB681E85B2002DEFDC70BD10B5BD
:1017500000209049086048600872C8218D4809300F
:1017600004F0E5F910BD2DE9F04188B005460C46BE
:101770000026002706E014F8012B3046711CCEB27B
:101780000DF8002020780028F5D1FFF7E0FF28466B
:1017900004F0F6F91FFA80F841462846FFF7C2FF29
:1017A0004FF47A7001F02FFA7A48007A01280CD1B0
:1017B0000CB901270AE069467648093004F0CEF9F1
:1017C00008B1012702E0002700E00027012F03D124
:1017D000002008B0BDE8F0810120FAE73EB56E4A6E
:1017E00007CA8DE80700FFF7B2FF14216B4804F029
:1017F0009EF94FF4FA7001F006FA69A16846FFF706
:10180000B2FF48BB0924002512E062480930005DA0
:1018100030280BDB5F480930005D392806DC5D4865
:101820000930005D5D494855681CC5B2601CC4B2F2
:101830005848093004F0A4F9A042E6D801205949DB
:10184000087056480078302841D1544840783028F4
:101850003DD1002008703AE04FF4FA7001F0D3F95E
:101860004FF4FA7001F0CFF94FF4FA7001F0CBF9B0
:101870004BA14848093004F071F940B30924002510
:1018800012E044480930005D30280BDB4148093044
:10189000005D392806DC3F480930005D3F49485566
:1018A000681CC5B2601CC4B23A48093004F068F93B
:1018B000A042E6D801203B4908703848007830281B
:1018C00005D136484078302801D1002008703EBD4F
:1018D0000EB5314A0C3207CA8DE80700FFF737FF13
:1018E0004FF4FA7001F08FF92DA16846FFF73BFF26
:1018F0000EBD1FB52CA30FCB8DE80F00FFF727FF00
:101900004FF4FA7001F07FF925A16846FFF72BFF2D
:101910001FBD10B58CB0142227A107A804F0EEF863
:101920002AA103C9CDE9050114222AA1684604F0C1
:10193000E5F800240FE005A8005D8DF82A00FFF708
:1019400006FF4FF4FA7001F05EF907A926A004F033
:10195000FBFC601CC4B2022CEDDB00240FE005A8E8
:10196000005D8DF80C00FFF7F2FE4FF4FA7001F005
:101970004AF969461CA004F0E7FC601CC4B2022CC2
:10198000EDDB0120194908700CB010BD00080140C2
:1019900000440040EC0B00206C6C0008F1000020BB
:1019A0004F4B0000CB00002041542B4950523D3991
:1019B0003630300D0A0000004154244D594E455434
:1019C000434C4F53453D200D0A0000003031323367
:1019D000343536004154244D594E45544143543D0D
:1019E000202C300D0A00000025730000C9000020E3
:1019F00030B589B02022AA4901A804F07FF800255B
:101A000030E0FFF7A4FE4FF4FA7001F0FCF8AFF2FB
:101A1000700101A8FFF7A7FE10BB0E2411E0A1483A
:101A2000005D30280BDB9F48005D392807DC9D48AE
:101A3000005D9D49087001209C49087006E0601C0B
:101A4000C4B2984804F09CF8A042E8D800BF964879
:101A50000078302804DB94480078392800DC03E063
:101A6000681CC5B2022DCCDB00BF022D08DB8E48FE
:101A70000078612804D100208D4908708B490870D6
:101A800009B030BD10B58BA1864804F067F820B1CD
:101A9000FFF75DFE8AA004F057FC10BD10B5FFF7FC
:101AA00056FE8DA004F050FC4FF4C87001F0ABF866
:101AB000FFF74DFE90A004F047FC4FF4C87001F012
:101AC000A2F8FFF744FE96A004F03EFC4FF4C87065
:101AD00001F099F8FFF73BFE9648007818B196A000
:101AE00004F032FC02E09FA004F02EFC4FF4C8701A
:101AF00001F089F8FFF72BFEA5A004F025FC4FF4B8
:101B00007A7001F080F8AFF26811664804F026F8A8
:101B100028B1012065490870A249087026E04FF4F9
:101B2000FA7001F070F8AFF288115E4804F016F810
:101B300028B101205D4908709A49087016E04FF4F9
:101B4000FA7001F060F8AFF2A811564804F006F8F8
:101B500028B10120554908709249087006E000201C
:101B600053490870514908708E49087010BD10B56E
:101B70008C480078012844D18B4804F001F84408CF
:101B8000FFF7E5FD214689A004F0DEFB642001F0AB
:101B90003AF88549AFF2B01004F0D6FB4FF4FA7072
:101BA00001F031F8AFF208213E4803F0D7FF18B139
:101BB00001208449087024E04FF4FA7001F023F802
:101BC000AFF22421374803F0C9FF18B101207D4945
:101BD000087016E04FF4FA7001F015F8AFF24021EA
:101BE000304803F0BBFF18B101207649087008E0C7
:101BF00000202F4908702D4908706A490870714902
:101C0000087010BD10B52A48007810B16E480078F1
:101C1000C0B9FFF79CFD642000F0F5FFFFF769FEF7
:101C2000642000F0F0FFFFF774FE642000F0EBFF8B
:101C3000FFF78DFD642000F0E6FFFFF7CFFD642085
:101C400000F0E1FF19480078F0B919480078012840
:101C50001AD15D480078012816D1FFF778FD64207D
:101C600000F0D1FFFFF71AFF4FF4FA7000F0CBFF3E
:101C7000FFF7D8FAFFF77BFF4FF4FA7000F0C3FFCD
:101C8000FFF7D0FAFFF773FF5048007830B100201B
:101C90004E490870FFF7C6FAFFF769FF10BD000054
:101CA000846C0008F50B0020F0000020CA00002022
:101CB000C9000020244D595552435245414400006B
:101CC0004154244D594E4554524541443D312C31E7
:101CD00030300D0A000000004154244D594E455447
:101CE000434F4E3D322C2241504E222C22434D4E2A
:101CF0004554220D0A0000004154244D594E4554CC
:101D0000434F4E3D322C2255534552505744222CBE
:101D1000224E6F6E652C4E6F6E65220D0A0000001C
:101D20004154244D594E45544143543D322C310DBC
:101D30000A000000050100204154244D594E45542D
:101D40005352563D322C312C302C312C2231303331
:101D50002E34362E3132382E34353A32393432314F
:101D6000220D0A004154244D594E45545352563DBC
:101D7000322C312C302C312C2234372E3131312E73
:101D80003131322E33303A3130303837220D0A00BB
:101D90004154244D594E45544F50454E3D310D0A46
:101DA00000000000CC0000203C0300204154244DE2
:101DB000594E455457524954453D312C25640D0A1E
:101DC00000000000CD000020CB000020C500002056
:101DD00000B585B00121C80401F069FE0121102081
:101DE00001F058FE4FF48060ADF8100018208DF817
:101DF000130003208DF8120004A95E4801F08EFB49
:101E00004FF40060ADF8100004208DF8130004A911
:101E1000584801F083FB4FF4165000900020ADF8B5
:101E20000400ADF80600ADF80800ADF80C000C2079
:101E3000ADF80A006946504801F0D3FE01214E4832
:101E400001F05BFF40214C4802F03FF805B000BDB7
:101E500070B504460D462946204601F0BBFF00BF81
:101E60008021204602F024F80028F9D070BD2DE929
:101E7000F04107460D461646002400BF295D38464E
:101E8000FFF7E6FF641CB442F8D3BDE8F08170B5FB
:101E900006460C46002500BF615D3046FFF7D8FFBF
:101EA0006D1C605D0028F7D170BD10B50522334967
:101EB0003148FFF7DCFF642000F0A5FE0622304920
:101EC0002D48FFF7D4FF642000F09DFE06222D4927
:101ED0002948FFF7CCFF642000F095FE10BD10B537
:101EE000052229492448FFF7C2FF642000F08BFE39
:101EF000062226492048FFF7BAFF642000F083FE3F
:101F000010BD10B5042222491B48FFF7B0FF642022
:101F100000F079FE10BD10B510211E4800F0EFFF53
:101F200090B91D48007878B9642000F06CFE10214B
:101F3000184800F0E4FF38B91748007820B9FFF7D7
:101F4000CEFF0120144908701021124800F0D7FF7D
:101F500001280DD1642000F056FE10210D4800F03C
:101F6000CEFF012804D1FFF7CCFF00200A490870FA
:101F700010BD000000100140004C0040070100208F
:101F80000C01002012010020180100202101002076
:101F90001D010020000801400601002008B50121B4
:101FA000102001F077FD0220ADF8000000208DF830
:101FB00003006946A04801F0B1FA08BD00B591B030
:101FC0000121084601F059FD0121480201F062FD9E
:101FD0009A4803F0FDF89A4806909A480790002026
:101FE00008900120099000200A900B904FF4807017
:101FF0000C9080000D9020200E9000020F90002089
:10200000109006A98D4803F085F901218B4803F053
:10201000ACF9002001908DF8080001208DF809002E
:102020004FF4602003900020049001208DF81400EC
:1020300001A983484C3802F0CAFE4FF4404001F039
:102040008DFC002301220B217D484C3802F057FF04
:1020500001217B484C3802F0F1FE012178484C38D0
:1020600002F0E1FE76484C3802F0FFFE00BF7448F3
:102070004C3802F0FFFE0028F9D171484C3802F0CC
:1020800003FF00BF6E484C3802F003FF0028F9D16F
:1020900001216B484C3802F006FF11B000BD10B5AD
:1020A000FFF77CFFFFF78AFF10BD08B50121142060
:1020B00001F0F0FC3120ADF8000000208DF80300A5
:1020C00069465D4801F02AFA08BD00B591B00121CA
:1020D000084601F0D2FC0121480201F0DBFC574820
:1020E00003F076F85648069057480790002008906D
:1020F0000320099000200A9080200B9040000C9053
:1021000080000D9020200E9000020F900020109073
:1021100006A94A4803F0FEF80121484803F025F9D2
:102120000020019001208DF808008DF809004FF47F
:10213000602003900020049003208DF8140001A972
:102140003F484C3802F043FE4FF4404001F006FC9B
:10215000072301220E213A484C3802F0D0FE072313
:1021600002220F2136484C3802F0C9FE0723032211
:10217000012133484C3802F0C2FE012130484C386E
:1021800002F05CFE01212E484C3802F04CFE2C4837
:102190004C3802F06AFE00BF29484C3802F06AFE53
:1021A0000028F9D126484C3802F06EFE00BF2448C2
:1021B0004C3802F06EFE0028F9D1012120484C383D
:1021C00002F071FE11B000BD10B5FFF76EFFFFF712
:1021D0007CFF10BD2DE9F0471B49888803F0CDFD39
:1021E00081464FF08B4103F018FD044603F0CAFD11
:1021F00007464FF06632154B03F04DFD054603F0E0
:1022000005FE13498860886803F0BCFD0446114A46
:10221000114B03F0E3FD0CD80D49886803F0B2FDC3
:1022200004460C4A0D4B03F0C1FD02D80120BDE865
:10223000F0870020FBE7000000100140080002408A
:102240004C240140280100202A01002066660A4033
:102250008C0100209A9999999999E13F9999F13FB8
:1022600030B589B005460C460121084601F01FFC37
:102270000121052001F00EFC0120ADF820001820FE
:102280008DF8230003208DF8220008A9D84801F01A
:1022900045F9ADF81850ADF814400020ADF81A001B
:1022A000ADF8160005A94FF0804001F02FFF602027
:1022B000ADF804000120ADF806004B20ADF80A008F
:1022C0000020ADF80C0001A94FF0804001F05BFF49
:1022D0000821C80602F0A6FB0121880702F072FB64
:1022E0000121880702F06EFA09B030BD1FB5012147
:1022F000042001F0DCFB0A20ADF8080040F2CF20FA
:10230000ADF804000020ADF80A00ADF8060001A900
:10231000B84801F0FBFE01224121B64802F06DFAF7
:102320001E208DF8000000208DF8010003208DF89C
:10233000020001208DF80300684601F026F8012113
:10234000AC4802F03FFA1FBD1FB50121082001F083
:10235000AEFB6420ADF808004720ADF80400002073
:10236000ADF80A00ADF8060001A9A34801F0CEFEC1
:1023700001224121A04802F040FA32208DF80000ED
:1023800000208DF8010003208DF8020001208DF857
:102390000300684600F0F9FF0121974802F012FAA5
:1023A0001FBD08B54FF4A06000F0EAFF1D208DF8B6
:1023B000000001208DF801008DF802008DF8030067
:1023C000684600F0E2FF08BD0EB50121022001F0D1
:1023D0006EFB42F20F70ADF804004720ADF800002C
:1023E0000020ADF80600ADF802008DF8080069463F
:1023F000824801F08BFE0121804802F0A9FC0122F5
:1024000011467E4802F0F9F901217C4802F0DAF920
:102410000EBD10B5FFF7C5FFFFF7D6FFFFF766FF4C
:10242000FFF792FF10BD30B500221EE0002116E03C
:10243000734830F811400546481C35F810008442B6
:102440000BDD284630F811300446481C34F81000E3
:1024500024F81100481C24F81030481C81B2C2F145
:1024600063008842E4DC501C82B2632ADEDB6448ED
:10247000B0F8620030BD2DE9F0476249088803F0EA
:102480007CFC81464FF08B4103F0C7FB044603F010
:1024900079FC07464FF066325B4B03F0FCFB0546C8
:1024A00003F0B4FC5949086059480078B8B9086885
:1024B0004FF07E5103F0C6FC0CD2FEF746FEFFF74C
:1024C00056FBC82000F09FFB4FF40051514801F02B
:1024D000D4F804E04FF400514E4801F0CCF8BDE8C8
:1024E000F08710B50121434802F035FC20B30121EB
:1024F000404802F041FC4848007878B947480078E5
:1025000064280BDA3F4840883D49444A127821F854
:10251000120042480078401C404908703F4800784B
:10252000642805D101203C49087000203B4908700F
:10253000FFF7A1FFFEF763FF10BD10B501212E4884
:1025400002F009FC002852D001212B4802F014FCB3
:1025500033480088322812D10021400702F032F9B6
:1025600030480088401C2F49088008460088C82849
:102570003DD100202A4908802A49088037E02A48AE
:102580000088C0B929480088401C284908800846AE
:10259000008802282BD126480088401C2449088046
:1025A00000202249088001201F490880002180075F
:1025B00002F008F91BE01D480088401C1B490880F8
:1025C000084600880A2812D11A480088401C194978
:1025D00008800020154908801349088001218807D8
:1025E00002F0F0F80E480088401C0D49088010BD2C
:1025F0000008014000080040000C004000040040BA
:10260000C00C00202A01002066660A408C010020D0
:1026100005000020000C01403101002030010020A5
:102620003601002038010020320100203401002052
:102630003A0100203C01002000B587B001210820AC
:1026400001F028FA0121880401F031FA4FF480608A
:10265000ADF8180018208DF81B0003208DF81A0023
:1026600006A9FE4800F05AFF4FF40060ADF81800CC
:1026700004208DF81B0006A9F84800F04FFFF84829
:1026800001F06CFA4FF4E13002900020ADF80C003C
:10269000ADF80E00ADF81000ADF814000C20ADF848
:1026A000120002A9EE4801F09CFA40F22551EC48D4
:1026B00001F03EFC012240F22551E94801F029FBDE
:1026C00027208DF8040002208DF8050003208DF8E6
:1026D000060001208DF8070001A800F056FE012138
:1026E000DF4801F00AFB07B000BD70B504460D4697
:1026F0002946204601F06EFB00BF8021204601F0F4
:10270000D7FB0028F9D070BD2DE9F04107460D46F2
:102710001646002400BF295D3846FFF7E6FF641C1B
:10272000B442F8D3BDE8F08170B506460C460025EA
:1027300000BF615D3046FFF7D8FF6D1C605D00286B
:10274000F7D170BD10B5FFF777FF10BD00B58BB0A6
:10275000C448007808B9012000E00020C249097887
:10276000084000286DD02220C049087088740D20D0
:10277000C8740A20087500204875BD4800780028F4
:102780005ED0BC480078082855D2DFE800F0540439
:10279000050A1B2C314B4FE0B7A1B148FFF7C4FF2E
:1027A0004AE0282101A803F0C2F9B7A101A803F06B
:1027B000C9F9AE4901A803F0C5F901A9A848FFF776
:1027C000B3FF39E0282101A803F0B1F9B3A101A8B2
:1027D00003F0B8F9A54901A803F0B4F901A9A0488C
:1027E000FFF7A2FF28E0B1A19D48FFF79DFF23E07E
:1027F000B4480078302814DD282101A803F097F9A7
:10280000B1A101A803F09EF90122AE4901A803F08D
:10281000BEF9B2A101A803F095F901A99048FFF70C
:1028200083FF09E0A7480078302803DDAEA18C487B
:10283000FFF77AFF00E000BF00BF00208C4908705E
:1028400000BFAA48007801280CD10020A7490870D1
:102850008448007810B9FEF7C8FB01E0FEF759FB89
:10286000FFF785F90BB000BD10B50020A049087036
:10287000C821A04803F05BF910BD10B540F2255106
:10288000774801F02BFB70B32021754801F01DFB48
:1028900040F22551724801F04BFB0721704801F0CE
:1028A00007FB08B1012400E00024ECB9924800685D
:1028B00040F2FF71884217D2694801F08FFAC1B225
:1028C0008D4802680068401C8B4B186003F10900BA
:1028D000815401201946087208460068C72806D1AD
:1028E0000020086003E003E05D4801F077FA00BFD4
:1028F00010BD10B5804840687F490968884230D0D3
:102900007D4841684068401C7B4A506002F10900E4
:10291000405C7849764A12788854084674490978A8
:10292000405C0A2805D0734871490978405C0D283D
:1029300005D100206E4908700120704908706C486C
:102940000078401C6A49087008460078C82801D100
:102950000020087068484068C72802D100206649F6
:10296000486066480078002875D06549614803F0E2
:10297000F5F840B35F48C07D1E2807DD5D48C07D87
:102980006049087001205949087016E05948007ED6
:102990001E2807DD5748007E5A4908700120534918
:1029A00008700AE05348C07E1E2806DD5148C07EEC
:1029B0005449087001204D490870FFF755FF002069
:1029C0004E49087010BD50A14A4803F0C7F868B1DD
:1029D0004848C07C3B4908700846007848498872DE
:1029E000FFF742FF002045490870EBE748A1414846
:1029F00003F0B4F828B1FFF737FF00203F49087013
:102A0000E0E744A13B4803F0A9F878B1FFF72CFFB9
:102A100000203A4908701348007810B90120334962
:102A2000087001200F4908700020CBE73AA1314817
:102A300003F094F880B1FFF717FF00202F490870CA
:102A400008480078012801D128490870002005496C
:102A500008700120B6E785E062E00000000C01404C
:102A6000004800403E010020CC000020880D0020DE
:102A7000520100205101002041542B424C45494E47
:102A800049543D310D0A000041542B424C455343FB
:102A9000414E3D312C332C312C00000041542B424F
:102AA0004C45434F4E4E3D302C00000041542B42CC
:102AB0004C4547415454435052494D5352563D3072
:102AC0000D0A00004101002041542B424C45474172
:102AD00054544357523D302C000000002C332C310D
:102AE0002C310D0A00000000310000003F010020E1
:102AF000530100209E0D0020680E0020540100208C
:102B0000420100205501002030784343303000005E
:102B10004F4B00003E0000006572726F72000000B3
:102B2000AFF20C01104803F019F820B90FA10E48BC
:102B300003F014F888B1FFF797FE00200F490870E2
:102B40000F480078012801D10E49087000200C4977
:102B500008700D490870012034E7FFF785FE00205A
:102B60000649087000202DE79E0D00202B424C45A1
:102B7000444953434F4E4E3A300000005401002068
:102B80003E0100203F0100204101002010B56FF000
:102B9000040000F044FC2E4800682E49B0FBF1F020
:102BA0002D4908700846007800EB4001C1EBC010C9
:102BB0004FF6FF7101EAC0002849088010BD0146A8
:102BC000254A12784A434FF0E0235A6100229A6165
:102BD0001A46126942F001021A6100BF4FF0E0226A
:102BE000106900F001021AB100F48032002AF5D019
:102BF0004FF0E022126922F001024FF0E0231A6147
:102C000000229A6170470146144A12884A434FF0E5
:102C1000E0235A6100229A611A46126942F00102C9
:102C20001A6100BF4FF0E022106900F001021AB1F2
:102C300000F48032002AF5D04FF0E022126922F031
:102C400001024FF0E0231A6100229A6170470000F0
:102C50005000002000127A00560100205801002088
:102C600008B54FF4A06000F08BFB17208DF8000032
:102C700000208DF8010001208DF802008DF803007E
:102C8000684600F082FB17208DF80000684600F0CF
:102C90007CFB28208DF80000684600F076FB282099
:102CA0008DF80000684600F070FB0A208DF80000E7
:102CB000684600F06AFB08BD1FB501211C2000F02A
:102CC000E9FEC020ADF80C0048208DF80F0003A9E4
:102CD000914800F023FC4FF44040ADF80C00482030
:102CE0008DF80F0003A98D4800F018FC41F2120086
:102CF000ADF80C0048208DF80F0003A9884800F0BB
:102D00000DFC4FF4C070ADF80C0048208DF80F009A
:102D100003A9814800F002FC0121084600F0BAFE38
:102D20000421002000F010FD0621022000F00CFD1F
:102D30000721022000F008FD0C21002000F004FD16
:102D40000E21012000F000FD0F21012000F0FCFC0D
:102D500045F2D200019000208DF808000C208DF87B
:102D6000090001208DF80A0001A802F069FB072084
:102D70008DF8000001208DF801008DF802008DF81B
:102D80000300684600F001FB0A208DF800000120D6
:102D90008DF801008DF802008DF80300684600F000
:102DA000F4FA17208DF8000002208DF801000520AC
:102DB0008DF8020001208DF80300684600F0E5FA66
:102DC00028208DF8000001208DF8010007208DF8E3
:102DD000020001208DF80300684600F0D6FA1FBDFE
:102DE0000EB501211D2000F055FEFFF739FF4020F0
:102DF000ADF8080004208DF80B0002A9464800F049
:102E00008DFB4020009000208DF804000C208DF8F0
:102E1000050001208DF80600684602F011FB8020B5
:102E2000ADF8080004208DF80B0002A93A4800F024
:102E300075FB8020009000208DF804000C208DF898
:102E4000050001208DF80600684602F0F9FA4FF4FB
:102E50008040ADF8080004208DF80B0002A92F482F
:102E600000F05CFB4FF48040009000208DF80400DF
:102E70000C208DF8050001208DF80600684602F050
:102E8000DFFA4FF40040ADF8080004208DF80B0085
:102E900002A9224800F042FB4FF48050ADF8080030
:102EA00004208DF80B0002A91D4800F037FB4FF4F9
:102EB0008050009000208DF804000C208DF8050053
:102EC00001208DF80600684602F0BAFA1020ADF82D
:102ED000080004208DF80B0002A9114800F01EFB29
:102EE0001020009000208DF804000C208DF80500C3
:102EF00001208DF80600684602F0A2FA0EBD70B5FA
:102F000004460D462946204600F09BFB08B90120E7
:102F100070BD0020FCE7000000100140000C0140E3
:102F20000008014008B501211C2000F0B3FD40203D
:102F3000ADF8000010208DF8030003208DF802008A
:102F40006946244800F0EAFA8020ADF8000069469E
:102F5000204800F0E3FA10208DF803000001ADF8DE
:102F6000000069461C4800F0D9FA4FF40070ADF833
:102F700000006946184800F0D1FA4FF48070ADF8AF
:102F800000006946154800F0C9FA4FF40060ADF83A
:102F900000006946114800F0C1FA80200D49143143
:102FA00008604020086080000B49486141000A48E1
:102FB00000F061FB4FF48071084800F05CFB4FF4B7
:102FC0000061064800F057FB08BD8022014B10331A
:102FD0001A607047000C01400010014000080140D9
:102FE00008B50121042000F055FD4FF40070ADF844
:102FF000000003208DF8020018208DF803006946B8
:103000008F4800F08BFA4FF48060ADF80000042088
:103010008DF8030069468A4800F080FA08BD08B5BB
:1030200025208DF8000003208DF801008DF80200A6
:1030300001208DF80300684600F0A7F908BD00B52F
:103040008BB0804802F0C4F87F4800907F48019020
:1030500000200290462003900020049080200590DC
:1030600000200690079008904FF4805009900020AF
:103070000A906946734802F04DF90121714802F047
:1030800074F90BB000BD00B58BB06E48143802F077
:103090009FF86D4800906E480190102002904620E5
:1030A0000390002004908020059000200690079057
:1030B00008904FF48050099000200A9069466148BA
:1030C000143802F027F901215E48143802F04DF956
:1030D0000BB000BD1FB504460121880300F0DAFCE7
:1030E0000121084600F0C9FC00940020ADF804005E
:1030F000ADF80600ADF80800ADF80C000C20ADF8F6
:103100000A0069465048001F00F06BFDFFF768FF9A
:10311000FFF785FF012240F224414B48001F00F0D9
:10312000F8FD012240214848001F00F017FE012150
:103130004548001F00F0E1FDFFF781FF1FBD10B5FE
:10314000002240214048001F00F008FE00213D48B9
:1031500002F00BF946213B4802F01CF901213948E5
:1031600002F003F9012240213748001F00F0F6FD6C
:1031700010BD10B5002280213348001F00F0EEFD85
:1031800000213048143802F0F0F846212D48143858
:1031900002F000F901212B48143802F0E6F8012270
:1031A00080212948001F00F0D9FD10BD70B50546EB
:1031B0000E4600240EE000BF40212348001F00F00F
:1031C00077FE0028F8D0295D1F48001F00F002FE9E
:1031D000601CC4B2B442EEDB00BF40211A48001F9D
:1031E00000F066FE0028F8D070BD10B540F2244112
:1031F0001548001F00F072FE00B340F2244112484F
:10320000001F00F095FE1048001F00F0E7FD0D487C
:1032100002F0C2F8C0F146000E49088046210C4871
:1032200002F085FC0B4802880849094802F066FC58
:10323000FFF785FF4621054802F079FC10BD00002C
:103240000008014058000240043801403C0F0020B3
:10325000820F00205A01002008B50121082000F04B
:1032600019FC4FF40050ADF8000010208DF8030059
:1032700003208DF8020069460C4800F04FF94FF426
:1032800000510A4800F0F7F90121102000F002FC7B
:103290000220ADF8000010208DF8030003208DF807
:1032A00002006946024800F039F908BD000C0140EF
:1032B000001001402DE9F04705460F461646A5F1DE
:1032C00000694FEAD9284FF0006000EBC82AB5F139
:1032D000006F04D305EB46001E49884201D3BDE8C8
:1032E000F08702F04CF9504602F08EF9002407E016
:1032F00037F8141005EB440002F089FA601C84B220
:10330000B442F5DB02F047F900BFE8E70146088860
:10331000704730B503460C461546002207E003EB24
:103320004200FFF7F3FF24F81200501C82B2AA42B9
:10333000F5DB30BD10B504460B2221460648FFF7E9
:10334000B9FF10BD10B504460B2221460248FFF715
:10335000E0FF10BD00000808006003080648804731
:1033600006480047FEE7FEE7FEE7FEE7FEE7FEE76A
:10337000FEE7FEE7FEE7FEE72B0B00083101000841
:1033800031490143314A1160704770B50021002373
:103390000F22C47804B32D4C246804F4E064C4F50F
:1033A000E064210AC1F10403CA40447804FA03F13D
:1033B0008478144021430901254C0678A1550478EE
:1033C00004F01F050124AC4005786D11AD0005F136
:1033D000E025C5F8004109E0047804F01F05012448
:1033E000AC401C4D0678761145F8264070BD1A4A4F
:1033F0000A400243154B1B1F1A60704739B1134A2C
:10340000121D12680243114B1B1D1A6006E00F4A81
:10341000121D126882430D4B1B1D1A607047042851
:1034200008D14FF0E021096941F004014FF0E0229A
:10343000116107E04FF0E021096921F004014FF02C
:10344000E0221161704700000000FA050CED00E079
:1034500000E400E080E100E080FFFF1F10B50446BB
:10346000CC48844208D10121042000F02DFB00212A
:10347000042000F029FB46E0C748844208D101211E
:10348000082000F021FB0021082000F01DFB3AE09D
:10349000C248844208D10121102000F015FB002110
:1034A000102000F011FB2EE0BD48844208D101211C
:1034B000202000F009FB0021202000F005FB22E085
:1034C000B848844208D10121402000F0FDFA0021D3
:1034D000402000F0F9FA16E0B348844208D10121F7
:1034E000802000F0F1FA0021802000F0EDFA0AE0DF
:1034F000AE48844207D10121801500F0E5FA002191
:10350000A01500F0E1FA10BD10B50121084600F049
:10351000DBFA0021012000F0D7FA10BD2DE9F041BF
:10352000024600250026002000230024002791F8F1
:1035300003C00CF00F0591F803C00CF0100CBCF1A7
:10354000000F03D091F802C04CEA050591F800C0C5
:10355000BCF1000F31D0146800202BE04FF0010CBB
:103560000CFA00F3B1F800C00CEA03069E4220D129
:1035700083004FF00F0C0CFA03F7BC4305FA03FC71
:103580004CEA040491F803C0BCF1280F06D14FF0B7
:10359000010C0CFA00FCC2F814C00AE091F803C058
:1035A000BCF1480F05D14FF0010C0CFA00FCC2F839
:1035B00010C0401C0828D1D31460B1F800C0BCF181
:1035C000FF0F34DD546800202EE000F1080C4FF0AE
:1035D000010808FA0CF3B1F800C00CEA03069E4299
:1035E00021D183004FF00F0C0CFA03F7BC4305FA0E
:1035F00003FC4CEA040491F803C0BCF1280F05D188
:1036000000F1080C08FA0CF8C2F8148091F803C015
:10361000BCF1480F07D100F1080C4FF0010808FA7F
:103620000CF8C2F81080401C0828CED35460BDE8C6
:10363000F0814FF6FF710180022181700421C17079
:1036400070470246002093680B400BB1012000E058
:10365000002070470146886880B27047024600200B
:10366000D3680B400BB1012000E0002070470146F9
:10367000C86880B2704701617047416170470AB104
:10368000016100E041617047C16070474FF48032D2
:103690000A43826181618261826982697047024660
:1036A0000020434B18684FF68073184040EA021020
:1036B00008433F4B186070473E49C8617047F0B5FA
:1036C0000A46002300240021002500F00046B6F140
:1036D000004F02D1364EF16901E0354E7168C0F3FA
:1036E000034583B200F44016B6F5401F08D121F01F
:1036F00070612F4E766826F070662D4F7E6012E066
:1037000000F48016B6F5801F06D1032606FA05F4EC
:10371000A14341F0706106E0460D360103FA06F65A
:10372000B14341F0706122B1460D360103FA06F64D
:10373000314300F00046B6F1004F02D11C4EF1615A
:1037400001E01B4E7160F0BD30B500228B071C0FED
:103750000F2303FA04F2164B08338C1053F824306D
:103760009343134C08348D1044F8253023468C10B5
:1037700053F824308C07240F00FA04F423430C4C34
:1037800008348D1044F8253030BD0A49DC3108601A
:103790007047000000080140000C0140001001408B
:1037A0000014014000180140001C014000200140AD
:1037B0000000014000002042DF48006840F00100A6
:1037C000DD49086008464068DC490840DA4948603D
:1037D00008460068DA490840D7490860084600688A
:1037E00020F4802008600846406820F4FE0048600D
:1037F0004FF41F0088607047CF49096821F4803179
:10380000CD4A11601146096821F480211160B0F59C
:10381000803F03D0B0F5802F0ED106E0C64909687D
:1038200041F48031C44A116007E0C349096841F49A
:10383000A021C14A116000E000BF00BF704710B571
:1038400001460022002300204A11012A02D1BA4C6D
:10385000236806E0022A02D1B74C236A01E0B64C85
:10386000636A01F01F02012494401C400CB1012046
:1038700000E0002010BD38B5002000900024002595
:1038800000BF3120FFF7DBFF05460098401C009089
:103890000098B0F5A06F01D0002DF2D03120FFF7D5
:1038A000CEFF08B1012400E00024204638BD0146C7
:1038B0000020A14A106820F0F80040EAC100106022
:1038C0007047A04908607047024600209A4B58682C
:1038D00020F47C1042EA01031843974B586070476C
:1038E00098490866704701460020934A506820F0C6
:1038F00003000843506070478F48406800F00C0098
:103900007047014600208C4A506820F0F0000843C0
:103910005060704701460020874A506820F4E060FC
:1039200008435060704701460020834A506820F4E5
:10393000605040EAC1005060704729B17E4A527A17
:1039400002437D4B5A7204E07B4A527A82437A4B9F
:103950005A7270477B49D831086070470146002091
:10396000754A506820F44040084350607047002179
:10397000714A20321170704A82F82010012802D05A
:1039800004280AD104E001216B4A2032117005E0BD
:103990000521694A2032117000E000BF00BF704766
:1039A0006949086070476449096A0143624A1162C3
:1039B0007047654944390860704730B500210022DE
:1039C000002400235C4D6D6805F00C0121B1042931
:1039D00005D0082923D105E05C4D056022E05B4D50
:1039E00005601FE0544D6D6805F47012524D6D680E
:1039F00005F48034022505EB92421CB9544D554321
:103A000005600BE04C4D6D6805F400351DB1504D5F
:103A10005543056002E04D4D5543056002E04B4DB6
:103A2000056000BF00BF444D6D6805F0F001090955
:103A3000484D6B5C0568DD4045603F4D6D6805F4A1
:103A4000E061090A434D6B5C4568DD4085603A4D95
:103A50006D6805F46051C90A3E4D6B5C4568DD40F8
:103A6000C560354D6D6805F44041890B3A4D6B5C7E
:103A7000C568B5FBF3F5056130BD29B12E4A526921
:103A800002432D4B5A6104E02B4A526982432A4B70
:103A90005A61704729B1284A92690243264B9A61BC
:103AA00004E0254A92698243234B9A61704729B109
:103AB000214AD2690243204BDA6104E01E4AD269EE
:103AC00082431D4BDA61704729B11B4AD268024319
:103AD000194BDA6004E0184AD2688243164BDA6068
:103AE000704729B1144A12690243134B1A6104E06A
:103AF000114A12698243104B1A61704712494039CA
:103B0000086070470F49C86470470B49C871704717
:103B10000948406A40F08070074948627047014692
:103B20000020054A92680A400AB1012000E0002006
:103B30007047014988727047001002400000FFF88A
:103B4000FFFFF6FE000042428004424200127A006B
:103B500000093D005E0100206E01002010B5044602
:103B6000FB48844209D101218803FFF7ADFF002102
:103B70004FF48040FFF7A8FF32E0F648844209D1B5
:103B800001214804FFF7ADFF00214FF40030FFF79B
:103B9000A8FF25E0F048844209D101218804FFF7FD
:103BA000A0FF00214FF48020FFF79BFF18E0EB48B7
:103BB000844209D10121C804FFF793FF00214FF48B
:103BC0000020FFF78EFF0BE0E548844208D1012179
:103BD0000805FFF786FF00214FF48010FFF781FFF3
:103BE00010BD2DE9F04786B005460E460024A246DA
:103BF00000BFA1460027B08900B100BF2F462C8A24
:103C00004CF6FF700440F08804432C82AC894EF6D9
:103C1000F3100440B0883189084371890843044394
:103C2000AC81AC8A4FF6FF400440B0890443AC82BB
:103C300001A8FFF7C2FEC648874202D1DDF810A0F6
:103C400001E0DDF80CA0A88900F4004040B10AEBC7
:103C5000CA0000EB0A1031684900B0FBF1F807E038
:103C60000AEBCA0000EB0A1031688900B0FBF1F8DA
:103C70006420B8FBF0F004012009642101FB1089E5
:103C8000A88900F4004040B1322000EBC900B0FB2D
:103C9000F1F000F00700044308E0322000EB0910C7
:103CA0006421B0FBF1F000F00F0004432C8106B05A
:103CB000BDE8F0874FF41651016000218180C1807A
:103CC00001810C21418100218181704710B502469C
:103CD0000020108A4FF2FF0318400B884C882343C2
:103CE0008C882343CC8823431843108210BD0021C5
:103CF000018041808180C180704721B1828942F476
:103D00000052828104E082894DF6FF731A4082815D
:103D10007047F0B50346002400260025002040F639
:103D20006A17B94200D100BF1846C1F3421401F02E
:103D30001F06012707FA06F5012C01D10C3004E01B
:103D4000022C01D1103000E014301AB107682F4363
:103D5000076002E00768AF430760F0BD1AB1838ACD
:103D60000B43838202E0838A8B4383827047028AFB
:103D70004FF6F0731A400282028A0A4302827047A9
:103D800082894FF2FF731A40828182890A438281BD
:103D9000704721B1828942F00202828104E0828967
:103DA0004FF6FD731A4082817047028A4FF6DF7327
:103DB0001A400282028A0A430282704721B1028AB3
:103DC00042F48042028204E0028A4BF6FF731A40FA
:103DD00002827047C1F308028280704701468888DA
:103DE000C0F308007047818941F00101818170476B
:103DF000028BD2B20283028B42EA01220283704715
:103E0000028B02F47F420283028B0A4302837047D3
:103E100021B1828A42F02002828204E0828A4FF637
:103E2000DF731A408282704721B1828A42F0100209
:103E3000828204E0828A4FF6EF731A4082827047D2
:103E400021B1828A42F00802828204E0828A4FF61F
:103E5000F7731A408282704721B1828942F400428E
:103E6000828103E08289C2F30E028281704721B110
:103E7000828A42F40062828204E0828A4FF2FF73F7
:103E80001A4082827047828A4FF6FB731A40828200
:103E9000828A0A438282704721B1828A42F00202FA
:103EA000828204E0828A4FF6FD731A408282704754
:103EB00002460020B1F5007F00D100BF13880B40FF
:103EC0000BB1012000E00020704701F40072B2F550
:103ED000007F00D100BFCA430280704770B5024620
:103EE000002400230025002040F66A16B14200D1CC
:103EF00000BFC1F3421501F01F03012606FA03F3C8
:103F0000012D02D19689334006E0022D02D1168A96
:103F1000334001E0968A33400C12012606FA04F47D
:103F20001688344013B10CB1012000E0002070BDB0
:103F300010B50022002340F66A14A14200D100BF50
:103F40000A1201249440A3B2DC43048010BD000097
:103F5000003801400044004000480040004C004050
:103F60000050004010B50446FE48844208D10121AB
:103F7000C014FFF7A9FD0021E014FFF7A5FDC4E080
:103F8000B4F1804F08D101210846FFF7AAFD0021B6
:103F90000120FFF7A6FDB8E0F348844208D10121D3
:103FA0000220FFF79EFD00210220FFF79AFDACE002
:103FB000EE48844208D101210420FFF792FD002140
:103FC0000420FFF78EFDA0E0E948844208D10121DA
:103FD0000820FFF786FD00210820FFF782FD94E00E
:103FE000E448844208D101211020FFF77AFD002126
:103FF0001020FFF776FD88E0DF48844208D10121D8
:104000002020FFF76EFD00212020FFF76AFD7CE0F5
:10401000DA48844208D101214014FFF755FD002100
:104020006014FFF751FD70E0D548844209D10121A9
:10403000C804FFF749FD00214FF40020FFF744FDBD
:1040400063E0D048844209D101210805FFF73CFD17
:1040500000214FF48010FFF737FD56E0CA48844234
:1040600009D101214805FFF72FFD00214FF4001071
:10407000FFF72AFD49E0C548844208D101214020CC
:10408000FFF72FFD00214020FFF72BFD3DE0C0484A
:10409000844208D101218020FFF723FD00218020E8
:1040A000FFF71FFD31E0BB48844208D10121801594
:1040B000FFF717FD0021A015FFF713FD25E0B64817
:1040C000844209D101210804FFF7FEFC00214FF4CE
:1040D0008030FFF7F9FC18E0B048844209D1012193
:1040E0004804FFF7F1FC00214FF40030FFF7ECFC2F
:1040F0000BE0AB48844208D101218804FFF7E4FCBF
:1041000000214FF48020FFF7DFFC10BD0022028861
:10411000944B98420ED0994B98420BD0B0F1804FFF
:1041200008D0914B984205D0904B984202D0904BCA
:10413000984204D14FF68F731A404B881A438D4B27
:10414000984207D08C4B984204D04FF6FF431A4058
:10415000CB881A4302808B8883850B880385814B2B
:1041600098420BD0854B984208D08B4B984205D093
:104170008A4B984202D08A4B984201D10B7A03862F
:1041800001238382704770B5002400220023058C30
:104190004FF6FE7635400584028C8388048B4FF6FB
:1041A0008F752C40B51E2C400D882C43751E2A405F
:1041B0000D892A434D882A436A4DA8420BD06F4D82
:1041C000A84208D0744DA84205D0744DA84202D030
:1041D000734DA84213D14FF6F7752A404D892A43F3
:1041E0004FF6FB752A408D882A434FF6FF652B401A
:1041F0004FF6FF552B408D892B43CD892B43838070
:104200000483CD888586028470BD70B500240022A9
:104210000023058C4FF6EF7635400584028C8388A9
:10422000048B48F6FF752C404FF6FF452C400D8857
:104230004FF6FF7606EA05252C434FF6DF752A4038
:104240000D8906EA05152A434D8806EA05152A4315
:10425000444DA84202D0494DA8421DD14FF67F756A
:104260002A404D894FF6FF7606EA05152A434FF698
:10427000BF752A408D8806EA05152A434FF6FF359B
:104280002B404FF2FF752B408D8906EA85052B43A5
:10429000CD8906EA85052B4383800483CD88058775
:1042A000028470BD70B5002400220023058C4FF6F7
:1042B000FF6635400584028C8388848B4FF68F75AA
:1042C0002C404FF6FC752C400D882C434FF6FF55C3
:1042D0002A400D894FF6FF7606EA05252A434D88C8
:1042E00006EA05252A431F4DA84202D0234DA842C5
:1042F0001DD14FF2FF752A404D894FF6FF7606EA31
:1043000005252A434FF6FF352A408D8806EA052504
:104310002A434EF6FF752B404DF6FF752B408D89D5
:1043200006EA05152B43CD8906EA05152B43838044
:104330008483CD888587028470BD70B500220023F8
:104340000024058C4EF6FF7635400584038C848866
:10435000828B48F6FF752A404FF6FF452A400D88AC
:1043600020E00000002C0140000400400008004054
:10437000000C0040001000400014004000340140D8
:10438000004C014000500140005401400018004022
:10439000001C00400020004000400140004401405B
:1043A000004801404FF6FF7606EA05252A434DF600
:1043B000FF752B400D8906EA05352B434D8806EA2B
:1043C00005352B43FA4DA84202D0FA4DA84208D138
:1043D0004BF6FF752C408D894FF6FF7606EA851562
:1043E0002C4384808283CD88A0F84050038470BD24
:1043F000828B4FF2FF331A408283828B4FF6FF731A
:1044000003EA01231A4382837047F0B50C46154630
:10441000002200210026078C4EF6FF7C07EA0C07DD
:104420000784828B018C4FF6FF7707EA043640F64B
:10443000FF473A404FF6FF7707EA05273A434FF622
:10444000FF7707EA03373A43D94FB8420ED0D94F26
:10445000B8420BD0B0F1804F08D0D74FB84205D04A
:10446000D64FB84202D0D64FB84206D14DF6FF77AC
:10447000394046F48057394305E047F6FF57394045
:1044800044F48057394382830184F0BD828B4FF618
:10449000F3731A408283828B0A4382837047F0B59C
:1044A0000C461546002200210026078C4FF6FF6CB3
:1044B00007EA0C070784828B018C4FF6FF7707EA27
:1044C00004264FF60C773A404FF6FF7707EA0317BA
:1044D0002F433A43B64FB8420ED0B64FB8420BD036
:1044E000B0F1804F08D0B44FB84205D0B34FB842B6
:1044F00002D0B34FB84206D14FF6FF57394046F4C9
:104500008077394305E04FF2FF57394044F4807714
:10451000394382830184F0BD028B4FF2FF331A408E
:104520000283028B4FF6FF7303EA01231A430283CF
:104530007047F0B50C461546002200210026078C76
:104540004FF6EF7C07EA0C070784028B018C4FF6CD
:10455000FF7707EA041640F6FF473A404FF6FF7729
:1045600007EA03373A434FF6FF7707EA05273A434E
:104570008F4FB8420ED08F4FB8420BD0B0F1804F62
:1045800008D08D4FB84205D08C4FB84202D08C4F26
:10459000B84206D14FF6DF77394046F0100739436D
:1045A00005E04FF65F77394044F010073943028346
:1045B0000184F0BD028B4FF6F3731A400283028B25
:1045C0000A4302837047F0B50C46154600220021CD
:1045D000068C4FF6FE773E400684028B018C4FF628
:1045E0000C7632407E1C06EA03162E433243704E90
:1045F000B0420ED06F4EB0420BD0B0F1804F08D019
:104600006D4EB04205D06D4EB04202D06C4EB042FD
:1046100006D14FF6FD76314044F00106314305E006
:104620004FF6F576314044F00106314302830184B0
:10463000F0BD70B505460C465D4885420ED05D481C
:1046400085420BD0B5F1804F08D05B48854205D03C
:104650005A48854202D05A48854200D100E000BF46
:10466000208850B92389A28861882846FFF7ABFFCC
:10467000E1882846FFF79EFF25E0208804280AD11C
:104680002389A28861882846FFF753FFE1882846DE
:10469000FFF742FF17E0208808280AD12389A28863
:1046A00061882846FFF7FBFEE1882846FFF7EEFE0B
:1046B00009E02389A28861882846FFF7A6FEE188E1
:1046C0002846FFF795FE70BD2DE9F04105460C46E2
:1046D00000260127608808B9022600E00026A0888D
:1046E000012801D1022700E001272088A0B92389F1
:1046F000A28861882846FFF766FFE1882846FFF711
:1047000059FF23893A4631462846FFF712FFE188D0
:104710002846FFF701FF13E02389A2886188284615
:10472000FFF707FFE1882846FFF7F6FE23893A46A0
:1047300031462846FFF747FFE1882846FFF73AFF52
:10474000BDE8F0810A884B881A438B881A43CB88CE
:104750001A430B891A434B891A438B891A43A0F8D1
:10476000442070474FF6FF71818000210180C18095
:104770004180017270470021018041808180C180A9
:10478000018141818181C181704700210180418087
:10479000012181800021C1800181704700210180B9
:1047A00041808180C1800181418181817047000009
:1047B000002C01400034014000040040000800408B
:1047C000000C004021B1028842F00102028004E0A6
:1047D00002884FF6FE731A400280704731B1B0F87C
:1047E000442042F40042A0F8442005E0B0F8442000
:1047F000C2F30E02A0F8442070471AB183890B431C
:10480000838102E083898B43838170478182704773
:1048100041EA0203A0F8483070471AB183890B437C
:10482000838102E083898B438381704701894FF63E
:10483000F8721140018170470A46002101894FF644
:104840008F73194011430181704730B504460D46FE
:1048500029462046FFF7F0FF208940F0070020811D
:1048600030BD2DE9F04104460D4616461F46602D29
:1048700006D13B46012231462046FFF75AFE05E0AD
:104880003B46012231462046FFF79DFE2946204641
:10489000FFF7D2FF208940F007002081BDE8F081BA
:1048A00030B50C4600210189C9B24FF6FF7505EA03
:1048B0000325154325432943018130BD2DE9F041EE
:1048C00005460E4617469846002443463A4631466A
:1048D0002846FFF7E5FF2C894FF6F870044044F0B6
:1048E00007044FF68F70044044F070042C81BDE83B
:1048F000F081F0B504460D4616461F463B4632464B
:1049000029462046FFF7CCFF208940F480402081D3
:10491000F0BD0185828270470A46002101884FF66A
:104920008F731940114301807047F0B50C4615464E
:104930001E460021002200230189028B038C4FF6C2
:10494000F877394021434FF6FC473A4040F20117CF
:104950003A434FF6DD773B404FF6FF7707EA0617FD
:104960002F433B43018102830384F0BD0A460021AB
:10497000018B4FF68F7319401143018370470A462C
:104980000021018B48F6FF7319404FF6FF7303EACD
:1049900002231943018370470A460021818B4FF699
:1049A0008F7319401143818370470A460021818B20
:1049B00048F6FF7319404FF6FF7303EA02231943C9
:1049C0008183704721B1028842F08002028004E0B6
:1049D00002884FF67F731A400280704721B18288A7
:1049E00042F00402828004E082884FF6FB731A4092
:1049F0008280704721B1828842F00802828004E000
:104A000082884FF6F7731A408280704721B18288FE
:104A100042F00102828004E082884FF6FE731A4061
:104A2000828070470A460021018B4FF6F7731940C8
:104A30001143018370470A460021018B4FF2FF7337
:104A400019404FF6FF7303EA0223194301837047AD
:104A50000A460021818B4FF6F77319401143818379
:104A600070470A460021818B4FF2FF7319404FF6C1
:104A7000FF7303EA02231943818370470A4600212A
:104A8000018B4FF6FB7319401143018370470A46AF
:104A90000021018B4FF6FF3319404FF6FF7303EAF5
:104AA00002231943018370470A460021818B4FF688
:104AB000FB7319401143818370470A460021818BA3
:104AC0004FF6FF3319404FF6FF7303EA02231943F1
:104AD000818370470A460021018B4FF67F7319408E
:104AE0001143018370470A460021018BC1F30E0177
:104AF0004FF6FF7303EA02231943018370470A4606
:104B00000021818B4FF67F731940114381837047D9
:104B10000A460021818BC1F30E014FF6FF7303EAB1
:104B200002231943818370470A460021018C4FF606
:104B3000FD7319401143018470470A460021018C1E
:104B40004FF6F77319401143018470470A4600215C
:104B5000018C4FF6DF7319404FF6FF7303EA02131F
:104B60001943018470470A460021018C4FF67F7378
:104B700019404FF6FF7303EA02131943018470478B
:104B80000A460021018C4FF6FF5319404FF6FF7380
:104B900003EA02231943018470470A460021018C6D
:104BA0004FF2FF7319404FF6FF7303EA02231943D4
:104BB000018470470A460021018C4DF6FF731940AD
:104BC0004FF6FF7303EA023319430184704730B58F
:104BD000002301248C40A3B2048C9C430484048CE5
:104BE00002FA01F5ADB22C43048430BD30B5002388
:104BF00004248C40A3B2048C9C430484048C02FAE9
:104C000001F5ADB22C43048430BD70B503460020DD
:104C100000241846183001258D40ACB21D8CA543E8
:104C20001D8409B1082909D100EB6100056825F050
:104C3000700505600568154305600EE00D1FC5F39E
:104C40004E052844056825F4E045056005684FF6E3
:104C5000FF7606EA02263543056070BD21B1028861
:104C600042F00202028004E002884FF6FD731A400F
:104C70000280704721B1028842F00402028004E001
:104C800002884FF6FB731A400280704721B1828878
:104C900042F08002828004E082884FF67F731A40DF
:104CA0008280704702884FF6F7731A4002800288AC
:104CB0000A430280704782884FF68F731A408280C1
:104CC00082880A438280704702894FF6F8731A403F
:104CD000028102890A430281704702894FF67F737D
:104CE0001A40028102890A43028170478184704719
:104CF000818570478186704701877047818770473B
:104D0000A0F84010704702884FF6FF431A40028017
:104D100002880A43028070470146888E7047014628
:104D2000088F70470146888F70470146B1F84000F0
:104D300070470146888C70470146088D70470246CF
:104D40000020138A0B400BB1012000E000207047C7
:104D5000CA430282704730B5024600200023002477
:104D6000158A05EA0103958905EA010413B10CB11E
:104D7000012000E0002030BDCA43028270470000DD
:104D800010B50446FA48844208D101214015FEF7C7
:104D90009BFE00216015FEF797FE17E0F548844260
:104DA00008D101210015FEF78FFE00212015FEF726
:104DB0008BFE0BE0F048844208D10121C803FEF7C6
:104DC00083FE00214FF40040FEF77EFE10BD30B59B
:104DD0000246002000235068E84C20400D790C6802
:104DE00044EA0524204350609068E54C2040D1E916
:104DF00002542C434D7944EA450420439060D06A24
:104E000020F470000C7C641EE4B2234340EA03509B
:104E1000D06230BD00210160017141718160C160CB
:104E200001210174704721B1826842F00102826061
:104E300003E0826822F001028260704721B182683B
:104E400042F48072826003E0826822F480728260A1
:104E5000704710B50023CBB21AB144681C434460BC
:104E600002E044689C43446010BD816841F0080141
:104E700081607047014600208A6802F008020AB18A
:104E8000012000E000207047816841F0040181604A
:104E90007047014600208A6802F004020AB101202E
:104EA00000E00020704721B1826842F4A0028260D5
:104EB00003E0826822F4A00282607047014600206D
:104EC0008A6802F480020AB1012000E000207047E5
:104ED00010B50A4600210023416821F46041531EA9
:104EE00041EA4331416010BD21B1426842F40062A1
:104EF000426003E0426822F4006242607047F0B50D
:104F000004460D4600200021092D11DDE068A5F1C1
:104F10000A0606EB4607072606FA07F18843A5F1BD
:104F20000A0606EB460603FA06F10843E0600CE0C9
:104F3000206905EB4507072606FA07F1884305EBCC
:104F4000450603FA06F108432061072A0FDA606B71
:104F5000561E06EB86071F2606FA07F18843561EE3
:104F600006EB860605FA06F10843606322E00D2A87
:104F70000FDA206BD61F06EB86071F2606FA07F10D
:104F80008843D61F06EB860605FA06F10843206320
:104F900010E0E06AA2F10D0606EB86071F2606FA6E
:104FA00007F18843A2F10D0606EB860605FA06F125
:104FB0000843E062F0BD21B1826842F48012826051
:104FC00003E0826822F48012826070470146C86C58
:104FD00080B2704766484C300068704721B1426823
:104FE00042F48062426003E0426822F480624260E0
:104FF000704721B1426842F48052426003E0426847
:1050000022F48052426070470A460021816821F4F0
:10501000E04111438160704721B1826842F400424F
:10502000826003E0826822F400428260704721B10E
:10503000826842F40212826003E0826822F4021263
:1050400082607047014600208A6802F400120AB1AB
:10505000012000E000207047F0B50446154600200E
:1050600000220026092911DDE068A1F10A0707EBFB
:10507000470C072707FA0CF29043A1F10A0707EB48
:10508000470703FA07F21043E0600CE0206901EBE8
:10509000410C072707FA0CF2904301EB410703FA92
:1050A00007F210432061A06BC0F30156EF1C06F11C
:1050B000010CA7EB0C0707EB870C1F2707FA0CF274
:1050C0009043EF1C06F1010CA7EB0C0707EB8707D9
:1050D00001FA07F21043A063F0BD10B50A460021A3
:1050E0000023816B21F44011531E41EA0351816377
:1050F00010BD08B5002300930090009B0B44009363
:10510000009B1A6008BD08B502460020009000927E
:1051100001F12800009B184400900098006880B2BC
:1051200008BD0A4600214168164B194011434160F1
:1051300070474162826270470A460021416821F04F
:105140001F0111434160704740B1094908310968A6
:1051500041F40001064A0832116007E004490831B1
:10516000096821F40001024A08321160704700000A
:105170000024014000280140003C0140FFFEF0FFF8
:10518000FDF7F1FFFFFD3FFF0246002013680B40D3
:105190000BB1012000E000207047CA430260704755
:1051A00070B502460020002300240B125568CEB2D1
:1051B00005EA060415681D4015B10CB1012000E098
:1051C000002070BD00220A12D34303607047000024
:1051D00001684FF6FE7211400160002101604160DC
:1051E0008160C1608D49884208D18C49083949687D
:1051F00041F00F01894A083A51608AE08749143129
:10520000884208D185490839496841F0F001834A4C
:10521000083A51607DE081492831884208D17F49B0
:105220000839496841F470617C4A083A516070E07D
:105230007A493C31884208D178490839496841F4B3
:105240007041764A083A516063E0744950318842AF
:1052500008D172490839496841F470216F4A083A07
:10526000516056E06D496431884208D16B49083974
:10527000496841F47001694A083A516049E0674958
:105280007831884208D165490839496841F0706130
:10529000624A083A51603CE06149884206D1011FE8
:1052A000096841F00F01021F116032E05C491431BE
:1052B000884208D15A49091F096841F0F001584A4B
:1052C000121F116025E056492831884208D15449FF
:1052D000091F096841F47061514A121F116018E0FA
:1052E0004F493C31884208D14D49091F096841F4B2
:1052F00070414B4A121F11600BE0494950318842FE
:1053000007D14749091F096841F47021444A121F17
:105310001160704710B50022026847F6F0739A4397
:105320000C6A8B6823430C6923434C6923438C69C3
:105330002343CC6923434C6A23438C6A23431A4397
:105340000260CB6843600B6883604B68C36010BD2C
:105350000021016041608160C16001614161816142
:10536000C161016241628162704721B1026842F00D
:105370000102026004E002684FF6FE731A40026008
:1053800070471AB103680B43036002E003688B4364
:1053900003607047416070470146486880B27047BB
:1053A00001460020002201F080531BB11C4B083B3A
:1053B0001A6802E0194B083B1A6802EA01030BB1B4
:1053C000012000E00020704700F0805119B114491D
:1053D000091F086002E0114908394860704701461A
:1053E0000020002201F080531BB10D4B083B1A68CE
:1053F00002E00A4B083B1A6802EA01030BB10120E4
:1054000000E00020704700F0805119B10449091FE5
:10541000086002E00149083948607047080002400E
:1054200008040240002044490860091D0860091D65
:105430000860091D086041483F4914310860704701
:1054400000213D498279002A3AD00A461268036851
:105450009A430B461A600A1D126803689A430B1D93
:105460001A60027911440A6803681A430A60324AD2
:105470000832126803689A432F4B08331A601A1DCA
:10548000126803689A432C4B0C331A604279102A35
:105490000ED11A1F126803681A43274B08331A608B
:1054A0001A1D126803681A43234B0C331A600DE06F
:1054B0002149427911440A6803681A430A6005E0E9
:1054C000027911440A6803689A430A607047002110
:1054D000016001710C2141710021817170471649F1
:1054E000103109680143144A1032116070470146B7
:1054F0000020114A143212680A400AB1012000E06B
:10550000002070470C4914310860704701460020A4
:105510000022094B1B6803EA0102074B14331B6886
:105520000B4013B10AB1012000E00020704702498E
:10553000143108607047000000040140FFFF0F00B5
:1055400001460020FE4A106800F038000843106051
:105550007047FB49096821F00801F94A11601146BA
:105560000968014311607047F549096821F010018D
:10557000F34A116011460968014311607047F14810
:10558000EF494860F04848607047EE48EC49486091
:10559000ED4848607047EA48006940F08000E849FB
:1055A00008617047E648006940F08000E4490861FE
:1055B00070470420E249C96801F0010109B10120E6
:1055C0000EE0DF49C96801F0040109B1022007E0DB
:1055D000DB49C96801F0100109B1032000E0042093
:1055E000704700B502460423FFF7E3FF034603E0DC
:1055F000FFF7DFFF0346521E012B01D1002AF7D12E
:1056000002B90523184600BD30B5044604254FF401
:105610003020FFF7E6FF0546042D17D1C848006982
:1056200040F00200C649086108464461006940F044
:10563000400008614FF43020FFF7D3FF0546C04813
:10564000006941F6FD710840BD490861284630BD3A
:1056500010B504244FF43020FFF7C3FF0446042C98
:1056600016D1B748006940F00400B5490861084602
:10567000006940F0400008614FF43020FFF7B1FFAF
:105680000446AF48006941F6FB710840AC49086127
:10569000204610BD00B502460423FFF78AFF0346EB
:1056A00003E0FFF786FF0346521E012B01D1002ABB
:1056B000F7D102B90523184600BD10B504244FF4F4
:1056C0003020FFF7E7FF0446042C16D19C48006900
:1056D00040F004009A4908610846006940F0400023
:1056E00008614FF43020FFF7D5FF04469448006965
:1056F00041F6FB71084092490861204610BD002028
:105700008F49C96901F0020109B1012000E00020C0
:10571000704730B5A5250424FFF7F1FF00B100253F
:105720004FF43020FFF75DFF0446042C3AD1854842
:1057300083498860844888600846006940F02000FA
:1057400008610846006940F0400008614FF43020CD
:10575000FFF747FF0446042C1BD17948006941F646
:10576000DF710840764908610846006940F0100082
:10577000086176480580E002FFF733FF0446052CF8
:1057800010D06F48006941F6EF7108406C4908611C
:1057900008E0052C06D06A48006941F6EF71084020
:1057A00067490861204630BD78B506460C46042599
:1057B00000200090E802FFF714FF0546042D24D1D5
:1057C0005F48006940F001005D4908613480E802EB
:1057D000FFF707FF0546042D10D1B01C0090200CE8
:1057E00000990880E802FFF7FCFE0546544800696E
:1057F00041F6FE7108405249086106E050480069D0
:1058000041F6FE7108404E490861284678BD70B5E2
:1058100004460D460426F002FFF7E3FE0646042E7A
:1058200011D14748006940F00100454908612580D1
:10583000F002FFF7D6FE06464148006941F6FE71C8
:1058400008403F490861304670BD70B505460E46B8
:105850000424E002FFF7C5FE0446042C17D13948A2
:1058600037498860384888600846006940F0100071
:1058700008612E80E002FFF7B4FE0446052C06D036
:105880002F48006941F6EF7108402D490861204614
:1058900070BD2DE9F04304464FF6FF763746B0461B
:1058A000B1460425E443E6B2C4F30727C4F307482E
:1058B0004FEA1469E802FFF794FE0546042D49D12A
:1058C00020481F498860204888600846006940F0E9
:1058D00010000861FF2E06D01C4808300680E80240
:1058E000FFF77FFE0546042D08D1FF2F06D017488D
:1058F0000A300780E802FFF774FE0546042D0AD13E
:10590000B8F1FF0F07D011480C30A0F80080E80272
:10591000FFF767FE0546042D0AD1B9F1FF0F07D046
:105920000A480E30A0F80090E802FFF75AFE05463C
:10593000052D0FD00248006941F6EF71084007E0DD
:105940000020024023016745AB89EFCD00F8FF1F1F
:10595000664908612846BDE8F08330B50546042451
:105960004FF43020FFF73DFE0446042C41D160483F
:105970005E4988605F4888600846006940F0200002
:1059800008610846006940F0400008614FF430208B
:10599000FFF727FE0446042C22D15448006941F643
:1059A000DF710840514908610846006940F0100065
:1059B00008611DB100205049088002E0A5204E4931
:1059C00008804FF43020FFF70CFE0446052C10D061
:1059D0004648006941F6EF7108404449086108E013
:1059E000052C06D04148006941F6DF7108403F4967
:1059F0000861204630BDF0B505460E461746042422
:105A00003B483A4988603B488860E002FFF7E9FD7F
:105A10000446042C19D13548006940F01000334980
:105A2000086147F0F800304328433349891C088057
:105A3000E002FFF7D6FD0446052C06D02B4800698E
:105A400041F6EF710840294908612046F0BD27481A
:105A5000C069800870472548006A704700202349C4
:105A6000096801F0200109B1012000E00020704721
:105A700029B11E4A126902431C4B1A6104E01B4AF9
:105A800012698243194B1A617047014600200129AF
:105A900008D1164AD26902F001020AB1012008E0D9
:105AA000002006E0114AD2680A400AB1012000E055
:105AB000002070470D49C860704704200B49C96831
:105AC00001F0010109B101200EE00849C96801F0A7
:105AD000040109B1022007E00449C96801F010017E
