:020000040800F2
:100000001819002019350008850400088704000825
:100010008B0400088F04000893040008000000000F
:10002000000000000000000000000000970400082D
:1000300099040008000000009B0400089D040008CB
:1000400033350008333500083335000833350008F0
:10005000333500083335000833350008F30600084F
:1000600033350008333500084B07000833350008E6
:1000700033350008333500083335000833350008C0
:1000800033350008333500083335000833350008B0
:100090003335000833350008333500089F05000864
:1000A0003335000833350008333500083335000890
:1000B0003335000899070008EF250008333500089C
:1000C0003335000833350008333500083335000870
:1000D00033350008A53300089F0400088B29000869
:1000E0003F06000833350008333500083335000873
:1000F0003335000833350008333500083335000840
:1001000033350008333500084B2600083335000826
:10011000333500083335000833350008333500081F
:10012000333500083335000833350008333500080F
:10013000DFF80CD006F078F900480047F502000817
:100140001819002010B54021B24802F060FFB249F2
:1001500048708021AF4802F05AFFAF4988704FF4D1
:100160008051AE4802F053FFAB4948711021AB48B3
:1001700002F04DFFA84988714021A64802F047FFD0
:10018000D8B9A7480078012817D11021A34802F058
:100190003EFF012811D1A348007870B1142002F06D
:1001A000BAFD8020A04908604020091F0860002097
:1001B0009B49087001209D49087010BD10B59C48EE
:1001C0000078012816D100209949087099490860E3
:1001D0009948006899490860012099490860002001
:1001E00098490860944800689449086001F053F801
:1001F00001F02BFD9448007801280CD10020924991
:1002000008708F4908608F4908608C49086001F0C8
:1002100042F801F01AFD10BD2DE9F0478B48007837
:10022000012858D102F085F9824605F084FE814606
:100230004FF08B4105F0CFFD044605F081FE0746E7
:100240004FF06632824B05F004FE054605F0BCFE19
:100250008049486048684FF0804105F08AFD0646B5
:1002600005F06EFE04467C4A7C4B05F07DFE08D20C
:100270004FF48070694914310860C000091F08609C
:1002800007E04FF48070654910310860C000091D17
:100290000860704948684FF0804105F06AFD0646E5
:1002A00005F04EFE04466C4A6D4B05F05DFE0FD224
:1002B00001206C49087000F082FF01F0C6FCC820E4
:1002C00002F029FD4FF400515748143803F0B3FAF7
:1002D00000205E490870BDE8F08763480078012877
:1002E00003D100024B49086103E04FF48070494993
:1002F000486170475D4803F03EFC5D4803F000F93B
:1003000002F062FD02F096FE00F013FC02F0C6FC63
:100310004FF4A06003F012F94FF4804142481438C2
:1003200002F075FE60B13C2002F0F5FC4FF4804114
:100330003D48143802F06BFE10B101204D490870A1
:1003400001F090F901F0C6FFC82002F0E4FC03F0D0
:1003500061F802F0E4F801F0C1FD4FF400702D499E
:100360000861C82002F0D7FC4FF4007029494861A9
:10037000FFF752FF1221632001F0F8FF1E214FF01A
:10038000804004F095FD8021224802F040FE48B9EB
:1003900001203949087080202349091F0860402046
:1003A000091D086001F007FE4FF4FA7002F0B3FC7B
:1003B0004FF4FA7002F0AFFC0120194908704FF4B5
:1003C000165002F07EFF02F045FA0FE0FFF785FFBE
:1003D000FFF722FF01F084FC02F040FA01F021FE59
:1003E000FFF7ECFE00F0CAFFFFF7ACFEEEE710B53A
:1003F0002248007801280BD100F04DFF642002F064
:100400008AFC01F022FC00201D4908601B4908708D
:1004100010BD000000100140350000200008014020
:10042000E400002048000020140C0140D900002006
:10043000D8000020D0000020E80000206800002044
:100440000800002018000020DB00002031010020FF
:1004500066660A408C0100209A99999999990D40F5
:100460009999094005000020CC0000207801002067
:10047000880D002005010020DA0000200400002083
:1004800000000020704700BFFEE700BFFEE700BF8E
:10049000FEE700BFFEE7704770477047704710B532
:1004A0000121FE4803F0E2FD30B1FC4803F074FD89
:1004B0000121FA4803F0E7FD0821F84803F0D6FDD2
:1004C00030B1F64803F068FD0821F44803F0DBFD85
:1004D0000221F24803F0CAFD30B1F04803F05CFDA0
:1004E0000221EE4803F0CFFD40F22551EB4803F026
:1004F000D3FD58B32021E94803F0C5FD40F2255152
:10050000E64803F0F3FD0721E44803F0AFFD08B12E
:10051000012400E00024D4B9E1480068C82816D2BC
:10052000DE4803F039FDC1B2DD4802680068401CB6
:10053000DB4B186003F10900815401201946087251
:1005400008460068C72805D10020086002E0D348AB
:1005500003F022FDD3A1D248093005F0DDFB40B104
:100560008020D24908604020091F08600120D0493E
:100570000870D0A1CA48093005F0CEFB48B18020F0
:10058000CA49091F08604020091D08600120CB49A5
:100590000870CBA1C248093005F0BEFB10BD10B5F4
:1005A000402005F091F8F8B14021C74802F02FFD36
:1005B000012816D1BE480078012812D10020C34975
:1005C00008800120C24908600020B9490870C1496B
:1005D00008600120C04908708020B44908604020AC
:1005E0000860402005F081F8802005F06DF828B300
:1005F0008021B54802F00BFD01281CD1AF480078DE
:10060000012818D10020B1490880AC490870B349CD
:1006100008608020A5490860402008600020AC499F
:1006200008600120AE490870AE4908700020AE494C
:100630000860AE490870802005F057F810BD10B56D
:100640004FF4804005F040F830B34FF4804005F09F
:100650004CF84FF480419548143802F0D8FC01283A
:1006600004D1A3480068401CA1490860A048006864
:10067000022811D180208D49091F08604020091DE2
:10068000086001209B490860002091490860984952
:1006900008600120894908704FF4805005F014F873
:1006A00030B34FF4805005F020F893480088401C88
:1006B000914908804021844802F0A9FCC0B98B48C8
:1006C0000078012814D110218C4802F0A0FC0128E8
:1006D0000ED18B48008858B18020744908604020B2
:1006E000091F086001207249087000207F490870C6
:1006F00010BD10B5022004F0E7FF28B3022004F07B
:10070000F4FF7D480088401C7B49088040216E48EA
:1007100002F07DFCC0B975480078012814D1102181
:10072000764802F074FC01280ED17548008858B153
:1007300080205E4908604020091F086001205C4954
:10074000087000206949087010BD10B5102004F031
:10075000BBFF00B340215C4802F059FCC0B96348BC
:100760000078012814D11021644802F050FC0128BF
:100770000ED16348008858B180204C490860402061
:10078000091F086000205949087001204849087075
:10079000102004F0AAFF10BD10B50121594804F043
:1007A000B8FB002878D00121564804F0C3FB564816
:1007B000007820B955480088401C544908805348A7
:1007C0000088FA2810D100205049088001204E49A5
:1007D00008704F480078401C4D4908700846007862
:1007E000082801D1012008704A480088401C494966
:1007F0000880084600880A280FD13F48008803284F
:1008000003DD01203E49088002E000203C490880C9
:100810000020394908803F49088032480078012883
:1008200004D131480068401C2F4908602E480068F8
:10083000B0F5617F08D100202A49087001202B49BA
:1008400008700020284908604FF400411748143808
:1008500002F0DDFB012804D12F480068401C2E491E
:1008600008602D480068C82808D102202149086086
:100870000120174908600020274908601C480068CB
:10088000012804D125480068401C244908602348F9
:10089000006864284FD143E0B8E000000044004005
:1008A000EC0B00203466333333330000140C01406A
:1008B000D90000203533333433340000DA0000200F
:1008C0003331333133310000001001404400002047
:1008D00008000020D0000020D8000020D400002014
:1008E000DB000020DC000020E0000020E40000200D
:1008F0003C000020180000204600002000080140B5
:100900004800002000040040520100204C0000205C
:10091000510100204A000020EC000020400000208F
:1009200000203B49086003203A49086000203A490A
:1009300008603A4908603A480078012804D13948EB
:100940000068401C3749086036480068F0280FD11D
:1009500001203149086000203149087031490860A0
:10096000012031490870802030490860402008602B
:100970002F480078012804D12E480068401C2D49DA
:1009800008602D4800882B490968884203D229480D
:100990000088294908802848008822490968884237
:1009A00003D2204800882449088022480068F028A3
:1009B00016D100201E4908701E49086080201B497E
:1009C00008604020086000201349086001201B498E
:1009D00008701B49087000201A4908601A490870FD
:1009E0000D480068012805D118480068401C1749C7
:1009F000086002E000201549086014480068642877
:100A000004D113480068401C1149086010BD000063
:100A10003C000020180000200800002040000020BA
:100A2000D9000020D0000020D8000020140C014084
:100A3000DA000020D400002044000020DB00002069
:100A4000DC000020E0000020E40000200C0000207A
:100A5000E80000200CB50020019000906C48006870
:100A600040F480306A49086000BF6948006800F4BB
:100A7000003000900198401C0190009818B901982E
:100A8000B0F5A06FF1D16248006800F4003010B1F9
:100A90000120009001E0002000900098012843D13F
:100AA0005C48006840F010005A4908600846006839
:100AB00020F0030008600846006840F0020008606B
:100AC00053484068524948600846406848600846B4
:100AD000406840F4806048600846406820F47C101C
:100AE00048600846406840F4E810486008460068DE
:100AF00040F08070086000BF4548006800F000705A
:100B00000028F9D04248406820F00300404948607E
:100B10000846406840F00200486000BF3C4840681A
:100B200000F00C000828F9D10CBD10B5FFF792FFBA
:100B300010BD10B53648006840F001003449086027
:100B40000846406834490840314948600846006812
:100B5000324908402E4908600846006820F4802089
:100B600008600846406820F4FE0048604FF41F000B
:100B70008860FFF7DAFF4FF000602949086010BD78
:100B800010B5002100200022214B5B6803F00C010E
:100B900021B1042906D0082928D107E0214B224C95
:100BA000236027E01F4B204C236023E0184B5B6839
:100BB00003F47010164B5B6803F48032022303EBDE
:100BC000904022B9194B4343174C23600DE0104B62
:100BD0005B6803F4003323B1144B4343124C23608E
:100BE00003E0104B4343104C236003E00D4B0E4CCD
:100BF000236000BF00BF064B5B68C3F303130C4CBC
:100C0000E15C094B1B68CB40074C236010BD000022
:100C100000100240002002400000FFF8FFFFF6FE37
:100C200008ED00E000127A005000002000093D00AD
:100C30005400002070B55A21FE4805F056F80024F3
:100C400012251CE0FC48405D30280BDBFA48405D73
:100C5000392807DC3320F7490855F748415DF54A44
:100C6000601C1154F448405D2E2806D13220F14911
:100C700008554521EF4A601C1154A41C6D1C1C2D05
:100C8000E0DB3220EB4908553021EA4A601C115460
:100C900070BD70B55A21E94805F027F800241F25DA
:100CA0001CE0E548405D30280BDBE348405D392817
:100CB00007DC3320E1490855DF48415DDF4A601C0D
:100CC0001154DD48405D2E2806D13220DB490855FD
:100CD0004521DA4A601C1154A41C6D1C2A2DE0DB4E
:100CE0003220D64908553021D44A601C115470BDB9
:100CF00070B51421D24804F0F8FF3C21D14804F02B
:100D0000F4FFD149CE4804F0FBFFD0A1CC4804F059
:100D1000F7FF002500241CE0C948005D30280BDBEC
:100D2000C748005D392807DC3320C6494855C44808
:100D3000015DC44A681C1154C148005D202806D1D9
:100D40003220C04948553021BE4A681C1154AD1CA0
:100D5000641C142C05D23C2D03D2B948005D002838
:100D6000DAD170BD2DE9F041B94800210160416040
:100D700001811E21B74804F0B8FFB748006805F0AC
:100D8000DFF8064632460B46B4A1B14805F0CAFB6F
:100D9000AEA1AF4804F0B4FF0024002532E0AC4817
:100DA000405D30280BDBAA48405D392807DC332042
:100DB000A8490855A648415DA64A601C1154A4489C
:100DC000405D202806D13220A24908553021A14A91
:100DD000601C11549E48405D2D2806D132209D494B
:100DE000085544219B4A601C11549948405D2E28A7
:100DF00006D13220974908554521964A601C115466
:100E0000A41C6D1C9248405D0028C8D1BDE8F0814B
:100E100070B5944800210160416001811E21924813
:100E200004F063FF914892A102688E4805F07AFBB6
:100E300086A18C4804F064FF002500241CE089484A
:100E4000005D30280BDB8748005D392807DC332044
:100E5000854948558348015D834A681C115481487F
:100E6000005D202806D132207F49485530217E4A36
:100E7000681C1154AD1C641C7A48005D0028DED14A
:100E800070BD2DE9F0417B48002101604160018186
:100E90001E21794804F029FF7848006805F050F8D1
:100EA000064632460B4676A1724805F03BFB67A129
:100EB000704804F025FF0024002527E06D48405DC0
:100EC00030280BDB6B48405D392807DC33206A494A
:100ED00008556848415D684A601C11546548405D8A
:100EE000202806D13220644908553021624A601C0E
:100EF00011546048405D2E2806D132205E490855C5
:100F000045215D4A601C1154A41C6D1C5948405D6C
:100F10000028D3D1BDE8F08170B55B4800210160A5
:100F2000416001811E21594804F0DFFE58480278D3
:100F30004FA1554805F0F6FA44A1534804F0E0FEED
:100F4000002500241CE05048005D30280BDB4E4893
:100F5000005D392807DC33204C4948554A48015D7B
:100F60004A4A681C11544948005D202806D13220A5
:100F7000464948553021454A681C1154AD1C641C33
:100F80004148005D0028DED170BD10B541480068C1
:100F9000364908604FF480613F4804F0A6FEFFF731
:100FA00049FEFFF776FEFFF7A3FEFFF7DBFEFFF734
:100FB0002FFFFFF7B1FF2349374804F0A1FE254971
:100FC000354804F09DFE3549334804F099FE264922
:100FD000314804F095FE3248006818B931492E486E
:100FE00004F08EFE2E480068012803D12E492A48BD
:100FF00004F086FE2A480068022803D12B492648BF
:1010000004F07EFE26480068032803D128492248C0
:1010100004F076FE0749204804F072FE07491E4896
:1010200004F06EFE034804F089FE0A2845D2014808
:1010300040E00000E80100203C0F002042020020B8
:1010400098010020AC010020F100002020000000E9
:101050009C020020A602002064000020252E31669C
:1010600000000000C4020020CE0200206800002022
:1010700025640000140300201E0300206C000020E3
:10108000252E326600000000EC020020F60200204F
:1010900055010020E80000203C030020B0000020A3
:1010A00018000020900000207E0000208700002013
:1010B0007500002004F042FE40B9FA4804F03EFEFC
:1010C0000A2807D2F84804F039FE18B1F7A1F84809
:1010D00004F016FEF749F64804F012FEF649F4480B
:1010E00004F00EFE10BD10B5F4480068F449086025
:1010F0004FF48061EE4804F0F8FDFFF79BFDFFF729
:10110000C8FDFFF7F5FDFFF72DFEFFF781FEFFF7A6
:1011100003FFEC49E64804F0F3FDEB49E44804F032
:10112000EFFDEA49E24804F0EBFDE949E04804F04C
:10113000E7FDE848006818B9E749DD4804F0E0FD3C
:10114000E4480068012803D1E449D94804F0D8FDF7
:10115000E0480068022803D1E149D54804F0D0FDF9
:10116000DC480068032803D1DE49D14804F0C8FDFB
:10117000CC49CF4804F0C4FDCB49CD4804F0C0FDB4
:10118000C84804F0DBFD0A2803D2C64804F0D6FDA7
:1011900040B9C44804F0D2FD0A2807D2C24804F07E
:1011A000CDFD18B1C1A1C24804F0AAFDC149C04893
:1011B00004F0A6FDC049BE4804F0A2FD10BD10B564
:1011C000BE480068BE4908604FF48061B84804F02A
:1011D0008CFDFFF72FFDFFF75CFDFFF789FDFFF7A3
:1011E000C1FDFFF715FEFFF797FEB649B04804F0C2
:1011F00087FDB549AE4804F083FDBB49AC4804F017
:101200007FFDB349AA4804F07BFDB248006818B9D5
:10121000B149A74804F074FDAE480068012803D125
:10122000AE49A34804F06CFDAA480068022803D127
:10123000AB499F4804F064FDA6480068032803D129
:10124000A8499B4804F05CFD9649994804F058FD74
:101250009549974804F054FD924804F06FFD0A2820
:1012600003D2904804F06AFD40B98E4804F066FD50
:101270000A2807D28C4804F061FD18B18BA18C4874
:1012800004F03EFD8B498A4804F03AFD8A498848BB
:1012900004F036FD10BD10B54FF48061844804F0B1
:1012A00024FDFFF7C7FCFFF7F4FCFFF721FDFFF774
:1012B00059FDFFF7ADFDFFF72FFE82497C4804F092
:1012C0001FFD81497A4804F01BFD8848006818B961
:1012D0008749774804F014FD84480068012803D149
:1012E0008449734804F00CFD7949714804F008FD05
:1012F0007848006818B978496D4804F001FD7548D0
:101300000068012803D17549694804F0F9FC714867
:101310000068022803D17249654804F0F1FC6D4869
:101320000068032803D16F49614804F0E9FC5D4976
:101330005F4804F0E5FC5C495D4804F0E1FC594875
:1013400004F0FCFC0A2803D2564804F0F7FC40B92C
:10135000544804F0F3FC0A2807D2534804F0EEFC8A
:1013600018B152A1524804F0CBFC5249504804F045
:10137000C7FC51494E4804F0C3FC10BD10B5554898
:10138000006803280AD14D4800684D490860FFF7FE
:1013900082FF00F05AFC00204E4908604D4800686A
:1013A00002280AD14548006845490860FFF773FFE5
:1013B00000F04BFC002047490860464800680128BF
:1013C0000AD13E4800683E490860FFF764FF00F01C
:1013D0003CFC00203F49086010BD2DE9F041074664
:1013E0000C460026002532E0625D302A06DB625D95
:1013F000392A03DC625D303AD0B208E0625D612ACE
:1014000005DB625D662A02DC625D573AD0B26A1C77
:10141000A25C302A08DB6A1CA25C392A04DC6A1C44
:10142000A25C303AD1B20BE06A1CA25C612A07DBF5
:101430006A1CA25C662A03DC6A1CA25C573AD1B221
:1014400041EA0012BA55701CC6B2A81CC5B22046AB
:1014500004F074FCB042C7D8BDE8F081F0B5024694
:101460000D460024002354E02E5D30092E5D06F069
:101470000F01002805DB092803DC00F13006D654F3
:1014800006E00A2804DB0F2802DC00F15706D654D8
:10149000002931DB09292FDC01F13006F7B25E1C8F
:1014A000975532E0E801002042020020323000006F
:1014B0003C030020F602002070000020E80000201D
:1014C00068000020AC010020A6020020B900002026
:1014D000CE02002018000020900000207E00002096
:1014E0008700002075000020A700002008000020D1
:1014F000A0000020990000200A2906DB0F2904DC47
:1015000001F15706F7B25E1C9755601C84B2981C17
:1015100083B23D4800888442A6DBF0BD10B50020B0
:101520003A490880C8213A4804F0DFFB10BD10B5E5
:101530003848406837490968884231D035484168A1
:101540004068401C334A506002F10900415C2F485A
:1015500002880088401C2D4B18802D488154184665
:101560000088C72802D10020194608802948406811
:10157000C72802D100202749486024480088401E1F
:101580002349085C0A2805D020480088401E085CD2
:101590000D2805D100201D49088001201E49087032
:1015A0001D48007800282CD01CA1194804F0B4FB79
:1015B00098B117490E311D48FFF70FFF00201C4955
:1015C000087001201B490870FFF7A8FF002012498E
:1015D00008701648401E01F08BFF17A10C4804F05C
:1015E0009BFB20B917A10A4804F096FB20B100F03C
:1015F0001CF916A004F086FFFFF790FF00200649B3
:101600000870002010BD00005A010020C200002018
:101610003C070020EC0B0020C4000020343234636F
:10162000343534643431343333610000890D0020A3
:101630003E010020C5000020244D5955524352451B
:1016400041440000244D5955524300004154244D5B
:10165000594E4554524541443D312C3230300D0AEB
:101660000000000000B587B00121042002F0F0FA6C
:101670000121480402F0F9FA0420ADF818001820FE
:101680008DF81B0003208DF81A0006A9F64802F019
:1016900023F80820ADF8180004208DF81B0006A9D7
:1016A000F14802F019F8F14802F036FB4FF41650F9
:1016B00002900020ADF80C00ADF80E00ADF810005F
:1016C000ADF814000C20ADF8120002A9E74802F0B2
:1016D00066FB40F22551E54802F008FD012240F288
:1016E0002551E24802F0F3FB26208DF80400022089
:1016F0008DF8050003208DF8060001208DF8070005
:1017000001A801F020FF0121D84802F0D4FB07B066
:1017100000BD70B504460D462946204602F038FC4F
:1017200000BF8021204602F0A1FC0028F9D070BD46
:101730002DE9F04107460D461646002405E0295DD7
:101740003846FFF7E6FF601CC4B2B442F7DB00BFC7
:101750004021384602F08AFC0028F9D0BDE8F0812B
:1017600070B506460C46002500BF615D3046FFF7A8
:10177000D0FF6D1C605D0028F7D100BF40213046CE
:1017800002F074FC0028F9D070BD2DE9F041054647
:101790000C46260AE7B23146284602F0F9FB00BFA4
:1017A0008021284602F062FC0028F9D039462846FC
:1017B00002F0EEFB00BF8021284602F057FC002813
:1017C000F9D0BDE8F08170B504460D46E1B2A748F6
:1017D00002F0DEFB00BF8021A44802F047FC002895
:1017E000F9D0204670BD10B5044600BF20219F48A7
:1017F00002F03CFC0028F9D09C4802F0CDFB10BD63
:1018000070B504460D460DE000BF4021974802F038
:101810002DFC0028F9D014F8011B944802F0B8FB05
:10182000681E85B2002DEFDC70BD10B50020904918
:10183000086048600872C8218D48093004F055FAE4
:1018400010BD2DE9F04188B005460C460026002762
:1018500006E014F8012B3046711CCEB20DF80020C2
:1018600020780028F5D1FFF7E0FF284604F066FA5B
:101870001FFA80F841462846FFF7C2FF4FF47A70FE
:1018800001F049FA7A48007A01280CD10CB90127F5
:101890000AE069467648093004F03EFA08B10127AB
:1018A00002E0002700E00027012F03D1002008B04C
:1018B000BDE8F0810120FAE73EB56E4A07CA8DE81F
:1018C0000700FFF7B2FF14216B4804F00EFA4FF443
:1018D000FA7001F020FA69A16846FFF7B2FF48BB31
:1018E0000924002512E062480930005D30280BDB36
:1018F0005F480930005D392806DC5D480930005D2D
:101900005D494855681CC5B2601CC4B258480930CE
:1019100004F014FAA042E6D801205949087056484C
:101920000078302841D15448407830283DD10020FB
:1019300008703AE04FF4FA7001F0EDF94FF4FA70E4
:1019400001F0E9F94FF4FA7001F0E5F94BA14848CC
:10195000093004F0E1F940B30924002512E04448BD
:101960000930005D30280BDB41480930005D392823
:1019700006DC3F480930005D3F494855681CC5B248
:10198000601CC4B23A48093004F0D8F9A042E6D845
:1019900001203B49087038480078302805D1364886
:1019A0004078302801D1002008703EBD0EB5314A84
:1019B0000C3207CA8DE80700FFF737FF4FF4FA70C3
:1019C00001F0A9F92DA16846FFF73BFF0EBD1FB539
:1019D0002CA30FCB8DE80F00FFF727FF4FF4FA7011
:1019E00001F099F925A16846FFF72BFF1FBD10B53F
:1019F0008CB0142227A107A804F05EF92AA103C91C
:101A0000CDE9050114222AA1684604F055F9002405
:101A10000FE005A8005D8DF82A00FFF706FF4FF4E0
:101A2000FA7001F078F907A926A004F06BFD601C9C
:101A3000C4B2022CEDDB00240FE005A8005D8DF898
:101A40000C00FFF7F2FE4FF4FA7001F064F96946FA
:101A50001CA004F057FD601CC4B2022CEDDB012079
:101A6000194908700CB010BD000801400044004046
:101A7000EC0B0020286E0008F10000204F4B000006
:101A8000CB00002041542B4950523D393630300DA7
:101A90000A0000004154244D594E4554434C4F53C5
:101AA000453D200D0A000000303132333435360018
:101AB0004154244D594E45544143543D202C300D42
:101AC0000A00000025730000C900002030B589B06D
:101AD0002022B44901A804F0EFF8002530E0FFF718
:101AE000A4FE4FF4FA7001F016F9AFF2700101A8EC
:101AF000FFF7A7FE10BB0E2411E0AB48005D3028B5
:101B00000BDBA948005D392807DCA748005DA74921
:101B100008700120A649087006E0601CC4B2A24803
:101B200004F00CF9A042E8D800BFA04800783028A3
:101B300004DB9E480078392800DC03E0681CC5B24D
:101B4000022DCCDB00BF022D08DB9848007861280D
:101B500004D10020974908709549087009B030BD3C
:101B600010B595A1904804F0D7F820B1FFF75DFEBD
:101B700094A004F0C7FC10BD10B5FFF756FE97A067
:101B800004F0C0FC4FF4C87001F0C5F8FFF74DFE3B
:101B90009AA004F0B7FC4FF4C87001F0BCF8FFF74E
:101BA00044FEA0A004F0AEFC4FF4C87001F0B3F8FE
:101BB000FFF73BFEA048007818B1A0A004F0A2FCFB
:101BC00002E0A9A004F09EFC4FF4C87001F0A3F855
:101BD000FFF72BFEAFA004F095FC4FF47A7001F0F4
:101BE0009AF8AFF26811704804F096F828B1012015
:101BF0006F490870AC49087026E04FF4FA7001F0A4
:101C00008AF8AFF28811684804F086F828B10120FC
:101C100067490870A449087016E04FF4FA7001F0A3
:101C20007AF8AFF2A811604804F076F828B10120E4
:101C30005F4908709C49087006E000205D49087003
:101C40005B4908709849087010BD10B59648007837
:101C5000012844D1954804F071F84408FFF7E5FDE8
:101C6000214693A004F04EFC642001F054F88F4903
:101C7000AFF2B01004F046FC4FF4FA7001F04BF8EC
:101C8000AFF20821484804F047F818B101208E4906
:101C9000087024E04FF4FA7001F03DF8AFF224210F
:101CA000414804F039F818B101208749087016E05E
:101CB0004FF4FA7001F02FF8AFF240213A4804F0E7
:101CC0002BF818B101208049087008E0002039493C
:101CD000087037490870744908707B49087010BD56
:101CE00010B53448007810B178480078C0B9FFF7D3
:101CF0009CFD642001F00FF8FFF769FE642001F0FD
:101D00000AF8FFF774FE642001F005F8FFF78DFD77
:101D1000642001F000F8FFF7CFFD642000F0FBFF26
:101D200023480078F0B92348007801281AD1674881
:101D30000078012816D1FFF778FD642000F0EBFF52
:101D4000FFF71AFF4FF4FA7000F0E5FFFFF7A3FA70
:101D5000FFF77BFF4FF4FA7000F0DDFFFFF79BFA0F
:101D6000FFF773FF5A48007830B1002058490870D7
:101D7000FFF791FAFFF769FF2F48007880B15548C7
:101D8000007868B10020534908704FF480614748DB
:101D900003F0ABFF5049454803F0B2FFFFF755FF92
:101DA00010BD0000406E0008F50B0020F000002080
:101DB000CA000020C9000020244D59555243524505
:101DC000414400004154244D594E4554524541442C
:101DD0003D312C3130300D0A000000004154244DBB
:101DE000594E4554434F4E3D322C2241504E222CE9
:101DF00022434D4E4554220D0A0000004154244D0B
:101E0000594E4554434F4E3D322C22555345525066
:101E10005744222C224E6F6E652C4E6F6E65220D3C
:101E20000A0000004154244D594E45544143543D4D
:101E3000322C310D0A000000050100204154244DD0
:101E4000594E45545352563D322C312C302C312CA6
:101E5000223130332E34362E3132382E34353A3268
:101E600039343231220D0A004154244D594E455423
:101E70005352563D322C312C302C312C2231323001
:101E80002E32352E3234312E36343A39313030223A
:101E90000D0A00004154244D594E45544F50454EB3
:101EA0003D310D0A00000000CC0000203C03002062
:101EB0004154244D594E455457524954453D312CB7
:101EC00025640D0A00000000CD000020CB0000209A
:101ED000C50000205E0100203011002000B585B053
:101EE0000121C80401F0C1FE0121102001F0B0FE63
:101EF0004FF48060ADF8100018208DF81300032017
:101F00008DF8120004A95E4801F0E6FB4FF4006072
:101F1000ADF8100004208DF8130004A9584801F012
:101F2000DBFB4FF4165000900020ADF80400ADF834
:101F30000600ADF80800ADF80C000C20ADF80A0062
:101F40006946504801F02BFF01214E4801F0B3FFD4
:101F500040214C4802F097F805B000BD70B504462A
:101F60000D462946204602F013F800BF8021204686
:101F700002F07CF80028F9D070BD2DE9F041074649
:101F80000D461646002400BF295D3846FFF7E6FFE0
:101F9000641CB442F8D3BDE8F08170B506460C4627
:101FA000002500BF615D3046FFF7D8FF6D1C605D06
:101FB0000028F7D170BD10B5052233493148FFF72D
:101FC000DCFF642000F0A7FE062230492D48FFF711
:101FD000D4FF642000F09FFE06222D492948FFF718
:101FE000CCFF642000F097FE10BD10B505222949F2
:101FF0002448FFF7C2FF642000F08DFE0622264928
:102000002048FFF7BAFF642000F085FE10BD10B530
:10201000042222491B48FFF7B0FF642000F07BFE3A
:1020200010BD10B510211E4800F0F1FF90B91D48F9
:10203000007878B9642000F06EFE1021184800F096
:10204000E6FF38B91748007820B9FFF7CEFF012026
:10205000144908701021124800F0D9FF01280DD151
:10206000642000F058FE10210D4800F0D0FF012838
:1020700004D1FFF7CCFF00200A49087010BD000012
:1020800000100140004C0040070100200C0100201E
:102090001201002018010020210100201D01002054
:1020A000000801400601002008B50121102001F0C0
:1020B000CFFD0220ADF8000000208DF80300694636
:1020C000A04801F009FB08BD00B591B00121084608
:1020D00001F0B1FD0121480201F0BAFD9A4803F078
:1020E00055F99A4806909A480790002008900120D8
:1020F000099000200A900B904FF480700C908000A3
:102100000D9020200E9000020F900020109006A944
:102110008D4803F0DDF901218B4803F004FA00201B
:1021200001908DF8080001208DF809004FF460201F
:1021300003900020049001208DF8140001A9834829
:102140004C3802F022FF4FF4404001F0E5FC002340
:1021500001220B217D484C3802F0AFFF01217B4862
:102160004C3802F049FF012178484C3802F039FF21
:1021700076484C3802F057FF00BF74484C3802F0E4
:1021800057FF0028F9D171484C3802F05BFF00BFBF
:102190006E484C3802F05BFF0028F9D101216B48F2
:1021A0004C3802F05EFF11B000BD10B5FFF77CFFA8
:1021B000FFF78AFF10BD08B50121142001F048FD8A
:1021C0003120ADF8000000208DF8030069465D481D
:1021D00001F082FA08BD00B591B00121084601F076
:1021E0002AFD0121480201F033FD574803F0CEF8E3
:1021F0005648069057480790002008900320099001
:1022000000200A9080200B9040000C9080000D90E0
:1022100020200E9000020F900020109006A94A483E
:1022200003F056F90121484803F07DF900200190A0
:1022300001208DF808008DF809004FF4602003900C
:102240000020049003208DF8140001A93F484C3869
:1022500002F09BFE4FF4404001F05EFC0723012298
:102260000E213A484C3802F028FF072302220F21A2
:1022700036484C3802F021FF07230322012133485E
:102280004C3802F01AFF012130484C3802F0B4FEFD
:1022900001212E484C3802F0A4FE2C484C3802F0A4
:1022A000C2FE00BF29484C3802F0C2FE0028F9D116
:1022B00026484C3802F0C6FE00BF24484C3802F0D5
:1022C000C6FE0028F9D1012120484C3802F0C9FE91
:1022D00011B000BD10B5FFF76EFFFFF77CFF10BD1A
:1022E0002DE9F0471B49888803F025FE81464FF011
:1022F0008B4103F070FD044603F022FE07464FF0C9
:102300006632154B03F0A5FD054603F05DFE13494B
:102310008860886803F014FE0446114A114B03F0EC
:102320003BFE0CD80D49886803F00AFE04460C4AAF
:102330000D4B03F019FE02D80120BDE8F087002004
:10234000FBE7000000100140080002404C2401405F
:10235000280100202A01002066660A408C01002026
:102360009A9999999999E13F9999F13F30B589B036
:1023700005460C460121084601F077FC01210520A5
:1023800001F066FC0120ADF8200018208DF8230034
:1023900003208DF8220008A9D94801F09DF9ADF875
:1023A0001850ADF814400020ADF81A00ADF8160032
:1023B00005A94FF0804001F087FF6020ADF80400D0
:1023C0000120ADF806004B20ADF80A000020ADF862
:1023D0000C0001A94FF0804001F0B3FF0821C806AE
:1023E00002F0FEFB0121880702F0CAFB01218807E9
:1023F00002F0C6FA09B030BD1FB50121042001F07A
:1024000034FC0A20ADF8080040F2CF20ADF80400FB
:102410000020ADF80A00ADF8060001A9B94801F0A6
:1024200053FF01224121B74802F0C5FA1E208DF862
:10243000000000208DF8010003208DF8020001202B
:102440008DF80300684601F07EF80121AD4802F0E6
:1024500097FA1FBD1FB50121082001F006FC64207A
:10246000ADF808004720ADF804000020ADF80A00E0
:10247000ADF8060001A9A44801F026FF0122412180
:10248000A14802F098FA32208DF8000000208DF863
:10249000010003208DF8020001208DF8030068463A
:1024A00001F051F80121984802F06AFA1FBD08B501
:1024B0004FF4A06001F042F81D208DF800000120CB
:1024C0008DF801008DF802008DF80300684601F0D8
:1024D0003AF808BD0EB50121022001F0C6FB42F218
:1024E0000F70ADF804004720ADF800000020ADF8F3
:1024F0000600ADF802008DF808006946834801F037
:10250000E3FE0121814802F001FD012211467F48CE
:1025100002F051FA01217D4802F032FA0EBD10B5E9
:10252000FFF7C5FFFFF7D6FFFFF766FFFFF792FF44
:1025300010BD30B500221EE0002116E0744830F8CE
:1025400011400546481C35F8100084420BDD284632
:1025500030F811300446481C34F8100024F81100FB
:10256000481C24F81030481C81B2C2F16300884234
:10257000E4DC501C82B2632ADEDB6548B0F86200FE
:1025800030BD2DE9F0476349088803F0D4FC81464B
:102590004FF08B4103F01FFC044603F0D1FC0746CB
:1025A0004FF066325C4B03F054FC054603F00CFD23
:1025B0005A4908605A480078B8B908684FF07E5107
:1025C00003F01EFD0CD2FEF7FAFDFFF73EFBC8201C
:1025D00000F0A1FB4FF40051524801F02CF904E047
:1025E0004FF400514F4801F024F9BDE8F08710B5D1
:1025F0000121444802F08DFC30B30121414802F032
:1026000099FC4948007878B94848007864280BDA82
:10261000404840883E49454A127821F81200434814
:102620000078401C4149087040480078642805D172
:1026300001203D49087000203C490870FFF7A1FFC8
:10264000FEF775FF00F0DDF910BD10B501212E4831
:1026500002F05FFC002852D001212B4802F06AFCF6
:1026600033480088322812D10021400702F088F94F
:1026700030480088401C2F49088008460088C82838
:102680003DD100202A4908802A49088037E02A489D
:102690000088C0B929480088401C2849088008469D
:1026A000008802282BD126480088401C2449088035
:1026B00000202249088001201F490880002180074E
:1026C00002F05EF91BE01D480088401C1B49088091
:1026D000084600880A2812D11A480088401C194967
:1026E00008800020154908801349088001218807C7
:1026F00002F046F90E480088401C0D49088010BDC4
:102700000008014000080040000C004000040040A8
:10271000C00C00202A01002066660A408C010020BF
:1027200005000020000C0140310100203001002094
:102730003601002038010020320100203401002041
:102740003A0100203C01002000B587B0012108209B
:1027500001F07EFA0121880401F087FA4FF48060CD
:10276000ADF8180018208DF81B0003208DF81A0012
:1027700006A9FE4800F0B0FF4FF40060ADF8180065
:1027800004208DF81B0006A9F84800F0A5FFF848C2
:1027900001F0C2FA4FF4E13002900020ADF80C00D5
:1027A000ADF80E00ADF81000ADF814000C20ADF837
:1027B000120002A9EE4801F0F2FA40F22551EC486D
:1027C00001F094FC012240F22551E94801F07FFB21
:1027D00027208DF8040002208DF8050003208DF8D5
:1027E000060001208DF8070001A800F0ACFE0121D1
:1027F000DF4801F060FB07B000BD70B504460D4630
:102800002946204601F0C4FB00BF8021204601F08C
:102810002DFC0028F9D070BD2DE9F04107460D468A
:102820001646002400BF295D3846FFF7E6FF641C0A
:10283000B442F8D3BDE8F08170B506460C460025D9
:1028400000BF615D3046FFF7D8FF6D1C605D00285A
:10285000F7D170BD10B5FFF777FF10BD00B58BB095
:10286000C448007808B9012000E00020C249097876
:10287000084000286DD02220C049087088740D20BF
:10288000C8740A20087500204875BD4800780028E3
:102890005ED0BC480078082855D2DFE800F0540428
:1028A000050A1B2C314B4FE0B7A1B148FFF7C4FF1D
:1028B0004AE0282101A803F018FAB7A101A803F003
:1028C0001FFAAE4901A803F01BFA01A9A848FFF7B7
:1028D000B3FF39E0282101A803F007FAB3A101A84A
:1028E00003F00EFAA54901A803F00AFA01A9A048CD
:1028F000FFF7A2FF28E0B1A19D48FFF79DFF23E06D
:10290000B4480078302814DD282101A803F0EDF93F
:10291000B1A101A803F0F4F90122AE4901A803F026
:1029200014FAB2A101A803F0EBF901A99048FFF74E
:1029300083FF09E0A7480078302803DDAEA18C486A
:10294000FFF77AFF00E000BF00BF00208C4908704D
:1029500000BFAA48007801280CD10020A7490870C0
:102960008448007810B9FEF7BEFB01E0FEF70DFBCE
:10297000FFF76BF90BB000BD10B50020A04908703F
:10298000C821A04803F0B1F910BD10B540F225519F
:10299000774801F081FB70B32021754801F073FB8B
:1029A00040F22551724801F0A1FB0721704801F067
:1029B0005DFB08B1012400E00024ECB992480068F6
:1029C00040F2FF71884217D2694801F0E5FAC1B2BE
:1029D0008D4802680068401C8B4B186003F10900A9
:1029E000815401201946087208460068C72806D19C
:1029F0000020086003E003E05D4801F0CDFA00BF6D
:102A000010BD10B5804840687F490968884230D0C1
:102A10007D4841684068401C7B4A506002F10900D3
:102A2000405C7849764A1278885408467449097897
:102A3000405C0A2805D0734871490978405C0D282C
:102A400005D100206E4908700120704908706C485B
:102A50000078401C6A49087008460078C82801D1EF
:102A60000020087068484068C72802D100206649E5
:102A7000486066480078002875D06549614803F0D1
:102A80004BF940B35F48C07D1E2807DD5D48C07D1F
:102A90006049087001205949087016E05948007EC5
:102AA0001E2807DD5748007E5A4908700120534907
:102AB00008700AE05348C07E1E2806DD5148C07EDB
:102AC0005449087001204D490870FFF755FF002058
:102AD0004E49087010BD50A14A4803F01DF968B175
:102AE0004848C07C3B4908700846007848498872CD
:102AF000FFF742FF002045490870EBE748A1414835
:102B000003F00AF928B1FFF737FF00203F490870AA
:102B1000E0E744A13B4803F0FFF878B1FFF72CFF52
:102B200000203A4908701348007810B90120334951
:102B3000087001200F4908700020CBE73AA1314806
:102B400003F0EAF880B1FFF717FF00202F49087063
:102B500008480078012801D128490870002005495B
:102B600008700120B6E785E062E00000000C01403B
:102B7000004800403E010020CC000020880D0020CD
:102B8000520100205101002041542B424C45494E36
:102B900049543D310D0A000041542B424C455343EA
:102BA000414E3D312C332C312C00000041542B423E
:102BB0004C45434F4E4E3D302C00000041542B42BB
:102BC0004C4547415454435052494D5352563D3061
:102BD0000D0A00004101002041542B424C45474161
:102BE00054544357523D302C000000002C332C31FC
:102BF0002C310D0A00000000310000003F010020D0
:102C0000530100209E0D0020680E0020540100207A
:102C1000420100205501002030784343303000004D
:102C20004F4B00003E0000006572726F72000000A2
:102C3000AFF20C01104803F06FF820B90FA10E4855
:102C400003F06AF888B1FFF797FE00200F4908707B
:102C50000F480078012801D10E49087000200C4966
:102C600008700D490870012034E7FFF785FE002049
:102C70000649087000202DE79E0D00202B424C4590
:102C8000444953434F4E4E3A300000005401002057
:102C90003E0100203F0100204101002010B56FF0EF
:102CA000040000F09AFC2E4800682E49B0FBF1F0B9
:102CB0002D4908700846007800EB4001C1EBC010B8
:102CC0004FF6FF7101EAC0002849088010BD014697
:102CD000254A12784A434FF0E0235A6100229A6154
:102CE0001A46126942F001021A6100BF4FF0E02259
:102CF000106900F001021AB100F48032002AF5D008
:102D00004FF0E022126922F001024FF0E0231A6135
:102D100000229A6170470146144A12884A434FF0D4
:102D2000E0235A6100229A611A46126942F00102B8
:102D30001A6100BF4FF0E022106900F001021AB1E1
:102D400000F48032002AF5D04FF0E022126922F020
:102D500001024FF0E0231A6100229A6170470000DF
:102D60005000002000127A00560100205801002077
:102D700008B54FF4A06000F0E1FB17208DF80000CB
:102D800000208DF8010001208DF802008DF803006D
:102D9000684600F0D8FB17208DF80000684600F068
:102DA000D2FB28208DF80000684600F0CCFB2820DC
:102DB0008DF80000684600F0C6FB0A208DF8000080
:102DC000684600F0C0FB08BD1FB501211C2000F0C3
:102DD0003FFFC020ADF80C0048208DF80F0003A97C
:102DE000914800F079FC4FF44040ADF80C004820C9
:102DF0008DF80F0003A98D4800F06EFC41F212001F
:102E0000ADF80C0048208DF80F0003A9884800F0A9
:102E100063FC4FF4C070ADF80C0048208DF80F0033
:102E200003A9814800F058FC0121084600F010FF7A
:102E30000421002000F066FD0621022000F062FD62
:102E40000721022000F05EFD0C21002000F05AFD59
:102E50000E21012000F056FD0F21012000F052FD4F
:102E600045F2D200019000208DF808000C208DF86A
:102E7000090001208DF80A0001A802F0BFFB07201D
:102E80008DF8000001208DF801008DF802008DF80A
:102E90000300684600F057FB0A208DF8000001206F
:102EA0008DF801008DF802008DF80300684600F0EF
:102EB0004AFB17208DF8000002208DF80100052044
:102EC0008DF8020001208DF80300684600F03BFBFE
:102ED00028208DF8000001208DF8010007208DF8D2
:102EE000020001208DF80300684600F02CFB1FBD96
:102EF0000EB501211D2000F0ABFEFFF739FF402089
:102F0000ADF8080004208DF80B0002A9464800F037
:102F1000E3FB4020009000208DF804000C208DF889
:102F2000050001208DF80600684602F067FB80204E
:102F3000ADF8080004208DF80B0002A93A4800F013
:102F4000CBFB8020009000208DF804000C208DF831
:102F5000050001208DF80600684602F04FFB4FF493
:102F60008040ADF8080004208DF80B0002A92F481E
:102F700000F0B2FB4FF48040009000208DF8040078
:102F80000C208DF8050001208DF80600684602F03F
:102F900035FB4FF40040ADF8080004208DF80B001D
:102FA00002A9224800F098FB4FF48050ADF80800C9
:102FB00004208DF80B0002A91D4800F08DFB4FF492
:102FC0008050009000208DF804000C208DF8050042
:102FD00001208DF80600684602F010FB1020ADF8C5
:102FE000080004208DF80B0002A9114800F074FBC2
:102FF0001020009000208DF804000C208DF80500B2
:1030000001208DF80600684602F0F8FA0EBD70B592
:1030100004460D462946204600F0F1FB08B9012080
:1030200070BD0020FCE7000000100140000C0140D2
:103030000008014008B501211C2000F009FE4020D5
:10304000ADF8000010208DF8030003208DF8020079
:103050006946244800F040FB8020ADF80000694636
:10306000204800F039FB10208DF803000001ADF876
:10307000000069461C4800F02FFB4FF40070ADF8CB
:1030800000006946184800F027FB4FF48070ADF847
:1030900000006946154800F01FFB4FF40060ADF8D2
:1030A00000006946114800F017FB80200D491431DB
:1030B00008604020086080000B49486141000A48D0
:1030C00000F0B7FB4FF48071084800F0B2FB4FF4FA
:1030D0000061064800F0ADFB08BD8022014B1033B3
:1030E0001A607047000C01400010014000080140C8
:1030F00008B50121042000F0ABFD4FF40070ADF8DD
:10310000000003208DF8020018208DF803006946A6
:10311000B84800F0E1FA4FF48060ADF800000420F8
:103120008DF803006946B34800F0D6FA08BD08B52B
:1031300025208DF8000003208DF801008DF8020095
:1031400001208DF80300684600F0FDF908BD00B5C8
:103150008BB0A94802F01AF9A8480090A84801903D
:10316000002002904FF4FA70039000200490802019
:10317000059000200690079008904FF48050099029
:1031800000200A9069469C4802F0A2F901219A4861
:1031900002F0C9F90BB000BD00B58BB096481438E9
:1031A00002F0F4F8954800909648019010200290A3
:1031B0004FF47A7003900020049080200590002046
:1031C0000690079008904FF48050099000200A90D4
:1031D00069468948143802F07BF901218648143881
:1031E00002F0A1F90BB000BD70B505460E460024F3
:1031F0000EE000BF40218148001F00F037FF00288B
:10320000F8D0295D7D48001F00F0C2FE601CC4B2EA
:10321000B442EEDB00BF40217848001F00F026FFDB
:103220000028F8D070BD0146092903DC01F1300007
:10323000C0B270470F2903DC01F13700C0B2F8E7D4
:103240000020F6E730B587B004461C226E49684678
:1032500002F032FD04F13000C0B28DF80800002009
:103260008DF80A008DF80B00012012E09DF80A107D
:103270001DF8002081EA22118DF80A109DF80B102C
:103280001DF8002002F00F0251408DF80B10411C78
:10329000C8B20928EADB9DF80A00FFF7C4FF8DF8E1
:1032A0000A009DF80B00FFF7BEFF8DF80B00684683
:1032B00002F044FDC5B229466846FFF795FF07B006
:1032C00030BD1FB504460121880300F0C1FC012177
:1032D000084600F0B0FC00940020ADF80400ADF802
:1032E0000600ADF80800ADF80C000C20ADF80A009F
:1032F00069464248001F00F052FDFFF7F9FEFFF754
:1033000016FF012240F224413C48001F00F0DFFD7F
:10331000012240213948001F00F0FEFD01213748FD
:10332000001F00F0C8FDFFF712FF0320FFF78AFF20
:103330001FBD10B5002240213048001F00F0ECFDF9
:1033400000212D4802F0EFF84FF4FA712A4802F0FC
:10335000FFF80121284802F0E6F801224021274821
:10336000001F00F0D9FD10BD10B5002280212348B8
:10337000001F00F0D1FD00211F48143802F0D3F8DF
:103380004FF47A711C48143802F0E2F801211A480F
:10339000143802F0C8F8012280211848001F00F0FC
:1033A000BBFD10BD10B540F224411448001F00F0D1
:1033B00073FEF0B140F224411048001F00F096FE69
:1033C0000E48001F00F0E8FD0B4802F0C3F8C0F5FE
:1033D000FA700E4908800A490A48FEF73FF80120B2
:1033E0000B490870FFF7A5FF4FF4FA71044802F08B
:1033F0007CFC10BD00080140580002400438014028
:103400003C0F002030110020606E00085A0100209F
:103410005E01002008B50121082000F019FC4FF4DE
:103420000050ADF8000010208DF8030003208DF847
:10343000020069460C4800F04FF94FF400510A4869
:1034400000F0F7F90121102000F002FC0220ADF895
:10345000000010208DF8030003208DF8020069465B
:10346000024800F039F908BD000C0140001001408D
:103470002DE9F04705460F461646A5F100694FEACB
:10348000D9284FF0006000EBC82AB5F1006F04D3D3
:1034900005EB46001E49884201D3BDE8F08702F0E3
:1034A0004CF9504602F08EF9002407E037F814106A
:1034B00005EB440002F089FA601C84B2B442F5DBEB
:1034C00002F047F900BFE8E701460888704730B5C9
:1034D00003460C461546002207E003EB4200FFF7C7
:1034E000F3FF24F81200501C82B2AA42F5DB30BD73
:1034F00010B504460B2221460648FFF7B9FF10BD60
:1035000010B504460B2221460248FFF7E0FF10BD2C
:103510000000080800600308064880470648004786
:10352000FEE7FEE7FEE7FEE7FEE7FEE7FEE7FEE773
:10353000FEE7FEE7330B0008310100083149014383
:10354000314A1160704770B5002100230F22C47802
:1035500004B32D4C246804F4E064C4F5E064210A4B
:10356000C1F10403CA40447804FA03F1847814409A
:1035700021430901254C0678A155047804F01F0564
:103580000124AC4005786D11AD0005F1E025C5F8CA
:10359000004109E0047804F01F050124AC401C4DF3
:1035A0000678761145F8264070BD1A4A0A40024353
:1035B000154B1B1F1A60704739B1134A121D126850
:1035C0000243114B1B1D1A6006E00F4A121D1268C0
:1035D00082430D4B1B1D1A607047042808D14FF021
:1035E000E021096941F004014FF0E022116107E098
:1035F0004FF0E021096921F004014FF0E022116150
:10360000704700000000FA050CED00E000E400E067
:1036100080E100E080FFFF1F10B50446CC488442E3
:1036200008D10121042000F02DFB0021042000F02E
:1036300029FB46E0C748844208D10121082000F058
:1036400021FB0021082000F01DFB3AE0C248844223
:1036500008D10121102000F015FB0021102000F0FE
:1036600011FB2EE0BD48844208D10121202000F04A
:1036700009FB0021202000F005FB22E0B84884422D
:1036800008D10121402000F0FDFA0021402000F087
:10369000F9FA16E0B348844208D10121802000F0F5
:1036A000F1FA0021802000F0EDFA0AE0AE488442F1
:1036B00007D10121801500F0E5FA0021A01500F0E6
:1036C000E1FA10BD10B50121084600F0DBFA002137
:1036D000012000F0D7FA10BD2DE9F0410246002587
:1036E0000026002000230024002791F803C00CF0DE
:1036F0000F0591F803C00CF0100CBCF1000F03D0C3
:1037000091F802C04CEA050591F800C0BCF1000F29
:1037100031D0146800202BE04FF0010C0CFA00F3BC
:10372000B1F800C00CEA03069E4220D183004FF09E
:103730000F0C0CFA03F7BC4305FA03FC4CEA040433
:1037400091F803C0BCF1280F06D14FF0010C0CFA20
:1037500000FCC2F814C00AE091F803C0BCF1480FA5
:1037600005D14FF0010C0CFA00FCC2F810C0401C4F
:103770000828D1D31460B1F800C0BCF1FF0F34DDCC
:10378000546800202EE000F1080C4FF0010808FA00
:103790000CF3B1F800C00CEA03069E4221D183006D
:1037A0004FF00F0C0CFA03F7BC4305FA03FC4CEA8C
:1037B000040491F803C0BCF1280F05D100F1080CF6
:1037C00008FA0CF8C2F8148091F803C0BCF1480F55
:1037D00007D100F1080C4FF0010808FA0CF8C2F804
:1037E0001080401C0828CED35460BDE8F0814FF60D
:1037F000FF710180022181700421C170704702466F
:10380000002093680B400BB1012000E000207047BE
:103810000146886880B2704702460020D3680B409A
:103820000BB1012000E0002070470146C86880B25B
:10383000704701617047416170470AB1016100E062
:1038400041617047C16070474FF480320A43826122
:103850008161826182698269704702460020434B20
:1038600018684FF68073184040EA021008433F4B37
:10387000186070473E49C8617047F0B50A4600239A
:1038800000240021002500F00046B6F1004F02D1CF
:10389000364EF16901E0354E7168C0F3034583B2DD
:1038A00000F44016B6F5401F08D121F070612F4E8C
:1038B000766826F070662D4F7E6012E000F4801668
:1038C000B6F5801F06D1032606FA05F4A14341F0A0
:1038D000706106E0460D360103FA06F6B14341F089
:1038E000706122B1460D360103FA06F6314300F04D
:1038F0000046B6F1004F02D11C4EF16101E01B4EB3
:103900007160F0BD30B500228B071C0F0F2303FA46
:1039100004F2164B08338C1053F824309343134CA5
:1039200008348D1044F8253023468C1053F8243089
:103930008C07240F00FA04F423430C4C08348D1038
:1039400044F8253030BD0A49DC310860704700007A
:1039500000080140000C014000100140001401402B
:1039600000180140001C01400020014000000140FF
:1039700000002042DF48006840F00100DD49086097
:1039800008464068DC490840DA4948600846006853
:10399000DA490840D74908600846006820F48020CA
:1039A00008600846406820F4FE0048604FF41F009D
:1039B00088607047CF49096821F48031CD4A116091
:1039C0001146096821F480211160B0F5803F03D0D1
:1039D000B0F5802F0ED106E0C649096841F4803168
:1039E000C44A116007E0C349096841F4A021C14AF3
:1039F000116000E000BF00BF704710B50146002213
:103A0000002300204A11012A02D1BA4C236806E0A3
:103A1000022A02D1B74C236A01E0B64C636A01F076
:103A20001F02012494401C400CB1012000E0002042
:103A300010BD38B5002000900024002500BF3120C3
:103A4000FFF7DBFF05460098401C00900098B0F59A
:103A5000A06F01D0002DF2D03120FFF7CEFF08B1CA
:103A6000012400E00024204638BD01460020A14A80
:103A7000106820F0F80040EAC10010607047A049CB
:103A800008607047024600209A4B586820F47C106A
:103A900042EA01031843974B5860704798490866FB
:103AA000704701460020934A506820F00300084305
:103AB000506070478F48406800F00C007047014626
:103AC00000208C4A506820F0F00008435060704796
:103AD00001460020874A506820F4E06008435060A7
:103AE000704701460020834A506820F4605040EA45
:103AF000C1005060704729B17E4A527A02437D4B23
:103B00005A7204E07B4A527A82437A4B5A72704767
:103B10007B49D8310860704701460020754A5068DB
:103B200020F440400843506070470021714A203221
:103B30001170704A82F82010012802D004280AD19E
:103B400004E001216B4A2032117005E00521694A29
:103B50002032117000E000BF00BF70476949086063
:103B600070476449096A0143624A116270476549B6
:103B700044390860704730B500210022002400233A
:103B80005C4D6D6805F00C0121B1042905D00829B0
:103B900023D105E05C4D056022E05B4D05601FE030
:103BA000544D6D6805F47012524D6D6805F4803403
:103BB000022505EB92421CB9544D554305600BE0BC
:103BC0004C4D6D6805F400351DB1504D55430560F1
:103BD00002E04D4D5543056002E04B4D056000BFCE
:103BE00000BF444D6D6805F0F0010909484D6B5C5C
:103BF0000568DD4045603F4D6D6805F4E061090AE8
:103C0000434D6B5C4568DD4085603A4D6D6805F459
:103C10006051C90A3E4D6B5C4568DD40C560354D5D
:103C20006D6805F44041890B3A4D6B5CC568B5FB86
:103C3000F3F5056130BD29B12E4A526902432D4B7F
:103C40005A6104E02B4A526982432A4B5A617047F9
:103C500029B1284A92690243264B9A6104E0254A19
:103C600092698243234B9A61704729B1214AD269F4
:103C70000243204BDA6104E01E4AD26982431D4BA5
:103C8000DA61704729B11B4AD2680243194BDA60E6
:103C900004E0184AD2688243164BDA60704729B1B3
:103CA000144A12690243134B1A6104E0114A126963
:103CB0008243104B1A6170471249403908607047BF
:103CC0000F49C86470470B49C87170470948406A7A
:103CD00040F0807007494862704701460020054A5D
:103CE00092680A400AB1012000E0002070470149B3
:103CF00088727047001002400000FFF8FFFFF6FED8
:103D0000000042428004424200127A0000093D0055
:103D10005F0100206F01002010B50446FB4884427B
:103D200009D101218803FFF7ADFF00214FF4804046
:103D3000FFF7A8FF32E0F648844209D10121480488
:103D4000FFF7ADFF00214FF40030FFF7A8FF25E09B
:103D5000F048844209D101218804FFF7A0FF002127
:103D60004FF48020FFF79BFF18E0EB48844209D115
:103D70000121C804FFF793FF00214FF40020FFF753
:103D80008EFF0BE0E548844208D101210805FFF7CA
:103D900086FF00214FF48010FFF781FF10BD2DE951
:103DA000F04786B005460E460024A24600BFA14655
:103DB0000027B08900B100BF2F462C8A4CF6FF7057
:103DC0000440F08804432C82AC894EF6F310044082
:103DD000B08831890843718908430443AC81AC8AB7
:103DE0004FF6FF400440B0890443AC8201A8FFF7BE
:103DF000C2FEC648874202D1DDF810A001E0DDF81E
:103E00000CA0A88900F4004040B10AEBCA0000EB06
:103E10000A1031684900B0FBF1F807E00AEBCA006C
:103E200000EB0A1031688900B0FBF1F86420B8FBA0
:103E3000F0F004012009642101FB1089A88900F435
:103E4000004040B1322000EBC900B0FBF1F000F0BF
:103E50000700044308E0322000EB09106421B0FBA6
:103E6000F1F000F00F0004432C8106B0BDE8F087AC
:103E70004FF41651016000218180C18001810C2125
:103E8000418100218181704710B502460020108ACF
:103E90004FF2FF0318400B884C8823438C88234340
:103EA000CC8823431843108210BD0021018041803B
:103EB0008180C180704721B1828942F400528281A1
:103EC00004E082894DF6FF731A4082817047F0B595
:103ED0000346002400260025002040F66A17B94258
:103EE00000D100BF1846C1F3421401F01F0601279C
:103EF00007FA06F5012C01D10C3004E0022C01D1A7
:103F0000103000E014301AB107682F43076002E058
:103F10000768AF430760F0BD1AB1838A0B43838201
:103F200002E0838A8B4383827047028A4FF6F073E4
:103F30001A400282028A0A430282704782894FF243
:103F4000FF731A40828182890A438281704721B1BE
:103F5000828942F00202828104E082894FF6FD7379
:103F60001A4082817047028A4FF6DF731A4002823C
:103F7000028A0A430282704721B1028A42F48042D7
:103F8000028204E0028A4BF6FF731A4002827047F5
:103F9000C1F308028280704701468888C0F3080098
:103FA0007047818941F0010181817047028BD2B253
:103FB0000283028B42EA012202837047028B02F4E1
:103FC0007F420283028B0A430283704721B1828AB7
:103FD00042F02002828204E0828A4FF6DF731A40A8
:103FE0008282704721B1828A42F01002828204E00C
:103FF000828A4FF6EF731A408282704721B1828A1B
:1040000042F00802828204E0828A4FF6F7731A4077
:104010008282704721B1828942F40042828103E0AA
:104020008289C2F30E028281704721B1828A42F4F2
:104030000062828204E0828A4FF2FF731A40828219
:104040007047828A4FF6FB731A408282828A0A4343
:104050008282704721B1828A42F00202828204E0A9
:10406000828A4FF6FD731A40828270470246002012
:10407000B1F5007F00D100BF13880B400BB10120C8
:1040800000E00020704701F40072B2F5007F00D11B
:1040900000BFCA430280704770B502460024002367
:1040A0000025002040F66A16B14200D100BFC1F3DE
:1040B000421501F01F03012606FA03F3012D02D178
:1040C0009689334006E0022D02D1168A334001E082
:1040D000968A33400C12012606FA04F416883440FE
:1040E00013B10CB1012000E0002070BD10B500221A
:1040F000002340F66A14A14200D100BF0A12012435
:104100009440A3B2DC43048010BD0000003801409D
:104110000044004000480040004C00400050004077
:1041200010B50446FE48844208D10121C014FFF7AF
:10413000A9FD0021E014FFF7A5FDC4E0B4F1804F14
:1041400008D101210846FFF7AAFD00210120FFF751
:10415000A6FDB8E0F348844208D101210220FFF710
:104160009EFD00210220FFF79AFDACE0EE4884425C
:1041700008D101210420FFF792FD00210420FFF760
:104180008EFDA0E0E948844208D101210820FFF714
:1041900086FD00210820FFF782FD94E0E448844278
:1041A00008D101211020FFF77AFD00211020FFF730
:1041B00076FD88E0DF48844208D101212020FFF706
:1041C0006EFD00212020FFF76AFD7CE0DA48844282
:1041D00008D101214014FFF755FD00216014FFF7BD
:1041E00051FD70E0D548844209D10121C804FFF790
:1041F00049FD00214FF40020FFF744FD63E0D04863
:10420000844209D101210805FFF73CFD00214FF44C
:104210008010FFF737FD56E0CA48844209D10121DA
:104220004805FFF72FFD00214FF40010FFF72AFD8E
:1042300049E0C548844208D101214020FFF72FFD05
:1042400000214020FFF72BFD3DE0C048844208D10B
:1042500001218020FFF723FD00218020FFF71FFDB3
:1042600031E0BB48844208D101218015FFF717FDDA
:104270000021A015FFF713FD25E0B648844209D1BF
:1042800001210804FFF7FEFC00214FF48030FFF706
:10429000F9FC18E0B048844209D101214804FFF735
:1042A000F1FC00214FF40030FFF7ECFC0BE0AB48D1
:1042B000844208D101218804FFF7E4FC00214FF477
:1042C0008020FFF7DFFC10BD00220288944B98424B
:1042D0000ED0994B98420BD0B0F1804F08D0914B43
:1042E000984205D0904B984202D0904B984204D10E
:1042F0004FF68F731A404B881A438D4B984207D064
:104300008C4B984204D04FF6FF431A40CB881A4397
:1043100002808B8883850B880385814B98420BD064
:10432000854B984208D08B4B984205D08A4B9842D7
:1043300002D08A4B984201D10B7A038601238382F3
:10434000704770B5002400220023058C4FF6FE76DE
:1043500035400584028C8388048B4FF68F752C4082
:10436000B51E2C400D882C43751E2A400D892A430A
:104370004D882A436A4DA8420BD06F4DA84208D001
:10438000744DA84205D0744DA84202D0734DA84286
:1043900013D14FF6F7752A404D892A434FF6FB7526
:1043A0002A408D882A434FF6FF652B404FF6FF5574
:1043B0002B408D892B43CD892B4383800483CD886B
:1043C0008586028470BD70B5002400220023058C10
:1043D0004FF6EF7635400584028C8388048B48F6CF
:1043E000FF752C404FF6FF452C400D884FF6FF76A9
:1043F00006EA05252C434FF6DF752A400D8906EAAB
:1044000005152A434D8806EA05152A43444DA8425E
:1044100002D0494DA8421DD14FF67F752A404D89E3
:104420004FF6FF7606EA05152A434FF6BF752A4078
:104430008D8806EA05152A434FF6FF352B404FF2CB
:10444000FF752B408D8906EA85052B43CD8906EA49
:1044500085052B4383800483CD880587028470BD46
:1044600070B5002400220023058C4FF6FF6635400E
:104470000584028C8388848B4FF68F752C404FF611
:10448000FC752C400D882C434FF6FF552A400D89B2
:104490004FF6FF7606EA05252A434D8806EA0525EC
:1044A0002A431F4DA84202D0234DA8421DD14FF2EE
:1044B000FF752A404D894FF6FF7606EA05252A4307
:1044C0004FF6FF352A408D8806EA05252A434EF629
:1044D000FF752B404DF6FF752B408D8906EA0515BB
:1044E0002B43CD8906EA05152B4383808483CD8831
:1044F0008587028470BD70B5002200230024058CDE
:104500004EF6FF7635400584038C8488828B48F60E
:10451000FF752A404FF6FF452A400D8820E0000035
:10452000002C01400004004000080040000C004046
:10453000001000400014004000340140004C0140D5
:10454000005001400054014000180040001C004091
:10455000002000400040014000440140004801406C
:104560004FF6FF7606EA05252A434DF6FF752B40E8
:104570000D8906EA05352B434D8806EA05352B43A0
:10458000FA4DA84202D0FA4DA84208D14BF6FF7569
:104590002C408D894FF6FF7606EA85152C438480E2
:1045A0008283CD88A0F84050038470BD828B4FF287
:1045B000FF331A408283828B4FF6FF7303EA012395
:1045C0001A4382837047F0B50C461546002200213D
:1045D0000026078C4EF6FF7C07EA0C070784828BC7
:1045E000018C4FF6FF7707EA043640F6FF473A4062
:1045F0004FF6FF7707EA05273A434FF6FF7707EABA
:1046000003373A43D94FB8420ED0D94FB8420BD0F6
:10461000B0F1804F08D0D74FB84205D0D64FB8423E
:1046200002D0D64FB84206D14DF6FF77394046F456
:104630008057394305E047F6FF57394044F4805727
:10464000394382830184F0BD828B4FF6F3731A40A5
:104650008283828B0A4382837047F0B50C461546ED
:10466000002200210026078C4FF6FF6C07EA0C079A
:104670000784828B018C4FF6FF7707EA04264FF6FA
:104680000C773A404FF6FF7707EA03172F433A4378
:10469000B64FB8420ED0B64FB8420BD0B0F1804FF3
:1046A00008D0B44FB84205D0B34FB84202D0B34F90
:1046B000B84206D14FF6FF57394046F48077394368
:1046C00005E04FF2FF57394044F480773943828345
:1046D0000184F0BD028B4FF2FF331A400283028B3C
:1046E0004FF6FF7303EA01231A4302837047F0B5C4
:1046F0000C461546002200210026078C4FF6EF7C61
:1047000007EA0C070784028B018C4FF6FF7707EA54
:10471000041640F6FF473A404FF6FF7707EA0337A3
:104720003A434FF6FF7707EA05273A438F4FB842DF
:104730000ED08F4FB8420BD0B0F1804F08D08D4FC4
:10474000B84205D08C4FB84202D08C4FB84206D147
:104750004FF6DF77394046F01007394305E04FF652
:104760005F77394044F01007394302830184F0BD7C
:10477000028B4FF6F3731A400283028B0A430283C3
:104780007047F0B50C46154600220021068C4FF606
:10479000FE773E400684028B018C4FF60C76324049
:1047A0007E1C06EA03162E433243704EB0420ED0F2
:1047B0006F4EB0420BD0B0F1804F08D06D4EB0427A
:1047C00005D06D4EB04202D06C4EB04206D14FF6CD
:1047D000FD76314044F00106314305E04FF6F576B1
:1047E000314044F00106314302830184F0BD70B5CD
:1047F00005460C465D4885420ED05D4885420BD08B
:10480000B5F1804F08D05B48854205D05A488542B3
:1048100002D05A48854200D100E000BF208850B93C
:104820002389A28861882846FFF7ABFFE1882846E4
:10483000FFF79EFF25E0208804280AD12389A2885B
:1048400061882846FFF753FFE1882846FFF742FFBB
:1048500017E0208808280AD12389A2886188284681
:10486000FFF7FBFEE1882846FFF7EEFE09E023890B
:10487000A28861882846FFF7A6FEE1882846FFF750
:1048800095FE70BD2DE9F04105460C460026012736
:10489000608808B9022600E00026A088012801D11E
:1048A000022700E001272088A0B92389A288618817
:1048B0002846FFF766FFE1882846FFF759FF23895E
:1048C0003A4631462846FFF712FFE1882846FFF7AF
:1048D00001FF13E02389A28861882846FFF707FFBC
:1048E000E1882846FFF7F6FE23893A4631462846F6
:1048F000FFF747FFE1882846FFF73AFFBDE8F08160
:104900000A884B881A438B881A43CB881A430B8931
:104910001A434B891A438B891A43A0F844207047E5
:104920004FF6FF71818000210180C18041800172BA
:1049300070470021018041808180C18001814181D7
:104940008181C181704700210180418001218180E6
:104950000021C18001817047002101804180818058
:10496000C18001814181818170470000002C01409C
:10497000003401400004004000080040000C0040EA
:1049800021B1028842F00102028004E002884FF661
:10499000FE731A400280704731B1B0F8442042F4EF
:1049A0000042A0F8442005E0B0F84420C2F30E0213
:1049B000A0F8442070471AB183890B43838102E039
:1049C00083898B43838170478182704741EA020368
:1049D000A0F8483070471AB183890B43838102E005
:1049E00083898B438381704701894FF6F8721140A8
:1049F000018170470A46002101894FF68F731940E3
:104A000011430181704730B504460D4629462046C2
:104A1000FFF7F0FF208940F00700208130BD2DE92D
:104A2000F04104460D4616461F46602D06D13B4612
:104A3000012231462046FFF75AFE05E03B4601229F
:104A400031462046FFF79DFE29462046FFF7D2FF5C
:104A5000208940F007002081BDE8F08130B50C4688
:104A600000210189C9B24FF6FF7505EA03251543F8
:104A700025432943018130BD2DE9F04105460E460D
:104A800017469846002443463A4631462846FFF7E3
:104A9000E5FF2C894FF6F870044044F007044FF608
:104AA0008F70044044F070042C81BDE8F081F0B5B3
:104AB00004460D4616461F463B46324629462046CA
:104AC000FFF7CCFF208940F480402081F0BD0185B4
:104AD000828270470A46002101884FF68F73194081
:104AE000114301807047F0B50C4615461E46002163
:104AF000002200230189028B038C4FF6F87739409E
:104B000021434FF6FC473A4040F201173A434FF633
:104B1000DD773B404FF6FF7707EA06172F433B430D
:104B2000018102830384F0BD0A460021018B4FF608
:104B30008F7319401143018370470A460021018B8E
:104B400048F6FF7319404FF6FF7303EA0223194337
:104B5000018370470A460021818B4FF68F731940FD
:104B60001143818370470A460021818B48F6FF7309
:104B700019404FF6FF7303EA0223194381837047FC
:104B800021B1028842F08002028004E002884FF6E0
:104B90007F731A400280704721B1828842F004027C
:104BA000828004E082884FF6FB731A40828070474F
:104BB00021B1828842F00802828004E082884FF6A8
:104BC000F7731A408280704721B1828842F0010257
:104BD000828004E082884FF6FE731A40828070471C
:104BE0000A460021018B4FF6F773194011430183E8
:104BF00070470A460021018B4FF2FF7319404FF6B0
:104C0000FF7303EA02231943018370470A46002118
:104C1000818B4FF6F77319401143818370470A4621
:104C20000021818B4FF2FF7319404FF6FF7303EAA7
:104C300002231943818370470A460021018B4FF6F6
:104C4000FB7319401143018370470A460021018B11
:104C50004FF6FF3319404FF6FF7303EA022319435F
:104C6000018370470A460021818B4FF6FB73194080
:104C70001143818370470A460021818B4FF6FF3331
:104C800019404FF6FF7303EA0223194381837047EB
:104C90000A460021018B4FF67F73194011430183AF
:104CA00070470A460021018BC1F30E014FF6FF73D6
:104CB00003EA02231943018370470A460021818BCE
:104CC0004FF67F7319401143818370470A460021D4
:104CD000818BC1F30E014FF6FF7303EA02231943E0
:104CE000818370470A460021018C4FF6FD731940FD
:104CF0001143018470470A460021018C4FF6F77377
:104D000019401143018470470A460021018C4FF677
:104D1000DF7319404FF6FF7303EA0213194301844E
:104D200070470A460021018C4FF67F7319404FF6F9
:104D3000FF7303EA02131943018470470A460021F6
:104D4000018C4FF6FF5319404FF6FF7303EA02231D
:104D50001943018470470A460021018C4FF2FF730A
:104D600019404FF6FF7303EA022319430184704789
:104D70000A460021018C4DF6FF7319404FF6FF7370
:104D800003EA023319430184704730B5002301243C
:104D90008C40A3B2048C9C430484048C02FA01F579
:104DA000ADB22C43048430BD30B5002304248C40C4
:104DB000A3B2048C9C430484048C02FA01F5ADB2C6
:104DC0002C43048430BD70B50346002000241846EF
:104DD000183001258D40ACB21D8CA5431D8409B14E
:104DE000082909D100EB6100056825F07005056010
:104DF0000568154305600EE00D1FC5F34E052844F8
:104E0000056825F4E045056005684FF6FF7606EA7B
:104E100002263543056070BD21B1028842F00202CE
:104E2000028004E002884FF6FD731A40028070474A
:104E300021B1028842F00402028004E002884FF6A9
:104E4000FB731A400280704721B1828842F08002D1
:104E5000828004E082884FF67F731A408280704718
:104E600002884FF6F7731A40028002880A430280D4
:104E7000704782884FF68F731A40828082880A4377
:104E80008280704702894FF6F8731A4002810289C6
:104E90000A430281704702894FF67F731A400281EC
:104EA00002890A4302817047818470478185704777
:104EB000818670470187704781877047A0F840104E
:104EC000704702884FF6FF431A40028002880A4367
:104ED000028070470146888E70470146088F7047F0
:104EE0000146888F70470146B1F84000704701467F
:104EF000888C70470146088D704702460020138A4F
:104F00000B400BB1012000E000207047CA43028231
:104F1000704730B50246002000230024158A05EAB8
:104F20000103958905EA010413B10CB1012000E0E9
:104F3000002030BDCA4302827047000010B504460D
:104F4000FA48844208D101214015FEF79BFE00215A
:104F50006015FEF797FE17E0F548844208D101215D
:104F60000015FEF78FFE00212015FEF78BFE0BE0EB
:104F7000F048844208D10121C803FEF783FE0021D6
:104F80004FF40040FEF77EFE10BD30B50246002013
:104F900000235068E84C20400D790C6844EA052451
:104FA000204350609068E54C2040D1E902542C43E6
:104FB0004D7944EA450420439060D06A20F47000A3
:104FC0000C7C641EE4B2234340EA0350D06230BD3F
:104FD00000210160017141718160C1600121017492
:104FE000704721B1826842F00102826003E082686A
:104FF00022F001028260704721B1826842F480721F
:10500000826003E0826822F480728260704710B58B
:105010000023CBB21AB144681C43446002E04468E8
:105020009C43446010BD816841F008018160704775
:10503000014600208A6802F008020AB1012000E05F
:1050400000207047816841F004018160704701468B
:1050500000208A6802F004020AB1012000E000206A
:10506000704721B1826842F4A002826003E0826846
:1050700022F4A00282607047014600208A6802F490
:1050800080020AB1012000E00020704710B50A46F6
:1050900000210023416821F46041531E41EA43315D
:1050A000416010BD21B1426842F40062426003E0F9
:1050B000426822F4006242607047F0B504460D4633
:1050C00000200021092D11DDE068A5F10A0606EB9C
:1050D0004607072606FA07F18843A5F10A0606EBFC
:1050E000460603FA06F10843E0600CE0206905EB90
:1050F0004507072606FA07F1884305EB450603FA3C
:1051000006F108432061072A0FDA606B561E06EB92
:1051100086071F2606FA07F18843561E06EB860609
:1051200005FA06F10843606322E00D2A0FDA206BCE
:10513000D61F06EB86071F2606FA07F18843D61FFF
:1051400006EB860605FA06F10843206310E0E06AE4
:10515000A2F10D0606EB86071F2606FA07F1884323
:10516000A2F10D0606EB860605FA06F10843E06299
:10517000F0BD21B1826842F48012826003E082684F
:1051800022F48012826070470146C86C80B270477A
:1051900066484C300068704721B1426842F4806232
:1051A000426003E0426822F480624260704721B1AD
:1051B000426842F48052426003E0426822F4805226
:1051C000426070470A460021816821F4E0411143A2
:1051D0008160704721B1826842F40042826003E03E
:1051E000826822F400428260704721B1826842F4F2
:1051F0000212826003E0826822F402128260704729
:10520000014600208A6802F400120AB1012000E081
:1052100000207047F0B50446154600200022002605
:10522000092911DDE068A1F10A0707EB470C072700
:1052300007FA0CF29043A1F10A0707EB470703FABC
:1052400007F21043E0600CE0206901EB410C0727F6
:1052500007FA0CF2904301EB410703FA07F21043FF
:105260002061A06BC0F30156EF1C06F1010CA7EB07
:105270000C0707EB870C1F2707FA0CF29043EF1C73
:1052800006F1010CA7EB0C0707EB870701FA07F201
:105290001043A063F0BD10B50A4600210023816BC6
:1052A00021F44011531E41EA0351816310BD08B53A
:1052B000002300930090009B0B440093009B1A6016
:1052C00008BD08B5024600200090009201F12800B8
:1052D000009B184400900098006880B208BD0A4600
:1052E00000214168164B19401143416070474162EB
:1052F000826270470A460021416821F01F01114374
:105300004160704740B109490831096841F4000122
:10531000064A0832116007E004490831096821F49F
:105320000001024A08321160704700000024014069
:1053300000280140003C0140FFFEF0FFFDF7F1FFB7
:10534000FFFD3FFF0246002013680B400BB1012018
:1053500000E000207047CA430260704770B5024603
:105360000020002300240B125568CEB205EA060483
:1053700015681D4015B10CB1012000E0002070BD82
:1053800000220A12D34303607047000001684FF601
:10539000FE72114001600021016041608160C160C6
:1053A0008D49884208D18C490839496841F00F017C
:1053B000894A083A51608AE087491431884208D105
:1053C00085490839496841F0F001834A083A51603B
:1053D0007DE081492831884208D17F4908394968F0
:1053E00041F470617C4A083A516070E07A493C317E
:1053F000884208D178490839496841F47041764AB1
:10540000083A516063E074495031884208D17249CA
:105410000839496841F470216F4A083A516056E0F2
:105420006D496431884208D16B490839496841F4B3
:105430007001694A083A516049E067497831884209
:1054400008D165490839496841F07061624A083AF3
:1054500051603CE06149884206D1011F096841F072
:105460000F01021F116032E05C491431884208D1FB
:105470005A49091F096841F0F001584A121F11608A
:1054800025E056492831884208D15449091F096846
:1054900041F47061514A121F116018E04F493C31CC
:1054A000884208D14D49091F096841F470414B4AAF
:1054B000121F11600BE049495031884207D147491A
:1054C000091F096841F47021444A121F1160704796
:1054D00010B50022026847F6F0739A430C6A8B6895
:1054E00023430C6923434C6923438C692343CC69D0
:1054F00023434C6A23438C6A23431A430260CB68DC
:1055000043600B6883604B68C36010BD002101607D
:1055100041608160C160016141618161C16101627D
:1055200041628162704721B1026842F0010202606B
:1055300004E002684FF6FE731A40026070471AB129
:1055400003680B43036002E003688B43036070470A
:10555000416070470146486880B2704701460020AC
:10556000002201F080531BB11C4B083B1A6802E07B
:10557000194B083B1A6802EA01030BB1012000E055
:105580000020704700F0805119B11449091F0860CC
:1055900002E01149083948607047014600200022A6
:1055A00001F080531BB10D4B083B1A6802E00A4B17
:1055B000083B1A6802EA01030BB1012000E0002059
:1055C000704700F0805119B10449091F086002E0DA
:1055D0000149083948607047080002400804024049
:1055E000002044490860091D0860091D0860091D64
:1055F000086041483F4914310860704700213D4927
:105600008279002A3AD00A46126803689A430B4608
:105610001A600A1D126803689A430B1D1A6002790A
:1056200011440A6803681A430A60324A0832126851
:1056300003689A432F4B08331A601A1D12680368D7
:105640009A432C4B0C331A604279102A0ED11A1F40
:10565000126803681A43274B08331A601A1D126830
:1056600003681A43234B0C331A600DE02149427939
:1056700011440A6803681A430A6005E0027911447C
:105680000A6803689A430A6070470021016001714B
:105690000C21417100218171704716491031096850
:1056A0000143144A10321160704701460020114A2C
:1056B000143212680A400AB1012000E0002070474D
:1056C0000C49143108607047014600200022094B44
:1056D0001B6803EA0102074B14331B680B4013B12C
:1056E0000AB1012000E0002070470249143108602F
:1056F0007047000000040140FFFF0F00014600203A
:10570000FE4A106800F03800084310607047FB49FB
:10571000096821F00801F94A11601146096801433E
:1057200011607047F549096821F01001F34A1160D2
:1057300011460968014311607047F148EF4948601C
:10574000F04848607047EE48EC494860ED484860D2
:105750007047EA48006940F08000E84908617047F6
:10576000E648006940F08000E44908617047042081
:10577000E249C96801F0010109B101200EE0DF49E9
:10578000C96801F0040109B1022007E0DB49C968DA
:1057900001F0100109B1032000E00420704700B5BA
:1057A00002460423FFF7E3FF034603E0FFF7DFFFB2
:1057B0000346521E012B01D1002AF7D102B905235D
:1057C000184600BD30B5044604254FF43020FFF7DD
:1057D000E6FF0546042D17D1C848006940F00200D5
:1057E000C649086108464461006940F0400008610C
:1057F0004FF43020FFF7D3FF0546C048006941F65B
:10580000FD710840BD490861284630BD10B504242B
:105810004FF43020FFF7C3FF0446042C16D1B748DD
:10582000006940F00400B54908610846006940F08D
:10583000400008614FF43020FFF7B1FF0446AF4845
:10584000006941F6FB710840AC490861204610BD73
:1058500000B502460423FFF78AFF034603E0FFF783
:1058600086FF0346521E012B01D1002AF7D102B94F
:105870000523184600BD10B504244FF43020FFF76F
:10588000E7FF0446042C16D19C48006940F0040050
:105890009A4908610846006940F0400008614FF4E9
:1058A0003020FFF7D5FF04469448006941F6FB71AC
:1058B000084092490861204610BD00208F49C969FF
:1058C00001F0020109B1012000E00020704730B56D
:1058D000A5250424FFF7F1FF00B100254FF4302087
:1058E000FFF75DFF0446042C3AD185488349886060
:1058F000844888600846006940F020000861084636
:10590000006940F0400008614FF43020FFF747FF86
:105910000446042C1BD17948006941F6DF71084028
:10592000764908610846006940F010000861764831
:105930000580E002FFF733FF0446052C10D06F48C6
:10594000006941F6EF7108406C49086108E0052CD8
:1059500006D06A48006941F6EF710840674908615E
:10596000204630BD78B506460C4604250020009040
:10597000E802FFF714FF0546042D24D15F480069B3
:1059800040F001005D4908613480E802FFF707FF3D
:105990000546042D10D1B01C0090200C0099088001
:1059A000E802FFF7FCFE05465448006941F6FE7127
:1059B00008405249086106E05048006941F6FE710E
:1059C00008404E490861284678BD70B504460D462A
:1059D0000426F002FFF7E3FE0646042E11D14748E5
:1059E000006940F00100454908612580F002FFF799
:1059F000D6FE06464148006941F6FE7108403F491F
:105A00000861304670BD70B505460E460424E002BC
:105A1000FFF7C5FE0446042C17D139483749886082
:105A2000384888600846006940F0100008612E8000
:105A3000E002FFF7B4FE0446052C06D02F480069AB
:105A400041F6EF7108402D490861204670BD2DE9EF
:105A5000F04304464FF6FF763746B046B14604257C
:105A6000E443E6B2C4F30727C4F307484FEA1469D6
:105A7000E802FFF794FE0546042D49D120481F494E
:105A80008860204888600846006940F0100008617E
:105A9000FF2E06D01C4808300680E802FFF77FFE84
:105AA0000546042D08D1FF2F06D017480A3007807D
:105AB000E802FFF774FE0546042D0AD1B8F1FF0F86
:105AC00007D011480C30A0F80080E802FFF767FE0D
:105AD0000546042D0AD1B9F1FF0F07D00A480E3050
